{
  "address": "0x67AE877147b7d275198aDBA06A60f97965C0dFF6",
  "abi": [
    {
      "inputs": [],
      "stateMutability": "nonpayable",
      "type": "constructor"
    },
    {
      "anonymous": false,
      "inputs": [
        {
          "indexed": false,
          "internalType": "address",
          "name": "operatorContract",
          "type": "address"
        }
      ],
      "name": "OperatorContractApproved",
      "type": "event"
    },
    {
      "inputs": [
        {
          "internalType": "address",
          "name": "operatorContract",
          "type": "address"
        }
      ],
      "name": "approveOperatorContract",
      "outputs": [],
      "stateMutability": "nonpayable",
      "type": "function"
    },
    {
      "inputs": [],
      "name": "registryKeeper",
      "outputs": [
        {
          "internalType": "address",
          "name": "",
          "type": "address"
        }
      ],
      "stateMutability": "view",
      "type": "function"
    }
  ],
  "transactionHash": "0xf8d32d40cbaa69337c9ca4cfd8cefe4bb9da8d680ccf9312b4fea4cc3fd29086",
  "args": [],
  "solcInputHash": "22c1c09bba6d1078c29775cc67829122",
  "bytecode": "0x608060405234801561001057600080fd5b50600080546001600160a01b0319163317905561011e806100326000396000f3fe6080604052348015600f57600080fd5b506004361060325760003560e01c806302db580b14603757806384c07bd2146048575b600080fd5b6046604236600460a6565b606e565b005b600054605a906001600160a01b031681565b6040516065919060d4565b60405180910390f35b7fb5d7fbd1d67a09be2dd3ba169be0ebfb43f1d3fd31b12e9dc9e5bd98517bfafb81604051609b919060d4565b60405180910390a150565b60006020828403121560b757600080fd5b81356001600160a01b038116811460cd57600080fd5b9392505050565b6001600160a01b039190911681526020019056fea264697066735822122099811ea4dbe47872529de378d38cdf9484881cfa4ef029cd7915ca8cddc254cf64736f6c63430008090033",
  "devdoc": {
    "kind": "dev",
    "methods": {},
    "version": 1
  },
  "userdoc": {
    "kind": "user",
    "methods": {},
    "version": 1
  },
  "storageLayout": {
    "storage": [
      {
        "astId": 16763,
        "contract": "contracts/test/KeepRegistryStub.sol:KeepRegistryStub",
        "label": "registryKeeper",
        "offset": 0,
        "slot": "0",
        "type": "t_address"
      }
    ],
    "types": {
      "t_address": {
        "encoding": "inplace",
        "label": "address",
        "numberOfBytes": "20"
      }
    }
  }
}