{
  "address": "0xD3D045370adF429C20C52EC16683E6637a2a7C09",
  "abi": [
    {
      "inputs": [
        {
          "internalType": "address",
          "name": "staker",
          "type": "address"
        }
      ],
      "name": "getAllTokens",
      "outputs": [
        {
          "internalType": "uint256",
          "name": "",
          "type": "uint256"
        }
      ],
      "stateMutability": "view",
      "type": "function"
    },
    {
      "inputs": [
        {
          "internalType": "address",
          "name": "",
          "type": "address"
        }
      ],
      "name": "investigators",
      "outputs": [
        {
          "internalType": "uint256",
          "name": "",
          "type": "uint256"
        }
      ],
      "stateMutability": "view",
      "type": "function"
    },
    {
      "inputs": [
        {
          "internalType": "address",
          "name": "staker",
          "type": "address"
        },
        {
          "internalType": "address",
          "name": "stakingProvider",
          "type": "address"
        }
      ],
      "name": "requestMerge",
      "outputs": [
        {
          "internalType": "uint256",
          "name": "",
          "type": "uint256"
        }
      ],
      "stateMutability": "nonpayable",
      "type": "function"
    },
    {
      "inputs": [
        {
          "internalType": "address",
          "name": "staker",
          "type": "address"
        },
        {
          "internalType": "uint256",
          "name": "value",
          "type": "uint256"
        }
      ],
      "name": "setStaker",
      "outputs": [],
      "stateMutability": "nonpayable",
      "type": "function"
    },
    {
      "inputs": [
        {
          "internalType": "address",
          "name": "staker",
          "type": "address"
        },
        {
          "internalType": "uint256",
          "name": "penalty",
          "type": "uint256"
        },
        {
          "internalType": "address",
          "name": "investigator",
          "type": "address"
        },
        {
          "internalType": "uint256",
          "name": "reward",
          "type": "uint256"
        }
      ],
      "name": "slashStaker",
      "outputs": [],
      "stateMutability": "nonpayable",
      "type": "function"
    },
    {
      "inputs": [
        {
          "internalType": "address",
          "name": "staker",
          "type": "address"
        }
      ],
      "name": "stakerInfo",
      "outputs": [
        {
          "components": [
            {
              "internalType": "uint256",
              "name": "value",
              "type": "uint256"
            },
            {
              "internalType": "address",
              "name": "stakingProvider",
              "type": "address"
            }
          ],
          "internalType": "struct NuCypherTokenStakingMock.StakerStruct",
          "name": "",
          "type": "tuple"
        }
      ],
      "stateMutability": "view",
      "type": "function"
    },
    {
      "inputs": [
        {
          "internalType": "address",
          "name": "",
          "type": "address"
        }
      ],
      "name": "stakers",
      "outputs": [
        {
          "internalType": "uint256",
          "name": "value",
          "type": "uint256"
        },
        {
          "internalType": "address",
          "name": "stakingProvider",
          "type": "address"
        }
      ],
      "stateMutability": "view",
      "type": "function"
    }
  ],
  "transactionHash": "0xfb4241f2ced23d95a3c6d46c52d443a20c7835f0cbd7e5b0e447652a3991b8f3",
  "args": [],
  "solcInputHash": "22c1c09bba6d1078c29775cc67829122",
  "bytecode": "0x608060405234801561001057600080fd5b506104f7806100206000396000f3fe608060405234801561001057600080fd5b506004361061006d5760003560e01c8063178b6de6146100725780633223ff4b146100ae5780633d4fa8e5146100c15780634e745f1f146100ed5780637da5f6a6146101655780639168ae721461018557806399cc218c146101d2575b600080fd5b61009b6100803660046103b9565b6001600160a01b031660009081526020819052604090205490565b6040519081526020015b60405180910390f35b61009b6100bc3660046103db565b6101e5565b6100eb6100cf36600461040e565b6001600160a01b03909116600090815260208190526040902055565b005b6101416100fb3660046103b9565b604080518082018252600080825260209182018190526001600160a01b039384168152808252829020825180840190935280548352600101549092169181019190915290565b60408051825181526020928301516001600160a01b031692810192909252016100a5565b61009b6101733660046103b9565b60016020526000908152604090205481565b6101b56101933660046103b9565b600060208190529081526040902080546001909101546001600160a01b031682565b604080519283526001600160a01b039091166020830152016100a5565b6100eb6101e0366004610438565b6102db565b6001600160a01b038083166000908152602081905260408120600181015491929091161580610223575060018101546001600160a01b038481169116145b61028d5760405162461bcd60e51b815260206004820152603060248201527f416e6f746865722070726f76696465722077617320616c72656164792073657460448201526f103337b9103a3434b99039ba30b5b2b960811b60648201526084015b60405180910390fd5b60018101546001600160a01b03166102bd576001810180546001600160a01b0319166001600160a01b0385161790555b5050506001600160a01b031660009081526020819052604090205490565b6000831161033d5760405162461bcd60e51b815260206004820152602960248201527f416d6f756e7420746f20736c617368206d7573742062652067726561746572206044820152687468616e207a65726f60b81b6064820152608401610284565b6001600160a01b03841660009081526020819052604081208054859290610365908490610492565b90915550506001600160a01b038216600090815260016020526040812080548392906103929084906104a9565b909155505050505050565b80356001600160a01b03811681146103b457600080fd5b919050565b6000602082840312156103cb57600080fd5b6103d48261039d565b9392505050565b600080604083850312156103ee57600080fd5b6103f78361039d565b91506104056020840161039d565b90509250929050565b6000806040838503121561042157600080fd5b61042a8361039d565b946020939093013593505050565b6000806000806080858703121561044e57600080fd5b6104578561039d565b93506020850135925061046c6040860161039d565b9396929550929360600135925050565b634e487b7160e01b600052601160045260246000fd5b6000828210156104a4576104a461047c565b500390565b600082198211156104bc576104bc61047c565b50019056fea2646970667358221220b79a2f8e42bb939e0b59811c963cc2d5dac4763c1b610c581d9c1a3285ede2e764736f6c63430008090033",
  "devdoc": {
    "kind": "dev",
    "methods": {
      "slashStaker(address,uint256,address,uint256)": {
        "params": {
          "investigator": "Investigator",
          "penalty": "Penalty",
          "reward": "Reward for the investigator",
          "staker": "Staker's address"
        }
      }
    },
    "version": 1
  },
  "userdoc": {
    "kind": "user",
    "methods": {
      "getAllTokens(address)": {
        "notice": "Get all tokens belonging to the staker"
      },
      "requestMerge(address,address)": {
        "notice": "Request merge between NuCypher staking contract and T staking contract.         Returns amount of staked tokens"
      },
      "slashStaker(address,uint256,address,uint256)": {
        "notice": "Slash the staker's stake and reward the investigator"
      }
    },
    "version": 1
  },
  "storageLayout": {
    "storage": [
      {
        "astId": 17639,
        "contract": "contracts/test/TokenStakingTestSet.sol:NuCypherTokenStakingMock",
        "label": "stakers",
        "offset": 0,
        "slot": "0",
        "type": "t_mapping(t_address,t_struct(StakerStruct)17634_storage)"
      },
      {
        "astId": 17643,
        "contract": "contracts/test/TokenStakingTestSet.sol:NuCypherTokenStakingMock",
        "label": "investigators",
        "offset": 0,
        "slot": "1",
        "type": "t_mapping(t_address,t_uint256)"
      }
    ],
    "types": {
      "t_address": {
        "encoding": "inplace",
        "label": "address",
        "numberOfBytes": "20"
      },
      "t_mapping(t_address,t_struct(StakerStruct)17634_storage)": {
        "encoding": "mapping",
        "key": "t_address",
        "label": "mapping(address => struct NuCypherTokenStakingMock.StakerStruct)",
        "numberOfBytes": "32",
        "value": "t_struct(StakerStruct)17634_storage"
      },
      "t_mapping(t_address,t_uint256)": {
        "encoding": "mapping",
        "key": "t_address",
        "label": "mapping(address => uint256)",
        "numberOfBytes": "32",
        "value": "t_uint256"
      },
      "t_struct(StakerStruct)17634_storage": {
        "encoding": "inplace",
        "label": "struct NuCypherTokenStakingMock.StakerStruct",
        "members": [
          {
            "astId": 17631,
            "contract": "contracts/test/TokenStakingTestSet.sol:NuCypherTokenStakingMock",
            "label": "value",
            "offset": 0,
            "slot": "0",
            "type": "t_uint256"
          },
          {
            "astId": 17633,
            "contract": "contracts/test/TokenStakingTestSet.sol:NuCypherTokenStakingMock",
            "label": "stakingProvider",
            "offset": 0,
            "slot": "1",
            "type": "t_address"
          }
        ],
        "numberOfBytes": "64"
      },
      "t_uint256": {
        "encoding": "inplace",
        "label": "uint256",
        "numberOfBytes": "32"
      }
    }
  }
}