{
  "address": "0xF994346eE5dc00E84326810c237c4EE6F71C6f3D",
  "abi": [
    {
      "inputs": [
        {
          "internalType": "contract SortitionPool",
          "name": "_sortitionPool",
          "type": "address"
        },
        {
          "internalType": "contract IERC20",
          "name": "_tToken",
          "type": "address"
        },
        {
          "internalType": "contract IStaking",
          "name": "_staking",
          "type": "address"
        },
        {
          "internalType": "contract BeaconDkgValidator",
          "name": "_dkgValidator",
          "type": "address"
        },
        {
          "internalType": "contract ReimbursementPool",
          "name": "_reimbursementPool",
          "type": "address"
        }
      ],
      "stateMutability": "nonpayable",
      "type": "constructor"
    },
    {
      "anonymous": false,
      "inputs": [
        {
          "indexed": true,
          "internalType": "address",
          "name": "stakingProvider",
          "type": "address"
        }
      ],
      "name": "AuthorizationDecreaseApproved",
      "type": "event"
    },
    {
      "anonymous": false,
      "inputs": [
        {
          "indexed": true,
          "internalType": "address",
          "name": "stakingProvider",
          "type": "address"
        },
        {
          "indexed": true,
          "internalType": "address",
          "name": "operator",
          "type": "address"
        },
        {
          "indexed": false,
          "internalType": "uint96",
          "name": "fromAmount",
          "type": "uint96"
        },
        {
          "indexed": false,
          "internalType": "uint96",
          "name": "toAmount",
          "type": "uint96"
        },
        {
          "indexed": false,
          "internalType": "uint64",
          "name": "decreasingAt",
          "type": "uint64"
        }
      ],
      "name": "AuthorizationDecreaseRequested",
      "type": "event"
    },
    {
      "anonymous": false,
      "inputs": [
        {
          "indexed": true,
          "internalType": "address",
          "name": "stakingProvider",
          "type": "address"
        },
        {
          "indexed": true,
          "internalType": "address",
          "name": "operator",
          "type": "address"
        },
        {
          "indexed": false,
          "internalType": "uint96",
          "name": "fromAmount",
          "type": "uint96"
        },
        {
          "indexed": false,
          "internalType": "uint96",
          "name": "toAmount",
          "type": "uint96"
        }
      ],
      "name": "AuthorizationIncreased",
      "type": "event"
    },
    {
      "anonymous": false,
      "inputs": [
        {
          "indexed": false,
          "internalType": "uint96",
          "name": "minimumAuthorization",
          "type": "uint96"
        },
        {
          "indexed": false,
          "internalType": "uint64",
          "name": "authorizationDecreaseDelay",
          "type": "uint64"
        },
        {
          "indexed": false,
          "internalType": "uint64",
          "name": "authorizationDecreaseChangePeriod",
          "type": "uint64"
        }
      ],
      "name": "AuthorizationParametersUpdated",
      "type": "event"
    },
    {
      "anonymous": false,
      "inputs": [
        {
          "indexed": false,
          "internalType": "uint256",
          "name": "entry",
          "type": "uint256"
        },
        {
          "indexed": false,
          "internalType": "uint256",
          "name": "entrySubmittedBlock",
          "type": "uint256"
        }
      ],
      "name": "CallbackFailed",
      "type": "event"
    },
    {
      "anonymous": false,
      "inputs": [
        {
          "indexed": true,
          "internalType": "bytes32",
          "name": "resultHash",
          "type": "bytes32"
        },
        {
          "indexed": false,
          "internalType": "uint256",
          "name": "slashingAmount",
          "type": "uint256"
        },
        {
          "indexed": false,
          "internalType": "address",
          "name": "maliciousSubmitter",
          "type": "address"
        }
      ],
      "name": "DkgMaliciousResultSlashed",
      "type": "event"
    },
    {
      "anonymous": false,
      "inputs": [
        {
          "indexed": true,
          "internalType": "bytes32",
          "name": "resultHash",
          "type": "bytes32"
        },
        {
          "indexed": false,
          "internalType": "uint256",
          "name": "slashingAmount",
          "type": "uint256"
        },
        {
          "indexed": false,
          "internalType": "address",
          "name": "maliciousSubmitter",
          "type": "address"
        }
      ],
      "name": "DkgMaliciousResultSlashingFailed",
      "type": "event"
    },
    {
      "anonymous": false,
      "inputs": [
        {
          "indexed": true,
          "internalType": "bytes32",
          "name": "resultHash",
          "type": "bytes32"
        },
        {
          "indexed": true,
          "internalType": "address",
          "name": "approver",
          "type": "address"
        }
      ],
      "name": "DkgResultApproved",
      "type": "event"
    },
    {
      "anonymous": false,
      "inputs": [
        {
          "indexed": true,
          "internalType": "bytes32",
          "name": "resultHash",
          "type": "bytes32"
        },
        {
          "indexed": true,
          "internalType": "address",
          "name": "challenger",
          "type": "address"
        },
        {
          "indexed": false,
          "internalType": "string",
          "name": "reason",
          "type": "string"
        }
      ],
      "name": "DkgResultChallenged",
      "type": "event"
    },
    {
      "anonymous": false,
      "inputs": [
        {
          "indexed": true,
          "internalType": "bytes32",
          "name": "resultHash",
          "type": "bytes32"
        },
        {
          "indexed": true,
          "internalType": "uint256",
          "name": "seed",
          "type": "uint256"
        },
        {
          "components": [
            {
              "internalType": "uint256",
              "name": "submitterMemberIndex",
              "type": "uint256"
            },
            {
              "internalType": "bytes",
              "name": "groupPubKey",
              "type": "bytes"
            },
            {
              "internalType": "uint8[]",
              "name": "misbehavedMembersIndices",
              "type": "uint8[]"
            },
            {
              "internalType": "bytes",
              "name": "signatures",
              "type": "bytes"
            },
            {
              "internalType": "uint256[]",
              "name": "signingMembersIndices",
              "type": "uint256[]"
            },
            {
              "internalType": "uint32[]",
              "name": "members",
              "type": "uint32[]"
            },
            {
              "internalType": "bytes32",
              "name": "membersHash",
              "type": "bytes32"
            }
          ],
          "indexed": false,
          "internalType": "struct BeaconDkg.Result",
          "name": "result",
          "type": "tuple"
        }
      ],
      "name": "DkgResultSubmitted",
      "type": "event"
    },
    {
      "anonymous": false,
      "inputs": [],
      "name": "DkgSeedTimedOut",
      "type": "event"
    },
    {
      "anonymous": false,
      "inputs": [
        {
          "indexed": true,
          "internalType": "uint256",
          "name": "seed",
          "type": "uint256"
        }
      ],
      "name": "DkgStarted",
      "type": "event"
    },
    {
      "anonymous": false,
      "inputs": [],
      "name": "DkgStateLocked",
      "type": "event"
    },
    {
      "anonymous": false,
      "inputs": [],
      "name": "DkgTimedOut",
      "type": "event"
    },
    {
      "anonymous": false,
      "inputs": [
        {
          "indexed": false,
          "internalType": "uint256",
          "name": "dkgResultSubmissionGas",
          "type": "uint256"
        },
        {
          "indexed": false,
          "internalType": "uint256",
          "name": "dkgResultApprovalGasOffset",
          "type": "uint256"
        },
        {
          "indexed": false,
          "internalType": "uint256",
          "name": "notifyOperatorInactivityGasOffset",
          "type": "uint256"
        },
        {
          "indexed": false,
          "internalType": "uint256",
          "name": "relayEntrySubmissionGasOffset",
          "type": "uint256"
        }
      ],
      "name": "GasParametersUpdated",
      "type": "event"
    },
    {
      "anonymous": false,
      "inputs": [
        {
          "indexed": false,
          "internalType": "address",
          "name": "oldGovernance",
          "type": "address"
        },
        {
          "indexed": false,
          "internalType": "address",
          "name": "newGovernance",
          "type": "address"
        }
      ],
      "name": "GovernanceTransferred",
      "type": "event"
    },
    {
      "anonymous": false,
      "inputs": [
        {
          "indexed": false,
          "internalType": "uint256",
          "name": "groupCreationFrequency",
          "type": "uint256"
        },
        {
          "indexed": false,
          "internalType": "uint256",
          "name": "groupLifetime",
          "type": "uint256"
        },
        {
          "indexed": false,
          "internalType": "uint256",
          "name": "dkgResultChallengePeriodLength",
          "type": "uint256"
        },
        {
          "indexed": false,
          "internalType": "uint256",
          "name": "dkgResultChallengeExtraGas",
          "type": "uint256"
        },
        {
          "indexed": false,
          "internalType": "uint256",
          "name": "dkgResultSubmissionTimeout",
          "type": "uint256"
        },
        {
          "indexed": false,
          "internalType": "uint256",
          "name": "dkgResultSubmitterPrecedencePeriodLength",
          "type": "uint256"
        }
      ],
      "name": "GroupCreationParametersUpdated",
      "type": "event"
    },
    {
      "anonymous": false,
      "inputs": [
        {
          "indexed": true,
          "internalType": "uint64",
          "name": "groupId",
          "type": "uint64"
        },
        {
          "indexed": true,
          "internalType": "bytes",
          "name": "groupPubKey",
          "type": "bytes"
        }
      ],
      "name": "GroupRegistered",
      "type": "event"
    },
    {
      "anonymous": false,
      "inputs": [
        {
          "indexed": true,
          "internalType": "uint64",
          "name": "groupId",
          "type": "uint64"
        },
        {
          "indexed": false,
          "internalType": "uint256",
          "name": "nonce",
          "type": "uint256"
        },
        {
          "indexed": false,
          "internalType": "address",
          "name": "notifier",
          "type": "address"
        }
      ],
      "name": "InactivityClaimed",
      "type": "event"
    },
    {
      "anonymous": false,
      "inputs": [
        {
          "indexed": true,
          "internalType": "address",
          "name": "stakingProvider",
          "type": "address"
        },
        {
          "indexed": true,
          "internalType": "address",
          "name": "operator",
          "type": "address"
        },
        {
          "indexed": false,
          "internalType": "uint96",
          "name": "fromAmount",
          "type": "uint96"
        },
        {
          "indexed": false,
          "internalType": "uint96",
          "name": "toAmount",
          "type": "uint96"
        }
      ],
      "name": "InvoluntaryAuthorizationDecreaseFailed",
      "type": "event"
    },
    {
      "anonymous": false,
      "inputs": [
        {
          "indexed": true,
          "internalType": "address",
          "name": "stakingProvider",
          "type": "address"
        },
        {
          "indexed": true,
          "internalType": "address",
          "name": "operator",
          "type": "address"
        }
      ],
      "name": "OperatorJoinedSortitionPool",
      "type": "event"
    },
    {
      "anonymous": false,
      "inputs": [
        {
          "indexed": true,
          "internalType": "address",
          "name": "stakingProvider",
          "type": "address"
        },
        {
          "indexed": true,
          "internalType": "address",
          "name": "operator",
          "type": "address"
        }
      ],
      "name": "OperatorRegistered",
      "type": "event"
    },
    {
      "anonymous": false,
      "inputs": [
        {
          "indexed": true,
          "internalType": "address",
          "name": "stakingProvider",
          "type": "address"
        },
        {
          "indexed": true,
          "internalType": "address",
          "name": "operator",
          "type": "address"
        }
      ],
      "name": "OperatorStatusUpdated",
      "type": "event"
    },
    {
      "anonymous": false,
      "inputs": [
        {
          "indexed": false,
          "internalType": "address",
          "name": "newReimbursementPool",
          "type": "address"
        }
      ],
      "name": "ReimbursementPoolUpdated",
      "type": "event"
    },
    {
      "anonymous": false,
      "inputs": [
        {
          "indexed": true,
          "internalType": "uint256",
          "name": "requestId",
          "type": "uint256"
        },
        {
          "indexed": false,
          "internalType": "uint256",
          "name": "slashingAmount",
          "type": "uint256"
        },
        {
          "indexed": false,
          "internalType": "address[]",
          "name": "groupMembers",
          "type": "address[]"
        }
      ],
      "name": "RelayEntryDelaySlashed",
      "type": "event"
    },
    {
      "anonymous": false,
      "inputs": [
        {
          "indexed": true,
          "internalType": "uint256",
          "name": "requestId",
          "type": "uint256"
        },
        {
          "indexed": false,
          "internalType": "uint256",
          "name": "slashingAmount",
          "type": "uint256"
        },
        {
          "indexed": false,
          "internalType": "address[]",
          "name": "groupMembers",
          "type": "address[]"
        }
      ],
      "name": "RelayEntryDelaySlashingFailed",
      "type": "event"
    },
    {
      "anonymous": false,
      "inputs": [
        {
          "indexed": false,
          "internalType": "uint256",
          "name": "relayEntrySoftTimeout",
          "type": "uint256"
        },
        {
          "indexed": false,
          "internalType": "uint256",
          "name": "relayEntryHardTimeout",
          "type": "uint256"
        },
        {
          "indexed": false,
          "internalType": "uint256",
          "name": "callbackGasLimit",
          "type": "uint256"
        }
      ],
      "name": "RelayEntryParametersUpdated",
      "type": "event"
    },
    {
      "anonymous": false,
      "inputs": [
        {
          "indexed": true,
          "internalType": "uint256",
          "name": "requestId",
          "type": "uint256"
        },
        {
          "indexed": false,
          "internalType": "uint64",
          "name": "groupId",
          "type": "uint64"
        },
        {
          "indexed": false,
          "internalType": "bytes",
          "name": "previousEntry",
          "type": "bytes"
        }
      ],
      "name": "RelayEntryRequested",
      "type": "event"
    },
    {
      "anonymous": false,
      "inputs": [
        {
          "indexed": true,
          "internalType": "uint256",
          "name": "requestId",
          "type": "uint256"
        },
        {
          "indexed": false,
          "internalType": "address",
          "name": "submitter",
          "type": "address"
        },
        {
          "indexed": false,
          "internalType": "bytes",
          "name": "entry",
          "type": "bytes"
        }
      ],
      "name": "RelayEntrySubmitted",
      "type": "event"
    },
    {
      "anonymous": false,
      "inputs": [
        {
          "indexed": true,
          "internalType": "uint256",
          "name": "requestId",
          "type": "uint256"
        },
        {
          "indexed": false,
          "internalType": "uint64",
          "name": "terminatedGroupId",
          "type": "uint64"
        }
      ],
      "name": "RelayEntryTimedOut",
      "type": "event"
    },
    {
      "anonymous": false,
      "inputs": [
        {
          "indexed": true,
          "internalType": "uint256",
          "name": "requestId",
          "type": "uint256"
        },
        {
          "indexed": false,
          "internalType": "uint256",
          "name": "slashingAmount",
          "type": "uint256"
        },
        {
          "indexed": false,
          "internalType": "address[]",
          "name": "groupMembers",
          "type": "address[]"
        }
      ],
      "name": "RelayEntryTimeoutSlashed",
      "type": "event"
    },
    {
      "anonymous": false,
      "inputs": [
        {
          "indexed": true,
          "internalType": "uint256",
          "name": "requestId",
          "type": "uint256"
        },
        {
          "indexed": false,
          "internalType": "uint256",
          "name": "slashingAmount",
          "type": "uint256"
        },
        {
          "indexed": false,
          "internalType": "address[]",
          "name": "groupMembers",
          "type": "address[]"
        }
      ],
      "name": "RelayEntryTimeoutSlashingFailed",
      "type": "event"
    },
    {
      "anonymous": false,
      "inputs": [
        {
          "indexed": true,
          "internalType": "address",
          "name": "requester",
          "type": "address"
        },
        {
          "indexed": false,
          "internalType": "bool",
          "name": "isAuthorized",
          "type": "bool"
        }
      ],
      "name": "RequesterAuthorizationUpdated",
      "type": "event"
    },
    {
      "anonymous": false,
      "inputs": [
        {
          "indexed": false,
          "internalType": "uint256",
          "name": "sortitionPoolRewardsBanDuration",
          "type": "uint256"
        },
        {
          "indexed": false,
          "internalType": "uint256",
          "name": "relayEntryTimeoutNotificationRewardMultiplier",
          "type": "uint256"
        },
        {
          "indexed": false,
          "internalType": "uint256",
          "name": "unauthorizedSigningNotificationRewardMultiplier",
          "type": "uint256"
        },
        {
          "indexed": false,
          "internalType": "uint256",
          "name": "dkgMaliciousResultNotificationRewardMultiplier",
          "type": "uint256"
        }
      ],
      "name": "RewardParametersUpdated",
      "type": "event"
    },
    {
      "anonymous": false,
      "inputs": [
        {
          "indexed": true,
          "internalType": "address",
          "name": "stakingProvider",
          "type": "address"
        },
        {
          "indexed": false,
          "internalType": "uint96",
          "name": "amount",
          "type": "uint96"
        }
      ],
      "name": "RewardsWithdrawn",
      "type": "event"
    },
    {
      "anonymous": false,
      "inputs": [
        {
          "indexed": false,
          "internalType": "uint256",
          "name": "relayEntrySubmissionFailureSlashingAmount",
          "type": "uint256"
        },
        {
          "indexed": false,
          "internalType": "uint256",
          "name": "maliciousDkgResultSlashingAmount",
          "type": "uint256"
        },
        {
          "indexed": false,
          "internalType": "uint256",
          "name": "unauthorizedSigningSlashingAmount",
          "type": "uint256"
        }
      ],
      "name": "SlashingParametersUpdated",
      "type": "event"
    },
    {
      "anonymous": false,
      "inputs": [
        {
          "indexed": true,
          "internalType": "uint64",
          "name": "groupId",
          "type": "uint64"
        },
        {
          "indexed": false,
          "internalType": "uint256",
          "name": "unauthorizedSigningSlashingAmount",
          "type": "uint256"
        },
        {
          "indexed": false,
          "internalType": "address[]",
          "name": "groupMembers",
          "type": "address[]"
        }
      ],
      "name": "UnauthorizedSigningSlashed",
      "type": "event"
    },
    {
      "anonymous": false,
      "inputs": [
        {
          "indexed": true,
          "internalType": "uint64",
          "name": "groupId",
          "type": "uint64"
        },
        {
          "indexed": false,
          "internalType": "uint256",
          "name": "unauthorizedSigningSlashingAmount",
          "type": "uint256"
        },
        {
          "indexed": false,
          "internalType": "address[]",
          "name": "groupMembers",
          "type": "address[]"
        }
      ],
      "name": "UnauthorizedSigningSlashingFailed",
      "type": "event"
    },
    {
      "inputs": [
        {
          "internalType": "address",
          "name": "stakingProvider",
          "type": "address"
        }
      ],
      "name": "approveAuthorizationDecrease",
      "outputs": [],
      "stateMutability": "nonpayable",
      "type": "function"
    },
    {
      "inputs": [
        {
          "components": [
            {
              "internalType": "uint256",
              "name": "submitterMemberIndex",
              "type": "uint256"
            },
            {
              "internalType": "bytes",
              "name": "groupPubKey",
              "type": "bytes"
            },
            {
              "internalType": "uint8[]",
              "name": "misbehavedMembersIndices",
              "type": "uint8[]"
            },
            {
              "internalType": "bytes",
              "name": "signatures",
              "type": "bytes"
            },
            {
              "internalType": "uint256[]",
              "name": "signingMembersIndices",
              "type": "uint256[]"
            },
            {
              "internalType": "uint32[]",
              "name": "members",
              "type": "uint32[]"
            },
            {
              "internalType": "bytes32",
              "name": "membersHash",
              "type": "bytes32"
            }
          ],
          "internalType": "struct BeaconDkg.Result",
          "name": "dkgResult",
          "type": "tuple"
        }
      ],
      "name": "approveDkgResult",
      "outputs": [],
      "stateMutability": "nonpayable",
      "type": "function"
    },
    {
      "inputs": [
        {
          "internalType": "address",
          "name": "stakingProvider",
          "type": "address"
        },
        {
          "internalType": "uint96",
          "name": "fromAmount",
          "type": "uint96"
        },
        {
          "internalType": "uint96",
          "name": "toAmount",
          "type": "uint96"
        }
      ],
      "name": "authorizationDecreaseRequested",
      "outputs": [],
      "stateMutability": "nonpayable",
      "type": "function"
    },
    {
      "inputs": [
        {
          "internalType": "address",
          "name": "stakingProvider",
          "type": "address"
        },
        {
          "internalType": "uint96",
          "name": "fromAmount",
          "type": "uint96"
        },
        {
          "internalType": "uint96",
          "name": "toAmount",
          "type": "uint96"
        }
      ],
      "name": "authorizationIncreased",
      "outputs": [],
      "stateMutability": "nonpayable",
      "type": "function"
    },
    {
      "inputs": [],
      "name": "authorizationParameters",
      "outputs": [
        {
          "internalType": "uint96",
          "name": "minimumAuthorization",
          "type": "uint96"
        },
        {
          "internalType": "uint64",
          "name": "authorizationDecreaseDelay",
          "type": "uint64"
        },
        {
          "internalType": "uint64",
          "name": "authorizationDecreaseChangePeriod",
          "type": "uint64"
        }
      ],
      "stateMutability": "view",
      "type": "function"
    },
    {
      "inputs": [
        {
          "internalType": "address",
          "name": "",
          "type": "address"
        }
      ],
      "name": "authorizedRequesters",
      "outputs": [
        {
          "internalType": "bool",
          "name": "",
          "type": "bool"
        }
      ],
      "stateMutability": "view",
      "type": "function"
    },
    {
      "inputs": [
        {
          "internalType": "address",
          "name": "stakingProvider",
          "type": "address"
        }
      ],
      "name": "availableRewards",
      "outputs": [
        {
          "internalType": "uint96",
          "name": "",
          "type": "uint96"
        }
      ],
      "stateMutability": "view",
      "type": "function"
    },
    {
      "inputs": [
        {
          "components": [
            {
              "internalType": "uint256",
              "name": "submitterMemberIndex",
              "type": "uint256"
            },
            {
              "internalType": "bytes",
              "name": "groupPubKey",
              "type": "bytes"
            },
            {
              "internalType": "uint8[]",
              "name": "misbehavedMembersIndices",
              "type": "uint8[]"
            },
            {
              "internalType": "bytes",
              "name": "signatures",
              "type": "bytes"
            },
            {
              "internalType": "uint256[]",
              "name": "signingMembersIndices",
              "type": "uint256[]"
            },
            {
              "internalType": "uint32[]",
              "name": "members",
              "type": "uint32[]"
            },
            {
              "internalType": "bytes32",
              "name": "membersHash",
              "type": "bytes32"
            }
          ],
          "internalType": "struct BeaconDkg.Result",
          "name": "dkgResult",
          "type": "tuple"
        }
      ],
      "name": "challengeDkgResult",
      "outputs": [],
      "stateMutability": "nonpayable",
      "type": "function"
    },
    {
      "inputs": [
        {
          "internalType": "address",
          "name": "stakingProvider",
          "type": "address"
        }
      ],
      "name": "eligibleStake",
      "outputs": [
        {
          "internalType": "uint96",
          "name": "",
          "type": "uint96"
        }
      ],
      "stateMutability": "view",
      "type": "function"
    },
    {
      "inputs": [],
      "name": "gasParameters",
      "outputs": [
        {
          "internalType": "uint256",
          "name": "dkgResultSubmissionGas",
          "type": "uint256"
        },
        {
          "internalType": "uint256",
          "name": "dkgResultApprovalGasOffset",
          "type": "uint256"
        },
        {
          "internalType": "uint256",
          "name": "notifyOperatorInactivityGasOffset",
          "type": "uint256"
        },
        {
          "internalType": "uint256",
          "name": "relayEntrySubmissionGasOffset",
          "type": "uint256"
        }
      ],
      "stateMutability": "view",
      "type": "function"
    },
    {
      "inputs": [],
      "name": "genesis",
      "outputs": [],
      "stateMutability": "nonpayable",
      "type": "function"
    },
    {
      "inputs": [
        {
          "internalType": "uint64",
          "name": "groupId",
          "type": "uint64"
        }
      ],
      "name": "getGroup",
      "outputs": [
        {
          "components": [
            {
              "internalType": "bytes",
              "name": "groupPubKey",
              "type": "bytes"
            },
            {
              "internalType": "uint256",
              "name": "registrationBlockNumber",
              "type": "uint256"
            },
            {
              "internalType": "bytes32",
              "name": "membersHash",
              "type": "bytes32"
            },
            {
              "internalType": "bool",
              "name": "terminated",
              "type": "bool"
            }
          ],
          "internalType": "struct Groups.Group",
          "name": "",
          "type": "tuple"
        }
      ],
      "stateMutability": "view",
      "type": "function"
    },
    {
      "inputs": [
        {
          "internalType": "bytes",
          "name": "groupPubKey",
          "type": "bytes"
        }
      ],
      "name": "getGroup",
      "outputs": [
        {
          "components": [
            {
              "internalType": "bytes",
              "name": "groupPubKey",
              "type": "bytes"
            },
            {
              "internalType": "uint256",
              "name": "registrationBlockNumber",
              "type": "uint256"
            },
            {
              "internalType": "bytes32",
              "name": "membersHash",
              "type": "bytes32"
            },
            {
              "internalType": "bool",
              "name": "terminated",
              "type": "bool"
            }
          ],
          "internalType": "struct Groups.Group",
          "name": "",
          "type": "tuple"
        }
      ],
      "stateMutability": "view",
      "type": "function"
    },
    {
      "inputs": [],
      "name": "getGroupCreationState",
      "outputs": [
        {
          "internalType": "enum BeaconDkg.State",
          "name": "",
          "type": "uint8"
        }
      ],
      "stateMutability": "view",
      "type": "function"
    },
    {
      "inputs": [],
      "name": "getGroupsRegistry",
      "outputs": [
        {
          "internalType": "bytes32[]",
          "name": "",
          "type": "bytes32[]"
        }
      ],
      "stateMutability": "view",
      "type": "function"
    },
    {
      "inputs": [],
      "name": "governance",
      "outputs": [
        {
          "internalType": "address",
          "name": "",
          "type": "address"
        }
      ],
      "stateMutability": "view",
      "type": "function"
    },
    {
      "inputs": [],
      "name": "groupCreationParameters",
      "outputs": [
        {
          "internalType": "uint256",
          "name": "groupCreationFrequency",
          "type": "uint256"
        },
        {
          "internalType": "uint256",
          "name": "groupLifetime",
          "type": "uint256"
        },
        {
          "internalType": "uint256",
          "name": "dkgResultChallengePeriodLength",
          "type": "uint256"
        },
        {
          "internalType": "uint256",
          "name": "dkgResultChallengeExtraGas",
          "type": "uint256"
        },
        {
          "internalType": "uint256",
          "name": "dkgResultSubmissionTimeout",
          "type": "uint256"
        },
        {
          "internalType": "uint256",
          "name": "dkgSubmitterPrecedencePeriodLength",
          "type": "uint256"
        }
      ],
      "stateMutability": "view",
      "type": "function"
    },
    {
      "inputs": [],
      "name": "hasDkgTimedOut",
      "outputs": [
        {
          "internalType": "bool",
          "name": "",
          "type": "bool"
        }
      ],
      "stateMutability": "view",
      "type": "function"
    },
    {
      "inputs": [
        {
          "internalType": "uint64",
          "name": "",
          "type": "uint64"
        }
      ],
      "name": "inactivityClaimNonce",
      "outputs": [
        {
          "internalType": "uint256",
          "name": "",
          "type": "uint256"
        }
      ],
      "stateMutability": "view",
      "type": "function"
    },
    {
      "inputs": [
        {
          "internalType": "address",
          "name": "stakingProvider",
          "type": "address"
        },
        {
          "internalType": "uint96",
          "name": "fromAmount",
          "type": "uint96"
        },
        {
          "internalType": "uint96",
          "name": "toAmount",
          "type": "uint96"
        }
      ],
      "name": "involuntaryAuthorizationDecrease",
      "outputs": [],
      "stateMutability": "nonpayable",
      "type": "function"
    },
    {
      "inputs": [
        {
          "internalType": "address",
          "name": "operator",
          "type": "address"
        }
      ],
      "name": "isOperatorInPool",
      "outputs": [
        {
          "internalType": "bool",
          "name": "",
          "type": "bool"
        }
      ],
      "stateMutability": "view",
      "type": "function"
    },
    {
      "inputs": [
        {
          "internalType": "address",
          "name": "operator",
          "type": "address"
        }
      ],
      "name": "isOperatorUpToDate",
      "outputs": [
        {
          "internalType": "bool",
          "name": "",
          "type": "bool"
        }
      ],
      "stateMutability": "view",
      "type": "function"
    },
    {
      "inputs": [],
      "name": "isRelayRequestInProgress",
      "outputs": [
        {
          "internalType": "bool",
          "name": "",
          "type": "bool"
        }
      ],
      "stateMutability": "view",
      "type": "function"
    },
    {
      "inputs": [],
      "name": "joinSortitionPool",
      "outputs": [],
      "stateMutability": "nonpayable",
      "type": "function"
    },
    {
      "inputs": [],
      "name": "minimumAuthorization",
      "outputs": [
        {
          "internalType": "uint96",
          "name": "",
          "type": "uint96"
        }
      ],
      "stateMutability": "view",
      "type": "function"
    },
    {
      "inputs": [],
      "name": "notifyDkgTimeout",
      "outputs": [],
      "stateMutability": "nonpayable",
      "type": "function"
    },
    {
      "inputs": [
        {
          "components": [
            {
              "internalType": "uint64",
              "name": "groupId",
              "type": "uint64"
            },
            {
              "internalType": "uint256[]",
              "name": "inactiveMembersIndices",
              "type": "uint256[]"
            },
            {
              "internalType": "bytes",
              "name": "signatures",
              "type": "bytes"
            },
            {
              "internalType": "uint256[]",
              "name": "signingMembersIndices",
              "type": "uint256[]"
            }
          ],
          "internalType": "struct BeaconInactivity.Claim",
          "name": "claim",
          "type": "tuple"
        },
        {
          "internalType": "uint256",
          "name": "nonce",
          "type": "uint256"
        },
        {
          "internalType": "uint32[]",
          "name": "groupMembers",
          "type": "uint32[]"
        }
      ],
      "name": "notifyOperatorInactivity",
      "outputs": [],
      "stateMutability": "nonpayable",
      "type": "function"
    },
    {
      "inputs": [
        {
          "internalType": "address",
          "name": "operator",
          "type": "address"
        }
      ],
      "name": "operatorToStakingProvider",
      "outputs": [
        {
          "internalType": "address",
          "name": "",
          "type": "address"
        }
      ],
      "stateMutability": "view",
      "type": "function"
    },
    {
      "inputs": [
        {
          "internalType": "address",
          "name": "stakingProvider",
          "type": "address"
        }
      ],
      "name": "pendingAuthorizationDecrease",
      "outputs": [
        {
          "internalType": "uint96",
          "name": "",
          "type": "uint96"
        }
      ],
      "stateMutability": "view",
      "type": "function"
    },
    {
      "inputs": [
        {
          "internalType": "address",
          "name": "operator",
          "type": "address"
        }
      ],
      "name": "registerOperator",
      "outputs": [],
      "stateMutability": "nonpayable",
      "type": "function"
    },
    {
      "inputs": [],
      "name": "reimbursementPool",
      "outputs": [
        {
          "internalType": "contract ReimbursementPool",
          "name": "",
          "type": "address"
        }
      ],
      "stateMutability": "view",
      "type": "function"
    },
    {
      "inputs": [],
      "name": "relayEntryParameters",
      "outputs": [
        {
          "internalType": "uint256",
          "name": "relayEntrySoftTimeout",
          "type": "uint256"
        },
        {
          "internalType": "uint256",
          "name": "relayEntryHardTimeout",
          "type": "uint256"
        },
        {
          "internalType": "uint256",
          "name": "callbackGasLimit",
          "type": "uint256"
        }
      ],
      "stateMutability": "view",
      "type": "function"
    },
    {
      "inputs": [
        {
          "internalType": "address",
          "name": "stakingProvider",
          "type": "address"
        }
      ],
      "name": "remainingAuthorizationDecreaseDelay",
      "outputs": [
        {
          "internalType": "uint64",
          "name": "",
          "type": "uint64"
        }
      ],
      "stateMutability": "view",
      "type": "function"
    },
    {
      "inputs": [
        {
          "internalType": "uint32[]",
          "name": "groupMembers",
          "type": "uint32[]"
        }
      ],
      "name": "reportRelayEntryTimeout",
      "outputs": [],
      "stateMutability": "nonpayable",
      "type": "function"
    },
    {
      "inputs": [
        {
          "internalType": "bytes",
          "name": "signedMsgSender",
          "type": "bytes"
        },
        {
          "internalType": "uint64",
          "name": "groupId",
          "type": "uint64"
        },
        {
          "internalType": "uint32[]",
          "name": "groupMembers",
          "type": "uint32[]"
        }
      ],
      "name": "reportUnauthorizedSigning",
      "outputs": [],
      "stateMutability": "nonpayable",
      "type": "function"
    },
    {
      "inputs": [
        {
          "internalType": "contract IRandomBeaconConsumer",
          "name": "callbackContract",
          "type": "address"
        }
      ],
      "name": "requestRelayEntry",
      "outputs": [],
      "stateMutability": "nonpayable",
      "type": "function"
    },
    {
      "inputs": [],
      "name": "rewardParameters",
      "outputs": [
        {
          "internalType": "uint256",
          "name": "sortitionPoolRewardsBanDuration",
          "type": "uint256"
        },
        {
          "internalType": "uint256",
          "name": "relayEntryTimeoutNotificationRewardMultiplier",
          "type": "uint256"
        },
        {
          "internalType": "uint256",
          "name": "unauthorizedSigningNotificationRewardMultiplier",
          "type": "uint256"
        },
        {
          "internalType": "uint256",
          "name": "dkgMaliciousResultNotificationRewardMultiplier",
          "type": "uint256"
        }
      ],
      "stateMutability": "view",
      "type": "function"
    },
    {
      "inputs": [],
      "name": "selectGroup",
      "outputs": [
        {
          "internalType": "uint32[]",
          "name": "",
          "type": "uint32[]"
        }
      ],
      "stateMutability": "view",
      "type": "function"
    },
    {
      "inputs": [
        {
          "internalType": "address",
          "name": "requester",
          "type": "address"
        },
        {
          "internalType": "bool",
          "name": "isAuthorized",
          "type": "bool"
        }
      ],
      "name": "setRequesterAuthorization",
      "outputs": [],
      "stateMutability": "nonpayable",
      "type": "function"
    },
    {
      "inputs": [],
      "name": "slashingParameters",
      "outputs": [
        {
          "internalType": "uint96",
          "name": "relayEntrySubmissionFailureSlashingAmount",
          "type": "uint96"
        },
        {
          "internalType": "uint96",
          "name": "maliciousDkgResultSlashingAmount",
          "type": "uint96"
        },
        {
          "internalType": "uint96",
          "name": "unauthorizedSigningSlashingAmount",
          "type": "uint96"
        }
      ],
      "stateMutability": "view",
      "type": "function"
    },
    {
      "inputs": [],
      "name": "sortitionPool",
      "outputs": [
        {
          "internalType": "contract SortitionPool",
          "name": "",
          "type": "address"
        }
      ],
      "stateMutability": "view",
      "type": "function"
    },
    {
      "inputs": [],
      "name": "staking",
      "outputs": [
        {
          "internalType": "contract IStaking",
          "name": "",
          "type": "address"
        }
      ],
      "stateMutability": "view",
      "type": "function"
    },
    {
      "inputs": [
        {
          "internalType": "address",
          "name": "stakingProvider",
          "type": "address"
        }
      ],
      "name": "stakingProviderToOperator",
      "outputs": [
        {
          "internalType": "address",
          "name": "",
          "type": "address"
        }
      ],
      "stateMutability": "view",
      "type": "function"
    },
    {
      "inputs": [
        {
          "components": [
            {
              "internalType": "uint256",
              "name": "submitterMemberIndex",
              "type": "uint256"
            },
            {
              "internalType": "bytes",
              "name": "groupPubKey",
              "type": "bytes"
            },
            {
              "internalType": "uint8[]",
              "name": "misbehavedMembersIndices",
              "type": "uint8[]"
            },
            {
              "internalType": "bytes",
              "name": "signatures",
              "type": "bytes"
            },
            {
              "internalType": "uint256[]",
              "name": "signingMembersIndices",
              "type": "uint256[]"
            },
            {
              "internalType": "uint32[]",
              "name": "members",
              "type": "uint32[]"
            },
            {
              "internalType": "bytes32",
              "name": "membersHash",
              "type": "bytes32"
            }
          ],
          "internalType": "struct BeaconDkg.Result",
          "name": "dkgResult",
          "type": "tuple"
        }
      ],
      "name": "submitDkgResult",
      "outputs": [],
      "stateMutability": "nonpayable",
      "type": "function"
    },
    {
      "inputs": [
        {
          "internalType": "bytes",
          "name": "entry",
          "type": "bytes"
        },
        {
          "internalType": "uint32[]",
          "name": "groupMembers",
          "type": "uint32[]"
        }
      ],
      "name": "submitRelayEntry",
      "outputs": [],
      "stateMutability": "nonpayable",
      "type": "function"
    },
    {
      "inputs": [
        {
          "internalType": "bytes",
          "name": "entry",
          "type": "bytes"
        }
      ],
      "name": "submitRelayEntry",
      "outputs": [],
      "stateMutability": "nonpayable",
      "type": "function"
    },
    {
      "inputs": [],
      "name": "tToken",
      "outputs": [
        {
          "internalType": "contract IERC20",
          "name": "",
          "type": "address"
        }
      ],
      "stateMutability": "view",
      "type": "function"
    },
    {
      "inputs": [
        {
          "internalType": "address",
          "name": "newGovernance",
          "type": "address"
        }
      ],
      "name": "transferGovernance",
      "outputs": [],
      "stateMutability": "nonpayable",
      "type": "function"
    },
    {
      "inputs": [
        {
          "internalType": "uint96",
          "name": "_minimumAuthorization",
          "type": "uint96"
        },
        {
          "internalType": "uint64",
          "name": "_authorizationDecreaseDelay",
          "type": "uint64"
        },
        {
          "internalType": "uint64",
          "name": "_authorizationDecreaseChangePeriod",
          "type": "uint64"
        }
      ],
      "name": "updateAuthorizationParameters",
      "outputs": [],
      "stateMutability": "nonpayable",
      "type": "function"
    },
    {
      "inputs": [
        {
          "internalType": "uint256",
          "name": "dkgResultSubmissionGas",
          "type": "uint256"
        },
        {
          "internalType": "uint256",
          "name": "dkgResultApprovalGasOffset",
          "type": "uint256"
        },
        {
          "internalType": "uint256",
          "name": "notifyOperatorInactivityGasOffset",
          "type": "uint256"
        },
        {
          "internalType": "uint256",
          "name": "relayEntrySubmissionGasOffset",
          "type": "uint256"
        }
      ],
      "name": "updateGasParameters",
      "outputs": [],
      "stateMutability": "nonpayable",
      "type": "function"
    },
    {
      "inputs": [
        {
          "internalType": "uint256",
          "name": "groupCreationFrequency",
          "type": "uint256"
        },
        {
          "internalType": "uint256",
          "name": "groupLifetime",
          "type": "uint256"
        },
        {
          "internalType": "uint256",
          "name": "dkgResultChallengePeriodLength",
          "type": "uint256"
        },
        {
          "internalType": "uint256",
          "name": "dkgResultChallengeExtraGas",
          "type": "uint256"
        },
        {
          "internalType": "uint256",
          "name": "dkgResultSubmissionTimeout",
          "type": "uint256"
        },
        {
          "internalType": "uint256",
          "name": "dkgSubmitterPrecedencePeriodLength",
          "type": "uint256"
        }
      ],
      "name": "updateGroupCreationParameters",
      "outputs": [],
      "stateMutability": "nonpayable",
      "type": "function"
    },
    {
      "inputs": [
        {
          "internalType": "address",
          "name": "operator",
          "type": "address"
        }
      ],
      "name": "updateOperatorStatus",
      "outputs": [],
      "stateMutability": "nonpayable",
      "type": "function"
    },
    {
      "inputs": [
        {
          "internalType": "contract ReimbursementPool",
          "name": "_reimbursementPool",
          "type": "address"
        }
      ],
      "name": "updateReimbursementPool",
      "outputs": [],
      "stateMutability": "nonpayable",
      "type": "function"
    },
    {
      "inputs": [
        {
          "internalType": "uint256",
          "name": "relayEntrySoftTimeout",
          "type": "uint256"
        },
        {
          "internalType": "uint256",
          "name": "relayEntryHardTimeout",
          "type": "uint256"
        },
        {
          "internalType": "uint256",
          "name": "callbackGasLimit",
          "type": "uint256"
        }
      ],
      "name": "updateRelayEntryParameters",
      "outputs": [],
      "stateMutability": "nonpayable",
      "type": "function"
    },
    {
      "inputs": [
        {
          "internalType": "uint256",
          "name": "sortitionPoolRewardsBanDuration",
          "type": "uint256"
        },
        {
          "internalType": "uint256",
          "name": "relayEntryTimeoutNotificationRewardMultiplier",
          "type": "uint256"
        },
        {
          "internalType": "uint256",
          "name": "unauthorizedSigningNotificationRewardMultiplier",
          "type": "uint256"
        },
        {
          "internalType": "uint256",
          "name": "dkgMaliciousResultNotificationRewardMultiplier",
          "type": "uint256"
        }
      ],
      "name": "updateRewardParameters",
      "outputs": [],
      "stateMutability": "nonpayable",
      "type": "function"
    },
    {
      "inputs": [
        {
          "internalType": "uint96",
          "name": "relayEntrySubmissionFailureSlashingAmount",
          "type": "uint96"
        },
        {
          "internalType": "uint96",
          "name": "maliciousDkgResultSlashingAmount",
          "type": "uint96"
        },
        {
          "internalType": "uint96",
          "name": "unauthorizedSigningSlashingAmount",
          "type": "uint96"
        }
      ],
      "name": "updateSlashingParameters",
      "outputs": [],
      "stateMutability": "nonpayable",
      "type": "function"
    },
    {
      "inputs": [
        {
          "internalType": "address",
          "name": "recipient",
          "type": "address"
        }
      ],
      "name": "withdrawIneligibleRewards",
      "outputs": [],
      "stateMutability": "nonpayable",
      "type": "function"
    },
    {
      "inputs": [
        {
          "internalType": "address",
          "name": "stakingProvider",
          "type": "address"
        }
      ],
      "name": "withdrawRewards",
      "outputs": [],
      "stateMutability": "nonpayable",
      "type": "function"
    }
  ],
  "transactionHash": "0xf2a77903e1113ea2c4f9405aaf846b2cd186ae3f4d0e3821b46f7c5cb1b52299",
  "args": [
    "0x7C066fC9c23e24f4A890B9191d7638be7f6653B0",
    "0xD4A57574A4253d8F496C2Ce1F7741012722c0fb2",
    "0xE648E07f1D2033475718464A8D05b03649b8b184",
    "0xC80eA5c3A4DD9Cf3916211f3Ea4c6F8d0A9ab8a1",
    "0x058405CB7B95D6AfF48B7E6B4805d89fD5FA6653"
  ],
  "numDeployments": 1,
  "solcInputHash": "dc0610c827f6bc858d526e88f0330233",
  "bytecode": "0x60806040523480156200001157600080fd5b5060405162006a6338038062006a63833981016040819052620000349162000a49565b607180546001600160a01b038088166001600160a01b0319928316811790935560728054888316908416179055607380548783169084161790556032805491851691909216179055620000bd5760405162461bcd60e51b8152602060048201526016602482015260008051602062006a0383398151915260448201526064015b60405180910390fd5b6001600160a01b038416620001045760405162461bcd60e51b8152602060048201526016602482015260008051602062006a038339815191526044820152606401620000b4565b6001600160a01b0383166200014b5760405162461bcd60e51b8152602060048201526016602482015260008051602062006a038339815191526044820152606401620000b4565b6001600160a01b038216620001925760405162461bcd60e51b8152602060048201526016602482015260008051602062006a038339815191526044820152606401620000b4565b6001600160a01b038116620001d95760405162461bcd60e51b8152602060048201526016602482015260008051602062006a038339815191526044820152606401620000b4565b620001f6858360786200038c60201b62003059179092919060201c565b6200020d60886200048560201b6200314e1760201c565b62000218336200052a565b604051633d36f3fd60e21b815260746004820152690878678326eac90000006024820152623b538060448201819052606482015273615689864C4FA99124b8221d28408F02B639Be029063f4dbcff49060840160006040518083038186803b1580156200028457600080fd5b505af415801562000299573d6000803e3d6000fd5b5050606680546001600160c01b0319167415af1d78b58c40000000000015af1d78b58c40000017905550620002e7905060886815af1d78b58c4000006200058b602090811b620031e217901c565b6064606a819055606981905560685562127500606755620003206078612d0061c35061050060146200062e602090811b6200327617901c565b6200034161050061168060886200084860201b6200346e179092919060201c565b61fa006064556200036360836203f480620008e6602090811b620034f917901c565b5050600260655550506203a052606b555061a21c606c5561d4e4606d55612bf2606e5562000b32565b82546001600160a01b031615620003f15760405162461bcd60e51b815260206004820152602260248201527f536f72746974696f6e20506f6f6c206164647265737320616c72656164792073604482015261195d60f21b6064820152608401620000b4565b60018301546001600160a01b031615620004585760405162461bcd60e51b815260206004820152602160248201527f444b472056616c696461746f72206164647265737320616c72656164792073656044820152601d60fa1b6064820152608401620000b4565b82546001600160a01b03199081166001600160a01b03938416178455600190930180549093169116179055565b60018101541580156200049a57506002810154155b620004e85760405162461bcd60e51b815260206004820152601e60248201527f5365656420656e74727920616c726561647920696e697469616c697a656400006044820152606401620000b4565b6200051760405180606001604052806040815260200162006a2360409139620008ee60201b620035011760201c565b8051600183015560200151600290910155565b600080546001600160a01b038381166001600160a01b031983168117909355604080519190921680825260208201939093527f5f56bee8cffbe9a78652a74a60705edede02af10b0bbb888ca44b79a0d42ce80910160405180910390a15050565b620005ab82546801000000000000000090046001600160401b0316151590565b15620005fa5760405162461bcd60e51b815260206004820152601960248201527f52656c6179207265717565737420696e2070726f6772657373000000000000006044820152606401620000b4565b600390910180546001600160601b039092166801000000000000000002600160401b600160a01b0319909216919091179055565b60006200063b8662000974565b60048111156200064f576200064f62000ac9565b146200069e5760405162461bcd60e51b815260206004820152601960248201527f43757272656e74207374617465206973206e6f742049444c45000000000000006044820152606401620000b4565b60008411620007165760405162461bcd60e51b815260206004820152603a60248201527f526573756c74206368616c6c656e676520706572696f64206c656e677468207360448201527f686f756c642062652067726561746572207468616e207a65726f0000000000006064820152608401620000b4565b600082116200078e5760405162461bcd60e51b815260206004820152603560248201527f526573756c74207375626d697373696f6e2074696d656f75742073686f756c6460448201527f2062652067726561746572207468616e207a65726f00000000000000000000006064820152608401620000b4565b8181106200082b5760405162461bcd60e51b815260206004820152605460248201527f5375626d697474657220707265636564656e636520706572696f64206c656e6760448201527f74682073686f756c64206265206c657373207468616e2074686520726573756c60648201527f74207375626d697373696f6e2074696d656f7574000000000000000000000000608482015260a401620000b4565b600285019390935560038401919091556004830155600590910155565b6200086883546801000000000000000090046001600160401b0316151590565b15620008b75760405162461bcd60e51b815260206004820152601960248201527f52656c6179207265717565737420696e2070726f6772657373000000000000006044820152606401620000b4565b6003909201805463ffffffff938416640100000000026001600160401b03199091169390921692909217179055565b600490910155565b60408051808201909152600080825260208201528151604014620009555760405162461bcd60e51b815260206004820152601760248201527f496e76616c6964204731206279746573206c656e6774680000000000000000006044820152606401620000b4565b5060208181015160409283015183518085019094529083529082015290565b805460408051632938b58d60e21b815290516000926001600160a01b03169163a4e2d6349160048083019260209291908290030181865afa158015620009be573d6000803e3d6000fd5b505050506040513d601f19601f82011682018060405250810190620009e4919062000adf565b1562000a2b575060068101546001901562000a2b57600290506064826006015462000a10919062000b0a565b43111562000a2b5750600a8101546003901562000a2b575060045b919050565b6001600160a01b038116811462000a4657600080fd5b50565b600080600080600060a0868803121562000a6257600080fd5b855162000a6f8162000a30565b602087015190955062000a828162000a30565b604087015190945062000a958162000a30565b606087015190935062000aa88162000a30565b608087015190925062000abb8162000a30565b809150509295509295909350565b634e487b7160e01b600052602160045260246000fd5b60006020828403121562000af257600080fd5b8151801515811462000b0357600080fd5b9392505050565b8082018082111562000b2c57634e487b7160e01b600052601160045260246000fd5b92915050565b615ec18062000b426000396000f3fe608060405234801561001057600080fd5b506004361061038e5760003560e01c80637e0049fd116101de578063c35d64ea1161010f578063ded56d45116100ad578063f5ee563f1161007c578063f5ee563f146108fc578063f7186ce01461092a578063f854a27f1461093d578063fd2a47881461095057600080fd5b8063ded56d4514610897578063e03e4535146108c3578063e686440f146108d8578063f0820c92146108eb57600080fd5b8063cb8b3779116100e9578063cb8b377914610854578063ccfd3bbe14610869578063d38bfff41461087c578063d855c6311461088f57600080fd5b8063c35d64ea14610802578063c7c49c9814610815578063c9bacaad1461084157600080fd5b8063a04e29801161017c578063b142f85c11610156578063b142f85c1461078a578063b53dacdf146107c9578063b54a2374146107dc578063c09975cd146107ef57600080fd5b8063a04e29801461075c578063a7f0b3de1461076f578063b0d010d61461077757600080fd5b80638f105e37116101b85780638f105e37146106f1578063985e64871461070b5780639a7d09351461071e5780639c9de0281461073157600080fd5b80637e0049fd146106a25780637e33cba6146106b557806388a59590146106e057600080fd5b80634a07068e116102c3578063663032cd1161026157806375e0ae5a1161023057806375e0ae5a1461060c57806377a5a7bd1461061f5780637b14729e146106325780637b35b4e61461068f57600080fd5b8063663032cd146105ae57806368c34948146105c15780636a7f7a90146105c957806374024ab7146105dc57600080fd5b806355b64bcc1161029d57806355b64bcc1461056257806357665912146105755780635aa6e675146105885780635c5b38701461059b57600080fd5b80634a07068e146104f75780634cf088d91461050a578063529023011461053557600080fd5b8063319ac101116103305780633ea478aa1161030a5780633ea478aa1461048b57806342d86693146104be5780634368ec0c146104d15780634549cc4b146104e457600080fd5b8063319ac10114610445578063339646ac146104655780633682a4501461047857600080fd5b80631872ea941161036c5780631872ea94146103c35780631c5b0762146103e15780631d35fa63146103f4578063313767661461043257600080fd5b80630519e9911461039357806314a85474146103a8578063167f0517146103bb575b600080fd5b6103a66103a1366004614c19565b610963565b005b6103a66103b6366004614c79565b610a1b565b6103a6610aeb565b6103cb610b6d565b6040516103d89190614c99565b60405180910390f35b6103a66103ef366004614cdd565b610bc8565b608b5460665460408051600160401b9093046001600160601b0390811684528083166020850152600160601b909204909116908201526060016103d8565b6103a6610440366004614cfa565b610c55565b610458610453366004614d49565b610ed3565b6040516103d89190614dac565b6103a6610473366004614df4565b610fc9565b6103a6610486366004614cdd565b611056565b6104ae610499366004614cdd565b60706020526000908152604090205460ff1681565b60405190151581526020016103d8565b6103a66104cc366004614cdd565b61109d565b6103a66104df366004614cdd565b611237565b6104586104f2366004614edb565b611348565b6103a6610505366004614f5a565b611383565b60735461051d906001600160a01b031681565b6040516001600160a01b0390911681526020016103d8565b606754606854606954606a545b6040805194855260208501939093529183015260608201526080016103d8565b6103a6610570366004614fdc565b6116f1565b6103a6610583366004615047565b611a8a565b60005461051d906001600160a01b031681565b6103a66105a9366004614cfa565b611b93565b6103a66105bc366004614cdd565b611d4e565b6104ae611dd3565b6103a66105d7366004614c79565b611de4565b608b546064546040805163ffffffff808516825264010000000090940490931660208401528201526060016103d8565b6103a661061a366004614cdd565b611e6c565b6103a661062d36600461507c565b611ebf565b6106606074546001600160601b038116916001600160401b03600160601b8304811692600160a01b90041690565b604080516001600160601b0390941684526001600160401b0392831660208501529116908201526060016103d8565b6103a661069d366004614cdd565b611f5f565b6103a66106b0366004614cfa565b611fe7565b6106c86106c3366004614cdd565b61203a565b6040516001600160601b0390911681526020016103d8565b606b54606c54606d54606e54610542565b608854600160401b90046001600160401b031615156104ae565b6103a66107193660046150cd565b6120d3565b6103a661072c366004615106565b61215c565b61074461073f366004614cdd565b6121d5565b6040516001600160401b0390911681526020016103d8565b6103a661076a366004615132565b612259565b6103a6612360565b6103a6610785366004614df4565b612422565b606554608754607a54607b54607c54607d54604080519687526020870195909552938501929092526060840152608083015260a082015260c0016103d8565b6103a66107d7366004615172565b6124a5565b60715461051d906001600160a01b031681565b60325461051d906001600160a01b031681565b60725461051d906001600160a01b031681565b61051d610823366004614cdd565b6001600160a01b039081166000908152607560205260409020541690565b6103a661084f366004614c79565b612962565b61085c6129ea565b6040516103d891906151e9565b6103a6610877366004615211565b6129f6565b6103a661088a366004614cdd565b612ca6565b6103a6612d3d565b61051d6108a5366004614cdd565b6001600160a01b039081166000908152607660205260409020541690565b6108cb612dc5565b6040516103d891906152b0565b6104ae6108e6366004614cdd565b612e42565b6074546001600160601b03166106c8565b61091c61090a366004614d49565b606f6020526000908152604090205481565b6040519081526020016103d8565b6104ae610938366004614cdd565b612edf565b6106c861094b366004614cdd565b612f2a565b6106c861095e366004614cdd565b61300f565b6000546001600160a01b031633146109965760405162461bcd60e51b815260040161098d906152c3565b60405180910390fd5b6109a16088846131e2565b606680546001600160601b038481166001600160c01b03199092168217600160601b858316908102919091179093556040805191871682526020820192909252908101919091527f1eda09aaee2b21bbf5571b06eab42dd1b2c2b629a5d6336230ff8b0e1f538276906060015b60405180910390a1505050565b6073546001600160a01b03163314610a455760405162461bcd60e51b815260040161098d906152fa565b60735460715460405163117964a560e21b8152607460048201526001600160a01b039283166024820152908216604482015290841660648201526001600160601b038084166084830152821660a482015273615689864C4FA99124b8221d28408F02B639Be02906345e592949060c4015b60006040518083038186803b158015610ace57600080fd5b505af4158015610ae2573d6000803e3d6000fd5b50505050505050565b60735460715460405163520c3d3160e01b8152607460048201526001600160a01b0392831660248201529116604482015273615689864C4FA99124b8221d28408F02B639Be029063520c3d319060640160006040518083038186803b158015610b5357600080fd5b505af4158015610b67573d6000803e3d6000fd5b50505050565b60606083600101805480602002602001604051908101604052809291908181526020018280548015610bbe57602002820191906000526020600020905b815481526020019060010190808311610baa575b5050505050905090565b60735460715460405163c6e1c83960e01b8152607460048201526001600160a01b0392831660248201529082166044820152908216606482015273615689864C4FA99124b8221d28408F02B639Be029063c6e1c839906084015b60006040518083038186803b158015610c3a57600080fd5b505af4158015610c4e573d6000803e3d6000fd5b5050505050565b6040516346bf00db60e01b815260009081907386C140C643056e57Af9a7988A060d5a482863eAD906346bf00db90610c94906078908790600401615471565b6040805180830381865af4158015610cb0573d6000803e3d6000fd5b505050506040513d601f19601f82011682018060405250810190610cd49190615591565b606654607154604051638871ca5d60e01b815263ffffffff841660048201529395509193506001600160601b0316916000916001600160a01b031690638871ca5d90602401602060405180830381865afa158015610d36573d6000803e3d6000fd5b505050506040513d601f19601f82011682018060405250810190610d5a91906155b6565b60408051600180825281830190925291925060009190602080830190803683375050506001600160a01b038381166000908152607660205260409020549192501681600081518110610dae57610dae6155d3565b6001600160a01b039283166020918202929092010152607354606a546040516383ddba8f60e01b815291909216916383ddba8f91610df491879133908790600401615622565b600060405180830381600087803b158015610e0e57600080fd5b505af1925050508015610e1f575060015b610e7457604080516001600160601b03851681526001600160a01b038416602082015286917f14621289a12ab59e0737decc388bba91d929c723defb4682d5d19b9a12ecfecb910160405180910390a2610ec1565b604080516001600160601b03851681526001600160a01b038416602082015286917f88f76c659db78142f88e94db3ca791869495394c6c1b3d412ced9022dc97c9e3910160405180910390a25b610ecb6078613585565b505050505050565b604080516080810182526060808252600060208301819052928201839052810191909152610f026083836135d9565b604051806080016040529081600082018054610f1d90615662565b80601f0160208091040260200160405190810160405280929190818152602001828054610f4990615662565b8015610f965780601f10610f6b57610100808354040283529160200191610f96565b820191906000526020600020905b815481529060010190602001808311610f7957829003601f168201915b5050509183525050600182015460208201526002820154604082015260039091015460ff16151560609091015292915050565b6000546001600160a01b03163314610ff35760405162461bcd60e51b815260040161098d906152c3565b606784905560688390556069829055606a8190556040805185815260208101859052908101839052606081018290527fbe6727aab9b80431985c18deef80d48599397c63884c62e96959f82abd16f16d906080015b60405180910390a150505050565b604051634755926360e01b8152607460048201526001600160a01b038216602482015273615689864C4FA99124b8221d28408F02B639Be0290634755926390604401610c22565b6001600160a01b0381811660009081526075602052604090205416806110f85760405162461bcd60e51b815260206004820152601060248201526f2ab735b737bbb71037b832b930ba37b960811b604482015260640161098d565b607354604051632de9480760e01b81526001600160a01b0384811660048301526000921690632de9480790602401606060405180830381865afa158015611143573d6000803e3d6000fd5b505050506040513d601f19601f82011682018060405250810190611167919061569c565b50607154604051637104c0e560e11b81526001600160a01b03868116600483015280841660248301529294506000935091169063e20981ca906044016020604051808303816000875af11580156111c2573d6000803e3d6000fd5b505050506040513d601f19601f820116820180604052508101906111e691906156de565b6040516001600160601b03821681529091506001600160a01b038516907f38532b6dea69d7266fa923c7813d190be37625f2454ddfa3d93c45c79482e3fd906020015b60405180910390a250505050565b3360009081526070602052604090205460ff166112965760405162461bcd60e51b815260206004820152601c60248201527f526571756573746572206d75737420626520617574686f72697a656400000000604482015260640161098d565b604080518082019091526089548152608a5460208201526000906112cd906112bd90613620565b805160209091012060839061365a565b90506112da6088826136f7565b608c80546001600160a01b0319166001600160a01b03841617905560655460885461130e91906001600160401b0316615711565b15801561133557506000611322607861385c565b6004811115611333576113336151d3565b145b1561134457611344607861390f565b5050565b604080516080810182526060808252600060208084018290528385018290529183018190528451858301208152608390915291909120610f02565b608854600160801b90046001600160401b031660006113a36083836135d9565b905083836040516020016113b8929190615725565b604051602081830303815290604052805190602001208160020154146113f05760405162461bcd60e51b815260040161098d90615770565b608b54607154604051637bfcd47d60e11b8152600160401b9092046001600160601b0316916000916001600160a01b03169063f7f9a8fa906114389089908990600401615725565b600060405180830381865afa158015611455573d6000803e3d6000fd5b505050506040513d6000823e601f3d908101601f1916820160405261147d91908101906157c2565b9050600081516001600160401b0381111561149a5761149a614e26565b6040519080825280602002602001820160405280156114c3578160200160208202803683370190505b50905060005b82518110156115495761150d8382815181106114e7576114e76155d3565b60200260200101516001600160a01b039081166000908152607660205260409020541690565b82828151811061151f5761151f6155d3565b6001600160a01b03909216602092830291909101909101528061154181615876565b9150506114c9565b506073546068546040516383ddba8f60e01b81526001600160a01b03909216916383ddba8f916115829187919033908790600401615622565b600060405180830381600087803b15801561159c57600080fd5b505af19250505080156115ad575060015b61160557608854604051600160401b9091046001600160401b0316907f678dcbc52328cedef940fe45ab75280e81c09ec03fe55df62e67642aa18bc278906115f8908690869061588f565b60405180910390a2611655565b608854604051600160401b9091046001600160401b0316907f6e1369aebaf86903bf1f0ab69c3edd0cadbf0534635f699f57a74a3ce54d37189061164c908690869061588f565b60405180910390a25b6116606083866139e2565b61166a6083613c14565b60006116766083613e2f565b6001600160401b031611156116bb57604080518082019091526089548152608a5460208201526116a9906112bd90613620565b94506116b6608886613e77565b610ae2565b6116c56088613fba565b60016116d1607861385c565b60048111156116e2576116e26151d3565b03610ae257610ae2607861406f565b60005a6088549091506001600160401b03600160401b820481169160009161172491608391600160801b909104166135d9565b90508484604051602001611739929190615725565b604051602081830303815290604052805190602001208160020154146117715760405162461bcd60e51b815260040161098d90615770565b600061178060888989856140da565b90506001600160601b0381161561198e57607154604051637bfcd47d60e11b81526000916001600160a01b03169063f7f9a8fa906117c4908a908a90600401615725565b600060405180830381865afa1580156117e1573d6000803e3d6000fd5b505050506040513d6000823e601f3d908101601f1916820160405261180991908101906157c2565b9050600081516001600160401b0381111561182657611826614e26565b60405190808252806020026020018201604052801561184f578160200160208202803683370190505b50905060005b82518110156118af576118738382815181106114e7576114e76155d3565b828281518110611885576118856155d3565b6001600160a01b0390921660209283029190910190910152806118a781615876565b915050611855565b5060735460405163f07f91c560e01b81526001600160a01b039091169063f07f91c5906118e2908690859060040161588f565b600060405180830381600087803b1580156118fc57600080fd5b505af192505050801561190d575060015b61195057847fd3f7d9c595537a55b26b224409f386868056764bc4d55bf8c3d86e20d047afc1848460405161194392919061588f565b60405180910390a261198b565b847f94af8e9c35b4ede2a77f659b202b1efe096bf99f0e6f5dd5905c800978a9a647848460405161198292919061588f565b60405180910390a25b50505b600161199a607861385c565b60048111156119ab576119ab6151d3565b036119d4576119d488886040516119c39291906158b1565b6040519081900390206078906140ff565b6119fc88886040516119e79291906158b1565b604051908190039020606454608c9190614171565b603254606e546001600160a01b0390911690637ad226dc905a611a1f90886158c1565b611a2991906158d4565b6040516001600160e01b031960e084901b1681526004810191909152336024820152604401600060405180830381600087803b158015611a6857600080fd5b505af1158015611a7c573d6000803e3d6000fd5b505050505050505050505050565b60005a608854909150600090611ab290608390600160801b90046001600160401b03166135d9565b9050611ac1608885858461421e565b6001611acd607861385c565b6004811115611ade57611ade6151d3565b03611af657611af684846040516119c39291906158b1565b611b0984846040516119e79291906158b1565b603254606e546001600160a01b0390911690637ad226dc905a611b2c90866158c1565b611b3691906158d4565b6040516001600160e01b031960e084901b1681526004810191909152336024820152604401600060405180830381600087803b158015611b7557600080fd5b505af1158015611b89573d6000803e3d6000fd5b5050505050505050565b60005a60405163716ae95760e01b81529091506000907386C140C643056e57Af9a7988A060d5a482863eAD9063716ae95790611bd6906078908790600401615471565b600060405180830381865af4158015611bf3573d6000803e3d6000fd5b505050506040513d6000823e601f3d908101601f19168201604052611c1b91908101906158e7565b805190915015611c99576071546067546001600160a01b039091169063942f6892908390611c4990426158d4565b6040518363ffffffff1660e01b8152600401611c66929190615975565b600060405180830381600087803b158015611c8057600080fd5b505af1158015611c94573d6000803e3d6000fd5b505050505b611cb7611ca96020850185615997565b6083919060c0870135614281565b611cc1607861434a565b603254606c546001600160a01b0390911690637ad226dc905a611ce490866158c1565b606b54611cf191906158d4565b611cfb91906158d4565b6040516001600160e01b031960e084901b1681526004810191909152336024820152604401600060405180830381600087803b158015611d3a57600080fd5b505af1158015610ae2573d6000803e3d6000fd5b6000546001600160a01b03163314611d785760405162461bcd60e51b815260040161098d906152c3565b607154604051632a59250560e21b81526001600160a01b0383811660048301529091169063a964941490602401600060405180830381600087803b158015611dbf57600080fd5b505af1158015610c4e573d6000803e3d6000fd5b6000611ddf60786143ae565b905090565b6073546001600160a01b03163314611e0e5760405162461bcd60e51b815260040161098d906152fa565b604051636dc1282760e11b8152607460048201526001600160a01b03841660248201526001600160601b0380841660448301528216606482015273615689864C4FA99124b8221d28408F02B639Be029063db82504e90608401610ab6565b6073546040516304a3b6b360e31b8152607460048201526001600160a01b039182166024820152908216604482015273615689864C4FA99124b8221d28408F02B639Be029063251db59890606401610c22565b6000546001600160a01b03163314611ee95760405162461bcd60e51b815260040161098d906152c3565b60658690556087859055611f01607885858585613276565b6040805187815260208101879052908101859052606081018490526080810183905260a081018290527f88243406f452bee756e4fff4cb19e6855a5d3b7bfab8814ea6838685e08da0939060c00160405180910390a1505050505050565b6000546001600160a01b03163314611f895760405162461bcd60e51b815260040161098d906152c3565b6040516001600160a01b03821681527f0e2d2343d31b085b7c4e56d1c8a6ec79f7ab07460386f1c9a1756239fe2533ac9060200160405180910390a1603280546001600160a01b0319166001600160a01b0392909216919091179055565b612000611ff76020830183615997565b6083919061440b565b6040516305149aaf60e51b81527386C140C643056e57Af9a7988A060d5a482863eAD9063a29355e090610c22906078908590600401615471565b607354604051635c359a0f60e11b8152607460048201526001600160a01b039182166024820152908216604482015260009073615689864C4FA99124b8221d28408F02B639Be029063b86b341e906064015b602060405180830381865af41580156120a9573d6000803e3d6000fd5b505050506040513d601f19601f820116820180604052508101906120cd91906156de565b92915050565b6000546001600160a01b031633146120fd5760405162461bcd60e51b815260040161098d906152c3565b6001600160a01b038216600081815260706020908152604091829020805460ff191685151590811790915591519182527fb4d9db68405970190721d2b3726fc9f728c1413038755e60518dea67d5545556910160405180910390a25050565b6000546001600160a01b031633146121865760405162461bcd60e51b815260040161098d906152c3565b60648190556121976088848461346e565b60408051848152602081018490529081018290527fea9006ae23cd9b51dbfbc9d747fc3b0bc77acba4fefba609c76f8e9a9513602e90606001610a0e565b604051624f4ac760e01b8152607460048201526001600160a01b038216602482015260009073615689864C4FA99124b8221d28408F02B639Be0290624f4ac790604401602060405180830381865af4158015612235573d6000803e3d6000fd5b505050506040513d601f19601f820116820180604052508101906120cd91906159dd565b6000546001600160a01b031633146122835760405162461bcd60e51b815260040161098d906152c3565b604051633d36f3fd60e21b8152607460048201526001600160601b03841660248201526001600160401b0380841660448301528216606482015273615689864C4FA99124b8221d28408F02B639Be029063f4dbcff49060840160006040518083038186803b1580156122f457600080fd5b505af4158015612308573d6000803e3d6000fd5b5050604080516001600160601b03871681526001600160401b0380871660208301528516918101919091527f544b726e42801bb47073854eeedae851903f66fe32a5bd24e626e10b90027b5192506060019050610a0e565b61236a6083613e2f565b6001600160401b0316156123b75760405162461bcd60e51b81526020600482015260146024820152734e6f74206177616974696e672067656e6573697360601b604482015260640161098d565b6123c1607861390f565b6124207f4574c8c75d6e88acd28f7e467dac97b5c60c3838d9dad993900bdf402152228e43604051602001612400929190918252602082015260400190565b60408051601f1981840301815291905280516020909101206078906140ff565b565b6000546001600160a01b0316331461244c5760405162461bcd60e51b815260040161098d906152c3565b606b849055606c839055606d829055606e8190556040805185815260208101859052908101839052606081018290527feffd28b20afc0bf9349e8d49d5346c7568689b661a6bcd71c26a939b57b0acd190608001611048565b60006124b26083856135d9565b6040518060800160405290816000820180546124cd90615662565b80601f01602080910402602001604051908101604052809291908181526020018280546124f990615662565b80156125465780601f1061251b57610100808354040283529160200191612546565b820191906000526020600020905b81548152906001019060200180831161252957829003601f168201915b5050505050815260200160018201548152602001600282015481526020016003820160009054906101000a900460ff16151515158152505090508282604051602001612593929190615725565b604051602081830303815290604052805190602001208160400151146125cb5760405162461bcd60e51b815260040161098d90615770565b80606001511561261d5760405162461bcd60e51b815260206004820152601a60248201527f47726f75702063616e6e6f74206265207465726d696e61746564000000000000604482015260640161098d565b8051604080513360601b6bffffffffffffffffffffffff191660208201528151601481830301815260348201928390526339c6c5f160e21b90925273aF670a443F1122a33Deaf2b25695CbA76db5b5589263e71b17c492612682928a906038016159fa565b602060405180830381865af415801561269f573d6000803e3d6000fd5b505050506040513d601f19601f820116820180604052508101906126c39190615a33565b6127035760405162461bcd60e51b8152602060048201526011602482015270496e76616c6964207369676e617475726560781b604482015260640161098d565b61270e6083856139e2565b607154604051637bfcd47d60e11b81526000916001600160a01b03169063f7f9a8fa906127419087908790600401615725565b600060405180830381865afa15801561275e573d6000803e3d6000fd5b505050506040513d6000823e601f3d908101601f1916820160405261278691908101906157c2565b9050600081516001600160401b038111156127a3576127a3614e26565b6040519080825280602002602001820160405280156127cc578160200160208202803683370190505b50905060005b825181101561282c576127f08382815181106114e7576114e76155d3565b828281518110612802576128026155d3565b6001600160a01b03909216602092830291909101909101528061282481615876565b9150506127d2565b506073546066546069546040516383ddba8f60e01b81526001600160a01b03909316926383ddba8f9261287792600160601b9091046001600160601b03169133908790600401615622565b600060405180830381600087803b15801561289157600080fd5b505af19250505080156128a2575060015b612902576066546040516001600160401b038816917ffd4a5a45de3194b94e2a7954706ac9023b7c9935cf1a25242691da2a94d720d4916128f591600160601b90046001600160601b031690869061588f565b60405180910390a2610ae2565b6066546040516001600160401b038816917fa311dcb2a3eb32651a722488f4f281b3f8e4ab05abcd8a37a5c7d663bba5a8859161295191600160601b90046001600160601b031690869061588f565b60405180910390a250505050505050565b6073546001600160a01b0316331461298c5760405162461bcd60e51b815260040161098d906152fa565b604051633558d21760e21b8152607460048201526001600160a01b03841660248201526001600160601b0380841660448301528216606482015273615689864C4FA99124b8221d28408F02B639Be029063d563485c90608401610ab6565b6000611ddf607861385c565b60005a90506000612a0a6020870187614d49565b6001600160401b0381166000908152606f60205260409020549091508514612a645760405162461bcd60e51b815260206004820152600d60248201526c496e76616c6964206e6f6e636560981b604482015260640161098d565b612a6f6083826144f4565b612ab15760405162461bcd60e51b815260206004820152601360248201527247726f7570206973206e6f742061637469766560681b604482015260640161098d565b6000612abe6083836135d9565b90508484604051602001612ad3929190615725565b60405160208183030381529060405280519060200120816002015414612b0b5760405162461bcd60e51b815260040161098d90615770565b60715460405163fc21976b60e01b8152600091730B531CE4c1265Bf0360820df49EF2F58dbF286a29163fc21976b91612b5c916001600160a01b03909116908c9087908d908d908d90600401615acd565b600060405180830381865af4158015612b79573d6000803e3d6000fd5b505050506040513d6000823e601f3d908101601f19168201604052612ba191908101906158e7565b6001600160401b0384166000908152606f60205260408120805492935090612bc883615876565b9091555050604080518881523360208201526001600160401b038516917f3ca10b33fda0a4adbc75ac1939659a06e8c332b8f6a2792bedbf8741e4268417910160405180910390a26071546067546001600160a01b039091169063942f6892908390612c3490426158d4565b6040518363ffffffff1660e01b8152600401612c51929190615975565b600060405180830381600087803b158015612c6b57600080fd5b505af1158015612c7f573d6000803e3d6000fd5b5050603254606d546001600160a01b039091169250637ad226dc91505a611a1f90886158c1565b6000546001600160a01b03163314612cd05760405162461bcd60e51b815260040161098d906152c3565b6001600160a01b038116612d315760405162461bcd60e51b815260206004820152602260248201527f4e657720676f7665726e616e636520697320746865207a65726f206164647265604482015261737360f01b606482015260840161098d565b612d3a81614534565b50565b3360005a9050612d4d6078614595565b6032546001600160a01b0316637ad226dc5a612d6990846158c1565b6040516001600160e01b031960e084901b16815260048101919091526001600160a01b0385166024820152604401600060405180830381600087803b158015612db157600080fd5b505af1158015610ecb573d6000803e3d6000fd5b607154607f54604051636c2530b960e01b81526005600482015260248101919091526060916001600160a01b031690636c2530b990604401600060405180830381865afa158015612e1a573d6000803e3d6000fd5b505050506040513d6000823e601f3d908101601f19168201604052611ddf91908101906158e7565b60735460715460405163148140a160e21b8152607460048201526001600160a01b0392831660248201529082166044820152908216606482015260009073615689864C4FA99124b8221d28408F02B639Be0290635205028490608401602060405180830381865af4158015612ebb573d6000803e3d6000fd5b505050506040513d601f19601f820116820180604052508101906120cd9190615a33565b6071546040516307b8c36760e51b81526001600160a01b038381166004830152600092169063f7186ce090602401602060405180830381865afa158015612ebb573d6000803e3d6000fd5b600080612f4f836001600160a01b039081166000908152607560205260409020541690565b90506001600160a01b038116612f9a5760405162461bcd60e51b815260206004820152601060248201526f2ab735b737bbb71037b832b930ba37b960811b604482015260640161098d565b60715460405163439f18fd60e11b81526001600160a01b0383811660048301529091169063873e31fa90602401602060405180830381865afa158015612fe4573d6000803e3d6000fd5b505050506040513d601f19601f8201168201806040525081019061300891906156de565b9392505050565b604051635fc3290960e11b8152607460048201526001600160a01b038216602482015260009073615689864C4FA99124b8221d28408F02B639Be029063bf8652129060440161208c565b82546001600160a01b0316156130bc5760405162461bcd60e51b815260206004820152602260248201527f536f72746974696f6e20506f6f6c206164647265737320616c72656164792073604482015261195d60f21b606482015260840161098d565b60018301546001600160a01b0316156131215760405162461bcd60e51b815260206004820152602160248201527f444b472056616c696461746f72206164647265737320616c72656164792073656044820152601d60fa1b606482015260840161098d565b82546001600160a01b03199081166001600160a01b03938416178455600190930180549093169116179055565b600181015415801561316257506002810154155b6131ae5760405162461bcd60e51b815260206004820152601e60248201527f5365656420656e74727920616c726561647920696e697469616c697a65640000604482015260640161098d565b6131cf604051806060016040528060408152602001615e4c60409139613501565b8051600183015560200151600290910155565b8154600160401b90046001600160401b03161561323d5760405162461bcd60e51b815260206004820152601960248201527852656c6179207265717565737420696e2070726f677265737360381b604482015260640161098d565b600390910180546001600160601b03909216600160401b0273ffffffffffffffffffffffff000000000000000019909216919091179055565b60006132818661385c565b6004811115613292576132926151d3565b146132db5760405162461bcd60e51b815260206004820152601960248201527843757272656e74207374617465206973206e6f742049444c4560381b604482015260640161098d565b600084116133515760405162461bcd60e51b815260206004820152603a60248201527f526573756c74206368616c6c656e676520706572696f64206c656e677468207360448201527f686f756c642062652067726561746572207468616e207a65726f000000000000606482015260840161098d565b600082116133bf5760405162461bcd60e51b815260206004820152603560248201527f526573756c74207375626d697373696f6e2074696d656f75742073686f756c646044820152742062652067726561746572207468616e207a65726f60581b606482015260840161098d565b8181106134515760405162461bcd60e51b815260206004820152605460248201527f5375626d697474657220707265636564656e636520706572696f64206c656e6760448201527f74682073686f756c64206265206c657373207468616e2074686520726573756c6064820152731d081cdd589b5a5cdcda5bdb881d1a5b595bdd5d60621b608482015260a40161098d565b600285019390935560038401919091556004830155600590910155565b8254600160401b90046001600160401b0316156134c95760405162461bcd60e51b815260206004820152601960248201527852656c6179207265717565737420696e2070726f677265737360381b604482015260640161098d565b6003909201805463ffffffff9384166401000000000267ffffffffffffffff199091169390921692909217179055565b600490910155565b604080518082019091526000808252602082015281516040146135665760405162461bcd60e51b815260206004820152601760248201527f496e76616c6964204731206279746573206c656e677468000000000000000000604482015260640161098d565b5060208181015160409283015183518085019094529083529082015290565b60038101545a1015612d3a5760405162461bcd60e51b815260206004820152601960248201527f4e6f7420656e6f75676820657874726120676173206c65667400000000000000604482015260640161098d565b600082600001600084600101846001600160401b0316815481106135ff576135ff6155d3565b90600052602060002001548152602001908152602001600020905092915050565b6040805181815260608181018352916000919060208201818036833750508451602095860151958301525060408101939093525090919050565b600061366583613c14565b600061367084613e2f565b6001600160401b0316116136b95760405162461bcd60e51b815260206004820152601060248201526f4e6f206163746976652067726f75707360801b604482015260640161098d565b60006136c484613e2f565b6136d7906001600160401b031684615711565b905060006136ee856136e987856145c7565b6145e3565b95945050505050565b8154600160401b90046001600160401b0316156137605760405162461bcd60e51b815260206004820152602160248201527f416e6f746865722072656c6179207265717565737420696e2070726f677265736044820152607360f81b606482015260840161098d565b81546000908390829061377b906001600160401b0316615bae565b82546101009290920a6001600160401b038181021990931682841691820217909355855477ffffffffffffffffffffffffffffffff00000000000000001916600160401b840267ffffffffffffffff60801b191617600160801b86841602176001600160c01b0316600160c01b43909316929092029190911785556040805180820190915260018601548152600286015460208201529092507fdf86f752d80d21879cbd208ba1d036c03f836b1d7f8f887b0b9e0b63f8a49f5d90849061384190613620565b60405161384f929190615bd4565b60405180910390a2505050565b805460408051632938b58d60e21b815290516000926001600160a01b03169163a4e2d6349160048083019260209291908290030181865afa1580156138a5573d6000803e3d6000fd5b505050506040513d601f19601f820116820180604052508101906138c99190615a33565b1561390a575060068101546001901561390a5760029050606482600601546138f191906158d4565b43111561390a5750600a8101546003901561390a575060045b919050565b600061391a8261385c565b600481111561392b5761392b6151d3565b146139745760405162461bcd60e51b815260206004820152601960248201527843757272656e74207374617465206973206e6f742049444c4560381b604482015260640161098d565b6040517f5c3ed2397d4d21298b2fb5027ac8e2d42e3c9c72bbb55ddb030e2a36a0cdff6b90600090a1805460408051637c1e845d60e11b815290516001600160a01b039092169163f83d08ba9160048082019260009290919082900301818387803b158015611dbf57600080fd5b6139ec8282614679565b15613a435760405162461bcd60e51b815260206004820152602160248201527f47726f757020686173206265656e20616c7265616479207465726d696e6174656044820152601960fa1b606482015260840161098d565b600182600001600084600101846001600160401b031681548110613a6957613a696155d3565b60009182526020808320919091015483528201929092526040018120600301805460ff1916921515929092179091556002830180546001908101808355918352613ab2916158c1565b90505b600081118015613b1257506001600160401b03821660028401613ad96001846158c1565b81548110613ae957613ae96155d3565b6000918252602090912060048204015460039091166008026101000a90046001600160401b0316115b15613bc05760028301613b266001836158c1565b81548110613b3657613b366155d3565b90600052602060002090600491828204019190066008029054906101000a90046001600160401b0316836002018281548110613b7457613b746155d3565b90600052602060002090600491828204019190066008026101000a8154816001600160401b0302191690836001600160401b031602179055508080613bb890615bf6565b915050613ab5565b81836002018281548110613bd657613bd66155d3565b90600052602060002090600491828204019190066008026101000a8154816001600160401b0302191690836001600160401b03160217905550505050565b600181015460038201546001600160401b0316108015613c6e575060038101546001820180544392613c6c92859290916001600160401b0316908110613c5c57613c5c6155d3565b90600052602060002001546146c9565b105b15613cb8576003810180546001600160401b0316906000613c8e83615bae565b91906101000a8154816001600160401b0302191690836001600160401b0316021790555050613c14565b60005b600282015481101561134457816002018181548110613cdc57613cdc6155d3565b6000918252602090912060048204015460038481015492166008026101000a90046001600160401b0390811691161115613e1d57805b6002830154613d23906001906158c1565b811015613dd35760028301613d398260016158d4565b81548110613d4957613d496155d3565b90600052602060002090600491828204019190066008029054906101000a90046001600160401b0316836002018281548110613d8757613d876155d3565b90600052602060002090600491828204019190066008026101000a8154816001600160401b0302191690836001600160401b031602179055508080613dcb90615876565b915050613d12565b5081600201805480613de757613de7615c0d565b60008281526020902060046000199092019182040180546001600160401b03600860038516026101000a02191690559055613cbb565b80613e2781615876565b915050613cbb565b60018101546000908103613e4557506000919050565b60028201546003830154600184015460009291613e6d916001600160401b03909116906158c1565b61300891906158c1565b613e80826146eb565b613ecc5760405162461bcd60e51b815260206004820152601e60248201527f52656c6179207265717565737420646964206e6f742074696d65206f75740000604482015260640161098d565b81546040516001600160401b03600160801b83048116808352600160401b90930416919082907fc28be0fa97c9083fa79881ba8950c1333fb45ec5100d2b893ec0f41544e78bef9060200160405180910390a283546fffffffffffffffffffffffffffffffff16600160801b6001600160401b03858116919091026001600160c01b031691909117600160c01b43831602178555604080518082019091526001860154815260028601546020820152908316907fdf86f752d80d21879cbd208ba1d036c03f836b1d7f8f887b0b9e0b63f8a49f5d908590613fac90613620565b604051611229929190615bd4565b613fc3816146eb565b61400f5760405162461bcd60e51b815260206004820152601e60248201527f52656c6179207265717565737420646964206e6f742074696d65206f75740000604482015260640161098d565b80546040516001600160401b03600160801b830481168252600160401b909204909116907fc28be0fa97c9083fa79881ba8950c1333fb45ec5100d2b893ec0f41544e78bef9060200160405180910390a280546001600160401b03169055565b600161407a8261385c565b600481111561408b5761408b6151d3565b146140a85760405162461bcd60e51b815260040161098d90615c23565b6040517f68c52f05452e81639fa06f379aee3178cddee4725521fff886f244c99e868b5090600090a1612d3a8161434a565b6000806140e68661475f565b90506140f4868686866147f4565b90505b949350505050565b600161410a8361385c565b600481111561411b5761411b6151d3565b146141385760405162461bcd60e51b815260040161098d90615c23565b60405181907fb2ad26c2940889d79df2ee9c758a8aefa00c5ca90eee119af0e5d795df3b98bb90600090a2436006830155600790910155565b82546001600160a01b031615614219578254604051631bfaf51960e21b8152600481018490524360248201526001600160a01b0390911690636febd464908390604401600060405180830381600088803b1580156141ce57600080fd5b5087f1935050505080156141e0575060015b61421957604080518381524360208201527f5e2af61e77ec91022b1cafe282abce475bb18e8cdd47083464caa06583fe39099101610a0e565b505050565b61422784614ae4565b43106142755760405162461bcd60e51b815260206004820152601f60248201527f52656c617920656e74727920736f66742074696d656f75742070617373656400604482015260640161098d565b610b67848484846147f4565b600083836040516142939291906158b1565b60408051918290039091206000818152602088905291909120909150806142bb858783615cab565b50600281018390554360018083019190915586810180549182018155600090815260209020018290556040516142f490869086906158b1565b60405190819003902060018781015461430d91906158c1565b6001600160401b03167f4c0666db2c51896711b100d1f4f5d20a347c59e6e16ad8f365ed81ff97358b4e60405160405180910390a3505050505050565b600060068201819055600782018190556008820181905560098201819055600a820181905581546040805163a69df4b560e01b815290516001600160a01b039092169263a69df4b59260048084019382900301818387803b158015611dbf57600080fd5b600060036143bb8361385c565b60048111156143cc576143cc6151d3565b1480156120cd57506004820154600883015460068401546143ef906064906158d4565b6143f991906158d4565b61440391906158d4565b431192915050565b6080811461445b5760405162461bcd60e51b815260206004820181905260248201527f496e76616c6964206c656e677468206f6620746865207075626c6963206b6579604482015260640161098d565b6000828260405161446d9291906158b1565b604080519182900390912060008181526020879052919091206001015490915015610b675760405162461bcd60e51b815260206004820152603160248201527f47726f757020776974682074686973207075626c6963206b65792077617320616044820152701b1c9958591e481c9959da5cdd195c9959607a1b606482015260840161098d565b6000436145198485600101856001600160401b031681548110613c5c57613c5c6155d3565b10158015613008575061452c8383614679565b159392505050565b600080546001600160a01b038381166001600160a01b031983168117909355604080519190921680825260208201939093527f5f56bee8cffbe9a78652a74a60705edede02af10b0bbb888ca44b79a0d42ce80910160405180910390a15050565b6040517f2852b3e178dd281713b041c3d90b4815bb55b7ec812931d1e8e8d8bb2ed72d3e90600090a1612d3a8161434a565b60038201546000906130089083906001600160401b0316615d6a565b600081815b60028501546001600160401b038216101561467157816001600160401b031685600201826001600160401b031681548110614625576146256155d3565b6000918252602090912060048204015460039091166008026101000a90046001600160401b03161161465f578161465b81615bae565b9250505b8061466981615bae565b9150506145e8565b509392505050565b600082600001600084600101846001600160401b03168154811061469f5761469f6155d3565b6000918252602080832090910154835282019290925260400190206003015460ff16905092915050565b60048201546000828152602084905260408120600101549091613008916158d4565b6003810154600090819061470f9063ffffffff640100000000820481169116615d91565b63ffffffff16905061473283546001600160401b03600160401b90910416151590565b801561300857508254614756908290600160c01b90046001600160401b03166158d4565b43119392505050565b60008061476b83614ae4565b9050804311156147eb57600061478182436158c1565b6003850154909150640100000000900463ffffffff168111156147b357506003830154640100000000900463ffffffff165b6003840154640100000000810463ffffffff16906147e190600160401b90046001600160601b031683615dae565b6140f79190615dc5565b50600092915050565b8354600160401b90046001600160401b03166148525760405162461bcd60e51b815260206004820152601c60248201527f4e6f2072656c6179207265717565737420696e2070726f677265737300000000604482015260640161098d565b61485b846146eb565b156148a85760405162461bcd60e51b815260206004820152601760248201527f52656c617920726571756573742074696d6564206f7574000000000000000000604482015260640161098d565b73aF670a443F1122a33Deaf2b25695CbA76db5b55863b6087a0f6149548380546148d190615662565b80601f01602080910402602001604051908101604052809291908181526020018280546148fd90615662565b801561494a5780601f1061491f5761010080835404028352916020019161494a565b820191906000526020600020905b81548152906001019060200180831161492d57829003601f168201915b5050505050614b1f565b8660010161499787878080601f01602080910402602001604051908101604052809392919081815260200183838082843760009201919091525061350192505050565b6040518463ffffffff1660e01b81526004016149b593929190615dd9565b602060405180830381865af41580156149d2573d6000803e3d6000fd5b505050506040513d601f19601f820116820180604052508101906149f69190615a33565b614a325760405162461bcd60e51b815260206004820152600d60248201526c496e76616c696420656e74727960981b604482015260640161098d565b8354604051600160401b9091046001600160401b0316907f087df9fd862e4448d02f8b58e33a18941769c795a8b83cfb95dfaf9c92ca897e90614a7a90339087908790615e26565b60405180910390a2614ac183838080601f01602080910402602001604051908101604052809392919081815260200183838082843760009201919091525061350192505050565b80516001860155602001516002850155505081546001600160401b031690915550565b60038101548154600091614b109163ffffffff90911690600160c01b90046001600160401b0316615d6a565b6001600160401b031692915050565b614b27614bc0565b8151608014614b785760405162461bcd60e51b815260206004820152601760248201527f496e76616c6964204732206279746573206c656e677468000000000000000000604482015260640161098d565b50602081810151604080840151606080860151608096870151845197880185528785019586529187019290925292855281518083019092528152808301919091529082015290565b60408051608081018252600091810182815260608201929092529081908152602001614bff604051806040016040528060008152602001600081525090565b905290565b6001600160601b0381168114612d3a57600080fd5b600080600060608486031215614c2e57600080fd5b8335614c3981614c04565b92506020840135614c4981614c04565b91506040840135614c5981614c04565b809150509250925092565b6001600160a01b0381168114612d3a57600080fd5b600080600060608486031215614c8e57600080fd5b8335614c3981614c64565b6020808252825182820181905260009190848201906040850190845b81811015614cd157835183529284019291840191600101614cb5565b50909695505050505050565b600060208284031215614cef57600080fd5b813561300881614c64565b600060208284031215614d0c57600080fd5b81356001600160401b03811115614d2257600080fd5b820160e0818503121561300857600080fd5b6001600160401b0381168114612d3a57600080fd5b600060208284031215614d5b57600080fd5b813561300881614d34565b6000815180845260005b81811015614d8c57602081850181015186830182015201614d70565b506000602082860101526020601f19601f83011685010191505092915050565b602081526000825160806020840152614dc860a0840182614d66565b905060208401516040840152604084015160608401526060840151151560808401528091505092915050565b60008060008060808587031215614e0a57600080fd5b5050823594602084013594506040840135936060013592509050565b634e487b7160e01b600052604160045260246000fd5b604051601f8201601f191681016001600160401b0381118282101715614e6457614e64614e26565b604052919050565b600082601f830112614e7d57600080fd5b81356001600160401b03811115614e9657614e96614e26565b614ea9601f8201601f1916602001614e3c565b818152846020838601011115614ebe57600080fd5b816020850160208301376000918101602001919091529392505050565b600060208284031215614eed57600080fd5b81356001600160401b03811115614f0357600080fd5b6140f784828501614e6c565b60008083601f840112614f2157600080fd5b5081356001600160401b03811115614f3857600080fd5b6020830191508360208260051b8501011115614f5357600080fd5b9250929050565b60008060208385031215614f6d57600080fd5b82356001600160401b03811115614f8357600080fd5b614f8f85828601614f0f565b90969095509350505050565b60008083601f840112614fad57600080fd5b5081356001600160401b03811115614fc457600080fd5b602083019150836020828501011115614f5357600080fd5b60008060008060408587031215614ff257600080fd5b84356001600160401b038082111561500957600080fd5b61501588838901614f9b565b9096509450602087013591508082111561502e57600080fd5b5061503b87828801614f0f565b95989497509550505050565b6000806020838503121561505a57600080fd5b82356001600160401b0381111561507057600080fd5b614f8f85828601614f9b565b60008060008060008060c0878903121561509557600080fd5b505084359660208601359650604086013595606081013595506080810135945060a0013592509050565b8015158114612d3a57600080fd5b600080604083850312156150e057600080fd5b82356150eb81614c64565b915060208301356150fb816150bf565b809150509250929050565b60008060006060848603121561511b57600080fd5b505081359360208301359350604090920135919050565b60008060006060848603121561514757600080fd5b833561515281614c04565b9250602084013561516281614d34565b91506040840135614c5981614d34565b6000806000806060858703121561518857600080fd5b84356001600160401b038082111561519f57600080fd5b6151ab88838901614e6c565b9550602087013591506151bd82614d34565b9093506040860135908082111561502e57600080fd5b634e487b7160e01b600052602160045260246000fd5b602081016005831061520b57634e487b7160e01b600052602160045260246000fd5b91905290565b6000806000806060858703121561522757600080fd5b84356001600160401b038082111561523e57600080fd5b908601906080828903121561525257600080fd5b909450602086013593506040860135908082111561502e57600080fd5b600081518084526020808501945080840160005b838110156152a557815163ffffffff1687529582019590820190600101615283565b509495945050505050565b602081526000613008602083018461526f565b6020808252601c908201527f43616c6c6572206973206e6f742074686520676f7665726e616e636500000000604082015260600190565b60208082526022908201527f43616c6c6572206973206e6f7420746865207374616b696e6720636f6e74726160408201526118dd60f21b606082015260800190565b6000808335601e1984360301811261535357600080fd5b83016020810192503590506001600160401b0381111561537257600080fd5b803603821315614f5357600080fd5b81835281816020850137506000828201602090810191909152601f909101601f19169091010190565b6000808335601e198436030181126153c157600080fd5b83016020810192503590506001600160401b038111156153e057600080fd5b8060051b3603821315614f5357600080fd5b81835260006001600160fb1b0383111561540b57600080fd5b8260051b80836020870137939093016020019392505050565b63ffffffff81168114612d3a57600080fd5b8183526000602080850194508260005b858110156152a557813561545981615424565b63ffffffff1687529582019590820190600101615446565b82815260006020604081840152833560408401526154918185018561533c565b60e060608601526154a761012086018284615381565b9150506154b760408601866153aa565b603f19868403810160808801528184529192600092908501835b838110156154fd57853560ff81168082146154ea578687fd5b83525094860194908601906001016154d1565b5061550b60608a018a61533c565b96509450818882030160a0890152615524818787615381565b95505061553460808901896153aa565b94509250808786030160c088015261554d8585856153f2565b945061555c60a08901896153aa565b94509250808786030160e08801525050615577838383615436565b9250505060c0840135610100840152809150509392505050565b600080604083850312156155a457600080fd5b8251915060208301516150fb81615424565b6000602082840312156155c857600080fd5b815161300881614c64565b634e487b7160e01b600052603260045260246000fd5b600081518084526020808501945080840160005b838110156152a55781516001600160a01b0316875295820195908201906001016155fd565b6001600160601b038516815283602082015260018060a01b038316604082015260806060820152600061565860808301846155e9565b9695505050505050565b600181811c9082168061567657607f821691505b60208210810361569657634e487b7160e01b600052602260045260246000fd5b50919050565b6000806000606084860312156156b157600080fd5b83516156bc81614c64565b60208501519093506156cd81614c64565b6040850151909250614c5981614c64565b6000602082840312156156f057600080fd5b815161300881614c04565b634e487b7160e01b600052601260045260246000fd5b600082615720576157206156fb565b500690565b60208082528181018390526000908460408401835b8681101561576557823561574d81615424565b63ffffffff168252918301919083019060010161573a565b509695505050505050565b602080825260159082015274496e76616c69642067726f7570206d656d6265727360581b604082015260600190565b60006001600160401b038211156157b8576157b8614e26565b5060051b60200190565b600060208083850312156157d557600080fd5b82516001600160401b038111156157eb57600080fd5b8301601f810185136157fc57600080fd5b805161580f61580a8261579f565b614e3c565b81815260059190911b8201830190838101908783111561582e57600080fd5b928401925b8284101561585557835161584681614c64565b82529284019290840190615833565b979650505050505050565b634e487b7160e01b600052601160045260246000fd5b60006001820161588857615888615860565b5060010190565b6001600160601b03831681526040602082015260006140f760408301846155e9565b8183823760009101908152919050565b818103818111156120cd576120cd615860565b808201808211156120cd576120cd615860565b600060208083850312156158fa57600080fd5b82516001600160401b0381111561591057600080fd5b8301601f8101851361592157600080fd5b805161592f61580a8261579f565b81815260059190911b8201830190838101908783111561594e57600080fd5b928401925b8284101561585557835161596681615424565b82529284019290840190615953565b604081526000615988604083018561526f565b90508260208301529392505050565b6000808335601e198436030181126159ae57600080fd5b8301803591506001600160401b038211156159c857600080fd5b602001915036819003821315614f5357600080fd5b6000602082840312156159ef57600080fd5b815161300881614d34565b606081526000615a0d6060830186614d66565b8281036020840152615a1f8186614d66565b905082810360408401526156588185614d66565b600060208284031215615a4557600080fd5b8151613008816150bf565b60008154615a5d81615662565b808552602060018381168015615a7a5760018114615a9457615ac2565b60ff1985168884015283151560051b880183019550615ac2565b866000528260002060005b85811015615aba5781548a8201860152908301908401615a9f565b890184019650505b505050505092915050565b6001600160a01b038716815260a0602082015260008635615aed81614d34565b6001600160401b031660a0830152615b0860208801886153aa565b608060c0850152615b1e610120850182846153f2565b915050615b2e604089018961533c565b609f19808685030160e0870152615b46848385615381565b9350615b5560608c018c6153aa565b93509150808685030161010087015250615b708383836153f2565b925050508281036040840152615b868188615a50565b90508560608401528281036080840152615ba1818587615436565b9998505050505050505050565b60006001600160401b03808316818103615bca57615bca615860565b6001019392505050565b6001600160401b03831681526040602082015260006140f76040830184614d66565b600081615c0557615c05615860565b506000190190565b634e487b7160e01b600052603160045260246000fd5b60208082526022908201527f43757272656e74207374617465206973206e6f74204157414954494e475f5345604082015261115160f21b606082015260800190565b601f82111561421957600081815260208120601f850160051c81016020861015615c8c5750805b601f850160051c820191505b81811015610ecb57828155600101615c98565b6001600160401b03831115615cc257615cc2614e26565b615cd683615cd08354615662565b83615c65565b6000601f841160018114615d0a5760008515615cf25750838201355b600019600387901b1c1916600186901b178355610c4e565b600083815260209020601f19861690835b82811015615d3b5786850135825560209485019460019092019101615d1b565b5086821015615d585760001960f88860031b161c19848701351681555b505060018560011b0183555050505050565b6001600160401b03818116838216019080821115615d8a57615d8a615860565b5092915050565b63ffffffff818116838216019080821115615d8a57615d8a615860565b80820281158282048414176120cd576120cd615860565b600082615dd457615dd46156fb565b500490565b835180518252602090810151818301528085015180516040840152810151606083015283546080830152600184015460a0830152825160c083015282015160e082015261010081016140f7565b6001600160a01b03841681526040602082018190526000906136ee908301848661538156fe15c30f4b6cf6dbbcbdcc10fe22f54c8170aea44e198139b776d512d8f027319a1b9e8bfaf1383978231ce98e42bafc8129f473fc993cf60ce327f7d223460663a2646970667358221220c2630a35c058c136e096014c3008f6377b8b17ba4ff6b49039a5d38983458fdd64736f6c634300081100335a65726f2d61646472657373207265666572656e63650000000000000000000015c30f4b6cf6dbbcbdcc10fe22f54c8170aea44e198139b776d512d8f027319a1b9e8bfaf1383978231ce98e42bafc8129f473fc993cf60ce327f7d223460663",
  "deployedBytecode": "0x608060405234801561001057600080fd5b506004361061038e5760003560e01c80637e0049fd116101de578063c35d64ea1161010f578063ded56d45116100ad578063f5ee563f1161007c578063f5ee563f146108fc578063f7186ce01461092a578063f854a27f1461093d578063fd2a47881461095057600080fd5b8063ded56d4514610897578063e03e4535146108c3578063e686440f146108d8578063f0820c92146108eb57600080fd5b8063cb8b3779116100e9578063cb8b377914610854578063ccfd3bbe14610869578063d38bfff41461087c578063d855c6311461088f57600080fd5b8063c35d64ea14610802578063c7c49c9814610815578063c9bacaad1461084157600080fd5b8063a04e29801161017c578063b142f85c11610156578063b142f85c1461078a578063b53dacdf146107c9578063b54a2374146107dc578063c09975cd146107ef57600080fd5b8063a04e29801461075c578063a7f0b3de1461076f578063b0d010d61461077757600080fd5b80638f105e37116101b85780638f105e37146106f1578063985e64871461070b5780639a7d09351461071e5780639c9de0281461073157600080fd5b80637e0049fd146106a25780637e33cba6146106b557806388a59590146106e057600080fd5b80634a07068e116102c3578063663032cd1161026157806375e0ae5a1161023057806375e0ae5a1461060c57806377a5a7bd1461061f5780637b14729e146106325780637b35b4e61461068f57600080fd5b8063663032cd146105ae57806368c34948146105c15780636a7f7a90146105c957806374024ab7146105dc57600080fd5b806355b64bcc1161029d57806355b64bcc1461056257806357665912146105755780635aa6e675146105885780635c5b38701461059b57600080fd5b80634a07068e146104f75780634cf088d91461050a578063529023011461053557600080fd5b8063319ac101116103305780633ea478aa1161030a5780633ea478aa1461048b57806342d86693146104be5780634368ec0c146104d15780634549cc4b146104e457600080fd5b8063319ac10114610445578063339646ac146104655780633682a4501461047857600080fd5b80631872ea941161036c5780631872ea94146103c35780631c5b0762146103e15780631d35fa63146103f4578063313767661461043257600080fd5b80630519e9911461039357806314a85474146103a8578063167f0517146103bb575b600080fd5b6103a66103a1366004614c19565b610963565b005b6103a66103b6366004614c79565b610a1b565b6103a6610aeb565b6103cb610b6d565b6040516103d89190614c99565b60405180910390f35b6103a66103ef366004614cdd565b610bc8565b608b5460665460408051600160401b9093046001600160601b0390811684528083166020850152600160601b909204909116908201526060016103d8565b6103a6610440366004614cfa565b610c55565b610458610453366004614d49565b610ed3565b6040516103d89190614dac565b6103a6610473366004614df4565b610fc9565b6103a6610486366004614cdd565b611056565b6104ae610499366004614cdd565b60706020526000908152604090205460ff1681565b60405190151581526020016103d8565b6103a66104cc366004614cdd565b61109d565b6103a66104df366004614cdd565b611237565b6104586104f2366004614edb565b611348565b6103a6610505366004614f5a565b611383565b60735461051d906001600160a01b031681565b6040516001600160a01b0390911681526020016103d8565b606754606854606954606a545b6040805194855260208501939093529183015260608201526080016103d8565b6103a6610570366004614fdc565b6116f1565b6103a6610583366004615047565b611a8a565b60005461051d906001600160a01b031681565b6103a66105a9366004614cfa565b611b93565b6103a66105bc366004614cdd565b611d4e565b6104ae611dd3565b6103a66105d7366004614c79565b611de4565b608b546064546040805163ffffffff808516825264010000000090940490931660208401528201526060016103d8565b6103a661061a366004614cdd565b611e6c565b6103a661062d36600461507c565b611ebf565b6106606074546001600160601b038116916001600160401b03600160601b8304811692600160a01b90041690565b604080516001600160601b0390941684526001600160401b0392831660208501529116908201526060016103d8565b6103a661069d366004614cdd565b611f5f565b6103a66106b0366004614cfa565b611fe7565b6106c86106c3366004614cdd565b61203a565b6040516001600160601b0390911681526020016103d8565b606b54606c54606d54606e54610542565b608854600160401b90046001600160401b031615156104ae565b6103a66107193660046150cd565b6120d3565b6103a661072c366004615106565b61215c565b61074461073f366004614cdd565b6121d5565b6040516001600160401b0390911681526020016103d8565b6103a661076a366004615132565b612259565b6103a6612360565b6103a6610785366004614df4565b612422565b606554608754607a54607b54607c54607d54604080519687526020870195909552938501929092526060840152608083015260a082015260c0016103d8565b6103a66107d7366004615172565b6124a5565b60715461051d906001600160a01b031681565b60325461051d906001600160a01b031681565b60725461051d906001600160a01b031681565b61051d610823366004614cdd565b6001600160a01b039081166000908152607560205260409020541690565b6103a661084f366004614c79565b612962565b61085c6129ea565b6040516103d891906151e9565b6103a6610877366004615211565b6129f6565b6103a661088a366004614cdd565b612ca6565b6103a6612d3d565b61051d6108a5366004614cdd565b6001600160a01b039081166000908152607660205260409020541690565b6108cb612dc5565b6040516103d891906152b0565b6104ae6108e6366004614cdd565b612e42565b6074546001600160601b03166106c8565b61091c61090a366004614d49565b606f6020526000908152604090205481565b6040519081526020016103d8565b6104ae610938366004614cdd565b612edf565b6106c861094b366004614cdd565b612f2a565b6106c861095e366004614cdd565b61300f565b6000546001600160a01b031633146109965760405162461bcd60e51b815260040161098d906152c3565b60405180910390fd5b6109a16088846131e2565b606680546001600160601b038481166001600160c01b03199092168217600160601b858316908102919091179093556040805191871682526020820192909252908101919091527f1eda09aaee2b21bbf5571b06eab42dd1b2c2b629a5d6336230ff8b0e1f538276906060015b60405180910390a1505050565b6073546001600160a01b03163314610a455760405162461bcd60e51b815260040161098d906152fa565b60735460715460405163117964a560e21b8152607460048201526001600160a01b039283166024820152908216604482015290841660648201526001600160601b038084166084830152821660a482015273__$1150d55cc8540ae1e6a8a840b6e83a829d$__906345e592949060c4015b60006040518083038186803b158015610ace57600080fd5b505af4158015610ae2573d6000803e3d6000fd5b50505050505050565b60735460715460405163520c3d3160e01b8152607460048201526001600160a01b0392831660248201529116604482015273__$1150d55cc8540ae1e6a8a840b6e83a829d$__9063520c3d319060640160006040518083038186803b158015610b5357600080fd5b505af4158015610b67573d6000803e3d6000fd5b50505050565b60606083600101805480602002602001604051908101604052809291908181526020018280548015610bbe57602002820191906000526020600020905b815481526020019060010190808311610baa575b5050505050905090565b60735460715460405163c6e1c83960e01b8152607460048201526001600160a01b0392831660248201529082166044820152908216606482015273__$1150d55cc8540ae1e6a8a840b6e83a829d$__9063c6e1c839906084015b60006040518083038186803b158015610c3a57600080fd5b505af4158015610c4e573d6000803e3d6000fd5b5050505050565b6040516346bf00db60e01b8152600090819073__$852b9611da141be0769f808cc0e4dd5c7d$__906346bf00db90610c94906078908790600401615471565b6040805180830381865af4158015610cb0573d6000803e3d6000fd5b505050506040513d601f19601f82011682018060405250810190610cd49190615591565b606654607154604051638871ca5d60e01b815263ffffffff841660048201529395509193506001600160601b0316916000916001600160a01b031690638871ca5d90602401602060405180830381865afa158015610d36573d6000803e3d6000fd5b505050506040513d601f19601f82011682018060405250810190610d5a91906155b6565b60408051600180825281830190925291925060009190602080830190803683375050506001600160a01b038381166000908152607660205260409020549192501681600081518110610dae57610dae6155d3565b6001600160a01b039283166020918202929092010152607354606a546040516383ddba8f60e01b815291909216916383ddba8f91610df491879133908790600401615622565b600060405180830381600087803b158015610e0e57600080fd5b505af1925050508015610e1f575060015b610e7457604080516001600160601b03851681526001600160a01b038416602082015286917f14621289a12ab59e0737decc388bba91d929c723defb4682d5d19b9a12ecfecb910160405180910390a2610ec1565b604080516001600160601b03851681526001600160a01b038416602082015286917f88f76c659db78142f88e94db3ca791869495394c6c1b3d412ced9022dc97c9e3910160405180910390a25b610ecb6078613585565b505050505050565b604080516080810182526060808252600060208301819052928201839052810191909152610f026083836135d9565b604051806080016040529081600082018054610f1d90615662565b80601f0160208091040260200160405190810160405280929190818152602001828054610f4990615662565b8015610f965780601f10610f6b57610100808354040283529160200191610f96565b820191906000526020600020905b815481529060010190602001808311610f7957829003601f168201915b5050509183525050600182015460208201526002820154604082015260039091015460ff16151560609091015292915050565b6000546001600160a01b03163314610ff35760405162461bcd60e51b815260040161098d906152c3565b606784905560688390556069829055606a8190556040805185815260208101859052908101839052606081018290527fbe6727aab9b80431985c18deef80d48599397c63884c62e96959f82abd16f16d906080015b60405180910390a150505050565b604051634755926360e01b8152607460048201526001600160a01b038216602482015273__$1150d55cc8540ae1e6a8a840b6e83a829d$__90634755926390604401610c22565b6001600160a01b0381811660009081526075602052604090205416806110f85760405162461bcd60e51b815260206004820152601060248201526f2ab735b737bbb71037b832b930ba37b960811b604482015260640161098d565b607354604051632de9480760e01b81526001600160a01b0384811660048301526000921690632de9480790602401606060405180830381865afa158015611143573d6000803e3d6000fd5b505050506040513d601f19601f82011682018060405250810190611167919061569c565b50607154604051637104c0e560e11b81526001600160a01b03868116600483015280841660248301529294506000935091169063e20981ca906044016020604051808303816000875af11580156111c2573d6000803e3d6000fd5b505050506040513d601f19601f820116820180604052508101906111e691906156de565b6040516001600160601b03821681529091506001600160a01b038516907f38532b6dea69d7266fa923c7813d190be37625f2454ddfa3d93c45c79482e3fd906020015b60405180910390a250505050565b3360009081526070602052604090205460ff166112965760405162461bcd60e51b815260206004820152601c60248201527f526571756573746572206d75737420626520617574686f72697a656400000000604482015260640161098d565b604080518082019091526089548152608a5460208201526000906112cd906112bd90613620565b805160209091012060839061365a565b90506112da6088826136f7565b608c80546001600160a01b0319166001600160a01b03841617905560655460885461130e91906001600160401b0316615711565b15801561133557506000611322607861385c565b6004811115611333576113336151d3565b145b1561134457611344607861390f565b5050565b604080516080810182526060808252600060208084018290528385018290529183018190528451858301208152608390915291909120610f02565b608854600160801b90046001600160401b031660006113a36083836135d9565b905083836040516020016113b8929190615725565b604051602081830303815290604052805190602001208160020154146113f05760405162461bcd60e51b815260040161098d90615770565b608b54607154604051637bfcd47d60e11b8152600160401b9092046001600160601b0316916000916001600160a01b03169063f7f9a8fa906114389089908990600401615725565b600060405180830381865afa158015611455573d6000803e3d6000fd5b505050506040513d6000823e601f3d908101601f1916820160405261147d91908101906157c2565b9050600081516001600160401b0381111561149a5761149a614e26565b6040519080825280602002602001820160405280156114c3578160200160208202803683370190505b50905060005b82518110156115495761150d8382815181106114e7576114e76155d3565b60200260200101516001600160a01b039081166000908152607660205260409020541690565b82828151811061151f5761151f6155d3565b6001600160a01b03909216602092830291909101909101528061154181615876565b9150506114c9565b506073546068546040516383ddba8f60e01b81526001600160a01b03909216916383ddba8f916115829187919033908790600401615622565b600060405180830381600087803b15801561159c57600080fd5b505af19250505080156115ad575060015b61160557608854604051600160401b9091046001600160401b0316907f678dcbc52328cedef940fe45ab75280e81c09ec03fe55df62e67642aa18bc278906115f8908690869061588f565b60405180910390a2611655565b608854604051600160401b9091046001600160401b0316907f6e1369aebaf86903bf1f0ab69c3edd0cadbf0534635f699f57a74a3ce54d37189061164c908690869061588f565b60405180910390a25b6116606083866139e2565b61166a6083613c14565b60006116766083613e2f565b6001600160401b031611156116bb57604080518082019091526089548152608a5460208201526116a9906112bd90613620565b94506116b6608886613e77565b610ae2565b6116c56088613fba565b60016116d1607861385c565b60048111156116e2576116e26151d3565b03610ae257610ae2607861406f565b60005a6088549091506001600160401b03600160401b820481169160009161172491608391600160801b909104166135d9565b90508484604051602001611739929190615725565b604051602081830303815290604052805190602001208160020154146117715760405162461bcd60e51b815260040161098d90615770565b600061178060888989856140da565b90506001600160601b0381161561198e57607154604051637bfcd47d60e11b81526000916001600160a01b03169063f7f9a8fa906117c4908a908a90600401615725565b600060405180830381865afa1580156117e1573d6000803e3d6000fd5b505050506040513d6000823e601f3d908101601f1916820160405261180991908101906157c2565b9050600081516001600160401b0381111561182657611826614e26565b60405190808252806020026020018201604052801561184f578160200160208202803683370190505b50905060005b82518110156118af576118738382815181106114e7576114e76155d3565b828281518110611885576118856155d3565b6001600160a01b0390921660209283029190910190910152806118a781615876565b915050611855565b5060735460405163f07f91c560e01b81526001600160a01b039091169063f07f91c5906118e2908690859060040161588f565b600060405180830381600087803b1580156118fc57600080fd5b505af192505050801561190d575060015b61195057847fd3f7d9c595537a55b26b224409f386868056764bc4d55bf8c3d86e20d047afc1848460405161194392919061588f565b60405180910390a261198b565b847f94af8e9c35b4ede2a77f659b202b1efe096bf99f0e6f5dd5905c800978a9a647848460405161198292919061588f565b60405180910390a25b50505b600161199a607861385c565b60048111156119ab576119ab6151d3565b036119d4576119d488886040516119c39291906158b1565b6040519081900390206078906140ff565b6119fc88886040516119e79291906158b1565b604051908190039020606454608c9190614171565b603254606e546001600160a01b0390911690637ad226dc905a611a1f90886158c1565b611a2991906158d4565b6040516001600160e01b031960e084901b1681526004810191909152336024820152604401600060405180830381600087803b158015611a6857600080fd5b505af1158015611a7c573d6000803e3d6000fd5b505050505050505050505050565b60005a608854909150600090611ab290608390600160801b90046001600160401b03166135d9565b9050611ac1608885858461421e565b6001611acd607861385c565b6004811115611ade57611ade6151d3565b03611af657611af684846040516119c39291906158b1565b611b0984846040516119e79291906158b1565b603254606e546001600160a01b0390911690637ad226dc905a611b2c90866158c1565b611b3691906158d4565b6040516001600160e01b031960e084901b1681526004810191909152336024820152604401600060405180830381600087803b158015611b7557600080fd5b505af1158015611b89573d6000803e3d6000fd5b5050505050505050565b60005a60405163716ae95760e01b815290915060009073__$852b9611da141be0769f808cc0e4dd5c7d$__9063716ae95790611bd6906078908790600401615471565b600060405180830381865af4158015611bf3573d6000803e3d6000fd5b505050506040513d6000823e601f3d908101601f19168201604052611c1b91908101906158e7565b805190915015611c99576071546067546001600160a01b039091169063942f6892908390611c4990426158d4565b6040518363ffffffff1660e01b8152600401611c66929190615975565b600060405180830381600087803b158015611c8057600080fd5b505af1158015611c94573d6000803e3d6000fd5b505050505b611cb7611ca96020850185615997565b6083919060c0870135614281565b611cc1607861434a565b603254606c546001600160a01b0390911690637ad226dc905a611ce490866158c1565b606b54611cf191906158d4565b611cfb91906158d4565b6040516001600160e01b031960e084901b1681526004810191909152336024820152604401600060405180830381600087803b158015611d3a57600080fd5b505af1158015610ae2573d6000803e3d6000fd5b6000546001600160a01b03163314611d785760405162461bcd60e51b815260040161098d906152c3565b607154604051632a59250560e21b81526001600160a01b0383811660048301529091169063a964941490602401600060405180830381600087803b158015611dbf57600080fd5b505af1158015610c4e573d6000803e3d6000fd5b6000611ddf60786143ae565b905090565b6073546001600160a01b03163314611e0e5760405162461bcd60e51b815260040161098d906152fa565b604051636dc1282760e11b8152607460048201526001600160a01b03841660248201526001600160601b0380841660448301528216606482015273__$1150d55cc8540ae1e6a8a840b6e83a829d$__9063db82504e90608401610ab6565b6073546040516304a3b6b360e31b8152607460048201526001600160a01b039182166024820152908216604482015273__$1150d55cc8540ae1e6a8a840b6e83a829d$__9063251db59890606401610c22565b6000546001600160a01b03163314611ee95760405162461bcd60e51b815260040161098d906152c3565b60658690556087859055611f01607885858585613276565b6040805187815260208101879052908101859052606081018490526080810183905260a081018290527f88243406f452bee756e4fff4cb19e6855a5d3b7bfab8814ea6838685e08da0939060c00160405180910390a1505050505050565b6000546001600160a01b03163314611f895760405162461bcd60e51b815260040161098d906152c3565b6040516001600160a01b03821681527f0e2d2343d31b085b7c4e56d1c8a6ec79f7ab07460386f1c9a1756239fe2533ac9060200160405180910390a1603280546001600160a01b0319166001600160a01b0392909216919091179055565b612000611ff76020830183615997565b6083919061440b565b6040516305149aaf60e51b815273__$852b9611da141be0769f808cc0e4dd5c7d$__9063a29355e090610c22906078908590600401615471565b607354604051635c359a0f60e11b8152607460048201526001600160a01b039182166024820152908216604482015260009073__$1150d55cc8540ae1e6a8a840b6e83a829d$__9063b86b341e906064015b602060405180830381865af41580156120a9573d6000803e3d6000fd5b505050506040513d601f19601f820116820180604052508101906120cd91906156de565b92915050565b6000546001600160a01b031633146120fd5760405162461bcd60e51b815260040161098d906152c3565b6001600160a01b038216600081815260706020908152604091829020805460ff191685151590811790915591519182527fb4d9db68405970190721d2b3726fc9f728c1413038755e60518dea67d5545556910160405180910390a25050565b6000546001600160a01b031633146121865760405162461bcd60e51b815260040161098d906152c3565b60648190556121976088848461346e565b60408051848152602081018490529081018290527fea9006ae23cd9b51dbfbc9d747fc3b0bc77acba4fefba609c76f8e9a9513602e90606001610a0e565b604051624f4ac760e01b8152607460048201526001600160a01b038216602482015260009073__$1150d55cc8540ae1e6a8a840b6e83a829d$__90624f4ac790604401602060405180830381865af4158015612235573d6000803e3d6000fd5b505050506040513d601f19601f820116820180604052508101906120cd91906159dd565b6000546001600160a01b031633146122835760405162461bcd60e51b815260040161098d906152c3565b604051633d36f3fd60e21b8152607460048201526001600160601b03841660248201526001600160401b0380841660448301528216606482015273__$1150d55cc8540ae1e6a8a840b6e83a829d$__9063f4dbcff49060840160006040518083038186803b1580156122f457600080fd5b505af4158015612308573d6000803e3d6000fd5b5050604080516001600160601b03871681526001600160401b0380871660208301528516918101919091527f544b726e42801bb47073854eeedae851903f66fe32a5bd24e626e10b90027b5192506060019050610a0e565b61236a6083613e2f565b6001600160401b0316156123b75760405162461bcd60e51b81526020600482015260146024820152734e6f74206177616974696e672067656e6573697360601b604482015260640161098d565b6123c1607861390f565b6124207f4574c8c75d6e88acd28f7e467dac97b5c60c3838d9dad993900bdf402152228e43604051602001612400929190918252602082015260400190565b60408051601f1981840301815291905280516020909101206078906140ff565b565b6000546001600160a01b0316331461244c5760405162461bcd60e51b815260040161098d906152c3565b606b849055606c839055606d829055606e8190556040805185815260208101859052908101839052606081018290527feffd28b20afc0bf9349e8d49d5346c7568689b661a6bcd71c26a939b57b0acd190608001611048565b60006124b26083856135d9565b6040518060800160405290816000820180546124cd90615662565b80601f01602080910402602001604051908101604052809291908181526020018280546124f990615662565b80156125465780601f1061251b57610100808354040283529160200191612546565b820191906000526020600020905b81548152906001019060200180831161252957829003601f168201915b5050505050815260200160018201548152602001600282015481526020016003820160009054906101000a900460ff16151515158152505090508282604051602001612593929190615725565b604051602081830303815290604052805190602001208160400151146125cb5760405162461bcd60e51b815260040161098d90615770565b80606001511561261d5760405162461bcd60e51b815260206004820152601a60248201527f47726f75702063616e6e6f74206265207465726d696e61746564000000000000604482015260640161098d565b8051604080513360601b6bffffffffffffffffffffffff191660208201528151601481830301815260348201928390526339c6c5f160e21b90925273__$b5930e1c3596d61eae714f9835468f05d3$__9263e71b17c492612682928a906038016159fa565b602060405180830381865af415801561269f573d6000803e3d6000fd5b505050506040513d601f19601f820116820180604052508101906126c39190615a33565b6127035760405162461bcd60e51b8152602060048201526011602482015270496e76616c6964207369676e617475726560781b604482015260640161098d565b61270e6083856139e2565b607154604051637bfcd47d60e11b81526000916001600160a01b03169063f7f9a8fa906127419087908790600401615725565b600060405180830381865afa15801561275e573d6000803e3d6000fd5b505050506040513d6000823e601f3d908101601f1916820160405261278691908101906157c2565b9050600081516001600160401b038111156127a3576127a3614e26565b6040519080825280602002602001820160405280156127cc578160200160208202803683370190505b50905060005b825181101561282c576127f08382815181106114e7576114e76155d3565b828281518110612802576128026155d3565b6001600160a01b03909216602092830291909101909101528061282481615876565b9150506127d2565b506073546066546069546040516383ddba8f60e01b81526001600160a01b03909316926383ddba8f9261287792600160601b9091046001600160601b03169133908790600401615622565b600060405180830381600087803b15801561289157600080fd5b505af19250505080156128a2575060015b612902576066546040516001600160401b038816917ffd4a5a45de3194b94e2a7954706ac9023b7c9935cf1a25242691da2a94d720d4916128f591600160601b90046001600160601b031690869061588f565b60405180910390a2610ae2565b6066546040516001600160401b038816917fa311dcb2a3eb32651a722488f4f281b3f8e4ab05abcd8a37a5c7d663bba5a8859161295191600160601b90046001600160601b031690869061588f565b60405180910390a250505050505050565b6073546001600160a01b0316331461298c5760405162461bcd60e51b815260040161098d906152fa565b604051633558d21760e21b8152607460048201526001600160a01b03841660248201526001600160601b0380841660448301528216606482015273__$1150d55cc8540ae1e6a8a840b6e83a829d$__9063d563485c90608401610ab6565b6000611ddf607861385c565b60005a90506000612a0a6020870187614d49565b6001600160401b0381166000908152606f60205260409020549091508514612a645760405162461bcd60e51b815260206004820152600d60248201526c496e76616c6964206e6f6e636560981b604482015260640161098d565b612a6f6083826144f4565b612ab15760405162461bcd60e51b815260206004820152601360248201527247726f7570206973206e6f742061637469766560681b604482015260640161098d565b6000612abe6083836135d9565b90508484604051602001612ad3929190615725565b60405160208183030381529060405280519060200120816002015414612b0b5760405162461bcd60e51b815260040161098d90615770565b60715460405163fc21976b60e01b815260009173__$1ba5315bb273adc70a9cc339490e63eb09$__9163fc21976b91612b5c916001600160a01b03909116908c9087908d908d908d90600401615acd565b600060405180830381865af4158015612b79573d6000803e3d6000fd5b505050506040513d6000823e601f3d908101601f19168201604052612ba191908101906158e7565b6001600160401b0384166000908152606f60205260408120805492935090612bc883615876565b9091555050604080518881523360208201526001600160401b038516917f3ca10b33fda0a4adbc75ac1939659a06e8c332b8f6a2792bedbf8741e4268417910160405180910390a26071546067546001600160a01b039091169063942f6892908390612c3490426158d4565b6040518363ffffffff1660e01b8152600401612c51929190615975565b600060405180830381600087803b158015612c6b57600080fd5b505af1158015612c7f573d6000803e3d6000fd5b5050603254606d546001600160a01b039091169250637ad226dc91505a611a1f90886158c1565b6000546001600160a01b03163314612cd05760405162461bcd60e51b815260040161098d906152c3565b6001600160a01b038116612d315760405162461bcd60e51b815260206004820152602260248201527f4e657720676f7665726e616e636520697320746865207a65726f206164647265604482015261737360f01b606482015260840161098d565b612d3a81614534565b50565b3360005a9050612d4d6078614595565b6032546001600160a01b0316637ad226dc5a612d6990846158c1565b6040516001600160e01b031960e084901b16815260048101919091526001600160a01b0385166024820152604401600060405180830381600087803b158015612db157600080fd5b505af1158015610ecb573d6000803e3d6000fd5b607154607f54604051636c2530b960e01b81526005600482015260248101919091526060916001600160a01b031690636c2530b990604401600060405180830381865afa158015612e1a573d6000803e3d6000fd5b505050506040513d6000823e601f3d908101601f19168201604052611ddf91908101906158e7565b60735460715460405163148140a160e21b8152607460048201526001600160a01b0392831660248201529082166044820152908216606482015260009073__$1150d55cc8540ae1e6a8a840b6e83a829d$__90635205028490608401602060405180830381865af4158015612ebb573d6000803e3d6000fd5b505050506040513d601f19601f820116820180604052508101906120cd9190615a33565b6071546040516307b8c36760e51b81526001600160a01b038381166004830152600092169063f7186ce090602401602060405180830381865afa158015612ebb573d6000803e3d6000fd5b600080612f4f836001600160a01b039081166000908152607560205260409020541690565b90506001600160a01b038116612f9a5760405162461bcd60e51b815260206004820152601060248201526f2ab735b737bbb71037b832b930ba37b960811b604482015260640161098d565b60715460405163439f18fd60e11b81526001600160a01b0383811660048301529091169063873e31fa90602401602060405180830381865afa158015612fe4573d6000803e3d6000fd5b505050506040513d601f19601f8201168201806040525081019061300891906156de565b9392505050565b604051635fc3290960e11b8152607460048201526001600160a01b038216602482015260009073__$1150d55cc8540ae1e6a8a840b6e83a829d$__9063bf8652129060440161208c565b82546001600160a01b0316156130bc5760405162461bcd60e51b815260206004820152602260248201527f536f72746974696f6e20506f6f6c206164647265737320616c72656164792073604482015261195d60f21b606482015260840161098d565b60018301546001600160a01b0316156131215760405162461bcd60e51b815260206004820152602160248201527f444b472056616c696461746f72206164647265737320616c72656164792073656044820152601d60fa1b606482015260840161098d565b82546001600160a01b03199081166001600160a01b03938416178455600190930180549093169116179055565b600181015415801561316257506002810154155b6131ae5760405162461bcd60e51b815260206004820152601e60248201527f5365656420656e74727920616c726561647920696e697469616c697a65640000604482015260640161098d565b6131cf604051806060016040528060408152602001615e4c60409139613501565b8051600183015560200151600290910155565b8154600160401b90046001600160401b03161561323d5760405162461bcd60e51b815260206004820152601960248201527852656c6179207265717565737420696e2070726f677265737360381b604482015260640161098d565b600390910180546001600160601b03909216600160401b0273ffffffffffffffffffffffff000000000000000019909216919091179055565b60006132818661385c565b6004811115613292576132926151d3565b146132db5760405162461bcd60e51b815260206004820152601960248201527843757272656e74207374617465206973206e6f742049444c4560381b604482015260640161098d565b600084116133515760405162461bcd60e51b815260206004820152603a60248201527f526573756c74206368616c6c656e676520706572696f64206c656e677468207360448201527f686f756c642062652067726561746572207468616e207a65726f000000000000606482015260840161098d565b600082116133bf5760405162461bcd60e51b815260206004820152603560248201527f526573756c74207375626d697373696f6e2074696d656f75742073686f756c646044820152742062652067726561746572207468616e207a65726f60581b606482015260840161098d565b8181106134515760405162461bcd60e51b815260206004820152605460248201527f5375626d697474657220707265636564656e636520706572696f64206c656e6760448201527f74682073686f756c64206265206c657373207468616e2074686520726573756c6064820152731d081cdd589b5a5cdcda5bdb881d1a5b595bdd5d60621b608482015260a40161098d565b600285019390935560038401919091556004830155600590910155565b8254600160401b90046001600160401b0316156134c95760405162461bcd60e51b815260206004820152601960248201527852656c6179207265717565737420696e2070726f677265737360381b604482015260640161098d565b6003909201805463ffffffff9384166401000000000267ffffffffffffffff199091169390921692909217179055565b600490910155565b604080518082019091526000808252602082015281516040146135665760405162461bcd60e51b815260206004820152601760248201527f496e76616c6964204731206279746573206c656e677468000000000000000000604482015260640161098d565b5060208181015160409283015183518085019094529083529082015290565b60038101545a1015612d3a5760405162461bcd60e51b815260206004820152601960248201527f4e6f7420656e6f75676820657874726120676173206c65667400000000000000604482015260640161098d565b600082600001600084600101846001600160401b0316815481106135ff576135ff6155d3565b90600052602060002001548152602001908152602001600020905092915050565b6040805181815260608181018352916000919060208201818036833750508451602095860151958301525060408101939093525090919050565b600061366583613c14565b600061367084613e2f565b6001600160401b0316116136b95760405162461bcd60e51b815260206004820152601060248201526f4e6f206163746976652067726f75707360801b604482015260640161098d565b60006136c484613e2f565b6136d7906001600160401b031684615711565b905060006136ee856136e987856145c7565b6145e3565b95945050505050565b8154600160401b90046001600160401b0316156137605760405162461bcd60e51b815260206004820152602160248201527f416e6f746865722072656c6179207265717565737420696e2070726f677265736044820152607360f81b606482015260840161098d565b81546000908390829061377b906001600160401b0316615bae565b82546101009290920a6001600160401b038181021990931682841691820217909355855477ffffffffffffffffffffffffffffffff00000000000000001916600160401b840267ffffffffffffffff60801b191617600160801b86841602176001600160c01b0316600160c01b43909316929092029190911785556040805180820190915260018601548152600286015460208201529092507fdf86f752d80d21879cbd208ba1d036c03f836b1d7f8f887b0b9e0b63f8a49f5d90849061384190613620565b60405161384f929190615bd4565b60405180910390a2505050565b805460408051632938b58d60e21b815290516000926001600160a01b03169163a4e2d6349160048083019260209291908290030181865afa1580156138a5573d6000803e3d6000fd5b505050506040513d601f19601f820116820180604052508101906138c99190615a33565b1561390a575060068101546001901561390a5760029050606482600601546138f191906158d4565b43111561390a5750600a8101546003901561390a575060045b919050565b600061391a8261385c565b600481111561392b5761392b6151d3565b146139745760405162461bcd60e51b815260206004820152601960248201527843757272656e74207374617465206973206e6f742049444c4560381b604482015260640161098d565b6040517f5c3ed2397d4d21298b2fb5027ac8e2d42e3c9c72bbb55ddb030e2a36a0cdff6b90600090a1805460408051637c1e845d60e11b815290516001600160a01b039092169163f83d08ba9160048082019260009290919082900301818387803b158015611dbf57600080fd5b6139ec8282614679565b15613a435760405162461bcd60e51b815260206004820152602160248201527f47726f757020686173206265656e20616c7265616479207465726d696e6174656044820152601960fa1b606482015260840161098d565b600182600001600084600101846001600160401b031681548110613a6957613a696155d3565b60009182526020808320919091015483528201929092526040018120600301805460ff1916921515929092179091556002830180546001908101808355918352613ab2916158c1565b90505b600081118015613b1257506001600160401b03821660028401613ad96001846158c1565b81548110613ae957613ae96155d3565b6000918252602090912060048204015460039091166008026101000a90046001600160401b0316115b15613bc05760028301613b266001836158c1565b81548110613b3657613b366155d3565b90600052602060002090600491828204019190066008029054906101000a90046001600160401b0316836002018281548110613b7457613b746155d3565b90600052602060002090600491828204019190066008026101000a8154816001600160401b0302191690836001600160401b031602179055508080613bb890615bf6565b915050613ab5565b81836002018281548110613bd657613bd66155d3565b90600052602060002090600491828204019190066008026101000a8154816001600160401b0302191690836001600160401b03160217905550505050565b600181015460038201546001600160401b0316108015613c6e575060038101546001820180544392613c6c92859290916001600160401b0316908110613c5c57613c5c6155d3565b90600052602060002001546146c9565b105b15613cb8576003810180546001600160401b0316906000613c8e83615bae565b91906101000a8154816001600160401b0302191690836001600160401b0316021790555050613c14565b60005b600282015481101561134457816002018181548110613cdc57613cdc6155d3565b6000918252602090912060048204015460038481015492166008026101000a90046001600160401b0390811691161115613e1d57805b6002830154613d23906001906158c1565b811015613dd35760028301613d398260016158d4565b81548110613d4957613d496155d3565b90600052602060002090600491828204019190066008029054906101000a90046001600160401b0316836002018281548110613d8757613d876155d3565b90600052602060002090600491828204019190066008026101000a8154816001600160401b0302191690836001600160401b031602179055508080613dcb90615876565b915050613d12565b5081600201805480613de757613de7615c0d565b60008281526020902060046000199092019182040180546001600160401b03600860038516026101000a02191690559055613cbb565b80613e2781615876565b915050613cbb565b60018101546000908103613e4557506000919050565b60028201546003830154600184015460009291613e6d916001600160401b03909116906158c1565b61300891906158c1565b613e80826146eb565b613ecc5760405162461bcd60e51b815260206004820152601e60248201527f52656c6179207265717565737420646964206e6f742074696d65206f75740000604482015260640161098d565b81546040516001600160401b03600160801b83048116808352600160401b90930416919082907fc28be0fa97c9083fa79881ba8950c1333fb45ec5100d2b893ec0f41544e78bef9060200160405180910390a283546fffffffffffffffffffffffffffffffff16600160801b6001600160401b03858116919091026001600160c01b031691909117600160c01b43831602178555604080518082019091526001860154815260028601546020820152908316907fdf86f752d80d21879cbd208ba1d036c03f836b1d7f8f887b0b9e0b63f8a49f5d908590613fac90613620565b604051611229929190615bd4565b613fc3816146eb565b61400f5760405162461bcd60e51b815260206004820152601e60248201527f52656c6179207265717565737420646964206e6f742074696d65206f75740000604482015260640161098d565b80546040516001600160401b03600160801b830481168252600160401b909204909116907fc28be0fa97c9083fa79881ba8950c1333fb45ec5100d2b893ec0f41544e78bef9060200160405180910390a280546001600160401b03169055565b600161407a8261385c565b600481111561408b5761408b6151d3565b146140a85760405162461bcd60e51b815260040161098d90615c23565b6040517f68c52f05452e81639fa06f379aee3178cddee4725521fff886f244c99e868b5090600090a1612d3a8161434a565b6000806140e68661475f565b90506140f4868686866147f4565b90505b949350505050565b600161410a8361385c565b600481111561411b5761411b6151d3565b146141385760405162461bcd60e51b815260040161098d90615c23565b60405181907fb2ad26c2940889d79df2ee9c758a8aefa00c5ca90eee119af0e5d795df3b98bb90600090a2436006830155600790910155565b82546001600160a01b031615614219578254604051631bfaf51960e21b8152600481018490524360248201526001600160a01b0390911690636febd464908390604401600060405180830381600088803b1580156141ce57600080fd5b5087f1935050505080156141e0575060015b61421957604080518381524360208201527f5e2af61e77ec91022b1cafe282abce475bb18e8cdd47083464caa06583fe39099101610a0e565b505050565b61422784614ae4565b43106142755760405162461bcd60e51b815260206004820152601f60248201527f52656c617920656e74727920736f66742074696d656f75742070617373656400604482015260640161098d565b610b67848484846147f4565b600083836040516142939291906158b1565b60408051918290039091206000818152602088905291909120909150806142bb858783615cab565b50600281018390554360018083019190915586810180549182018155600090815260209020018290556040516142f490869086906158b1565b60405190819003902060018781015461430d91906158c1565b6001600160401b03167f4c0666db2c51896711b100d1f4f5d20a347c59e6e16ad8f365ed81ff97358b4e60405160405180910390a3505050505050565b600060068201819055600782018190556008820181905560098201819055600a820181905581546040805163a69df4b560e01b815290516001600160a01b039092169263a69df4b59260048084019382900301818387803b158015611dbf57600080fd5b600060036143bb8361385c565b60048111156143cc576143cc6151d3565b1480156120cd57506004820154600883015460068401546143ef906064906158d4565b6143f991906158d4565b61440391906158d4565b431192915050565b6080811461445b5760405162461bcd60e51b815260206004820181905260248201527f496e76616c6964206c656e677468206f6620746865207075626c6963206b6579604482015260640161098d565b6000828260405161446d9291906158b1565b604080519182900390912060008181526020879052919091206001015490915015610b675760405162461bcd60e51b815260206004820152603160248201527f47726f757020776974682074686973207075626c6963206b65792077617320616044820152701b1c9958591e481c9959da5cdd195c9959607a1b606482015260840161098d565b6000436145198485600101856001600160401b031681548110613c5c57613c5c6155d3565b10158015613008575061452c8383614679565b159392505050565b600080546001600160a01b038381166001600160a01b031983168117909355604080519190921680825260208201939093527f5f56bee8cffbe9a78652a74a60705edede02af10b0bbb888ca44b79a0d42ce80910160405180910390a15050565b6040517f2852b3e178dd281713b041c3d90b4815bb55b7ec812931d1e8e8d8bb2ed72d3e90600090a1612d3a8161434a565b60038201546000906130089083906001600160401b0316615d6a565b600081815b60028501546001600160401b038216101561467157816001600160401b031685600201826001600160401b031681548110614625576146256155d3565b6000918252602090912060048204015460039091166008026101000a90046001600160401b03161161465f578161465b81615bae565b9250505b8061466981615bae565b9150506145e8565b509392505050565b600082600001600084600101846001600160401b03168154811061469f5761469f6155d3565b6000918252602080832090910154835282019290925260400190206003015460ff16905092915050565b60048201546000828152602084905260408120600101549091613008916158d4565b6003810154600090819061470f9063ffffffff640100000000820481169116615d91565b63ffffffff16905061473283546001600160401b03600160401b90910416151590565b801561300857508254614756908290600160c01b90046001600160401b03166158d4565b43119392505050565b60008061476b83614ae4565b9050804311156147eb57600061478182436158c1565b6003850154909150640100000000900463ffffffff168111156147b357506003830154640100000000900463ffffffff165b6003840154640100000000810463ffffffff16906147e190600160401b90046001600160601b031683615dae565b6140f79190615dc5565b50600092915050565b8354600160401b90046001600160401b03166148525760405162461bcd60e51b815260206004820152601c60248201527f4e6f2072656c6179207265717565737420696e2070726f677265737300000000604482015260640161098d565b61485b846146eb565b156148a85760405162461bcd60e51b815260206004820152601760248201527f52656c617920726571756573742074696d6564206f7574000000000000000000604482015260640161098d565b73__$b5930e1c3596d61eae714f9835468f05d3$__63b6087a0f6149548380546148d190615662565b80601f01602080910402602001604051908101604052809291908181526020018280546148fd90615662565b801561494a5780601f1061491f5761010080835404028352916020019161494a565b820191906000526020600020905b81548152906001019060200180831161492d57829003601f168201915b5050505050614b1f565b8660010161499787878080601f01602080910402602001604051908101604052809392919081815260200183838082843760009201919091525061350192505050565b6040518463ffffffff1660e01b81526004016149b593929190615dd9565b602060405180830381865af41580156149d2573d6000803e3d6000fd5b505050506040513d601f19601f820116820180604052508101906149f69190615a33565b614a325760405162461bcd60e51b815260206004820152600d60248201526c496e76616c696420656e74727960981b604482015260640161098d565b8354604051600160401b9091046001600160401b0316907f087df9fd862e4448d02f8b58e33a18941769c795a8b83cfb95dfaf9c92ca897e90614a7a90339087908790615e26565b60405180910390a2614ac183838080601f01602080910402602001604051908101604052809392919081815260200183838082843760009201919091525061350192505050565b80516001860155602001516002850155505081546001600160401b031690915550565b60038101548154600091614b109163ffffffff90911690600160c01b90046001600160401b0316615d6a565b6001600160401b031692915050565b614b27614bc0565b8151608014614b785760405162461bcd60e51b815260206004820152601760248201527f496e76616c6964204732206279746573206c656e677468000000000000000000604482015260640161098d565b50602081810151604080840151606080860151608096870151845197880185528785019586529187019290925292855281518083019092528152808301919091529082015290565b60408051608081018252600091810182815260608201929092529081908152602001614bff604051806040016040528060008152602001600081525090565b905290565b6001600160601b0381168114612d3a57600080fd5b600080600060608486031215614c2e57600080fd5b8335614c3981614c04565b92506020840135614c4981614c04565b91506040840135614c5981614c04565b809150509250925092565b6001600160a01b0381168114612d3a57600080fd5b600080600060608486031215614c8e57600080fd5b8335614c3981614c64565b6020808252825182820181905260009190848201906040850190845b81811015614cd157835183529284019291840191600101614cb5565b50909695505050505050565b600060208284031215614cef57600080fd5b813561300881614c64565b600060208284031215614d0c57600080fd5b81356001600160401b03811115614d2257600080fd5b820160e0818503121561300857600080fd5b6001600160401b0381168114612d3a57600080fd5b600060208284031215614d5b57600080fd5b813561300881614d34565b6000815180845260005b81811015614d8c57602081850181015186830182015201614d70565b506000602082860101526020601f19601f83011685010191505092915050565b602081526000825160806020840152614dc860a0840182614d66565b905060208401516040840152604084015160608401526060840151151560808401528091505092915050565b60008060008060808587031215614e0a57600080fd5b5050823594602084013594506040840135936060013592509050565b634e487b7160e01b600052604160045260246000fd5b604051601f8201601f191681016001600160401b0381118282101715614e6457614e64614e26565b604052919050565b600082601f830112614e7d57600080fd5b81356001600160401b03811115614e9657614e96614e26565b614ea9601f8201601f1916602001614e3c565b818152846020838601011115614ebe57600080fd5b816020850160208301376000918101602001919091529392505050565b600060208284031215614eed57600080fd5b81356001600160401b03811115614f0357600080fd5b6140f784828501614e6c565b60008083601f840112614f2157600080fd5b5081356001600160401b03811115614f3857600080fd5b6020830191508360208260051b8501011115614f5357600080fd5b9250929050565b60008060208385031215614f6d57600080fd5b82356001600160401b03811115614f8357600080fd5b614f8f85828601614f0f565b90969095509350505050565b60008083601f840112614fad57600080fd5b5081356001600160401b03811115614fc457600080fd5b602083019150836020828501011115614f5357600080fd5b60008060008060408587031215614ff257600080fd5b84356001600160401b038082111561500957600080fd5b61501588838901614f9b565b9096509450602087013591508082111561502e57600080fd5b5061503b87828801614f0f565b95989497509550505050565b6000806020838503121561505a57600080fd5b82356001600160401b0381111561507057600080fd5b614f8f85828601614f9b565b60008060008060008060c0878903121561509557600080fd5b505084359660208601359650604086013595606081013595506080810135945060a0013592509050565b8015158114612d3a57600080fd5b600080604083850312156150e057600080fd5b82356150eb81614c64565b915060208301356150fb816150bf565b809150509250929050565b60008060006060848603121561511b57600080fd5b505081359360208301359350604090920135919050565b60008060006060848603121561514757600080fd5b833561515281614c04565b9250602084013561516281614d34565b91506040840135614c5981614d34565b6000806000806060858703121561518857600080fd5b84356001600160401b038082111561519f57600080fd5b6151ab88838901614e6c565b9550602087013591506151bd82614d34565b9093506040860135908082111561502e57600080fd5b634e487b7160e01b600052602160045260246000fd5b602081016005831061520b57634e487b7160e01b600052602160045260246000fd5b91905290565b6000806000806060858703121561522757600080fd5b84356001600160401b038082111561523e57600080fd5b908601906080828903121561525257600080fd5b909450602086013593506040860135908082111561502e57600080fd5b600081518084526020808501945080840160005b838110156152a557815163ffffffff1687529582019590820190600101615283565b509495945050505050565b602081526000613008602083018461526f565b6020808252601c908201527f43616c6c6572206973206e6f742074686520676f7665726e616e636500000000604082015260600190565b60208082526022908201527f43616c6c6572206973206e6f7420746865207374616b696e6720636f6e74726160408201526118dd60f21b606082015260800190565b6000808335601e1984360301811261535357600080fd5b83016020810192503590506001600160401b0381111561537257600080fd5b803603821315614f5357600080fd5b81835281816020850137506000828201602090810191909152601f909101601f19169091010190565b6000808335601e198436030181126153c157600080fd5b83016020810192503590506001600160401b038111156153e057600080fd5b8060051b3603821315614f5357600080fd5b81835260006001600160fb1b0383111561540b57600080fd5b8260051b80836020870137939093016020019392505050565b63ffffffff81168114612d3a57600080fd5b8183526000602080850194508260005b858110156152a557813561545981615424565b63ffffffff1687529582019590820190600101615446565b82815260006020604081840152833560408401526154918185018561533c565b60e060608601526154a761012086018284615381565b9150506154b760408601866153aa565b603f19868403810160808801528184529192600092908501835b838110156154fd57853560ff81168082146154ea578687fd5b83525094860194908601906001016154d1565b5061550b60608a018a61533c565b96509450818882030160a0890152615524818787615381565b95505061553460808901896153aa565b94509250808786030160c088015261554d8585856153f2565b945061555c60a08901896153aa565b94509250808786030160e08801525050615577838383615436565b9250505060c0840135610100840152809150509392505050565b600080604083850312156155a457600080fd5b8251915060208301516150fb81615424565b6000602082840312156155c857600080fd5b815161300881614c64565b634e487b7160e01b600052603260045260246000fd5b600081518084526020808501945080840160005b838110156152a55781516001600160a01b0316875295820195908201906001016155fd565b6001600160601b038516815283602082015260018060a01b038316604082015260806060820152600061565860808301846155e9565b9695505050505050565b600181811c9082168061567657607f821691505b60208210810361569657634e487b7160e01b600052602260045260246000fd5b50919050565b6000806000606084860312156156b157600080fd5b83516156bc81614c64565b60208501519093506156cd81614c64565b6040850151909250614c5981614c64565b6000602082840312156156f057600080fd5b815161300881614c04565b634e487b7160e01b600052601260045260246000fd5b600082615720576157206156fb565b500690565b60208082528181018390526000908460408401835b8681101561576557823561574d81615424565b63ffffffff168252918301919083019060010161573a565b509695505050505050565b602080825260159082015274496e76616c69642067726f7570206d656d6265727360581b604082015260600190565b60006001600160401b038211156157b8576157b8614e26565b5060051b60200190565b600060208083850312156157d557600080fd5b82516001600160401b038111156157eb57600080fd5b8301601f810185136157fc57600080fd5b805161580f61580a8261579f565b614e3c565b81815260059190911b8201830190838101908783111561582e57600080fd5b928401925b8284101561585557835161584681614c64565b82529284019290840190615833565b979650505050505050565b634e487b7160e01b600052601160045260246000fd5b60006001820161588857615888615860565b5060010190565b6001600160601b03831681526040602082015260006140f760408301846155e9565b8183823760009101908152919050565b818103818111156120cd576120cd615860565b808201808211156120cd576120cd615860565b600060208083850312156158fa57600080fd5b82516001600160401b0381111561591057600080fd5b8301601f8101851361592157600080fd5b805161592f61580a8261579f565b81815260059190911b8201830190838101908783111561594e57600080fd5b928401925b8284101561585557835161596681615424565b82529284019290840190615953565b604081526000615988604083018561526f565b90508260208301529392505050565b6000808335601e198436030181126159ae57600080fd5b8301803591506001600160401b038211156159c857600080fd5b602001915036819003821315614f5357600080fd5b6000602082840312156159ef57600080fd5b815161300881614d34565b606081526000615a0d6060830186614d66565b8281036020840152615a1f8186614d66565b905082810360408401526156588185614d66565b600060208284031215615a4557600080fd5b8151613008816150bf565b60008154615a5d81615662565b808552602060018381168015615a7a5760018114615a9457615ac2565b60ff1985168884015283151560051b880183019550615ac2565b866000528260002060005b85811015615aba5781548a8201860152908301908401615a9f565b890184019650505b505050505092915050565b6001600160a01b038716815260a0602082015260008635615aed81614d34565b6001600160401b031660a0830152615b0860208801886153aa565b608060c0850152615b1e610120850182846153f2565b915050615b2e604089018961533c565b609f19808685030160e0870152615b46848385615381565b9350615b5560608c018c6153aa565b93509150808685030161010087015250615b708383836153f2565b925050508281036040840152615b868188615a50565b90508560608401528281036080840152615ba1818587615436565b9998505050505050505050565b60006001600160401b03808316818103615bca57615bca615860565b6001019392505050565b6001600160401b03831681526040602082015260006140f76040830184614d66565b600081615c0557615c05615860565b506000190190565b634e487b7160e01b600052603160045260246000fd5b60208082526022908201527f43757272656e74207374617465206973206e6f74204157414954494e475f5345604082015261115160f21b606082015260800190565b601f82111561421957600081815260208120601f850160051c81016020861015615c8c5750805b601f850160051c820191505b81811015610ecb57828155600101615c98565b6001600160401b03831115615cc257615cc2614e26565b615cd683615cd08354615662565b83615c65565b6000601f841160018114615d0a5760008515615cf25750838201355b600019600387901b1c1916600186901b178355610c4e565b600083815260209020601f19861690835b82811015615d3b5786850135825560209485019460019092019101615d1b565b5086821015615d585760001960f88860031b161c19848701351681555b505060018560011b0183555050505050565b6001600160401b03818116838216019080821115615d8a57615d8a615860565b5092915050565b63ffffffff818116838216019080821115615d8a57615d8a615860565b80820281158282048414176120cd576120cd615860565b600082615dd457615dd46156fb565b500490565b835180518252602090810151818301528085015180516040840152810151606083015283546080830152600184015460a0830152825160c083015282015160e082015261010081016140f7565b6001600160a01b03841681526040602082018190526000906136ee908301848661538156fe15c30f4b6cf6dbbcbdcc10fe22f54c8170aea44e198139b776d512d8f027319a1b9e8bfaf1383978231ce98e42bafc8129f473fc993cf60ce327f7d223460663a2646970667358221220c2630a35c058c136e096014c3008f6377b8b17ba4ff6b49039a5d38983458fdd64736f6c63430008110033",
  "libraries": {
    "BLS": "0xaF670a443F1122a33Deaf2b25695CbA76db5b558",
    "BeaconAuthorization": "0x615689864C4FA99124b8221d28408F02B639Be02",
    "BeaconDkg": "0x86C140C643056e57Af9a7988A060d5a482863eAD",
    "BeaconInactivity": "0x0B531CE4c1265Bf0360820df49EF2F58dbF286a2"
  },
  "devdoc": {
    "details": "Should be owned by the governance contract controlling Random Beacon      parameters.",
    "kind": "dev",
    "methods": {
      "approveDkgResult((uint256,bytes,uint8[],bytes,uint256[],uint32[],bytes32))": {
        "params": {
          "dkgResult": "Result to approve. Must match the submitted result        stored during `submitDkgResult`."
        }
      },
      "authorizationDecreaseRequested(address,uint96,uint96)": {
        "details": "Can only be called by T staking contract."
      },
      "authorizationIncreased(address,uint96,uint96)": {
        "details": "Can only be called by T staking contract."
      },
      "authorizationParameters()": {
        "details": "The minimum authorization is also returned by `minimumAuthorization()`      function, as a requirement of `IApplication` interface.",
        "returns": {
          "authorizationDecreaseChangePeriod": "Authorization decrease change        period in seconds. It is the time, before authorization decrease        delay end, during which the pending authorization decrease        request can be overwritten.        If set to 0, pending authorization decrease request can not be        overwritten until the entire `authorizationDecreaseDelay` ends.        If set to value equal `authorizationDecreaseDelay`, request can        always be overwritten.",
          "authorizationDecreaseDelay": "Delay in seconds that needs to pass         between the time authorization decrease is requested and the         time that request gets approved. Protects against free-riders         earning rewards and not being active in the network.",
          "minimumAuthorization": "The minimum authorization amount required         so that operator can participate in the random beacon. This         amount is required to execute slashing for providing a malicious         DKG result or when a relay entry times out."
        }
      },
      "challengeDkgResult((uint256,bytes,uint8[],bytes,uint256[],uint32[],bytes32))": {
        "details": "Due to EIP-150 1/64 of the gas is not forwarded to the call, and      will be kept to execute the remaining operations in the function      after the call inside the try-catch. To eliminate a class of      attacks related to the gas limit manipulation, this function      requires an extra amount of gas to be left at the end of the      execution.",
        "params": {
          "dkgResult": "Result to challenge. Must match the submitted result        stored during `submitDkgResult`."
        }
      },
      "constructor": {
        "details": "Assigns initial values to parameters to make the beacon work      safely. These parameters are just proposed defaults and they might      be updated with `update*` functions after the contract deployment      and before transferring the ownership to the governance contract."
      },
      "gasParameters()": {
        "returns": {
          "dkgResultApprovalGasOffset": "Gas that is meant to balance the DKG         result approval's overall cost.",
          "dkgResultSubmissionGas": "Calculated gas cost for submitting a DKG         result. This will be refunded as part of the DKG approval         process.",
          "notifyOperatorInactivityGasOffset": "Gas that is meant to balance         the operator inactivity notification cost.",
          "relayEntrySubmissionGasOffset": "Gas that is meant to balance the         relay entry submission cost."
        }
      },
      "groupCreationParameters()": {
        "returns": {
          "dkgResultChallengeExtraGas": "The extra gas required to be left at         the end of the challenge DKG result transaction.",
          "dkgResultChallengePeriodLength": "The number of blocks for which         a DKG result can be challenged. Anyone can challenge DKG result         for a certain number of blocks before the result is fully         accepted and the group registered in the pool of active groups.         If the challenge gets accepted, all operators who signed the         malicious result get slashed for and the notifier gets rewarded.",
          "dkgResultSubmissionTimeout": "Timeout in blocks for a group to         submit the DKG result. All members are eligible to submit the         DKG result. If `dkgResultSubmissionTimeout` passes without the         DKG result submitted, DKG is considered as timed out and no DKG         result for this group creation can be submitted anymore.",
          "dkgSubmitterPrecedencePeriodLength": "Time during the DKG result         approval stage when the submitter of the DKG result takes the         precedence to approve the DKG result. After this time passes         anyone can approve the DKG result.",
          "groupCreationFrequency": "The frequency of a new group creation.         Groups are created with a fixed frequency of relay requests.",
          "groupLifetime": "Group lifetime in blocks. When a group reached its         lifetime, it is no longer selected for new relay requests but         may still be responsible for submitting relay entry if relay         request assigned to that group is still pending."
        }
      },
      "hasDkgTimedOut()": {
        "returns": {
          "_0": "True if DKG timed out, false otherwise."
        }
      },
      "isRelayRequestInProgress()": {
        "returns": {
          "_0": "Flag indicating whether a relay entry request is currently         in progress."
        }
      },
      "notifyOperatorInactivity((uint64,uint256[],bytes,uint256[]),uint256,uint32[])": {
        "params": {
          "claim": "Operator inactivity claim.",
          "groupMembers": "Identifiers of group members.",
          "nonce": "Current inactivity claim nonce for the given group. Must        be the same as the stored one."
        }
      },
      "relayEntryParameters()": {
        "returns": {
          "callbackGasLimit": "Relay entry callback gas limit. This is the gas         limit with which callback function provided in the relay request         transaction is executed. The callback is executed with a new         relay entry value in the same transaction the relay entry is         submitted.",
          "relayEntryHardTimeout": "Hard timeout in blocks for a group to         submit the relay entry. After the soft timeout passes without         relay entry submitted, all group members start getting slashed.         The slashing amount increases linearly until the group submits         the relay entry or until `relayEntryHardTimeout` is reached.         When the hard timeout is reached, each group member will get         slashed for `_relayEntrySubmissionFailureSlashingAmount`.",
          "relayEntrySoftTimeout": "Soft timeout in blocks for a group to         submit the relay entry. If the soft timeout is reached for         submitting the relay entry, the slashing starts."
        }
      },
      "reportRelayEntryTimeout(uint32[])": {
        "params": {
          "groupMembers": "Identifiers of group members."
        }
      },
      "reportUnauthorizedSigning(bytes,uint64,uint32[])": {
        "params": {
          "groupId": "Group that is being reported for leaking a private key.",
          "groupMembers": "Identifiers of group members.",
          "signedMsgSender": "Signature of the sender's address as a message."
        }
      },
      "requestRelayEntry(address)": {
        "params": {
          "callbackContract": "Beacon consumer callback contract."
        }
      },
      "rewardParameters()": {
        "returns": {
          "dkgMaliciousResultNotificationRewardMultiplier": "Percentage of the         staking contract malicious behavior notification reward which         will be transferred to the notifier reporting about a malicious         DKG result. Notifiers are rewarded from a notifiers treasury         pool. For example, if notification reward is 1000 and the value         of the multiplier is 5, the notifier will receive:         5% of 1000 = 50 per each operator affected.",
          "relayEntryTimeoutNotificationRewardMultiplier": "Percentage of the         staking contract malicious behavior notification reward which         will be transferred to the notifier reporting about relay entry         timeout. Notifiers are rewarded from a notifiers treasury pool.         For example, if notification reward is 1000 and the value of the         multiplier is 5, the notifier will receive: 5% of 1000 = 50 per         each operator affected.",
          "sortitionPoolRewardsBanDuration": "Duration of the sortition pool         rewards ban imposed on operators who misbehaved during DKG by         being inactive or disqualified and for operators that were         identified by the rest of group members as inactive via         `notifyOperatorInactivity`.",
          "unauthorizedSigningNotificationRewardMultiplier": "Percentage of the         staking contract malicious behavior notification reward which         will be transferred to the notifier reporting about unauthorized         signing. Notifiers are rewarded from a notifiers treasury pool.         For example, if a notification reward is 1000 and the value of         the multiplier is 5, the notifier will receive: 5% of 1000 = 50         per each operator affected."
        }
      },
      "selectGroup()": {
        "returns": {
          "_0": "IDs of selected group members."
        }
      },
      "setRequesterAuthorization(address,bool)": {
        "details": "Can be called only by the contract guvnor, which should be the      random beacon governance contract.",
        "params": {
          "isAuthorized": "True or false",
          "requester": "Requester, can be a contract or EOA"
        }
      },
      "slashingParameters()": {
        "returns": {
          "maliciousDkgResultSlashingAmount": "Slashing amount for submitting         a malicious DKG result. Every DKG result submitted can be         challenged for the time of `dkg.ResultChallengePeriodLength`.         If the DKG result submitted is challenged and proven to be         malicious, the operator who submitted the malicious result is         slashed for `maliciousDkgResultSlashingAmount`.",
          "relayEntrySubmissionFailureSlashingAmount": "Slashing amount for         not submitting relay entry. When relay entry hard timeout is         reached without the relay entry submitted, each group member         gets slashed for `relayEntrySubmissionFailureSlashingAmount`.         If the relay entry gets submitted after the soft timeout, but         before the hard timeout, each group member gets slashed         proportionally to `relayEntrySubmissionFailureSlashingAmount`         and the time passed since the soft deadline.",
          "unauthorizedSigningSlashingAmount": "Slashing amount when an         unauthorized signing has been proved, which means the private         key leaked and all the group members should be punished."
        }
      },
      "submitDkgResult((uint256,bytes,uint8[],bytes,uint256[],uint32[],bytes32))": {
        "params": {
          "dkgResult": "DKG result."
        }
      },
      "submitRelayEntry(bytes)": {
        "params": {
          "entry": "Group BLS signature over the previous entry."
        }
      },
      "submitRelayEntry(bytes,uint32[])": {
        "params": {
          "entry": "Group BLS signature over the previous entry.",
          "groupMembers": "Identifiers of group members."
        }
      },
      "updateAuthorizationParameters(uint96,uint64,uint64)": {
        "details": "Can be called only by the contract guvnor, which should be the      random beacon governance contract. The caller is responsible for      validating parameters.",
        "params": {
          "_authorizationDecreaseChangePeriod": "New authorization decrease        change period in seconds",
          "_authorizationDecreaseDelay": "New authorization decrease delay in        seconds",
          "_minimumAuthorization": "New minimum authorization amount"
        }
      },
      "updateGasParameters(uint256,uint256,uint256,uint256)": {
        "details": "Can be called only by the contract guvnor, which should be the      random beacon governance contract. The caller is responsible for      validating parameters.",
        "params": {
          "dkgResultApprovalGasOffset": "New DKG result approval gas offset",
          "dkgResultSubmissionGas": "New DKG result submission gas",
          "notifyOperatorInactivityGasOffset": "New operator inactivity        notification gas offset",
          "relayEntrySubmissionGasOffset": "New relay entry submission gas        offset"
        }
      },
      "updateGroupCreationParameters(uint256,uint256,uint256,uint256,uint256,uint256)": {
        "details": "Can be called only by the contract guvnor, which should be the      random beacon governance contract. The caller is responsible for      validating parameters.",
        "params": {
          "dkgResultChallengeExtraGas": "New DKG result challenge extra gas",
          "dkgResultChallengePeriodLength": "New DKG result challenge period        length",
          "dkgResultSubmissionTimeout": "New DKG result submission timeout",
          "dkgSubmitterPrecedencePeriodLength": "New DKG result submitter        precedence period length",
          "groupCreationFrequency": "New group creation frequency",
          "groupLifetime": "New group lifetime in blocks"
        }
      },
      "updateRelayEntryParameters(uint256,uint256,uint256)": {
        "details": "Can be called only by the contract guvnor, which should be the      random beacon governance contract. The caller is responsible for      validating parameters.",
        "params": {
          "callbackGasLimit": "New callback gas limit",
          "relayEntryHardTimeout": "New relay entry hard timeout",
          "relayEntrySoftTimeout": "New relay entry submission soft timeout"
        }
      },
      "updateRewardParameters(uint256,uint256,uint256,uint256)": {
        "details": "Can be called only by the contract guvnor, which should be the      random beacon governance contract. The caller is responsible for      validating parameters.",
        "params": {
          "dkgMaliciousResultNotificationRewardMultiplier": "New value of the        DKG malicious result notification reward multiplier",
          "relayEntryTimeoutNotificationRewardMultiplier": "New value of the        relay entry timeout notification reward multiplier",
          "sortitionPoolRewardsBanDuration": "New sortition pool rewards        ban duration in seconds.",
          "unauthorizedSigningNotificationRewardMultiplier": "New value of the        unauthorized signing notification reward multiplier"
        }
      },
      "updateSlashingParameters(uint96,uint96,uint96)": {
        "details": "Can be called only by the contract guvnor, which should be the      random beacon governance contract. The caller is responsible for      validating parameters.",
        "params": {
          "maliciousDkgResultSlashingAmount": "New malicious DKG result        slashing amount",
          "relayEntrySubmissionFailureSlashingAmount": "New relay entry        submission failure amount",
          "unauthorizedSigningSlashingAmount": "New unauthorized signing        slashing amount"
        }
      },
      "withdrawIneligibleRewards(address)": {
        "details": "Can be called only by the contract guvnor, which should be the      random beacon governance contract.",
        "params": {
          "recipient": "Recipient of withdrawn rewards."
        }
      },
      "withdrawRewards(address)": {
        "details": "Emits `RewardsWithdrawn` event."
      }
    },
    "title": "Keep Random Beacon",
    "version": 1
  },
  "userdoc": {
    "kind": "user",
    "methods": {
      "approveAuthorizationDecrease(address)": {
        "notice": "Approves the previously registered authorization decrease         request. Reverts if authorization decrease delay has not passed         yet or if the authorization decrease was not requested for the         given staking provider."
      },
      "approveDkgResult((uint256,bytes,uint8[],bytes,uint256[],uint32[],bytes32))": {
        "notice": "Approves DKG result. Can be called when the challenge period for         the submitted result is finished. Considers the submitted result         as valid, bans misbehaved group members from the sortition pool         rewards, and completes the group creation by activating the         candidate group. For the first `submitterPrecedencePeriodLength`         blocks after the end of the challenge period can be called only         by the DKG result submitter. After that time, can be called by         anyone."
      },
      "authorizationDecreaseRequested(address,uint96,uint96)": {
        "notice": "Used by T staking contract to inform the beacon that the         authorization decrease for the given staking provider has been         requested.         Reverts if the amount after deauthorization would be non-zero         and lower than the minimum authorization.         Reverts if another authorization decrease request is pending for         the staking provider and not enough time passed since the         original request (see `authorizationDecreaseChangePeriod`).         If the operator is not known (`registerOperator` was not called)         it lets to `approveAuthorizationDecrease` immediately. If the         operator is known (`registerOperator` was called), the operator         needs to update state of the sortition pool with a call to         `joinSortitionPool` or `updateOperatorStatus`. After the         sortition pool state is in sync, authorization decrease delay         starts.         After authorization decrease delay passes, authorization         decrease request needs to be approved with a call to         `approveAuthorizationDecrease` function.         If there is a pending authorization decrease request, it is         overwritten, but only if enough time passed since the original         request. Otherwise, the function reverts."
      },
      "authorizationIncreased(address,uint96,uint96)": {
        "notice": "Used by T staking contract to inform the beacon that the         authorized stake amount for the given staking provider increased.         Reverts if the authorization amount is below the minimum.         The function is not updating the sortition pool. Sortition pool         state needs to be updated by the operator with a call to         `joinSortitionPool` or `updateOperatorStatus`."
      },
      "authorizationParameters()": {
        "notice": "Returns authorization-related parameters of the beacon."
      },
      "authorizedRequesters(address)": {
        "notice": "Authorized addresses that can request a relay entry."
      },
      "availableRewards(address)": {
        "notice": "Returns the amount of rewards available for withdrawal for the         given staking provider. Reverts if staking provider has not         registered the operator address."
      },
      "challengeDkgResult((uint256,bytes,uint8[],bytes,uint256[],uint32[],bytes32))": {
        "notice": "Challenges DKG result. If the submitted result is proved to be         invalid it reverts the DKG back to the result submission phase.         It removes a candidate group that was previously registered with         the DKG result submission."
      },
      "eligibleStake(address)": {
        "notice": "Returns the current value of the staking provider's eligible         stake. Eligible stake is defined as the currently authorized         stake minus the pending authorization decrease. Eligible stake         is what is used for operator's weight in the sortition pool.         If the authorized stake minus the pending authorization decrease         is below the minimum authorization, eligible stake is 0."
      },
      "gasParameters()": {
        "notice": "Returns gas-related parameters of the beacon."
      },
      "genesis()": {
        "notice": "Triggers group selection if there are no active groups."
      },
      "getGroupCreationState()": {
        "notice": "Check current group creation state."
      },
      "groupCreationParameters()": {
        "notice": "Returns group-creation-related parameters of the beacon."
      },
      "hasDkgTimedOut()": {
        "notice": "Checks if DKG timed out. The DKG timeout period includes time required         for off-chain protocol execution and time for the result publication         for all group members. After this time result cannot be submitted         and DKG can be notified about the timeout."
      },
      "inactivityClaimNonce(uint64)": {
        "notice": "Stores current operator inactivity claim nonce for given group.         Each claim is made with an unique nonce which protects         against claim replay."
      },
      "involuntaryAuthorizationDecrease(address,uint96,uint96)": {
        "notice": "Used by T staking contract to inform the beacon the         authorization has been decreased for the given staking provider         involuntarily, as a result of slashing.         If the operator is not known (`registerOperator` was not called)         the function does nothing. The operator was never in a sortition         pool so there is nothing to update.         If the operator is known, sortition pool is unlocked, and the         operator is in the sortition pool, the sortition pool state is         updated. If the sortition pool is locked, update needs to be         postponed. Every other staker is incentivized to call         `updateOperatorStatus` for the problematic operator to increase         their own rewards in the pool."
      },
      "isOperatorInPool(address)": {
        "notice": "Returns true if the given operator is in the sortition pool.         Otherwise, returns false."
      },
      "isOperatorUpToDate(address)": {
        "notice": "Checks if the operator's authorized stake is in sync with         operator's weight in the sortition pool.         If the operator is not in the sortition pool and their         authorized stake is non-zero, function returns false."
      },
      "joinSortitionPool()": {
        "notice": "Lets the operator join the sortition pool. The operator address         must be known - before calling this function, it has to be         appointed by the staking provider by calling `registerOperator`.         Also, the operator must have the minimum authorization required         by the beacon. Function reverts if there is no minimum stake         authorized or if the operator is not known. If there was an         authorization decrease requested, it is activated by starting         the authorization decrease delay."
      },
      "minimumAuthorization()": {
        "notice": "The minimum authorization amount required so that operator can         participate in the random beacon. This amount is required to         execute slashing for providing a malicious DKG result or when         a relay entry times out."
      },
      "notifyDkgTimeout()": {
        "notice": "Notifies about DKG timeout."
      },
      "notifyOperatorInactivity((uint64,uint256[],bytes,uint256[]),uint256,uint32[])": {
        "notice": "Notifies about operators who are inactive. Using this function,         a majority of the group can decide about punishing specific         group members who constantly fail doing their job. If the provided         claim is proved to be valid and signed by sufficient number         of group members, operators of members deemed as inactive are         banned for sortition pool rewards for duration specified by         `_sortitionPoolRewardsBanDuration` parameter. The sender of         the claim must be one of the claim signers. This function can be         called only for active and non-terminated groups."
      },
      "operatorToStakingProvider(address)": {
        "notice": "Returns staking provider of the given operator."
      },
      "pendingAuthorizationDecrease(address)": {
        "notice": "Returns the amount of stake that is pending authorization         decrease for the given staking provider. If no authorization         decrease has been requested, returns zero."
      },
      "registerOperator(address)": {
        "notice": "Used by staking provider to set operator address that will         operate a node. The given staking provider can set operator         address only one time. The operator address can not be changed         and must be unique. Reverts if the operator is already set for         the staking provider or if the operator address is already in         use. Reverts if there is a pending authorization decrease for         the staking provider."
      },
      "relayEntryParameters()": {
        "notice": "Returns relay-entry-related parameters of the beacon."
      },
      "remainingAuthorizationDecreaseDelay(address)": {
        "notice": "Returns the remaining time in seconds that needs to pass before         the requested authorization decrease can be approved.         If the sortition pool state was not updated yet by the operator         after requesting the authorization decrease, returns         `type(uint64).max`."
      },
      "reportRelayEntryTimeout(uint32[])": {
        "notice": "Reports a relay entry timeout."
      },
      "reportUnauthorizedSigning(bytes,uint64,uint32[])": {
        "notice": "Reports unauthorized groups signing. Must provide a valid signature         of the sender's address as a message. Successful signature         verification means the private key has been leaked and all group         members should be punished by slashing their tokens. Group has         to be active or expired. Unauthorized signing cannot be reported         for a terminated group. In case of reporting unauthorized         signing for a terminated group, or when the signature is invalid,         function reverts."
      },
      "requestRelayEntry(address)": {
        "notice": "Creates a request to generate a new relay entry, which will         include a random number (by signing the previous entry's         random number). Requester must be previously authorized by the         governance."
      },
      "rewardParameters()": {
        "notice": "Returns reward-related parameters of the beacon."
      },
      "selectGroup()": {
        "notice": "Selects a new group of operators. Can only be called when DKG         is in progress and the pool is locked.         At least one operator has to be registered in the pool,         otherwise the function fails reverting the transaction."
      },
      "setRequesterAuthorization(address,bool)": {
        "notice": "Set authorization for requesters that can request a relay         entry."
      },
      "slashingParameters()": {
        "notice": "Returns slashing-related parameters of the beacon."
      },
      "stakingProviderToOperator(address)": {
        "notice": "Returns operator registered for the given staking provider."
      },
      "submitDkgResult((uint256,bytes,uint8[],bytes,uint256[],uint32[],bytes32))": {
        "notice": "`\\x19Ethereum signed message:\\n` before signing, so the message to      sign is:      `\\x19Ethereum signed message:\\n${keccak256(chainID,groupPubKey,misbehaved,startBlock)}`"
      },
      "submitRelayEntry(bytes)": {
        "notice": "Creates a new relay entry. Gas-optimized version that can be         called only before the soft timeout. This should be the majority         of cases."
      },
      "submitRelayEntry(bytes,uint32[])": {
        "notice": "Creates a new relay entry."
      },
      "transferGovernance(address)": {
        "notice": "Transfers governance of the contract to `newGovernance`."
      },
      "updateAuthorizationParameters(uint96,uint64,uint64)": {
        "notice": "Updates the values of authorization parameters."
      },
      "updateGasParameters(uint256,uint256,uint256,uint256)": {
        "notice": "Updates the values of gas parameters."
      },
      "updateGroupCreationParameters(uint256,uint256,uint256,uint256,uint256,uint256)": {
        "notice": "Updates the values of group creation parameters."
      },
      "updateOperatorStatus(address)": {
        "notice": "Updates status of the operator in the sortition pool. If there         was an authorization decrease requested, it is activated by         starting the authorization decrease delay.         Function reverts if the operator is not known."
      },
      "updateRelayEntryParameters(uint256,uint256,uint256)": {
        "notice": "Updates the values of relay entry parameters."
      },
      "updateRewardParameters(uint256,uint256,uint256,uint256)": {
        "notice": "Updates the values of reward parameters."
      },
      "updateSlashingParameters(uint96,uint96,uint96)": {
        "notice": "Updates the values of slashing parameters."
      },
      "withdrawIneligibleRewards(address)": {
        "notice": "Withdraws rewards belonging to operators marked as ineligible         for sortition pool rewards."
      },
      "withdrawRewards(address)": {
        "notice": "Withdraws application rewards for the given staking provider.         Rewards are withdrawn to the staking provider's beneficiary         address set in the staking contract. Reverts if staking provider         has not registered the operator address."
      }
    },
    "notice": "Keep Random Beacon contract. It lets to request a new         relay entry and validates the new relay entry provided by the         network. This contract is in charge of all other Random Beacon         activities such as group lifecycle or slashing.",
    "version": 1
  },
  "storageLayout": {
    "storage": [
      {
        "astId": 9746,
        "contract": "contracts/RandomBeacon.sol:RandomBeacon",
        "label": "governance",
        "offset": 0,
        "slot": "0",
        "type": "t_address"
      },
      {
        "astId": 9750,
        "contract": "contracts/RandomBeacon.sol:RandomBeacon",
        "label": "__gap",
        "offset": 0,
        "slot": "1",
        "type": "t_array(t_uint256)49_storage"
      },
      {
        "astId": 14710,
        "contract": "contracts/RandomBeacon.sol:RandomBeacon",
        "label": "reimbursementPool",
        "offset": 0,
        "slot": "50",
        "type": "t_contract(ReimbursementPool)15040"
      },
      {
        "astId": 14714,
        "contract": "contracts/RandomBeacon.sol:RandomBeacon",
        "label": "__gap",
        "offset": 0,
        "slot": "51",
        "type": "t_array(t_uint256)49_storage"
      },
      {
        "astId": 9874,
        "contract": "contracts/RandomBeacon.sol:RandomBeacon",
        "label": "_callbackGasLimit",
        "offset": 0,
        "slot": "100",
        "type": "t_uint256"
      },
      {
        "astId": 9877,
        "contract": "contracts/RandomBeacon.sol:RandomBeacon",
        "label": "_groupCreationFrequency",
        "offset": 0,
        "slot": "101",
        "type": "t_uint256"
      },
      {
        "astId": 9880,
        "contract": "contracts/RandomBeacon.sol:RandomBeacon",
        "label": "_maliciousDkgResultSlashingAmount",
        "offset": 0,
        "slot": "102",
        "type": "t_uint96"
      },
      {
        "astId": 9883,
        "contract": "contracts/RandomBeacon.sol:RandomBeacon",
        "label": "_unauthorizedSigningSlashingAmount",
        "offset": 12,
        "slot": "102",
        "type": "t_uint96"
      },
      {
        "astId": 9886,
        "contract": "contracts/RandomBeacon.sol:RandomBeacon",
        "label": "_sortitionPoolRewardsBanDuration",
        "offset": 0,
        "slot": "103",
        "type": "t_uint256"
      },
      {
        "astId": 9889,
        "contract": "contracts/RandomBeacon.sol:RandomBeacon",
        "label": "_relayEntryTimeoutNotificationRewardMultiplier",
        "offset": 0,
        "slot": "104",
        "type": "t_uint256"
      },
      {
        "astId": 9892,
        "contract": "contracts/RandomBeacon.sol:RandomBeacon",
        "label": "_unauthorizedSigningNotificationRewardMultiplier",
        "offset": 0,
        "slot": "105",
        "type": "t_uint256"
      },
      {
        "astId": 9895,
        "contract": "contracts/RandomBeacon.sol:RandomBeacon",
        "label": "_dkgMaliciousResultNotificationRewardMultiplier",
        "offset": 0,
        "slot": "106",
        "type": "t_uint256"
      },
      {
        "astId": 9898,
        "contract": "contracts/RandomBeacon.sol:RandomBeacon",
        "label": "_dkgResultSubmissionGas",
        "offset": 0,
        "slot": "107",
        "type": "t_uint256"
      },
      {
        "astId": 9901,
        "contract": "contracts/RandomBeacon.sol:RandomBeacon",
        "label": "_dkgResultApprovalGasOffset",
        "offset": 0,
        "slot": "108",
        "type": "t_uint256"
      },
      {
        "astId": 9904,
        "contract": "contracts/RandomBeacon.sol:RandomBeacon",
        "label": "_notifyOperatorInactivityGasOffset",
        "offset": 0,
        "slot": "109",
        "type": "t_uint256"
      },
      {
        "astId": 9907,
        "contract": "contracts/RandomBeacon.sol:RandomBeacon",
        "label": "_relayEntrySubmissionGasOffset",
        "offset": 0,
        "slot": "110",
        "type": "t_uint256"
      },
      {
        "astId": 9912,
        "contract": "contracts/RandomBeacon.sol:RandomBeacon",
        "label": "inactivityClaimNonce",
        "offset": 0,
        "slot": "111",
        "type": "t_mapping(t_uint64,t_uint256)"
      },
      {
        "astId": 9917,
        "contract": "contracts/RandomBeacon.sol:RandomBeacon",
        "label": "authorizedRequesters",
        "offset": 0,
        "slot": "112",
        "type": "t_mapping(t_address,t_bool)"
      },
      {
        "astId": 9920,
        "contract": "contracts/RandomBeacon.sol:RandomBeacon",
        "label": "sortitionPool",
        "offset": 0,
        "slot": "113",
        "type": "t_contract(SortitionPool)1980"
      },
      {
        "astId": 9923,
        "contract": "contracts/RandomBeacon.sol:RandomBeacon",
        "label": "tToken",
        "offset": 0,
        "slot": "114",
        "type": "t_contract(IERC20)4111"
      },
      {
        "astId": 9926,
        "contract": "contracts/RandomBeacon.sol:RandomBeacon",
        "label": "staking",
        "offset": 0,
        "slot": "115",
        "type": "t_contract(IStaking)9081"
      },
      {
        "astId": 9929,
        "contract": "contracts/RandomBeacon.sol:RandomBeacon",
        "label": "authorization",
        "offset": 0,
        "slot": "116",
        "type": "t_struct(Data)16635_storage"
      },
      {
        "astId": 9932,
        "contract": "contracts/RandomBeacon.sol:RandomBeacon",
        "label": "dkg",
        "offset": 0,
        "slot": "120",
        "type": "t_struct(Data)17565_storage"
      },
      {
        "astId": 9935,
        "contract": "contracts/RandomBeacon.sol:RandomBeacon",
        "label": "groups",
        "offset": 0,
        "slot": "131",
        "type": "t_struct(Data)19047_storage"
      },
      {
        "astId": 9938,
        "contract": "contracts/RandomBeacon.sol:RandomBeacon",
        "label": "relay",
        "offset": 0,
        "slot": "136",
        "type": "t_struct(Data)19941_storage"
      },
      {
        "astId": 9941,
        "contract": "contracts/RandomBeacon.sol:RandomBeacon",
        "label": "callback",
        "offset": 0,
        "slot": "140",
        "type": "t_struct(Data)18951_storage"
      }
    ],
    "types": {
      "t_address": {
        "encoding": "inplace",
        "label": "address",
        "numberOfBytes": "20"
      },
      "t_array(t_bytes32)dyn_storage": {
        "base": "t_bytes32",
        "encoding": "dynamic_array",
        "label": "bytes32[]",
        "numberOfBytes": "32"
      },
      "t_array(t_uint256)49_storage": {
        "base": "t_uint256",
        "encoding": "inplace",
        "label": "uint256[49]",
        "numberOfBytes": "1568"
      },
      "t_array(t_uint64)dyn_storage": {
        "base": "t_uint64",
        "encoding": "dynamic_array",
        "label": "uint64[]",
        "numberOfBytes": "32"
      },
      "t_bool": {
        "encoding": "inplace",
        "label": "bool",
        "numberOfBytes": "1"
      },
      "t_bytes32": {
        "encoding": "inplace",
        "label": "bytes32",
        "numberOfBytes": "32"
      },
      "t_bytes_storage": {
        "encoding": "bytes",
        "label": "bytes",
        "numberOfBytes": "32"
      },
      "t_contract(BeaconDkgValidator)9741": {
        "encoding": "inplace",
        "label": "contract BeaconDkgValidator",
        "numberOfBytes": "20"
      },
      "t_contract(IERC20)4111": {
        "encoding": "inplace",
        "label": "contract IERC20",
        "numberOfBytes": "20"
      },
      "t_contract(IRandomBeaconConsumer)15063": {
        "encoding": "inplace",
        "label": "contract IRandomBeaconConsumer",
        "numberOfBytes": "20"
      },
      "t_contract(IStaking)9081": {
        "encoding": "inplace",
        "label": "contract IStaking",
        "numberOfBytes": "20"
      },
      "t_contract(ReimbursementPool)15040": {
        "encoding": "inplace",
        "label": "contract ReimbursementPool",
        "numberOfBytes": "20"
      },
      "t_contract(SortitionPool)1980": {
        "encoding": "inplace",
        "label": "contract SortitionPool",
        "numberOfBytes": "20"
      },
      "t_mapping(t_address,t_address)": {
        "encoding": "mapping",
        "key": "t_address",
        "label": "mapping(address => address)",
        "numberOfBytes": "32",
        "value": "t_address"
      },
      "t_mapping(t_address,t_bool)": {
        "encoding": "mapping",
        "key": "t_address",
        "label": "mapping(address => bool)",
        "numberOfBytes": "32",
        "value": "t_bool"
      },
      "t_mapping(t_address,t_struct(AuthorizationDecrease)16618_storage)": {
        "encoding": "mapping",
        "key": "t_address",
        "label": "mapping(address => struct BeaconAuthorization.AuthorizationDecrease)",
        "numberOfBytes": "32",
        "value": "t_struct(AuthorizationDecrease)16618_storage"
      },
      "t_mapping(t_bytes32,t_struct(Group)19031_storage)": {
        "encoding": "mapping",
        "key": "t_bytes32",
        "label": "mapping(bytes32 => struct Groups.Group)",
        "numberOfBytes": "32",
        "value": "t_struct(Group)19031_storage"
      },
      "t_mapping(t_uint64,t_uint256)": {
        "encoding": "mapping",
        "key": "t_uint64",
        "label": "mapping(uint64 => uint256)",
        "numberOfBytes": "32",
        "value": "t_uint256"
      },
      "t_struct(AuthorizationDecrease)16618_storage": {
        "encoding": "inplace",
        "label": "struct BeaconAuthorization.AuthorizationDecrease",
        "members": [
          {
            "astId": 16615,
            "contract": "contracts/RandomBeacon.sol:RandomBeacon",
            "label": "decreasingBy",
            "offset": 0,
            "slot": "0",
            "type": "t_uint96"
          },
          {
            "astId": 16617,
            "contract": "contracts/RandomBeacon.sol:RandomBeacon",
            "label": "decreasingAt",
            "offset": 12,
            "slot": "0",
            "type": "t_uint64"
          }
        ],
        "numberOfBytes": "32"
      },
      "t_struct(Data)16635_storage": {
        "encoding": "inplace",
        "label": "struct BeaconAuthorization.Data",
        "members": [
          {
            "astId": 16621,
            "contract": "contracts/RandomBeacon.sol:RandomBeacon",
            "label": "parameters",
            "offset": 0,
            "slot": "0",
            "type": "t_struct(Parameters)16613_storage"
          },
          {
            "astId": 16625,
            "contract": "contracts/RandomBeacon.sol:RandomBeacon",
            "label": "stakingProviderToOperator",
            "offset": 0,
            "slot": "1",
            "type": "t_mapping(t_address,t_address)"
          },
          {
            "astId": 16629,
            "contract": "contracts/RandomBeacon.sol:RandomBeacon",
            "label": "operatorToStakingProvider",
            "offset": 0,
            "slot": "2",
            "type": "t_mapping(t_address,t_address)"
          },
          {
            "astId": 16634,
            "contract": "contracts/RandomBeacon.sol:RandomBeacon",
            "label": "pendingDecreases",
            "offset": 0,
            "slot": "3",
            "type": "t_mapping(t_address,t_struct(AuthorizationDecrease)16618_storage)"
          }
        ],
        "numberOfBytes": "128"
      },
      "t_struct(Data)17565_storage": {
        "encoding": "inplace",
        "label": "struct BeaconDkg.Data",
        "members": [
          {
            "astId": 17548,
            "contract": "contracts/RandomBeacon.sol:RandomBeacon",
            "label": "sortitionPool",
            "offset": 0,
            "slot": "0",
            "type": "t_contract(SortitionPool)1980"
          },
          {
            "astId": 17551,
            "contract": "contracts/RandomBeacon.sol:RandomBeacon",
            "label": "dkgValidator",
            "offset": 0,
            "slot": "1",
            "type": "t_contract(BeaconDkgValidator)9741"
          },
          {
            "astId": 17554,
            "contract": "contracts/RandomBeacon.sol:RandomBeacon",
            "label": "parameters",
            "offset": 0,
            "slot": "2",
            "type": "t_struct(Parameters)17545_storage"
          },
          {
            "astId": 17556,
            "contract": "contracts/RandomBeacon.sol:RandomBeacon",
            "label": "startBlock",
            "offset": 0,
            "slot": "6",
            "type": "t_uint256"
          },
          {
            "astId": 17558,
            "contract": "contracts/RandomBeacon.sol:RandomBeacon",
            "label": "seed",
            "offset": 0,
            "slot": "7",
            "type": "t_uint256"
          },
          {
            "astId": 17560,
            "contract": "contracts/RandomBeacon.sol:RandomBeacon",
            "label": "resultSubmissionStartBlockOffset",
            "offset": 0,
            "slot": "8",
            "type": "t_uint256"
          },
          {
            "astId": 17562,
            "contract": "contracts/RandomBeacon.sol:RandomBeacon",
            "label": "submittedResultHash",
            "offset": 0,
            "slot": "9",
            "type": "t_bytes32"
          },
          {
            "astId": 17564,
            "contract": "contracts/RandomBeacon.sol:RandomBeacon",
            "label": "submittedResultBlock",
            "offset": 0,
            "slot": "10",
            "type": "t_uint256"
          }
        ],
        "numberOfBytes": "352"
      },
      "t_struct(Data)18951_storage": {
        "encoding": "inplace",
        "label": "struct Callback.Data",
        "members": [
          {
            "astId": 18950,
            "contract": "contracts/RandomBeacon.sol:RandomBeacon",
            "label": "callbackContract",
            "offset": 0,
            "slot": "0",
            "type": "t_contract(IRandomBeaconConsumer)15063"
          }
        ],
        "numberOfBytes": "32"
      },
      "t_struct(Data)19047_storage": {
        "encoding": "inplace",
        "label": "struct Groups.Data",
        "members": [
          {
            "astId": 19036,
            "contract": "contracts/RandomBeacon.sol:RandomBeacon",
            "label": "groupsData",
            "offset": 0,
            "slot": "0",
            "type": "t_mapping(t_bytes32,t_struct(Group)19031_storage)"
          },
          {
            "astId": 19039,
            "contract": "contracts/RandomBeacon.sol:RandomBeacon",
            "label": "groupsRegistry",
            "offset": 0,
            "slot": "1",
            "type": "t_array(t_bytes32)dyn_storage"
          },
          {
            "astId": 19042,
            "contract": "contracts/RandomBeacon.sol:RandomBeacon",
            "label": "activeTerminatedGroups",
            "offset": 0,
            "slot": "2",
            "type": "t_array(t_uint64)dyn_storage"
          },
          {
            "astId": 19044,
            "contract": "contracts/RandomBeacon.sol:RandomBeacon",
            "label": "expiredGroupOffset",
            "offset": 0,
            "slot": "3",
            "type": "t_uint64"
          },
          {
            "astId": 19046,
            "contract": "contracts/RandomBeacon.sol:RandomBeacon",
            "label": "groupLifetime",
            "offset": 0,
            "slot": "4",
            "type": "t_uint256"
          }
        ],
        "numberOfBytes": "160"
      },
      "t_struct(Data)19941_storage": {
        "encoding": "inplace",
        "label": "struct Relay.Data",
        "members": [
          {
            "astId": 19925,
            "contract": "contracts/RandomBeacon.sol:RandomBeacon",
            "label": "requestCount",
            "offset": 0,
            "slot": "0",
            "type": "t_uint64"
          },
          {
            "astId": 19927,
            "contract": "contracts/RandomBeacon.sol:RandomBeacon",
            "label": "currentRequestID",
            "offset": 8,
            "slot": "0",
            "type": "t_uint64"
          },
          {
            "astId": 19929,
            "contract": "contracts/RandomBeacon.sol:RandomBeacon",
            "label": "currentRequestGroupID",
            "offset": 16,
            "slot": "0",
            "type": "t_uint64"
          },
          {
            "astId": 19931,
            "contract": "contracts/RandomBeacon.sol:RandomBeacon",
            "label": "currentRequestStartBlock",
            "offset": 24,
            "slot": "0",
            "type": "t_uint64"
          },
          {
            "astId": 19934,
            "contract": "contracts/RandomBeacon.sol:RandomBeacon",
            "label": "previousEntry",
            "offset": 0,
            "slot": "1",
            "type": "t_struct(G1Point)15075_storage"
          },
          {
            "astId": 19936,
            "contract": "contracts/RandomBeacon.sol:RandomBeacon",
            "label": "relayEntrySoftTimeout",
            "offset": 0,
            "slot": "3",
            "type": "t_uint32"
          },
          {
            "astId": 19938,
            "contract": "contracts/RandomBeacon.sol:RandomBeacon",
            "label": "relayEntryHardTimeout",
            "offset": 4,
            "slot": "3",
            "type": "t_uint32"
          },
          {
            "astId": 19940,
            "contract": "contracts/RandomBeacon.sol:RandomBeacon",
            "label": "relayEntrySubmissionFailureSlashingAmount",
            "offset": 8,
            "slot": "3",
            "type": "t_uint96"
          }
        ],
        "numberOfBytes": "128"
      },
      "t_struct(G1Point)15075_storage": {
        "encoding": "inplace",
        "label": "struct AltBn128.G1Point",
        "members": [
          {
            "astId": 15072,
            "contract": "contracts/RandomBeacon.sol:RandomBeacon",
            "label": "x",
            "offset": 0,
            "slot": "0",
            "type": "t_uint256"
          },
          {
            "astId": 15074,
            "contract": "contracts/RandomBeacon.sol:RandomBeacon",
            "label": "y",
            "offset": 0,
            "slot": "1",
            "type": "t_uint256"
          }
        ],
        "numberOfBytes": "64"
      },
      "t_struct(Group)19031_storage": {
        "encoding": "inplace",
        "label": "struct Groups.Group",
        "members": [
          {
            "astId": 19024,
            "contract": "contracts/RandomBeacon.sol:RandomBeacon",
            "label": "groupPubKey",
            "offset": 0,
            "slot": "0",
            "type": "t_bytes_storage"
          },
          {
            "astId": 19026,
            "contract": "contracts/RandomBeacon.sol:RandomBeacon",
            "label": "registrationBlockNumber",
            "offset": 0,
            "slot": "1",
            "type": "t_uint256"
          },
          {
            "astId": 19028,
            "contract": "contracts/RandomBeacon.sol:RandomBeacon",
            "label": "membersHash",
            "offset": 0,
            "slot": "2",
            "type": "t_bytes32"
          },
          {
            "astId": 19030,
            "contract": "contracts/RandomBeacon.sol:RandomBeacon",
            "label": "terminated",
            "offset": 0,
            "slot": "3",
            "type": "t_bool"
          }
        ],
        "numberOfBytes": "128"
      },
      "t_struct(Parameters)16613_storage": {
        "encoding": "inplace",
        "label": "struct BeaconAuthorization.Parameters",
        "members": [
          {
            "astId": 16608,
            "contract": "contracts/RandomBeacon.sol:RandomBeacon",
            "label": "minimumAuthorization",
            "offset": 0,
            "slot": "0",
            "type": "t_uint96"
          },
          {
            "astId": 16610,
            "contract": "contracts/RandomBeacon.sol:RandomBeacon",
            "label": "authorizationDecreaseDelay",
            "offset": 12,
            "slot": "0",
            "type": "t_uint64"
          },
          {
            "astId": 16612,
            "contract": "contracts/RandomBeacon.sol:RandomBeacon",
            "label": "authorizationDecreaseChangePeriod",
            "offset": 20,
            "slot": "0",
            "type": "t_uint64"
          }
        ],
        "numberOfBytes": "32"
      },
      "t_struct(Parameters)17545_storage": {
        "encoding": "inplace",
        "label": "struct BeaconDkg.Parameters",
        "members": [
          {
            "astId": 17538,
            "contract": "contracts/RandomBeacon.sol:RandomBeacon",
            "label": "resultChallengePeriodLength",
            "offset": 0,
            "slot": "0",
            "type": "t_uint256"
          },
          {
            "astId": 17540,
            "contract": "contracts/RandomBeacon.sol:RandomBeacon",
            "label": "resultChallengeExtraGas",
            "offset": 0,
            "slot": "1",
            "type": "t_uint256"
          },
          {
            "astId": 17542,
            "contract": "contracts/RandomBeacon.sol:RandomBeacon",
            "label": "resultSubmissionTimeout",
            "offset": 0,
            "slot": "2",
            "type": "t_uint256"
          },
          {
            "astId": 17544,
            "contract": "contracts/RandomBeacon.sol:RandomBeacon",
            "label": "submitterPrecedencePeriodLength",
            "offset": 0,
            "slot": "3",
            "type": "t_uint256"
          }
        ],
        "numberOfBytes": "128"
      },
      "t_uint256": {
        "encoding": "inplace",
        "label": "uint256",
        "numberOfBytes": "32"
      },
      "t_uint32": {
        "encoding": "inplace",
        "label": "uint32",
        "numberOfBytes": "4"
      },
      "t_uint64": {
        "encoding": "inplace",
        "label": "uint64",
        "numberOfBytes": "8"
      },
      "t_uint96": {
        "encoding": "inplace",
        "label": "uint96",
        "numberOfBytes": "12"
      }
    }
  }
}