{
  "address": "0xe53807C8A9c78910B16eDA6f8dF85280f0e10FEe",
  "abi": [
    {
      "inputs": [
        {
          "internalType": "contract Bank",
          "name": "_bank",
          "type": "address"
        },
        {
          "internalType": "contract TBTC",
          "name": "_tbtcToken",
          "type": "address"
        },
        {
          "internalType": "contract Bridge",
          "name": "_bridge",
          "type": "address"
        }
      ],
      "stateMutability": "nonpayable",
      "type": "constructor"
    },
    {
      "anonymous": false,
      "inputs": [
        {
          "indexed": true,
          "internalType": "address",
          "name": "guardian",
          "type": "address"
        }
      ],
      "name": "GuardianAdded",
      "type": "event"
    },
    {
      "anonymous": false,
      "inputs": [
        {
          "indexed": true,
          "internalType": "address",
          "name": "guardian",
          "type": "address"
        }
      ],
      "name": "GuardianRemoved",
      "type": "event"
    },
    {
      "anonymous": false,
      "inputs": [
        {
          "indexed": true,
          "internalType": "address",
          "name": "to",
          "type": "address"
        },
        {
          "indexed": false,
          "internalType": "uint256",
          "name": "amount",
          "type": "uint256"
        }
      ],
      "name": "Minted",
      "type": "event"
    },
    {
      "anonymous": false,
      "inputs": [
        {
          "indexed": true,
          "internalType": "address",
          "name": "minter",
          "type": "address"
        }
      ],
      "name": "MinterAdded",
      "type": "event"
    },
    {
      "anonymous": false,
      "inputs": [
        {
          "indexed": true,
          "internalType": "address",
          "name": "minter",
          "type": "address"
        }
      ],
      "name": "MinterRemoved",
      "type": "event"
    },
    {
      "anonymous": false,
      "inputs": [
        {
          "indexed": true,
          "internalType": "address",
          "name": "guardian",
          "type": "address"
        },
        {
          "indexed": true,
          "internalType": "uint256",
          "name": "depositKey",
          "type": "uint256"
        }
      ],
      "name": "OptimisticMintingCancelled",
      "type": "event"
    },
    {
      "anonymous": false,
      "inputs": [
        {
          "indexed": true,
          "internalType": "address",
          "name": "depositor",
          "type": "address"
        },
        {
          "indexed": false,
          "internalType": "uint256",
          "name": "optimisticMintingDebt",
          "type": "uint256"
        }
      ],
      "name": "OptimisticMintingDebtRepaid",
      "type": "event"
    },
    {
      "anonymous": false,
      "inputs": [
        {
          "indexed": false,
          "internalType": "uint32",
          "name": "newOptimisticMintingDelay",
          "type": "uint32"
        }
      ],
      "name": "OptimisticMintingDelayUpdateStarted",
      "type": "event"
    },
    {
      "anonymous": false,
      "inputs": [
        {
          "indexed": false,
          "internalType": "uint32",
          "name": "newOptimisticMintingDelay",
          "type": "uint32"
        }
      ],
      "name": "OptimisticMintingDelayUpdated",
      "type": "event"
    },
    {
      "anonymous": false,
      "inputs": [
        {
          "indexed": false,
          "internalType": "uint32",
          "name": "newOptimisticMintingFeeDivisor",
          "type": "uint32"
        }
      ],
      "name": "OptimisticMintingFeeUpdateStarted",
      "type": "event"
    },
    {
      "anonymous": false,
      "inputs": [
        {
          "indexed": false,
          "internalType": "uint32",
          "name": "newOptimisticMintingFeeDivisor",
          "type": "uint32"
        }
      ],
      "name": "OptimisticMintingFeeUpdated",
      "type": "event"
    },
    {
      "anonymous": false,
      "inputs": [
        {
          "indexed": true,
          "internalType": "address",
          "name": "minter",
          "type": "address"
        },
        {
          "indexed": true,
          "internalType": "uint256",
          "name": "depositKey",
          "type": "uint256"
        },
        {
          "indexed": true,
          "internalType": "address",
          "name": "depositor",
          "type": "address"
        },
        {
          "indexed": false,
          "internalType": "uint256",
          "name": "optimisticMintingDebt",
          "type": "uint256"
        }
      ],
      "name": "OptimisticMintingFinalized",
      "type": "event"
    },
    {
      "anonymous": false,
      "inputs": [],
      "name": "OptimisticMintingPaused",
      "type": "event"
    },
    {
      "anonymous": false,
      "inputs": [
        {
          "indexed": true,
          "internalType": "address",
          "name": "minter",
          "type": "address"
        },
        {
          "indexed": true,
          "internalType": "uint256",
          "name": "depositKey",
          "type": "uint256"
        },
        {
          "indexed": true,
          "internalType": "address",
          "name": "depositor",
          "type": "address"
        },
        {
          "indexed": false,
          "internalType": "uint256",
          "name": "amount",
          "type": "uint256"
        },
        {
          "indexed": false,
          "internalType": "bytes32",
          "name": "fundingTxHash",
          "type": "bytes32"
        },
        {
          "indexed": false,
          "internalType": "uint32",
          "name": "fundingOutputIndex",
          "type": "uint32"
        }
      ],
      "name": "OptimisticMintingRequested",
      "type": "event"
    },
    {
      "anonymous": false,
      "inputs": [],
      "name": "OptimisticMintingUnpaused",
      "type": "event"
    },
    {
      "anonymous": false,
      "inputs": [
        {
          "indexed": true,
          "internalType": "address",
          "name": "previousOwner",
          "type": "address"
        },
        {
          "indexed": true,
          "internalType": "address",
          "name": "newOwner",
          "type": "address"
        }
      ],
      "name": "OwnershipTransferred",
      "type": "event"
    },
    {
      "anonymous": false,
      "inputs": [
        {
          "indexed": true,
          "internalType": "address",
          "name": "from",
          "type": "address"
        },
        {
          "indexed": false,
          "internalType": "uint256",
          "name": "amount",
          "type": "uint256"
        }
      ],
      "name": "Unminted",
      "type": "event"
    },
    {
      "anonymous": false,
      "inputs": [
        {
          "indexed": false,
          "internalType": "address",
          "name": "newVault",
          "type": "address"
        }
      ],
      "name": "UpgradeFinalized",
      "type": "event"
    },
    {
      "anonymous": false,
      "inputs": [
        {
          "indexed": false,
          "internalType": "address",
          "name": "newVault",
          "type": "address"
        },
        {
          "indexed": false,
          "internalType": "uint256",
          "name": "timestamp",
          "type": "uint256"
        }
      ],
      "name": "UpgradeInitiated",
      "type": "event"
    },
    {
      "inputs": [],
      "name": "GOVERNANCE_DELAY",
      "outputs": [
        {
          "internalType": "uint256",
          "name": "",
          "type": "uint256"
        }
      ],
      "stateMutability": "view",
      "type": "function"
    },
    {
      "inputs": [],
      "name": "SATOSHI_MULTIPLIER",
      "outputs": [
        {
          "internalType": "uint256",
          "name": "",
          "type": "uint256"
        }
      ],
      "stateMutability": "view",
      "type": "function"
    },
    {
      "inputs": [
        {
          "internalType": "address",
          "name": "guardian",
          "type": "address"
        }
      ],
      "name": "addGuardian",
      "outputs": [],
      "stateMutability": "nonpayable",
      "type": "function"
    },
    {
      "inputs": [
        {
          "internalType": "address",
          "name": "minter",
          "type": "address"
        }
      ],
      "name": "addMinter",
      "outputs": [],
      "stateMutability": "nonpayable",
      "type": "function"
    },
    {
      "inputs": [
        {
          "internalType": "uint256",
          "name": "amount",
          "type": "uint256"
        }
      ],
      "name": "amountToSatoshis",
      "outputs": [
        {
          "internalType": "uint256",
          "name": "convertibleAmount",
          "type": "uint256"
        },
        {
          "internalType": "uint256",
          "name": "remainder",
          "type": "uint256"
        },
        {
          "internalType": "uint256",
          "name": "satoshis",
          "type": "uint256"
        }
      ],
      "stateMutability": "view",
      "type": "function"
    },
    {
      "inputs": [],
      "name": "bank",
      "outputs": [
        {
          "internalType": "contract Bank",
          "name": "",
          "type": "address"
        }
      ],
      "stateMutability": "view",
      "type": "function"
    },
    {
      "inputs": [
        {
          "internalType": "uint32",
          "name": "_newOptimisticMintingDelay",
          "type": "uint32"
        }
      ],
      "name": "beginOptimisticMintingDelayUpdate",
      "outputs": [],
      "stateMutability": "nonpayable",
      "type": "function"
    },
    {
      "inputs": [
        {
          "internalType": "uint32",
          "name": "_newOptimisticMintingFeeDivisor",
          "type": "uint32"
        }
      ],
      "name": "beginOptimisticMintingFeeUpdate",
      "outputs": [],
      "stateMutability": "nonpayable",
      "type": "function"
    },
    {
      "inputs": [],
      "name": "bridge",
      "outputs": [
        {
          "internalType": "contract Bridge",
          "name": "",
          "type": "address"
        }
      ],
      "stateMutability": "view",
      "type": "function"
    },
    {
      "inputs": [
        {
          "internalType": "bytes32",
          "name": "fundingTxHash",
          "type": "bytes32"
        },
        {
          "internalType": "uint32",
          "name": "fundingOutputIndex",
          "type": "uint32"
        }
      ],
      "name": "calculateDepositKey",
      "outputs": [
        {
          "internalType": "uint256",
          "name": "",
          "type": "uint256"
        }
      ],
      "stateMutability": "pure",
      "type": "function"
    },
    {
      "inputs": [
        {
          "internalType": "bytes32",
          "name": "fundingTxHash",
          "type": "bytes32"
        },
        {
          "internalType": "uint32",
          "name": "fundingOutputIndex",
          "type": "uint32"
        }
      ],
      "name": "cancelOptimisticMint",
      "outputs": [],
      "stateMutability": "nonpayable",
      "type": "function"
    },
    {
      "inputs": [
        {
          "internalType": "bytes32",
          "name": "fundingTxHash",
          "type": "bytes32"
        },
        {
          "internalType": "uint32",
          "name": "fundingOutputIndex",
          "type": "uint32"
        }
      ],
      "name": "finalizeOptimisticMint",
      "outputs": [],
      "stateMutability": "nonpayable",
      "type": "function"
    },
    {
      "inputs": [],
      "name": "finalizeOptimisticMintingDelayUpdate",
      "outputs": [],
      "stateMutability": "nonpayable",
      "type": "function"
    },
    {
      "inputs": [],
      "name": "finalizeOptimisticMintingFeeUpdate",
      "outputs": [],
      "stateMutability": "nonpayable",
      "type": "function"
    },
    {
      "inputs": [],
      "name": "finalizeUpgrade",
      "outputs": [],
      "stateMutability": "nonpayable",
      "type": "function"
    },
    {
      "inputs": [],
      "name": "getMinters",
      "outputs": [
        {
          "internalType": "address[]",
          "name": "",
          "type": "address[]"
        }
      ],
      "stateMutability": "view",
      "type": "function"
    },
    {
      "inputs": [
        {
          "internalType": "address",
          "name": "_newVault",
          "type": "address"
        }
      ],
      "name": "initiateUpgrade",
      "outputs": [],
      "stateMutability": "nonpayable",
      "type": "function"
    },
    {
      "inputs": [
        {
          "internalType": "address",
          "name": "",
          "type": "address"
        }
      ],
      "name": "isGuardian",
      "outputs": [
        {
          "internalType": "bool",
          "name": "",
          "type": "bool"
        }
      ],
      "stateMutability": "view",
      "type": "function"
    },
    {
      "inputs": [
        {
          "internalType": "address",
          "name": "",
          "type": "address"
        }
      ],
      "name": "isMinter",
      "outputs": [
        {
          "internalType": "bool",
          "name": "",
          "type": "bool"
        }
      ],
      "stateMutability": "view",
      "type": "function"
    },
    {
      "inputs": [],
      "name": "isOptimisticMintingPaused",
      "outputs": [
        {
          "internalType": "bool",
          "name": "",
          "type": "bool"
        }
      ],
      "stateMutability": "view",
      "type": "function"
    },
    {
      "inputs": [
        {
          "internalType": "uint256",
          "name": "amount",
          "type": "uint256"
        }
      ],
      "name": "mint",
      "outputs": [],
      "stateMutability": "nonpayable",
      "type": "function"
    },
    {
      "inputs": [
        {
          "internalType": "uint256",
          "name": "",
          "type": "uint256"
        }
      ],
      "name": "minters",
      "outputs": [
        {
          "internalType": "address",
          "name": "",
          "type": "address"
        }
      ],
      "stateMutability": "view",
      "type": "function"
    },
    {
      "inputs": [],
      "name": "newOptimisticMintingDelay",
      "outputs": [
        {
          "internalType": "uint32",
          "name": "",
          "type": "uint32"
        }
      ],
      "stateMutability": "view",
      "type": "function"
    },
    {
      "inputs": [],
      "name": "newOptimisticMintingFeeDivisor",
      "outputs": [
        {
          "internalType": "uint32",
          "name": "",
          "type": "uint32"
        }
      ],
      "stateMutability": "view",
      "type": "function"
    },
    {
      "inputs": [],
      "name": "newVault",
      "outputs": [
        {
          "internalType": "address",
          "name": "",
          "type": "address"
        }
      ],
      "stateMutability": "view",
      "type": "function"
    },
    {
      "inputs": [
        {
          "internalType": "address",
          "name": "",
          "type": "address"
        }
      ],
      "name": "optimisticMintingDebt",
      "outputs": [
        {
          "internalType": "uint256",
          "name": "",
          "type": "uint256"
        }
      ],
      "stateMutability": "view",
      "type": "function"
    },
    {
      "inputs": [],
      "name": "optimisticMintingDelay",
      "outputs": [
        {
          "internalType": "uint32",
          "name": "",
          "type": "uint32"
        }
      ],
      "stateMutability": "view",
      "type": "function"
    },
    {
      "inputs": [],
      "name": "optimisticMintingDelayUpdateInitiatedTimestamp",
      "outputs": [
        {
          "internalType": "uint256",
          "name": "",
          "type": "uint256"
        }
      ],
      "stateMutability": "view",
      "type": "function"
    },
    {
      "inputs": [],
      "name": "optimisticMintingFeeDivisor",
      "outputs": [
        {
          "internalType": "uint32",
          "name": "",
          "type": "uint32"
        }
      ],
      "stateMutability": "view",
      "type": "function"
    },
    {
      "inputs": [],
      "name": "optimisticMintingFeeUpdateInitiatedTimestamp",
      "outputs": [
        {
          "internalType": "uint256",
          "name": "",
          "type": "uint256"
        }
      ],
      "stateMutability": "view",
      "type": "function"
    },
    {
      "inputs": [
        {
          "internalType": "uint256",
          "name": "",
          "type": "uint256"
        }
      ],
      "name": "optimisticMintingRequests",
      "outputs": [
        {
          "internalType": "uint64",
          "name": "requestedAt",
          "type": "uint64"
        },
        {
          "internalType": "uint64",
          "name": "finalizedAt",
          "type": "uint64"
        }
      ],
      "stateMutability": "view",
      "type": "function"
    },
    {
      "inputs": [],
      "name": "owner",
      "outputs": [
        {
          "internalType": "address",
          "name": "",
          "type": "address"
        }
      ],
      "stateMutability": "view",
      "type": "function"
    },
    {
      "inputs": [],
      "name": "pauseOptimisticMinting",
      "outputs": [],
      "stateMutability": "nonpayable",
      "type": "function"
    },
    {
      "inputs": [
        {
          "internalType": "address",
          "name": "from",
          "type": "address"
        },
        {
          "internalType": "uint256",
          "name": "amount",
          "type": "uint256"
        },
        {
          "internalType": "address",
          "name": "token",
          "type": "address"
        },
        {
          "internalType": "bytes",
          "name": "extraData",
          "type": "bytes"
        }
      ],
      "name": "receiveApproval",
      "outputs": [],
      "stateMutability": "nonpayable",
      "type": "function"
    },
    {
      "inputs": [
        {
          "internalType": "address",
          "name": "owner",
          "type": "address"
        },
        {
          "internalType": "uint256",
          "name": "satoshis",
          "type": "uint256"
        },
        {
          "internalType": "bytes",
          "name": "",
          "type": "bytes"
        }
      ],
      "name": "receiveBalanceApproval",
      "outputs": [],
      "stateMutability": "nonpayable",
      "type": "function"
    },
    {
      "inputs": [
        {
          "internalType": "address[]",
          "name": "depositors",
          "type": "address[]"
        },
        {
          "internalType": "uint256[]",
          "name": "depositedSatoshiAmounts",
          "type": "uint256[]"
        }
      ],
      "name": "receiveBalanceIncrease",
      "outputs": [],
      "stateMutability": "nonpayable",
      "type": "function"
    },
    {
      "inputs": [
        {
          "internalType": "contract IERC20",
          "name": "token",
          "type": "address"
        },
        {
          "internalType": "address",
          "name": "recipient",
          "type": "address"
        },
        {
          "internalType": "uint256",
          "name": "amount",
          "type": "uint256"
        }
      ],
      "name": "recoverERC20",
      "outputs": [],
      "stateMutability": "nonpayable",
      "type": "function"
    },
    {
      "inputs": [
        {
          "internalType": "contract IERC20",
          "name": "token",
          "type": "address"
        },
        {
          "internalType": "address",
          "name": "recipient",
          "type": "address"
        },
        {
          "internalType": "uint256",
          "name": "amount",
          "type": "uint256"
        }
      ],
      "name": "recoverERC20FromToken",
      "outputs": [],
      "stateMutability": "nonpayable",
      "type": "function"
    },
    {
      "inputs": [
        {
          "internalType": "contract IERC721",
          "name": "token",
          "type": "address"
        },
        {
          "internalType": "address",
          "name": "recipient",
          "type": "address"
        },
        {
          "internalType": "uint256",
          "name": "tokenId",
          "type": "uint256"
        },
        {
          "internalType": "bytes",
          "name": "data",
          "type": "bytes"
        }
      ],
      "name": "recoverERC721",
      "outputs": [],
      "stateMutability": "nonpayable",
      "type": "function"
    },
    {
      "inputs": [
        {
          "internalType": "contract IERC721",
          "name": "token",
          "type": "address"
        },
        {
          "internalType": "address",
          "name": "recipient",
          "type": "address"
        },
        {
          "internalType": "uint256",
          "name": "tokenId",
          "type": "uint256"
        },
        {
          "internalType": "bytes",
          "name": "data",
          "type": "bytes"
        }
      ],
      "name": "recoverERC721FromToken",
      "outputs": [],
      "stateMutability": "nonpayable",
      "type": "function"
    },
    {
      "inputs": [
        {
          "internalType": "address",
          "name": "guardian",
          "type": "address"
        }
      ],
      "name": "removeGuardian",
      "outputs": [],
      "stateMutability": "nonpayable",
      "type": "function"
    },
    {
      "inputs": [
        {
          "internalType": "address",
          "name": "minter",
          "type": "address"
        }
      ],
      "name": "removeMinter",
      "outputs": [],
      "stateMutability": "nonpayable",
      "type": "function"
    },
    {
      "inputs": [],
      "name": "renounceOwnership",
      "outputs": [],
      "stateMutability": "nonpayable",
      "type": "function"
    },
    {
      "inputs": [
        {
          "internalType": "bytes32",
          "name": "fundingTxHash",
          "type": "bytes32"
        },
        {
          "internalType": "uint32",
          "name": "fundingOutputIndex",
          "type": "uint32"
        }
      ],
      "name": "requestOptimisticMint",
      "outputs": [],
      "stateMutability": "nonpayable",
      "type": "function"
    },
    {
      "inputs": [],
      "name": "tbtcToken",
      "outputs": [
        {
          "internalType": "contract TBTC",
          "name": "",
          "type": "address"
        }
      ],
      "stateMutability": "view",
      "type": "function"
    },
    {
      "inputs": [
        {
          "internalType": "address",
          "name": "newOwner",
          "type": "address"
        }
      ],
      "name": "transferOwnership",
      "outputs": [],
      "stateMutability": "nonpayable",
      "type": "function"
    },
    {
      "inputs": [
        {
          "internalType": "uint256",
          "name": "amount",
          "type": "uint256"
        }
      ],
      "name": "unmint",
      "outputs": [],
      "stateMutability": "nonpayable",
      "type": "function"
    },
    {
      "inputs": [
        {
          "internalType": "uint256",
          "name": "amount",
          "type": "uint256"
        },
        {
          "internalType": "bytes",
          "name": "redemptionData",
          "type": "bytes"
        }
      ],
      "name": "unmintAndRedeem",
      "outputs": [],
      "stateMutability": "nonpayable",
      "type": "function"
    },
    {
      "inputs": [],
      "name": "unpauseOptimisticMinting",
      "outputs": [],
      "stateMutability": "nonpayable",
      "type": "function"
    },
    {
      "inputs": [],
      "name": "upgradeInitiatedTimestamp",
      "outputs": [
        {
          "internalType": "uint256",
          "name": "",
          "type": "uint256"
        }
      ],
      "stateMutability": "view",
      "type": "function"
    }
  ],
  "transactionHash": "0xb1fceef01b506b4befbab7b7777cf340b15a179a13b40a1f2502e42846593a47",
  "args": [
    "0xD0019E41A621D42808878a47aFC380dD6cAa230e",
    "0xFA094845D577DEBfAc4AFB432179B2e3f3D84634",
    "0x0350D3ae8F0B794A23a7DBEF579D3217CBa842bc"
  ],
  "numDeployments": 1,
  "solcInputHash": "a56bfaaa79e0da33a919d055fd4c67e7",
  "bytecode": "0x60e060405260008054600160a81b600160e81b03191664014000007d60aa1b1790553480156200002e57600080fd5b5060405162003bf338038062003bf383398101604081905262000051916200020b565b806200005d33620001a2565b6001600160a01b038116620000c45760405162461bcd60e51b815260206004820152602260248201527f4272696467652063616e206e6f7420626520746865207a65726f206164647265604482015261737360f01b60648201526084015b60405180910390fd5b6001600160a01b039081166080528316620001225760405162461bcd60e51b815260206004820181905260248201527f42616e6b2063616e206e6f7420626520746865207a65726f20616464726573736044820152606401620000bb565b6001600160a01b038216620001895760405162461bcd60e51b815260206004820152602660248201527f5442544320746f6b656e2063616e206e6f7420626520746865207a65726f206160448201526564647265737360d01b6064820152608401620000bb565b506001600160a01b0391821660a0521660c0526200025f565b600080546001600160a01b038381166001600160a01b0319831681178455604051919092169283917f8be0079c531659141344cd1fd0a4f28419497f9722a3daafe3b4186f6b6457e09190a35050565b6001600160a01b03811681146200020857600080fd5b50565b6000806000606084860312156200022157600080fd5b83516200022e81620001f2565b60208501519093506200024181620001f2565b60408501519092506200025481620001f2565b809150509250925092565b60805160a05160c0516138d86200031b600039600081816107320152818161097f01528181610cf301528181611d980152818161219701528181612b5301528181612cbe0152612e0501526000818161057901528181610d6001528181610ebb01528181610f490152818161104e015281816122130152818161234b0152818161243c01528181612d1c0152612e6301526000818161075901528181611413015281816115af01528181611b4a0152612d4b01526138d86000f3fe608060405234801561001057600080fd5b50600436106103365760003560e01c80638532c511116101b2578063a410d29b116100f9578063c36b32b7116100a2578063e5d3d7141161007c578063e5d3d7141461072d578063e78cea9214610754578063f2fde38b1461077b578063fc4e51f61461078e57600080fd5b8063c36b32b7146106fe578063c7ba034714610711578063d0ff65b51461071d57600080fd5b8063b0b54895116100d3578063b0b54895146106cd578063b9f78798146106d6578063bc7b6b99146106f657600080fd5b8063a410d29b1461068f578063a526d83b14610697578063aa271e1a146106aa57600080fd5b8063951315261161015b5780639a508c8e116101355780639a508c8e1461066b578063a0712d6814610673578063a0cceb951461068657600080fd5b80639513152614610647578063983b2d56146106505780639a4e36d51461066357600080fd5b8063897f712c1161018c578063897f712c1461060f5780638da5cb5b146106235780638f4ffcb11461063457600080fd5b80638532c511146105d95780638623ec7b146105e957806388aaf0c8146105fc57600080fd5b806347c1ffdb116102815780636c626aa41161022a5780637445a5a0116102045780637445a5a01461054657806376cdb03b1461057457806380df5ed2146105b3578063820b5513146105c657600080fd5b80636c626aa4146104d0578063714041561461052b578063715018a61461053e57600080fd5b806364e779b11161025b57806364e779b1146104955780636abe3a6c146104a85780636b32810b146104bb57600080fd5b806347c1ffdb1461046357806353dce4df1461046b5780635ae2da461461047e57600080fd5b80633092afd5116102e3578063461c6373116102bd578063461c63731461042a578063475d05701461043d578063479aa9271461045057600080fd5b80633092afd5146103fb578063317dfa761461040e57806341906ab71461042157600080fd5b80631171bda9116103145780631171bda9146103b4578063124f65bd146103c75780632e73e398146103e857600080fd5b806309b53f511461033b5780630c68ba211461036c5780630f3425731461039f575b600080fd5b60005461035290600160a81b900463ffffffff1681565b60405163ffffffff90911681526020015b60405180910390f35b61038f61037a3660046131cf565b60036020526000908152604090205460ff1681565b6040519015158152602001610363565b6103b26103ad3660046131fe565b6107a1565b005b6103b26103c236600461321b565b610841565b6103da6103d536600461325c565b6108a2565b604051908152602001610363565b6103b26103f63660046132d5565b610907565b6103b26104093660046131cf565b6109f5565b6103b261041c36600461321b565b610c64565b6103da60095481565b6103b261043836600461338d565b610d55565b6103b261044b3660046133f9565b610eb0565b6103b261045e3660046131cf565b6110b1565b6103b26111b6565b6103b2610479366004613449565b611293565b60005461035290600160c81b900463ffffffff1681565b6103b26104a3366004613495565b6112b4565b6103b26104b636600461325c565b6112d1565b6104c36116c1565b60405161036391906134ae565b61050a6104de366004613495565b60046020526000908152604090205467ffffffffffffffff808216916801000000000000000090041682565b6040805167ffffffffffffffff938416815292909116602083015201610363565b6103b26105393660046131cf565b611723565b6103b261181c565b610559610554366004613495565b611870565b60408051938452602084019290925290820152606001610363565b61059b7f000000000000000000000000000000000000000000000000000000000000000081565b6040516001600160a01b039091168152602001610363565b6103b26105c136600461325c565b6118a8565b6103b26105d436600461325c565b611a94565b6006546103529063ffffffff1681565b61059b6105f7366004613495565b611d6c565b600a5461059b906001600160a01b031681565b60005461038f90600160a01b900460ff1681565b6000546001600160a01b031661059b565b6103b26106423660046134fb565b611d96565b6103da600b5481565b6103b261065e3660046131cf565b611eab565b6103b2611fe8565b6103b26120c5565b6103b2610681366004613495565b61231b565b6103da60075481565b6103b2612473565b6103b26106a53660046131cf565b61255b565b61038f6106b83660046131cf565b60016020526000908152604090205460ff1681565b6103da61025881565b6103da6106e43660046131cf565b60056020526000908152604090205481565b6103b261267e565b6103b261070c3660046131fe565b612755565b6103da6402540be40081565b6008546103529063ffffffff1681565b61059b7f000000000000000000000000000000000000000000000000000000000000000081565b61059b7f000000000000000000000000000000000000000000000000000000000000000081565b6103b26107893660046131cf565b6127e9565b6103b261079c3660046132d5565b6128b9565b6000546001600160a01b031633146107ee5760405162461bcd60e51b8152602060048201819052602482015260008051602061388383398151915260448201526064015b60405180910390fd5b426009556008805463ffffffff191663ffffffff83169081179091556040519081527f682bc0fb7e0d6bcb974cf556b95f68533cafc411d83d9f33ac192ccf45dda605906020015b60405180910390a150565b6000546001600160a01b031633146108895760405162461bcd60e51b8152602060048201819052602482015260008051602061388383398151915260448201526064016107e5565b61089d6001600160a01b038416838361294e565b505050565b600082826040516020016108e592919091825260e01b7fffffffff0000000000000000000000000000000000000000000000000000000016602082015260240190565b6040516020818303038152906040528051906020012060001c90505b92915050565b6000546001600160a01b0316331461094f5760405162461bcd60e51b8152602060048201819052602482015260008051602061388383398151915260448201526064016107e5565b6040517ffc4e51f60000000000000000000000000000000000000000000000000000000081526001600160a01b037f0000000000000000000000000000000000000000000000000000000000000000169063fc4e51f6906109bc908890889088908890889060040161357a565b600060405180830381600087803b1580156109d657600080fd5b505af11580156109ea573d6000803e3d6000fd5b505050505050505050565b33610a086000546001600160a01b031690565b6001600160a01b03161480610a2c57503360009081526003602052604090205460ff165b610a9e5760405162461bcd60e51b815260206004820152602360248201527f43616c6c6572206973206e6f7420746865206f776e6572206f7220677561726460448201527f69616e000000000000000000000000000000000000000000000000000000000060648201526084016107e5565b6001600160a01b03811660009081526001602052604090205460ff16610b065760405162461bcd60e51b815260206004820152601c60248201527f546869732061646472657373206973206e6f742061206d696e7465720000000060448201526064016107e5565b6001600160a01b0381166000908152600160205260408120805460ff191690555b600254811015610c2c57816001600160a01b031660028281548110610b4e57610b4e6135ad565b6000918252602090912001546001600160a01b031603610c1a5760028054610b78906001906135d9565b81548110610b8857610b886135ad565b600091825260209091200154600280546001600160a01b039092169183908110610bb457610bb46135ad565b9060005260206000200160006101000a8154816001600160a01b0302191690836001600160a01b031602179055506002805480610bf357610bf36135ec565b600082815260209020810160001990810180546001600160a01b0319169055019055610c2c565b80610c2481613602565b915050610b27565b506040516001600160a01b038216907fe94479a9f7e1952cc78f2d6baab678adc1b772d936c6583def489e524cb6669290600090a250565b6000546001600160a01b03163314610cac5760405162461bcd60e51b8152602060048201819052602482015260008051602061388383398151915260448201526064016107e5565b6040517f1171bda90000000000000000000000000000000000000000000000000000000081526001600160a01b0384811660048301528381166024830152604482018390527f00000000000000000000000000000000000000000000000000000000000000001690631171bda9906064015b600060405180830381600087803b158015610d3857600080fd5b505af1158015610d4c573d6000803e3d6000fd5b50505050505050565b336001600160a01b037f00000000000000000000000000000000000000000000000000000000000000001614610dcd5760405162461bcd60e51b815260206004820152601660248201527f43616c6c6572206973206e6f74207468652042616e6b0000000000000000000060448201526064016107e5565b6000839003610e1e5760405162461bcd60e51b815260206004820152601760248201527f4e6f206465706f7369746f72732073706563696669656400000000000000000060448201526064016107e5565b60005b83811015610ea9576000858583818110610e3d57610e3d6135ad565b9050602002016020810190610e5291906131cf565b90506000848484818110610e6857610e686135ad565b905060200201359050610e9482610e8f846402540be40085610e8a919061361b565b6129ce565b612ad1565b50508080610ea190613602565b915050610e21565b5050505050565b336001600160a01b037f00000000000000000000000000000000000000000000000000000000000000001614610f285760405162461bcd60e51b815260206004820152601660248201527f43616c6c6572206973206e6f74207468652042616e6b0000000000000000000060448201526064016107e5565b6040516370a0823160e01b81526001600160a01b03858116600483015284917f0000000000000000000000000000000000000000000000000000000000000000909116906370a0823190602401602060405180830381865afa158015610f92573d6000803e3d6000fd5b505050506040513d601f19601f82011682018060405250810190610fb69190613632565b101561100f5760405162461bcd60e51b815260206004820152602260248201527f416d6f756e7420657863656564732062616c616e636520696e207468652062616044820152616e6b60f01b60648201526084016107e5565b61102284610e8f6402540be4008661361b565b604051631f1b6d2760e21b81526001600160a01b038581166004830152306024830152604482018590527f00000000000000000000000000000000000000000000000000000000000000001690637c6db49c906064015b600060405180830381600087803b15801561109357600080fd5b505af11580156110a7573d6000803e3d6000fd5b5050505050505050565b6000546001600160a01b031633146110f95760405162461bcd60e51b8152602060048201819052602482015260008051602061388383398151915260448201526064016107e5565b6001600160a01b03811661114f5760405162461bcd60e51b815260206004820181905260248201527f4e6577207661756c7420616464726573732063616e6e6f74206265207a65726f60448201526064016107e5565b604080516001600160a01b03831681524260208201527f5cc842cab066489e13292128663547c68705dbf476f0131e0107f155719c6124910160405180910390a142600b55600a80546001600160a01b0319166001600160a01b0392909216919091179055565b6000546001600160a01b031633146111fe5760405162461bcd60e51b8152602060048201819052602482015260008051602061388383398151915260448201526064016107e5565b60075461120d81610258612bac565b600654600080547fffffffffffffff00000000ffffffffffffffffffffffffffffffffffffffffff1663ffffffff909216600160a81b81029290921790556040519081527fa7f4ce7c3586e2000cdec6b25c5e7d0b20f9b4f435aa22d9c1feb32dbb506f779060200160405180910390a1506006805463ffffffff191690556000600755565b600061129e84611870565b505090506112ae33828585612c55565b50505050565b60006112bf82611870565b505090506112cd3382612d9c565b5050565b60006112dd83836108a2565b600081815260046020526040812080549293509167ffffffffffffffff16900361136f5760405162461bcd60e51b815260206004820152603060248201527f4f7074696d6973746963206d696e74696e67206e6f742072657175657374656460448201527f20666f7220746865206465706f7369740000000000000000000000000000000060648201526084016107e5565b805468010000000000000000900467ffffffffffffffff16156113fa5760405162461bcd60e51b815260206004820152603460248201527f4f7074696d6973746963206d696e74696e6720616c72656164792066696e616c60448201527f697a656420666f7220746865206465706f73697400000000000000000000000060648201526084016107e5565b604051630b02c43d60e41b8152600481018390526000907f00000000000000000000000000000000000000000000000000000000000000006001600160a01b03169063b02c43d09060240160c060405180830381865afa158015611462573d6000803e3d6000fd5b505050506040513d601f19601f82011682018060405250810190611486919061367e565b90508060a0015163ffffffff166000146114e25760405162461bcd60e51b815260206004820152601c60248201527f546865206465706f73697420697320616c72656164792073776570740000000060448201526064016107e5565b60006402540be400826080015183602001516114fe919061372b565b67ffffffffffffffff16611512919061361b565b6000805491925090600160a81b900463ffffffff1661153257600061154c565b60005461154c90600160a81b900463ffffffff1683613762565b83516001600160a01b031660009081526005602052604081205491925090611575908490613776565b84516001600160a01b0316600090815260056020526040902081905584519091506115a490610e8f84866135d9565b8115611635576116357f00000000000000000000000000000000000000000000000000000000000000006001600160a01b03166361d027b36040518163ffffffff1660e01b8152600401602060405180830381865afa15801561160b573d6000803e3d6000fd5b505050506040513d601f19601f8201168201806040525081019061162f9190613789565b83612ad1565b84547fffffffffffffffffffffffffffffffff0000000000000000ffffffffffffffff16680100000000000000004267ffffffffffffffff160217855583516040518281526001600160a01b0390911690879033907f2cffebf26d639426e79514d100febae8b2c63e700e5dc0fa6c88a129633506369060200160405180910390a45050505050505050565b6060600280548060200260200160405190810160405280929190818152602001828054801561171957602002820191906000526020600020905b81546001600160a01b031681526001909101906020018083116116fb575b5050505050905090565b6000546001600160a01b0316331461176b5760405162461bcd60e51b8152602060048201819052602482015260008051602061388383398151915260448201526064016107e5565b6001600160a01b03811660009081526003602052604090205460ff166117d35760405162461bcd60e51b815260206004820152601e60248201527f546869732061646472657373206973206e6f74206120677561726469616e000060448201526064016107e5565b6001600160a01b038116600081815260036020526040808220805460ff19169055517fb8107d0c6b40be480ce3172ee66ba6d64b71f6b1685a851340036e6e2e3e3c529190a250565b6000546001600160a01b031633146118645760405162461bcd60e51b8152602060048201819052602482015260008051602061388383398151915260448201526064016107e5565b61186e6000612eeb565b565b600080806118836402540be400856137a6565b915061188f82856135d9565b92506118a06402540be40084613762565b929491935050565b3360009081526003602052604090205460ff166119075760405162461bcd60e51b815260206004820152601860248201527f43616c6c6572206973206e6f74206120677561726469616e000000000000000060448201526064016107e5565b600061191383836108a2565b600081815260046020526040812080549293509167ffffffffffffffff1690036119a55760405162461bcd60e51b815260206004820152603060248201527f4f7074696d6973746963206d696e74696e67206e6f742072657175657374656460448201527f20666f7220746865206465706f7369740000000000000000000000000000000060648201526084016107e5565b805468010000000000000000900467ffffffffffffffff1615611a305760405162461bcd60e51b815260206004820152603460248201527f4f7074696d6973746963206d696e74696e6720616c72656164792066696e616c60448201527f697a656420666f7220746865206465706f73697400000000000000000000000060648201526084016107e5565b60008281526004602052604080822080547fffffffffffffffffffffffffffffffff0000000000000000000000000000000016905551839133917f1256b41d4b18d922811c358ab80cb0375aae28f45373de35cfda580662193fcd9190a350505050565b6000611aa083836108a2565b600081815260046020526040902080549192509067ffffffffffffffff1615611b315760405162461bcd60e51b815260206004820152603460248201527f4f7074696d6973746963206d696e74696e6720616c726561647920726571756560448201527f7374656420666f7220746865206465706f73697400000000000000000000000060648201526084016107e5565b604051630b02c43d60e41b8152600481018390526000907f00000000000000000000000000000000000000000000000000000000000000006001600160a01b03169063b02c43d09060240160c060405180830381865afa158015611b99573d6000803e3d6000fd5b505050506040513d601f19601f82011682018060405250810190611bbd919061367e565b9050806040015163ffffffff16600003611c235760405162461bcd60e51b815260206004820152602160248201527f546865206465706f73697420686173206e6f74206265656e2072657665616c656044820152601960fa1b60648201526084016107e5565b60a081015163ffffffff1615611c7b5760405162461bcd60e51b815260206004820152601c60248201527f546865206465706f73697420697320616c72656164792073776570740000000060448201526064016107e5565b60608101516001600160a01b03163014611cd75760405162461bcd60e51b815260206004820152601860248201527f556e6578706563746564207661756c742061646472657373000000000000000060448201526064016107e5565b815467ffffffffffffffff19164267ffffffffffffffff908116919091178355815160208301516001600160a01b0390911691859133917f36f39c606d55d7dd2a05b8c4e41e9a6ca8c501cea10009c1762f6826a146e05591611d41916402540be400911661361b565b60408051918252602082018b905263ffffffff8a169082015260600160405180910390a45050505050565b60028181548110611d7c57600080fd5b6000918252602090912001546001600160a01b0316905081565b7f00000000000000000000000000000000000000000000000000000000000000006001600160a01b0316836001600160a01b031614611e175760405162461bcd60e51b815260206004820152601160248201527f546f6b656e206973206e6f74205442544300000000000000000000000000000060448201526064016107e5565b336001600160a01b03841614611e6f5760405162461bcd60e51b815260206004820152601860248201527f4f6e6c7920544254432063616c6c657220616c6c6f776564000000000000000060448201526064016107e5565b6000611e7a85611870565b50909150506000829003611e9757611e928682612d9c565b611ea3565b611ea386828585612c55565b505050505050565b6000546001600160a01b03163314611ef35760405162461bcd60e51b8152602060048201819052602482015260008051602061388383398151915260448201526064016107e5565b6001600160a01b03811660009081526001602052604090205460ff1615611f5c5760405162461bcd60e51b815260206004820181905260248201527f54686973206164647265737320697320616c72656164792061206d696e74657260448201526064016107e5565b6001600160a01b0381166000818152600160208190526040808320805460ff19168317905560028054928301815583527f405787fa12a823e0f2b7631cc41b3ba8828b3321ca811111fa75cd3aa3bb5ace90910180546001600160a01b03191684179055517f6ae172837ea30b801fbfcdd4108aa1d5bf8ff775444fd70256b44e6bf3dfc3f69190a250565b6000546001600160a01b031633146120305760405162461bcd60e51b8152602060048201819052602482015260008051602061388383398151915260448201526064016107e5565b60095461203f81610258612bac565b600854600080547fffffff00000000ffffffffffffffffffffffffffffffffffffffffffffffffff1663ffffffff909216600160c81b81029290921790556040519081527ff52de3377e3ae270d1e38f99b9b8d587814643811516ea55ba4d597f9950d4ec9060200160405180910390a1506008805463ffffffff191690556000600955565b6000546001600160a01b0316331461210d5760405162461bcd60e51b8152602060048201819052602482015260008051602061388383398151915260448201526064016107e5565b600b5461211c81610258612bac565b600a546040516001600160a01b0390911681527f81a9bb8030ed4116b405800280e065110a37afb57b69948e714c97fab23475ec9060200160405180910390a1600a546040517ff2fde38b0000000000000000000000000000000000000000000000000000000081526001600160a01b0391821660048201527f00000000000000000000000000000000000000000000000000000000000000009091169063f2fde38b90602401600060405180830381600087803b1580156121dd57600080fd5b505af11580156121f1573d6000803e3d6000fd5b5050600a546040516370a0823160e01b81523060048201526001600160a01b037f0000000000000000000000000000000000000000000000000000000000000000811694506356a6d9ef93509091169083906370a0823190602401602060405180830381865afa158015612269573d6000803e3d6000fd5b505050506040513d601f19601f8201168201806040525081019061228d9190613632565b6040517fffffffff0000000000000000000000000000000000000000000000000000000060e085901b1681526001600160a01b0390921660048301526024820152604401600060405180830381600087803b1580156122eb57600080fd5b505af11580156122ff573d6000803e3d6000fd5b5050600a80546001600160a01b031916905550506000600b5550565b60008061232783611870565b6040516370a0823160e01b8152336004820152929450925082916001600160a01b037f00000000000000000000000000000000000000000000000000000000000000001691506370a0823190602401602060405180830381865afa158015612393573d6000803e3d6000fd5b505050506040513d601f19601f820116820180604052508101906123b79190613632565b10156124105760405162461bcd60e51b815260206004820152602260248201527f416d6f756e7420657863656564732062616c616e636520696e207468652062616044820152616e6b60f01b60648201526084016107e5565b61241a3383612ad1565b604051631f1b6d2760e21b8152336004820152306024820152604481018290527f00000000000000000000000000000000000000000000000000000000000000006001600160a01b031690637c6db49c90606401610d1e565b6000546001600160a01b031633146124bb5760405162461bcd60e51b8152602060048201819052602482015260008051602061388383398151915260448201526064016107e5565b600054600160a01b900460ff161561251f5760405162461bcd60e51b815260206004820152602160248201527f4f7074696d6973746963206d696e74696e6720616c72656164792070617573656044820152601960fa1b60648201526084016107e5565b6000805460ff60a01b1916600160a01b1781556040517f23a83c8aeda8c831401c17b5bfb8b2ead79fcfe9c027fe34a4f8576e2c7c74cc9190a1565b6000546001600160a01b031633146125a35760405162461bcd60e51b8152602060048201819052602482015260008051602061388383398151915260448201526064016107e5565b6001600160a01b03811660009081526003602052604090205460ff16156126325760405162461bcd60e51b815260206004820152602260248201527f54686973206164647265737320697320616c726561647920612067756172646960448201527f616e00000000000000000000000000000000000000000000000000000000000060648201526084016107e5565b6001600160a01b038116600081815260036020526040808220805460ff19166001179055517f038596bb31e2e7d3d9f184d4c98b310103f6d7f5830e5eec32bffe6f1728f9699190a250565b6000546001600160a01b031633146126c65760405162461bcd60e51b8152602060048201819052602482015260008051602061388383398151915260448201526064016107e5565b600054600160a01b900460ff1661271f5760405162461bcd60e51b815260206004820181905260248201527f4f7074696d6973746963206d696e74696e67206973206e6f742070617573656460448201526064016107e5565b6000805460ff60a01b191681556040517fcb27470ed9568d9eeb8939707bafc19404d908a26ce5f468a6aa781024fd6a839190a1565b6000546001600160a01b0316331461279d5760405162461bcd60e51b8152602060048201819052602482015260008051602061388383398151915260448201526064016107e5565b426007556006805463ffffffff191663ffffffff83169081179091556040519081527f0dbfec7f12acffbb5cec595ac4370907eaf84caa7025dd71f4021433be79eba990602001610836565b6000546001600160a01b031633146128315760405162461bcd60e51b8152602060048201819052602482015260008051602061388383398151915260448201526064016107e5565b6001600160a01b0381166128ad5760405162461bcd60e51b815260206004820152602660248201527f4f776e61626c653a206e6577206f776e657220697320746865207a65726f206160448201527f646472657373000000000000000000000000000000000000000000000000000060648201526084016107e5565b6128b681612eeb565b50565b6000546001600160a01b031633146129015760405162461bcd60e51b8152602060048201819052602482015260008051602061388383398151915260448201526064016107e5565b6040517fb88d4fde0000000000000000000000000000000000000000000000000000000081526001600160a01b0386169063b88d4fde906109bc903090889088908890889060040161357a565b604080516001600160a01b038416602482015260448082018490528251808303909101815260649091019091526020810180517bffffffffffffffffffffffffffffffffffffffffffffffffffffffff167fa9059cbb0000000000000000000000000000000000000000000000000000000017905261089d908490612f3b565b6001600160a01b0382166000908152600560205260408120548082036129f75782915050610901565b80831115612a5e576001600160a01b0384166000818152600560209081526040808320839055519182527fb30abd1b9e3d58cd8525b3d5c5aa002db1e43a150af5b172a8d16efcc7a141f8910160405180910390a2612a5681846135d9565b915050610901565b612a6883826135d9565b6001600160a01b0385166000818152600560205260409020919091557fb30abd1b9e3d58cd8525b3d5c5aa002db1e43a150af5b172a8d16efcc7a141f8612aaf85846135d9565b60405190815260200160405180910390a26000915050610901565b5092915050565b816001600160a01b03167f30385c845b448a36257a6a1716e6ad2e1bc2cbe333cde1e69fe849ad6511adfe82604051612b0c91815260200190565b60405180910390a26040517f40c10f190000000000000000000000000000000000000000000000000000000081526001600160a01b038381166004830152602482018390527f000000000000000000000000000000000000000000000000000000000000000016906340c10f19906044015b600060405180830381600087803b158015612b9857600080fd5b505af1158015611ea3573d6000803e3d6000fd5b60008211612bfc5760405162461bcd60e51b815260206004820152601460248201527f4368616e6765206e6f7420696e6974696174656400000000000000000000000060448201526064016107e5565b80612c0783426135d9565b10156112cd5760405162461bcd60e51b815260206004820181905260248201527f476f7665726e616e63652064656c617920686173206e6f7420656c617073656460448201526064016107e5565b836001600160a01b03167f68751a4c3821398cb63d11609eca2440742ef19446f0c0261bfa8a13dd0748b884604051612c9091815260200190565b60405180910390a260405163079cc67960e41b81526001600160a01b038581166004830152602482018590527f000000000000000000000000000000000000000000000000000000000000000016906379cc679090604401600060405180830381600087803b158015612d0257600080fd5b505af1158015612d16573d6000803e3d6000fd5b505050507f00000000000000000000000000000000000000000000000000000000000000006001600160a01b0316634a38757e7f00000000000000000000000000000000000000000000000000000000000000006402540be40086612d7b9190613762565b85856040518563ffffffff1660e01b815260040161107994939291906137ba565b816001600160a01b03167f68751a4c3821398cb63d11609eca2440742ef19446f0c0261bfa8a13dd0748b882604051612dd791815260200190565b60405180910390a260405163079cc67960e41b81526001600160a01b038381166004830152602482018390527f000000000000000000000000000000000000000000000000000000000000000016906379cc679090604401600060405180830381600087803b158015612e4957600080fd5b505af1158015612e5d573d6000803e3d6000fd5b505050507f00000000000000000000000000000000000000000000000000000000000000006001600160a01b03166356a6d9ef836402540be40084612ea29190613762565b6040517fffffffff0000000000000000000000000000000000000000000000000000000060e085901b1681526001600160a01b0390921660048301526024820152604401612b7e565b600080546001600160a01b038381166001600160a01b0319831681178455604051919092169283917f8be0079c531659141344cd1fd0a4f28419497f9722a3daafe3b4186f6b6457e09190a35050565b6000612f90826040518060400160405280602081526020017f5361666545524332303a206c6f772d6c6576656c2063616c6c206661696c6564815250856001600160a01b03166130209092919063ffffffff16565b80519091501561089d5780806020019051810190612fae91906137ed565b61089d5760405162461bcd60e51b815260206004820152602a60248201527f5361666545524332303a204552433230206f7065726174696f6e20646964206e60448201527f6f7420737563636565640000000000000000000000000000000000000000000060648201526084016107e5565b606061302f8484600085613039565b90505b9392505050565b6060824710156130b15760405162461bcd60e51b815260206004820152602660248201527f416464726573733a20696e73756666696369656e742062616c616e636520666f60448201527f722063616c6c000000000000000000000000000000000000000000000000000060648201526084016107e5565b6001600160a01b0385163b6131085760405162461bcd60e51b815260206004820152601d60248201527f416464726573733a2063616c6c20746f206e6f6e2d636f6e747261637400000060448201526064016107e5565b600080866001600160a01b031685876040516131249190613833565b60006040518083038185875af1925050503d8060008114613161576040519150601f19603f3d011682016040523d82523d6000602084013e613166565b606091505b5091509150613176828286613181565b979650505050505050565b60608315613190575081613032565b8251156131a05782518084602001fd5b8160405162461bcd60e51b81526004016107e5919061384f565b6001600160a01b03811681146128b657600080fd5b6000602082840312156131e157600080fd5b8135613032816131ba565b63ffffffff811681146128b657600080fd5b60006020828403121561321057600080fd5b8135613032816131ec565b60008060006060848603121561323057600080fd5b833561323b816131ba565b9250602084013561324b816131ba565b929592945050506040919091013590565b6000806040838503121561326f57600080fd5b823591506020830135613281816131ec565b809150509250929050565b60008083601f84011261329e57600080fd5b50813567ffffffffffffffff8111156132b657600080fd5b6020830191508360208285010111156132ce57600080fd5b9250929050565b6000806000806000608086880312156132ed57600080fd5b85356132f8816131ba565b94506020860135613308816131ba565b935060408601359250606086013567ffffffffffffffff81111561332b57600080fd5b6133378882890161328c565b969995985093965092949392505050565b60008083601f84011261335a57600080fd5b50813567ffffffffffffffff81111561337257600080fd5b6020830191508360208260051b85010111156132ce57600080fd5b600080600080604085870312156133a357600080fd5b843567ffffffffffffffff808211156133bb57600080fd5b6133c788838901613348565b909650945060208701359150808211156133e057600080fd5b506133ed87828801613348565b95989497509550505050565b6000806000806060858703121561340f57600080fd5b843561341a816131ba565b935060208501359250604085013567ffffffffffffffff81111561343d57600080fd5b6133ed8782880161328c565b60008060006040848603121561345e57600080fd5b83359250602084013567ffffffffffffffff81111561347c57600080fd5b6134888682870161328c565b9497909650939450505050565b6000602082840312156134a757600080fd5b5035919050565b6020808252825182820181905260009190848201906040850190845b818110156134ef5783516001600160a01b0316835292840192918401916001016134ca565b50909695505050505050565b60008060008060006080868803121561351357600080fd5b853561351e816131ba565b9450602086013593506040860135613535816131ba565b9250606086013567ffffffffffffffff81111561332b57600080fd5b81835281816020850137506000828201602090810191909152601f909101601f19169091010190565b60006001600160a01b03808816835280871660208401525084604083015260806060830152613176608083018486613551565b634e487b7160e01b600052603260045260246000fd5b634e487b7160e01b600052601160045260246000fd5b81810381811115610901576109016135c3565b634e487b7160e01b600052603160045260246000fd5b600060018201613614576136146135c3565b5060010190565b8082028115828204841417610901576109016135c3565b60006020828403121561364457600080fd5b5051919050565b8051613656816131ba565b919050565b805167ffffffffffffffff8116811461365657600080fd5b8051613656816131ec565b600060c0828403121561369057600080fd5b60405160c0810181811067ffffffffffffffff821117156136c157634e487b7160e01b600052604160045260246000fd5b6040526136cd8361364b565b81526136db6020840161365b565b60208201526136ec60408401613673565b60408201526136fd6060840161364b565b606082015261370e6080840161365b565b608082015261371f60a08401613673565b60a08201529392505050565b67ffffffffffffffff828116828216039080821115612aca57612aca6135c3565b634e487b7160e01b600052601260045260246000fd5b6000826137715761377161374c565b500490565b80820180821115610901576109016135c3565b60006020828403121561379b57600080fd5b8151613032816131ba565b6000826137b5576137b561374c565b500690565b6001600160a01b03851681528360208201526060604082015260006137e3606083018486613551565b9695505050505050565b6000602082840312156137ff57600080fd5b8151801515811461303257600080fd5b60005b8381101561382a578181015183820152602001613812565b50506000910152565b6000825161384581846020870161380f565b9190910192915050565b602081526000825180602084015261386e81604085016020870161380f565b601f01601f1916919091016040019291505056fe4f776e61626c653a2063616c6c6572206973206e6f7420746865206f776e6572a264697066735822122036f874bea299528a8510351df59eb54234a6965a850862c8be6302047feca33264736f6c63430008110033",
  "devdoc": {
    "details": "TBTC Vault is the owner of TBTC token contract and is the only contract      minting the token.",
    "kind": "dev",
    "methods": {
      "amountToSatoshis(uint256)": {
        "returns": {
          "convertibleAmount": "Amount of TBTC to be minted/unminted.",
          "remainder": "Not convertible remainder if amount is not divisible         by SATOSHI_MULTIPLIER.",
          "satoshis": "Amount in satoshis - the Bank balance to be transferred         for the given mint/unmint"
        }
      },
      "beginOptimisticMintingFeeUpdate(uint32)": {
        "details": "See the documentation for optimisticMintingFeeDivisor."
      },
      "cancelOptimisticMint(bytes32,uint32)": {
        "details": "Guardians must validate the following conditions for every deposit      for which the optimistic minting was requested:      - The deposit happened on Bitcoin side and it has enough        confirmations.      - The optimistic minting has been requested early enough so that        the wallet has enough time to sweep the deposit.      - The wallet is an active one and it does perform sweeps or it will        perform sweeps once the sweeps are activated."
      },
      "initiateUpgrade(address)": {
        "params": {
          "_newVault": "The new vault address."
        }
      },
      "mint(uint256)": {
        "details": "TBTC Vault must have an allowance for caller's balance in the      Bank for at least `amount / SATOSHI_MULTIPLIER`.",
        "params": {
          "amount": "Amount of TBTC to mint."
        }
      },
      "owner()": {
        "details": "Returns the address of the current owner."
      },
      "receiveApproval(address,uint256,address,bytes)": {
        "details": "This function is doing the same as `unmint` or `unmintAndRedeem`      (depending on `extraData` parameter) but it allows to execute      unminting without a separate approval transaction. The function can      be called only via `approveAndCall` of TBTC token.",
        "params": {
          "amount": "Amount of TBTC to unmint.",
          "extraData": "Redemption data in a format expected from        `redemptionData` parameter of Bridge's `receiveBalanceApproval`        function. If empty, `receiveApproval` is not requesting a        redemption of Bank balance but is instead performing just TBTC        unminting to a Bank balance.",
          "from": "TBTC token holder executing unminting.",
          "token": "TBTC token address."
        }
      },
      "receiveBalanceApproval(address,uint256,bytes)": {
        "details": "Can only be called by the Bank via `approveBalanceAndCall`.",
        "params": {
          "owner": "The owner who approved their Bank balance.",
          "satoshis": "Amount of satoshis used to mint TBTC."
        }
      },
      "receiveBalanceIncrease(address[],uint256[])": {
        "details": "Fails if `depositors` array is empty. Expects the length of      `depositors` and `depositedSatoshiAmounts` is the same."
      },
      "recoverERC20(address,address,uint256)": {
        "params": {
          "amount": "Recovered amount.",
          "recipient": "Address the recovered token should be sent to.",
          "token": "Address of the recovered ERC20 token contract."
        }
      },
      "recoverERC20FromToken(address,address,uint256)": {
        "params": {
          "amount": "Recovered amount.",
          "recipient": "Address the recovered token should be sent to.",
          "token": "Address of the recovered ERC20 token contract."
        }
      },
      "recoverERC721(address,address,uint256,bytes)": {
        "params": {
          "data": "Additional data.",
          "recipient": "Address the recovered token should be sent to.",
          "token": "Address of the recovered ERC721 token contract.",
          "tokenId": "Identifier of the recovered token."
        }
      },
      "recoverERC721FromToken(address,address,uint256,bytes)": {
        "params": {
          "data": "Additional data.",
          "recipient": "Address the recovered token should be sent to.",
          "token": "Address of the recovered ERC721 token contract.",
          "tokenId": "Identifier of the recovered token."
        }
      },
      "renounceOwnership()": {
        "details": "Leaves the contract without owner. It will not be possible to call `onlyOwner` functions anymore. Can only be called by the current owner. NOTE: Renouncing ownership will leave the contract without an owner, thereby removing any functionality that is only available to the owner."
      },
      "requestOptimisticMint(bytes32,uint32)": {
        "details": "The deposit done on the Bitcoin side must be revealed early enough      to the Bridge on Ethereum to pass the Bridge's validation. The      validation passes successfully only if the deposit reveal is done      respectively earlier than the moment when the deposit refund      locktime is reached, i.e. the deposit becomes refundable. It may      happen that the wallet does not sweep a revealed deposit and one of      the Minters requests an optimistic mint for that deposit just      before the locktime is reached. Guardians must cancel optimistic      minting for this deposit because the wallet will not be able to      sweep it. The on-chain optimistic minting code does not perform any      validation for gas efficiency: it would have to perform the same      validation as `validateDepositRefundLocktime` and expect the entire      `DepositRevealInfo` to be passed to assemble the expected script      hash on-chain. Guardians must validate if the deposit happened on      Bitcoin, that the script hash has the expected format, and that the      wallet is an active one so they can also validate the time left for      the refund."
      },
      "transferOwnership(address)": {
        "details": "Transfers ownership of the contract to a new account (`newOwner`). Can only be called by the current owner."
      },
      "unmint(uint256)": {
        "details": "Caller must have at least `amount` of TBTC approved to       TBTC Vault.",
        "params": {
          "amount": "Amount of TBTC to unmint."
        }
      },
      "unmintAndRedeem(uint256,bytes)": {
        "details": "Caller must have at least `amount` of TBTC approved to       TBTC Vault.",
        "params": {
          "amount": "Amount of TBTC to unmint and request to redeem in Bridge.",
          "redemptionData": "Redemption data in a format expected from        `redemptionData` parameter of Bridge's `receiveBalanceApproval`        function."
        }
      }
    },
    "title": "TBTC application vault",
    "version": 1
  },
  "userdoc": {
    "kind": "user",
    "methods": {
      "GOVERNANCE_DELAY()": {
        "notice": "The time delay that needs to pass between initializing and         finalizing the upgrade of governable parameters."
      },
      "SATOSHI_MULTIPLIER()": {
        "notice": "Multiplier to convert satoshi to TBTC token units."
      },
      "addGuardian(address)": {
        "notice": "Adds the address to the Guardian set."
      },
      "addMinter(address)": {
        "notice": "Adds the address to the Minter list."
      },
      "amountToSatoshis(uint256)": {
        "notice": "Returns the amount of TBTC to be minted/unminted, the remainder,         and the Bank balance to be transferred for the given mint/unmint.         Note that if the `amount` is not divisible by SATOSHI_MULTIPLIER,         the remainder is left on the caller's account when minting or         unminting."
      },
      "beginOptimisticMintingDelayUpdate(uint32)": {
        "notice": "Begins the process of updating optimistic minting delay."
      },
      "beginOptimisticMintingFeeUpdate(uint32)": {
        "notice": "Begins the process of updating optimistic minting fee.         The fee is computed as follows:         `fee = amount / optimisticMintingFeeDivisor`.         For example, if the fee needs to be 2% of each deposit,         the `optimisticMintingFeeDivisor` should be set to `50` because         `1/50 = 0.02 = 2%`."
      },
      "calculateDepositKey(bytes32,uint32)": {
        "notice": "Calculates deposit key the same way as the Bridge contract.         The deposit key is computed as         `keccak256(fundingTxHash | fundingOutputIndex)`."
      },
      "cancelOptimisticMint(bytes32,uint32)": {
        "notice": "Allows a Guardian to cancel optimistic minting request. The         following conditions must be met:         - The optimistic minting request for the given deposit exists.         - The optimistic minting request for the given deposit has not           been finalized yet.         Optimistic minting request is removed. It is possible to request         optimistic minting again for the same deposit later."
      },
      "finalizeOptimisticMint(bytes32,uint32)": {
        "notice": "Allows a Minter to finalize previously requested optimistic         minting. The following conditions must be met:         - The optimistic minting has been requested for the given           deposit.         - The deposit has not been swept yet.         - At least `optimisticMintingDelay` passed since the optimistic           minting was requested for the given deposit.         - The optimistic minting has not been finalized earlier for the           given deposit.         - The optimistic minting request for the given deposit has not           been canceled by a Guardian.         - The optimistic minting is not paused.         This function mints TBTC and increases `optimisticMintingDebt`         for the given depositor. The optimistic minting request is         marked as finalized."
      },
      "finalizeOptimisticMintingDelayUpdate()": {
        "notice": "Finalizes the update process of the optimistic minting delay."
      },
      "finalizeOptimisticMintingFeeUpdate()": {
        "notice": "Finalizes the update process of the optimistic minting fee."
      },
      "finalizeUpgrade()": {
        "notice": "Allows the governance to finalize vault upgrade process. The         upgrade process needs to be first initiated with a call to         `initiateUpgrade` and the `GOVERNANCE_DELAY` needs to pass.         Once the upgrade is finalized, the new vault becomes the owner         of the TBTC token and receives the whole Bank balance of this         vault."
      },
      "getMinters()": {
        "notice": "Allows to fetch a list of all Minters."
      },
      "initiateUpgrade(address)": {
        "notice": "Initiates vault upgrade process. The upgrade process needs to be         finalized with a call to `finalizeUpgrade` function after the         `UPGRADE_GOVERNANCE_DELAY` passes. Only the governance can         initiate the upgrade."
      },
      "isGuardian(address)": {
        "notice": "Indicates if the given address is a Guardian. Only Guardians can         cancel requested optimistic minting."
      },
      "isMinter(address)": {
        "notice": "Indicates if the given address is a Minter. Only Minters can         request optimistic minting."
      },
      "isOptimisticMintingPaused()": {
        "notice": "Indicates if the optimistic minting has been paused. Only the         Governance can pause optimistic minting. Note that the pause of         the optimistic minting does not stop the standard minting flow         where wallets sweep deposits."
      },
      "mint(uint256)": {
        "notice": "Mints the given `amount` of TBTC to the caller previously         transferring `amount / SATOSHI_MULTIPLIER` of the Bank balance         from caller to TBTC Vault. If `amount` is not divisible by         SATOSHI_MULTIPLIER, the remainder is left on the caller's         Bank balance."
      },
      "minters(uint256)": {
        "notice": "List of all Minters."
      },
      "newOptimisticMintingDelay()": {
        "notice": "New optimistic minting delay value. Set only when the parameter         update process is pending. Once the update gets finalized, this"
      },
      "newOptimisticMintingFeeDivisor()": {
        "notice": "New optimistic minting fee divisor value. Set only when the         parameter update process is pending. Once the update gets"
      },
      "newVault()": {
        "notice": "The address of a new TBTC vault. Set only when the upgrade         process is pending. Once the upgrade gets finalized, the new         TBTC vault will become an owner of TBTC token."
      },
      "optimisticMintingDebt(address)": {
        "notice": "Optimistic minting debt value per depositor's address. The debt         represents the total value of all depositor's deposits revealed         to the Bridge that has not been yet swept and led to the         optimistic minting of TBTC. When `TBTCVault` sweeps a deposit,         the debt is fully or partially paid off, no matter if that         particular swept deposit was used for the optimistic minting or         not. The values are in 1e18 Ethereum precision."
      },
      "optimisticMintingDelay()": {
        "notice": "The time that needs to pass between the moment the optimistic         minting is requested and the moment optimistic minting is         finalized with minting TBTC."
      },
      "optimisticMintingDelayUpdateInitiatedTimestamp()": {
        "notice": "The timestamp at which the update of the optimistic minting         delay started. Zero if update is not in progress."
      },
      "optimisticMintingFeeDivisor()": {
        "notice": "Divisor used to compute the treasury fee taken from each         optimistically minted deposit and transferred to the treasury         upon finalization of the optimistic mint. This fee is computed         as follows: `fee = amount / optimisticMintingFeeDivisor`.         For example, if the fee needs to be 2%, the         `optimisticMintingFeeDivisor` should be set to `50` because         `1/50 = 0.02 = 2%`.         The optimistic minting fee does not replace the deposit treasury         fee cut by the Bridge. The optimistic fee is a percentage AFTER         the treasury fee is cut:         `optimisticMintingFee = (depositAmount - treasuryFee) / optimisticMintingFeeDivisor`"
      },
      "optimisticMintingFeeUpdateInitiatedTimestamp()": {
        "notice": "The timestamp at which the update of the optimistic minting fee         divisor started. Zero if update is not in progress."
      },
      "optimisticMintingRequests(uint256)": {
        "notice": "Collection of all revealed deposits for which the optimistic         minting was requested. Indexed by a deposit key computed as         `keccak256(fundingTxHash | fundingOutputIndex)`."
      },
      "pauseOptimisticMinting()": {
        "notice": "Pauses the optimistic minting. Note that the pause of the         optimistic minting does not stop the standard minting flow         where wallets sweep deposits."
      },
      "receiveApproval(address,uint256,address,bytes)": {
        "notice": "Burns `amount` of TBTC from the caller's balance. If `extraData`         is empty, transfers `amount` back to the caller's balance in the         Bank. If `extraData` is not empty, requests redemption in the         Bridge using the `extraData` as a `redemptionData` parameter to         Bridge's `receiveBalanceApproval` function.         If `amount` is not divisible by SATOSHI_MULTIPLIER, the         remainder is left on the caller's account. Note that it may         left a token approval equal to the remainder."
      },
      "receiveBalanceApproval(address,uint256,bytes)": {
        "notice": "Transfers `satoshis` of the Bank balance from the caller         to TBTC Vault and mints `satoshis * SATOSHI_MULTIPLIER` of TBTC         to the caller."
      },
      "receiveBalanceIncrease(address[],uint256[])": {
        "notice": "Mints the same amount of TBTC as the deposited satoshis amount         multiplied by SATOSHI_MULTIPLIER for each depositor in the array.         Can only be called by the Bank after the Bridge swept deposits         and Bank increased balance for the vault."
      },
      "recoverERC20(address,address,uint256)": {
        "notice": "Allows the governance of the TBTCVault to recover any ERC20         token sent - mistakenly or not - to the vault address. This         function should be used to withdraw TBTC v1 tokens transferred         to TBTCVault as a result of VendingMachine > TBTCVault upgrade."
      },
      "recoverERC20FromToken(address,address,uint256)": {
        "notice": "Allows the governance of the TBTCVault to recover any ERC20         token sent mistakenly to the TBTC token contract address."
      },
      "recoverERC721(address,address,uint256,bytes)": {
        "notice": "Allows the governance of the TBTCVault to recover any ERC721         token sent mistakenly to the vault address."
      },
      "recoverERC721FromToken(address,address,uint256,bytes)": {
        "notice": "Allows the governance of the TBTCVault to recover any ERC721         token sent mistakenly to the TBTC token contract address."
      },
      "removeGuardian(address)": {
        "notice": "Removes the address from the Guardian set."
      },
      "removeMinter(address)": {
        "notice": "Removes the address from the Minter list."
      },
      "requestOptimisticMint(bytes32,uint32)": {
        "notice": "Allows a Minter to request for an optimistic minting of TBTC.         The following conditions must be met:         - There is no optimistic minting request for the deposit,           finalized or not.         - The deposit with the given Bitcoin funding transaction hash           and output index has been revealed to the Bridge.         - The deposit has not been swept yet.         - The deposit is targeted into the TBTCVault.         - The optimistic minting is not paused.         After calling this function, the Minter has to wait for         `optimisticMintingDelay` before finalizing the mint with a call         to finalizeOptimisticMint."
      },
      "unmint(uint256)": {
        "notice": "Burns `amount` of TBTC from the caller's balance and transfers         `amount / SATOSHI_MULTIPLIER` back to the caller's balance in         the Bank. If `amount` is not divisible by SATOSHI_MULTIPLIER,         the remainder is left on the caller's account."
      },
      "unmintAndRedeem(uint256,bytes)": {
        "notice": "Burns `amount` of TBTC from the caller's balance and transfers        `amount / SATOSHI_MULTIPLIER` of Bank balance to the Bridge         requesting redemption based on the provided `redemptionData`.         If `amount` is not divisible by SATOSHI_MULTIPLIER, the         remainder is left on the caller's account."
      },
      "unpauseOptimisticMinting()": {
        "notice": "Unpauses the optimistic minting."
      },
      "upgradeInitiatedTimestamp()": {
        "notice": "The timestamp at which an upgrade to a new TBTC vault was         initiated. Set only when the upgrade process is pending."
      }
    },
    "notice": "TBTC is a fully Bitcoin-backed ERC-20 token pegged to the price of         Bitcoin. It facilitates Bitcoin holders to act on the Ethereum         blockchain and access the decentralized finance (DeFi) ecosystem.         TBTC Vault mints and unmints TBTC based on Bitcoin balances in the         Bank.",
    "version": 1
  },
  "storageLayout": {
    "storage": [
      {
        "astId": 9835,
        "contract": "contracts/vault/TBTCVault.sol:TBTCVault",
        "label": "_owner",
        "offset": 0,
        "slot": "0",
        "type": "t_address"
      },
      {
        "astId": 21717,
        "contract": "contracts/vault/TBTCVault.sol:TBTCVault",
        "label": "isOptimisticMintingPaused",
        "offset": 20,
        "slot": "0",
        "type": "t_bool"
      },
      {
        "astId": 21721,
        "contract": "contracts/vault/TBTCVault.sol:TBTCVault",
        "label": "optimisticMintingFeeDivisor",
        "offset": 21,
        "slot": "0",
        "type": "t_uint32"
      },
      {
        "astId": 21725,
        "contract": "contracts/vault/TBTCVault.sol:TBTCVault",
        "label": "optimisticMintingDelay",
        "offset": 25,
        "slot": "0",
        "type": "t_uint32"
      },
      {
        "astId": 21730,
        "contract": "contracts/vault/TBTCVault.sol:TBTCVault",
        "label": "isMinter",
        "offset": 0,
        "slot": "1",
        "type": "t_mapping(t_address,t_bool)"
      },
      {
        "astId": 21734,
        "contract": "contracts/vault/TBTCVault.sol:TBTCVault",
        "label": "minters",
        "offset": 0,
        "slot": "2",
        "type": "t_array(t_address)dyn_storage"
      },
      {
        "astId": 21739,
        "contract": "contracts/vault/TBTCVault.sol:TBTCVault",
        "label": "isGuardian",
        "offset": 0,
        "slot": "3",
        "type": "t_mapping(t_address,t_bool)"
      },
      {
        "astId": 21745,
        "contract": "contracts/vault/TBTCVault.sol:TBTCVault",
        "label": "optimisticMintingRequests",
        "offset": 0,
        "slot": "4",
        "type": "t_mapping(t_uint256,t_struct(OptimisticMintingRequest)21701_storage)"
      },
      {
        "astId": 21750,
        "contract": "contracts/vault/TBTCVault.sol:TBTCVault",
        "label": "optimisticMintingDebt",
        "offset": 0,
        "slot": "5",
        "type": "t_mapping(t_address,t_uint256)"
      },
      {
        "astId": 21753,
        "contract": "contracts/vault/TBTCVault.sol:TBTCVault",
        "label": "newOptimisticMintingFeeDivisor",
        "offset": 0,
        "slot": "6",
        "type": "t_uint32"
      },
      {
        "astId": 21756,
        "contract": "contracts/vault/TBTCVault.sol:TBTCVault",
        "label": "optimisticMintingFeeUpdateInitiatedTimestamp",
        "offset": 0,
        "slot": "7",
        "type": "t_uint256"
      },
      {
        "astId": 21759,
        "contract": "contracts/vault/TBTCVault.sol:TBTCVault",
        "label": "newOptimisticMintingDelay",
        "offset": 0,
        "slot": "8",
        "type": "t_uint32"
      },
      {
        "astId": 21762,
        "contract": "contracts/vault/TBTCVault.sol:TBTCVault",
        "label": "optimisticMintingDelayUpdateInitiatedTimestamp",
        "offset": 0,
        "slot": "9",
        "type": "t_uint256"
      },
      {
        "astId": 22614,
        "contract": "contracts/vault/TBTCVault.sol:TBTCVault",
        "label": "newVault",
        "offset": 0,
        "slot": "10",
        "type": "t_address"
      },
      {
        "astId": 22617,
        "contract": "contracts/vault/TBTCVault.sol:TBTCVault",
        "label": "upgradeInitiatedTimestamp",
        "offset": 0,
        "slot": "11",
        "type": "t_uint256"
      }
    ],
    "types": {
      "t_address": {
        "encoding": "inplace",
        "label": "address",
        "numberOfBytes": "20"
      },
      "t_array(t_address)dyn_storage": {
        "base": "t_address",
        "encoding": "dynamic_array",
        "label": "address[]",
        "numberOfBytes": "32"
      },
      "t_bool": {
        "encoding": "inplace",
        "label": "bool",
        "numberOfBytes": "1"
      },
      "t_mapping(t_address,t_bool)": {
        "encoding": "mapping",
        "key": "t_address",
        "label": "mapping(address => bool)",
        "numberOfBytes": "32",
        "value": "t_bool"
      },
      "t_mapping(t_address,t_uint256)": {
        "encoding": "mapping",
        "key": "t_address",
        "label": "mapping(address => uint256)",
        "numberOfBytes": "32",
        "value": "t_uint256"
      },
      "t_mapping(t_uint256,t_struct(OptimisticMintingRequest)21701_storage)": {
        "encoding": "mapping",
        "key": "t_uint256",
        "label": "mapping(uint256 => struct TBTCOptimisticMinting.OptimisticMintingRequest)",
        "numberOfBytes": "32",
        "value": "t_struct(OptimisticMintingRequest)21701_storage"
      },
      "t_struct(OptimisticMintingRequest)21701_storage": {
        "encoding": "inplace",
        "label": "struct TBTCOptimisticMinting.OptimisticMintingRequest",
        "members": [
          {
            "astId": 21698,
            "contract": "contracts/vault/TBTCVault.sol:TBTCVault",
            "label": "requestedAt",
            "offset": 0,
            "slot": "0",
            "type": "t_uint64"
          },
          {
            "astId": 21700,
            "contract": "contracts/vault/TBTCVault.sol:TBTCVault",
            "label": "finalizedAt",
            "offset": 8,
            "slot": "0",
            "type": "t_uint64"
          }
        ],
        "numberOfBytes": "32"
      },
      "t_uint256": {
        "encoding": "inplace",
        "label": "uint256",
        "numberOfBytes": "32"
      },
      "t_uint32": {
        "encoding": "inplace",
        "label": "uint32",
        "numberOfBytes": "4"
      },
      "t_uint64": {
        "encoding": "inplace",
        "label": "uint64",
        "numberOfBytes": "8"
      }
    }
  }
}