{
  "address": "0x0CD38448E54D1d5A46B0f36eD8B7C0739F94774b",
  "abi": [
    {
      "inputs": [
        {
          "internalType": "contract T",
          "name": "_token",
          "type": "address"
        },
        {
          "internalType": "contract IKeepTokenStaking",
          "name": "_keepStakingContract",
          "type": "address"
        },
        {
          "internalType": "contract INuCypherStakingEscrow",
          "name": "_nucypherStakingContract",
          "type": "address"
        },
        {
          "internalType": "contract VendingMachine",
          "name": "_keepVendingMachine",
          "type": "address"
        },
        {
          "internalType": "contract VendingMachine",
          "name": "_nucypherVendingMachine",
          "type": "address"
        },
        {
          "internalType": "contract KeepStake",
          "name": "_keepStake",
          "type": "address"
        }
      ],
      "stateMutability": "nonpayable",
      "type": "constructor"
    },
    {
      "anonymous": false,
      "inputs": [
        {
          "indexed": true,
          "internalType": "address",
          "name": "application",
          "type": "address"
        },
        {
          "indexed": true,
          "internalType": "enum TokenStaking.ApplicationStatus",
          "name": "newStatus",
          "type": "uint8"
        }
      ],
      "name": "ApplicationStatusChanged",
      "type": "event"
    },
    {
      "anonymous": false,
      "inputs": [
        {
          "indexed": false,
          "internalType": "uint256",
          "name": "ceiling",
          "type": "uint256"
        }
      ],
      "name": "AuthorizationCeilingSet",
      "type": "event"
    },
    {
      "anonymous": false,
      "inputs": [
        {
          "indexed": true,
          "internalType": "address",
          "name": "stakingProvider",
          "type": "address"
        },
        {
          "indexed": true,
          "internalType": "address",
          "name": "application",
          "type": "address"
        },
        {
          "indexed": false,
          "internalType": "uint96",
          "name": "fromAmount",
          "type": "uint96"
        },
        {
          "indexed": false,
          "internalType": "uint96",
          "name": "toAmount",
          "type": "uint96"
        }
      ],
      "name": "AuthorizationDecreaseApproved",
      "type": "event"
    },
    {
      "anonymous": false,
      "inputs": [
        {
          "indexed": true,
          "internalType": "address",
          "name": "stakingProvider",
          "type": "address"
        },
        {
          "indexed": true,
          "internalType": "address",
          "name": "application",
          "type": "address"
        },
        {
          "indexed": false,
          "internalType": "uint96",
          "name": "fromAmount",
          "type": "uint96"
        },
        {
          "indexed": false,
          "internalType": "uint96",
          "name": "toAmount",
          "type": "uint96"
        }
      ],
      "name": "AuthorizationDecreaseRequested",
      "type": "event"
    },
    {
      "anonymous": false,
      "inputs": [
        {
          "indexed": true,
          "internalType": "address",
          "name": "stakingProvider",
          "type": "address"
        },
        {
          "indexed": true,
          "internalType": "address",
          "name": "application",
          "type": "address"
        },
        {
          "indexed": false,
          "internalType": "uint96",
          "name": "fromAmount",
          "type": "uint96"
        },
        {
          "indexed": false,
          "internalType": "uint96",
          "name": "toAmount",
          "type": "uint96"
        }
      ],
      "name": "AuthorizationIncreased",
      "type": "event"
    },
    {
      "anonymous": false,
      "inputs": [
        {
          "indexed": true,
          "internalType": "address",
          "name": "stakingProvider",
          "type": "address"
        },
        {
          "indexed": true,
          "internalType": "address",
          "name": "application",
          "type": "address"
        },
        {
          "indexed": false,
          "internalType": "uint96",
          "name": "fromAmount",
          "type": "uint96"
        },
        {
          "indexed": false,
          "internalType": "uint96",
          "name": "toAmount",
          "type": "uint96"
        },
        {
          "indexed": true,
          "internalType": "bool",
          "name": "successfulCall",
          "type": "bool"
        }
      ],
      "name": "AuthorizationInvoluntaryDecreased",
      "type": "event"
    },
    {
      "anonymous": false,
      "inputs": [
        {
          "indexed": true,
          "internalType": "address",
          "name": "delegator",
          "type": "address"
        },
        {
          "indexed": true,
          "internalType": "address",
          "name": "fromDelegate",
          "type": "address"
        },
        {
          "indexed": true,
          "internalType": "address",
          "name": "toDelegate",
          "type": "address"
        }
      ],
      "name": "DelegateChanged",
      "type": "event"
    },
    {
      "anonymous": false,
      "inputs": [
        {
          "indexed": true,
          "internalType": "address",
          "name": "delegate",
          "type": "address"
        },
        {
          "indexed": false,
          "internalType": "uint256",
          "name": "previousBalance",
          "type": "uint256"
        },
        {
          "indexed": false,
          "internalType": "uint256",
          "name": "newBalance",
          "type": "uint256"
        }
      ],
      "name": "DelegateVotesChanged",
      "type": "event"
    },
    {
      "anonymous": false,
      "inputs": [
        {
          "indexed": false,
          "internalType": "address",
          "name": "oldGovernance",
          "type": "address"
        },
        {
          "indexed": false,
          "internalType": "address",
          "name": "newGovernance",
          "type": "address"
        }
      ],
      "name": "GovernanceTransferred",
      "type": "event"
    },
    {
      "anonymous": false,
      "inputs": [
        {
          "indexed": false,
          "internalType": "uint96",
          "name": "amount",
          "type": "uint96"
        }
      ],
      "name": "MinimumStakeAmountSet",
      "type": "event"
    },
    {
      "anonymous": false,
      "inputs": [
        {
          "indexed": false,
          "internalType": "uint96",
          "name": "reward",
          "type": "uint96"
        }
      ],
      "name": "NotificationRewardPushed",
      "type": "event"
    },
    {
      "anonymous": false,
      "inputs": [
        {
          "indexed": false,
          "internalType": "uint96",
          "name": "reward",
          "type": "uint96"
        }
      ],
      "name": "NotificationRewardSet",
      "type": "event"
    },
    {
      "anonymous": false,
      "inputs": [
        {
          "indexed": false,
          "internalType": "address",
          "name": "recipient",
          "type": "address"
        },
        {
          "indexed": false,
          "internalType": "uint96",
          "name": "amount",
          "type": "uint96"
        }
      ],
      "name": "NotificationRewardWithdrawn",
      "type": "event"
    },
    {
      "anonymous": false,
      "inputs": [
        {
          "indexed": true,
          "internalType": "address",
          "name": "notifier",
          "type": "address"
        },
        {
          "indexed": false,
          "internalType": "uint256",
          "name": "amount",
          "type": "uint256"
        }
      ],
      "name": "NotifierRewarded",
      "type": "event"
    },
    {
      "anonymous": false,
      "inputs": [
        {
          "indexed": true,
          "internalType": "address",
          "name": "stakingProvider",
          "type": "address"
        },
        {
          "indexed": true,
          "internalType": "address",
          "name": "oldOwner",
          "type": "address"
        },
        {
          "indexed": true,
          "internalType": "address",
          "name": "newOwner",
          "type": "address"
        }
      ],
      "name": "OwnerRefreshed",
      "type": "event"
    },
    {
      "anonymous": false,
      "inputs": [
        {
          "indexed": true,
          "internalType": "address",
          "name": "application",
          "type": "address"
        },
        {
          "indexed": true,
          "internalType": "address",
          "name": "panicButton",
          "type": "address"
        }
      ],
      "name": "PanicButtonSet",
      "type": "event"
    },
    {
      "anonymous": false,
      "inputs": [
        {
          "indexed": true,
          "internalType": "address",
          "name": "caller",
          "type": "address"
        },
        {
          "indexed": false,
          "internalType": "uint256",
          "name": "count",
          "type": "uint256"
        },
        {
          "indexed": false,
          "internalType": "uint256",
          "name": "tAmount",
          "type": "uint256"
        }
      ],
      "name": "SlashingProcessed",
      "type": "event"
    },
    {
      "anonymous": false,
      "inputs": [
        {
          "indexed": false,
          "internalType": "uint96",
          "name": "penalty",
          "type": "uint96"
        },
        {
          "indexed": false,
          "internalType": "uint256",
          "name": "rewardMultiplier",
          "type": "uint256"
        }
      ],
      "name": "StakeDiscrepancyPenaltySet",
      "type": "event"
    },
    {
      "anonymous": false,
      "inputs": [
        {
          "indexed": true,
          "internalType": "enum IStaking.StakeType",
          "name": "stakeType",
          "type": "uint8"
        },
        {
          "indexed": true,
          "internalType": "address",
          "name": "owner",
          "type": "address"
        },
        {
          "indexed": true,
          "internalType": "address",
          "name": "stakingProvider",
          "type": "address"
        },
        {
          "indexed": false,
          "internalType": "address",
          "name": "beneficiary",
          "type": "address"
        },
        {
          "indexed": false,
          "internalType": "address",
          "name": "authorizer",
          "type": "address"
        },
        {
          "indexed": false,
          "internalType": "uint96",
          "name": "amount",
          "type": "uint96"
        }
      ],
      "name": "Staked",
      "type": "event"
    },
    {
      "anonymous": false,
      "inputs": [
        {
          "indexed": true,
          "internalType": "address",
          "name": "stakingProvider",
          "type": "address"
        },
        {
          "indexed": false,
          "internalType": "uint96",
          "name": "amount",
          "type": "uint96"
        },
        {
          "indexed": true,
          "internalType": "bool",
          "name": "discrepancy",
          "type": "bool"
        }
      ],
      "name": "TokensSeized",
      "type": "event"
    },
    {
      "anonymous": false,
      "inputs": [
        {
          "indexed": true,
          "internalType": "address",
          "name": "stakingProvider",
          "type": "address"
        },
        {
          "indexed": false,
          "internalType": "uint96",
          "name": "amount",
          "type": "uint96"
        }
      ],
      "name": "ToppedUp",
      "type": "event"
    },
    {
      "anonymous": false,
      "inputs": [
        {
          "indexed": true,
          "internalType": "address",
          "name": "stakingProvider",
          "type": "address"
        },
        {
          "indexed": false,
          "internalType": "uint96",
          "name": "amount",
          "type": "uint96"
        }
      ],
      "name": "Unstaked",
      "type": "event"
    },
    {
      "inputs": [
        {
          "internalType": "address",
          "name": "",
          "type": "address"
        }
      ],
      "name": "applicationInfo",
      "outputs": [
        {
          "internalType": "enum TokenStaking.ApplicationStatus",
          "name": "status",
          "type": "uint8"
        },
        {
          "internalType": "address",
          "name": "panicButton",
          "type": "address"
        }
      ],
      "stateMutability": "view",
      "type": "function"
    },
    {
      "inputs": [
        {
          "internalType": "uint256",
          "name": "",
          "type": "uint256"
        }
      ],
      "name": "applications",
      "outputs": [
        {
          "internalType": "address",
          "name": "",
          "type": "address"
        }
      ],
      "stateMutability": "view",
      "type": "function"
    },
    {
      "inputs": [
        {
          "internalType": "address",
          "name": "application",
          "type": "address"
        }
      ],
      "name": "approveApplication",
      "outputs": [],
      "stateMutability": "nonpayable",
      "type": "function"
    },
    {
      "inputs": [
        {
          "internalType": "address",
          "name": "stakingProvider",
          "type": "address"
        }
      ],
      "name": "approveAuthorizationDecrease",
      "outputs": [
        {
          "internalType": "uint96",
          "name": "",
          "type": "uint96"
        }
      ],
      "stateMutability": "nonpayable",
      "type": "function"
    },
    {
      "inputs": [],
      "name": "authorizationCeiling",
      "outputs": [
        {
          "internalType": "uint256",
          "name": "",
          "type": "uint256"
        }
      ],
      "stateMutability": "view",
      "type": "function"
    },
    {
      "inputs": [
        {
          "internalType": "address",
          "name": "stakingProvider",
          "type": "address"
        },
        {
          "internalType": "address",
          "name": "application",
          "type": "address"
        }
      ],
      "name": "authorizedStake",
      "outputs": [
        {
          "internalType": "uint96",
          "name": "",
          "type": "uint96"
        }
      ],
      "stateMutability": "view",
      "type": "function"
    },
    {
      "inputs": [
        {
          "internalType": "address",
          "name": "account",
          "type": "address"
        },
        {
          "internalType": "uint32",
          "name": "pos",
          "type": "uint32"
        }
      ],
      "name": "checkpoints",
      "outputs": [
        {
          "components": [
            {
              "internalType": "uint32",
              "name": "fromBlock",
              "type": "uint32"
            },
            {
              "internalType": "uint96",
              "name": "votes",
              "type": "uint96"
            }
          ],
          "internalType": "struct Checkpoints.Checkpoint",
          "name": "checkpoint",
          "type": "tuple"
        }
      ],
      "stateMutability": "view",
      "type": "function"
    },
    {
      "inputs": [
        {
          "internalType": "address",
          "name": "stakingProvider",
          "type": "address"
        },
        {
          "internalType": "address",
          "name": "delegatee",
          "type": "address"
        }
      ],
      "name": "delegateVoting",
      "outputs": [],
      "stateMutability": "nonpayable",
      "type": "function"
    },
    {
      "inputs": [
        {
          "internalType": "address",
          "name": "account",
          "type": "address"
        }
      ],
      "name": "delegates",
      "outputs": [
        {
          "internalType": "address",
          "name": "",
          "type": "address"
        }
      ],
      "stateMutability": "view",
      "type": "function"
    },
    {
      "inputs": [
        {
          "internalType": "address",
          "name": "application",
          "type": "address"
        }
      ],
      "name": "disableApplication",
      "outputs": [],
      "stateMutability": "nonpayable",
      "type": "function"
    },
    {
      "inputs": [
        {
          "internalType": "address",
          "name": "stakingProvider",
          "type": "address"
        },
        {
          "internalType": "address",
          "name": "application",
          "type": "address"
        }
      ],
      "name": "forceDecreaseAuthorization",
      "outputs": [],
      "stateMutability": "nonpayable",
      "type": "function"
    },
    {
      "inputs": [],
      "name": "getApplicationsLength",
      "outputs": [
        {
          "internalType": "uint256",
          "name": "",
          "type": "uint256"
        }
      ],
      "stateMutability": "view",
      "type": "function"
    },
    {
      "inputs": [
        {
          "internalType": "address",
          "name": "stakingProvider",
          "type": "address"
        },
        {
          "internalType": "address",
          "name": "application",
          "type": "address"
        }
      ],
      "name": "getAvailableToAuthorize",
      "outputs": [
        {
          "internalType": "uint96",
          "name": "availableTValue",
          "type": "uint96"
        }
      ],
      "stateMutability": "view",
      "type": "function"
    },
    {
      "inputs": [
        {
          "internalType": "address",
          "name": "stakingProvider",
          "type": "address"
        },
        {
          "internalType": "enum IStaking.StakeType",
          "name": "stakeTypes",
          "type": "uint8"
        }
      ],
      "name": "getMinStaked",
      "outputs": [
        {
          "internalType": "uint96",
          "name": "",
          "type": "uint96"
        }
      ],
      "stateMutability": "view",
      "type": "function"
    },
    {
      "inputs": [
        {
          "internalType": "uint256",
          "name": "blockNumber",
          "type": "uint256"
        }
      ],
      "name": "getPastTotalSupply",
      "outputs": [
        {
          "internalType": "uint96",
          "name": "",
          "type": "uint96"
        }
      ],
      "stateMutability": "view",
      "type": "function"
    },
    {
      "inputs": [
        {
          "internalType": "address",
          "name": "account",
          "type": "address"
        },
        {
          "internalType": "uint256",
          "name": "blockNumber",
          "type": "uint256"
        }
      ],
      "name": "getPastVotes",
      "outputs": [
        {
          "internalType": "uint96",
          "name": "",
          "type": "uint96"
        }
      ],
      "stateMutability": "view",
      "type": "function"
    },
    {
      "inputs": [],
      "name": "getSlashingQueueLength",
      "outputs": [
        {
          "internalType": "uint256",
          "name": "",
          "type": "uint256"
        }
      ],
      "stateMutability": "view",
      "type": "function"
    },
    {
      "inputs": [
        {
          "internalType": "address",
          "name": "stakingProvider",
          "type": "address"
        }
      ],
      "name": "getStartStakingTimestamp",
      "outputs": [
        {
          "internalType": "uint256",
          "name": "",
          "type": "uint256"
        }
      ],
      "stateMutability": "view",
      "type": "function"
    },
    {
      "inputs": [
        {
          "internalType": "address",
          "name": "account",
          "type": "address"
        }
      ],
      "name": "getVotes",
      "outputs": [
        {
          "internalType": "uint96",
          "name": "",
          "type": "uint96"
        }
      ],
      "stateMutability": "view",
      "type": "function"
    },
    {
      "inputs": [],
      "name": "governance",
      "outputs": [
        {
          "internalType": "address",
          "name": "",
          "type": "address"
        }
      ],
      "stateMutability": "view",
      "type": "function"
    },
    {
      "inputs": [
        {
          "internalType": "address",
          "name": "stakingProvider",
          "type": "address"
        },
        {
          "internalType": "address",
          "name": "application",
          "type": "address"
        },
        {
          "internalType": "uint96",
          "name": "amount",
          "type": "uint96"
        }
      ],
      "name": "increaseAuthorization",
      "outputs": [],
      "stateMutability": "nonpayable",
      "type": "function"
    },
    {
      "inputs": [],
      "name": "initialize",
      "outputs": [],
      "stateMutability": "nonpayable",
      "type": "function"
    },
    {
      "inputs": [],
      "name": "minTStakeAmount",
      "outputs": [
        {
          "internalType": "uint96",
          "name": "",
          "type": "uint96"
        }
      ],
      "stateMutability": "view",
      "type": "function"
    },
    {
      "inputs": [],
      "name": "notificationReward",
      "outputs": [
        {
          "internalType": "uint256",
          "name": "",
          "type": "uint256"
        }
      ],
      "stateMutability": "view",
      "type": "function"
    },
    {
      "inputs": [],
      "name": "notifiersTreasury",
      "outputs": [
        {
          "internalType": "uint256",
          "name": "",
          "type": "uint256"
        }
      ],
      "stateMutability": "view",
      "type": "function"
    },
    {
      "inputs": [
        {
          "internalType": "address",
          "name": "stakingProvider",
          "type": "address"
        }
      ],
      "name": "notifyKeepStakeDiscrepancy",
      "outputs": [],
      "stateMutability": "nonpayable",
      "type": "function"
    },
    {
      "inputs": [
        {
          "internalType": "address",
          "name": "stakingProvider",
          "type": "address"
        }
      ],
      "name": "notifyNuStakeDiscrepancy",
      "outputs": [],
      "stateMutability": "nonpayable",
      "type": "function"
    },
    {
      "inputs": [
        {
          "internalType": "address",
          "name": "account",
          "type": "address"
        }
      ],
      "name": "numCheckpoints",
      "outputs": [
        {
          "internalType": "uint32",
          "name": "",
          "type": "uint32"
        }
      ],
      "stateMutability": "view",
      "type": "function"
    },
    {
      "inputs": [
        {
          "internalType": "address",
          "name": "application",
          "type": "address"
        }
      ],
      "name": "pauseApplication",
      "outputs": [],
      "stateMutability": "nonpayable",
      "type": "function"
    },
    {
      "inputs": [
        {
          "internalType": "uint256",
          "name": "count",
          "type": "uint256"
        }
      ],
      "name": "processSlashing",
      "outputs": [],
      "stateMutability": "nonpayable",
      "type": "function"
    },
    {
      "inputs": [
        {
          "internalType": "uint96",
          "name": "reward",
          "type": "uint96"
        }
      ],
      "name": "pushNotificationReward",
      "outputs": [],
      "stateMutability": "nonpayable",
      "type": "function"
    },
    {
      "inputs": [
        {
          "internalType": "address",
          "name": "stakingProvider",
          "type": "address"
        }
      ],
      "name": "refreshKeepStakeOwner",
      "outputs": [],
      "stateMutability": "nonpayable",
      "type": "function"
    },
    {
      "inputs": [
        {
          "internalType": "address",
          "name": "stakingProvider",
          "type": "address"
        },
        {
          "internalType": "address",
          "name": "application",
          "type": "address"
        },
        {
          "internalType": "uint96",
          "name": "amount",
          "type": "uint96"
        }
      ],
      "name": "requestAuthorizationDecrease",
      "outputs": [],
      "stateMutability": "nonpayable",
      "type": "function"
    },
    {
      "inputs": [
        {
          "internalType": "address",
          "name": "stakingProvider",
          "type": "address"
        }
      ],
      "name": "requestAuthorizationDecrease",
      "outputs": [],
      "stateMutability": "nonpayable",
      "type": "function"
    },
    {
      "inputs": [
        {
          "internalType": "address",
          "name": "stakingProvider",
          "type": "address"
        }
      ],
      "name": "rolesOf",
      "outputs": [
        {
          "internalType": "address",
          "name": "owner",
          "type": "address"
        },
        {
          "internalType": "address payable",
          "name": "beneficiary",
          "type": "address"
        },
        {
          "internalType": "address",
          "name": "authorizer",
          "type": "address"
        }
      ],
      "stateMutability": "view",
      "type": "function"
    },
    {
      "inputs": [
        {
          "internalType": "uint96",
          "name": "amount",
          "type": "uint96"
        },
        {
          "internalType": "uint256",
          "name": "rewardMultiplier",
          "type": "uint256"
        },
        {
          "internalType": "address",
          "name": "notifier",
          "type": "address"
        },
        {
          "internalType": "address[]",
          "name": "_stakingProviders",
          "type": "address[]"
        }
      ],
      "name": "seize",
      "outputs": [],
      "stateMutability": "nonpayable",
      "type": "function"
    },
    {
      "inputs": [
        {
          "internalType": "uint256",
          "name": "ceiling",
          "type": "uint256"
        }
      ],
      "name": "setAuthorizationCeiling",
      "outputs": [],
      "stateMutability": "nonpayable",
      "type": "function"
    },
    {
      "inputs": [
        {
          "internalType": "uint96",
          "name": "amount",
          "type": "uint96"
        }
      ],
      "name": "setMinimumStakeAmount",
      "outputs": [],
      "stateMutability": "nonpayable",
      "type": "function"
    },
    {
      "inputs": [
        {
          "internalType": "uint96",
          "name": "reward",
          "type": "uint96"
        }
      ],
      "name": "setNotificationReward",
      "outputs": [],
      "stateMutability": "nonpayable",
      "type": "function"
    },
    {
      "inputs": [
        {
          "internalType": "address",
          "name": "application",
          "type": "address"
        },
        {
          "internalType": "address",
          "name": "panicButton",
          "type": "address"
        }
      ],
      "name": "setPanicButton",
      "outputs": [],
      "stateMutability": "nonpayable",
      "type": "function"
    },
    {
      "inputs": [
        {
          "internalType": "uint96",
          "name": "penalty",
          "type": "uint96"
        },
        {
          "internalType": "uint256",
          "name": "rewardMultiplier",
          "type": "uint256"
        }
      ],
      "name": "setStakeDiscrepancyPenalty",
      "outputs": [],
      "stateMutability": "nonpayable",
      "type": "function"
    },
    {
      "inputs": [
        {
          "internalType": "uint96",
          "name": "amount",
          "type": "uint96"
        },
        {
          "internalType": "address[]",
          "name": "_stakingProviders",
          "type": "address[]"
        }
      ],
      "name": "slash",
      "outputs": [],
      "stateMutability": "nonpayable",
      "type": "function"
    },
    {
      "inputs": [
        {
          "internalType": "uint256",
          "name": "",
          "type": "uint256"
        }
      ],
      "name": "slashingQueue",
      "outputs": [
        {
          "internalType": "address",
          "name": "stakingProvider",
          "type": "address"
        },
        {
          "internalType": "uint96",
          "name": "amount",
          "type": "uint96"
        }
      ],
      "stateMutability": "view",
      "type": "function"
    },
    {
      "inputs": [],
      "name": "slashingQueueIndex",
      "outputs": [
        {
          "internalType": "uint256",
          "name": "",
          "type": "uint256"
        }
      ],
      "stateMutability": "view",
      "type": "function"
    },
    {
      "inputs": [
        {
          "internalType": "address",
          "name": "stakingProvider",
          "type": "address"
        },
        {
          "internalType": "address payable",
          "name": "beneficiary",
          "type": "address"
        },
        {
          "internalType": "address",
          "name": "authorizer",
          "type": "address"
        },
        {
          "internalType": "uint96",
          "name": "amount",
          "type": "uint96"
        }
      ],
      "name": "stake",
      "outputs": [],
      "stateMutability": "nonpayable",
      "type": "function"
    },
    {
      "inputs": [],
      "name": "stakeDiscrepancyPenalty",
      "outputs": [
        {
          "internalType": "uint96",
          "name": "",
          "type": "uint96"
        }
      ],
      "stateMutability": "view",
      "type": "function"
    },
    {
      "inputs": [],
      "name": "stakeDiscrepancyRewardMultiplier",
      "outputs": [
        {
          "internalType": "uint256",
          "name": "",
          "type": "uint256"
        }
      ],
      "stateMutability": "view",
      "type": "function"
    },
    {
      "inputs": [
        {
          "internalType": "address",
          "name": "stakingProvider",
          "type": "address"
        }
      ],
      "name": "stakeKeep",
      "outputs": [],
      "stateMutability": "nonpayable",
      "type": "function"
    },
    {
      "inputs": [
        {
          "internalType": "address",
          "name": "stakingProvider",
          "type": "address"
        },
        {
          "internalType": "address payable",
          "name": "beneficiary",
          "type": "address"
        },
        {
          "internalType": "address",
          "name": "authorizer",
          "type": "address"
        }
      ],
      "name": "stakeNu",
      "outputs": [],
      "stateMutability": "nonpayable",
      "type": "function"
    },
    {
      "inputs": [
        {
          "internalType": "address",
          "name": "stakingProvider",
          "type": "address"
        }
      ],
      "name": "stakedNu",
      "outputs": [
        {
          "internalType": "uint256",
          "name": "nuAmount",
          "type": "uint256"
        }
      ],
      "stateMutability": "view",
      "type": "function"
    },
    {
      "inputs": [
        {
          "internalType": "address",
          "name": "stakingProvider",
          "type": "address"
        }
      ],
      "name": "stakes",
      "outputs": [
        {
          "internalType": "uint96",
          "name": "tStake",
          "type": "uint96"
        },
        {
          "internalType": "uint96",
          "name": "keepInTStake",
          "type": "uint96"
        },
        {
          "internalType": "uint96",
          "name": "nuInTStake",
          "type": "uint96"
        }
      ],
      "stateMutability": "view",
      "type": "function"
    },
    {
      "inputs": [
        {
          "internalType": "address",
          "name": "stakingProvider",
          "type": "address"
        },
        {
          "internalType": "uint96",
          "name": "amount",
          "type": "uint96"
        }
      ],
      "name": "topUp",
      "outputs": [],
      "stateMutability": "nonpayable",
      "type": "function"
    },
    {
      "inputs": [
        {
          "internalType": "address",
          "name": "stakingProvider",
          "type": "address"
        }
      ],
      "name": "topUpKeep",
      "outputs": [],
      "stateMutability": "nonpayable",
      "type": "function"
    },
    {
      "inputs": [
        {
          "internalType": "address",
          "name": "stakingProvider",
          "type": "address"
        }
      ],
      "name": "topUpNu",
      "outputs": [],
      "stateMutability": "nonpayable",
      "type": "function"
    },
    {
      "inputs": [
        {
          "internalType": "address",
          "name": "newGuvnor",
          "type": "address"
        }
      ],
      "name": "transferGovernance",
      "outputs": [],
      "stateMutability": "nonpayable",
      "type": "function"
    },
    {
      "inputs": [
        {
          "internalType": "address",
          "name": "stakingProvider",
          "type": "address"
        }
      ],
      "name": "unstakeAll",
      "outputs": [],
      "stateMutability": "nonpayable",
      "type": "function"
    },
    {
      "inputs": [
        {
          "internalType": "address",
          "name": "stakingProvider",
          "type": "address"
        }
      ],
      "name": "unstakeKeep",
      "outputs": [],
      "stateMutability": "nonpayable",
      "type": "function"
    },
    {
      "inputs": [
        {
          "internalType": "address",
          "name": "stakingProvider",
          "type": "address"
        },
        {
          "internalType": "uint96",
          "name": "amount",
          "type": "uint96"
        }
      ],
      "name": "unstakeNu",
      "outputs": [],
      "stateMutability": "nonpayable",
      "type": "function"
    },
    {
      "inputs": [
        {
          "internalType": "address",
          "name": "stakingProvider",
          "type": "address"
        },
        {
          "internalType": "uint96",
          "name": "amount",
          "type": "uint96"
        }
      ],
      "name": "unstakeT",
      "outputs": [],
      "stateMutability": "nonpayable",
      "type": "function"
    },
    {
      "inputs": [
        {
          "internalType": "address",
          "name": "recipient",
          "type": "address"
        },
        {
          "internalType": "uint96",
          "name": "amount",
          "type": "uint96"
        }
      ],
      "name": "withdrawNotificationReward",
      "outputs": [],
      "stateMutability": "nonpayable",
      "type": "function"
    }
  ],
  "transactionHash": "0x1309d11d850232835fa7a233f6ff019c9d17657af62bd7d03b1d30ecaaa30944",
  "args": [
    "0xbbff9029Ed407335c8040a3D06939d82f7869bb1",
    "0xDA8dB88b901D4f2889E0736F198b1347fEb4cae6",
    "0x1A1190Ea71d9f04Abbe315f58685D552053C6151",
    "0x2D43B1c980FeEda63fd84B694cc4103fe45849c5",
    "0xE20CFC1054c094D435AEC3640268129011BD404D",
    "0x3B5c30898DB9F6eb823C31ce19a394861f103676"
  ],
  "numDeployments": 1,
  "solcInputHash": "e0f57b23198d86f33bdc7837480522fc",
  "bytecode": "0x6101406040523480156200001257600080fd5b506040516200633b3803806200633b833981016040819052620000359162000380565b6000866001600160a01b03166318160ddd6040518163ffffffff1660e01b815260040160206040518083038186803b1580156200007157600080fd5b505afa15801562000086573d6000803e3d6000fd5b505050506040513d601f19601f82011682018060405250810190620000ac919062000414565b1180156200013f5750604051630a57ebcf60e11b8152600060048201819052906001600160a01b038716906314afd79e9060240160206040518083038186803b158015620000f957600080fd5b505afa1580156200010e573d6000803e3d6000fd5b505050506040513d601f19601f820116820180604052508101906200013491906200042e565b6001600160a01b0316145b8015620001c55750604051630bc5b6f360e11b8152600060048201526001600160a01b0385169063178b6de69060240160206040518083038186803b1580156200018857600080fd5b505afa1580156200019d573d6000803e3d6000fd5b505050506040513d601f19601f82011682018060405250810190620001c3919062000414565b155b8015620001e35750620001e3816200035860201b620039ce1760201c565b620002345760405162461bcd60e51b815260206004820152601660248201527f57726f6e6720696e70757420706172616d657465727300000000000000000000604482015260640160405180910390fd5b6001600160a01b0380871660805285811660a05281811660c05284811660e052604080516371ca337d60e01b81529051918516916371ca337d91600480820192602092909190829003018186803b1580156200028f57600080fd5b505afa158015620002a4573d6000803e3d6000fd5b505050506040513d601f19601f82011682018060405250810190620002ca919062000414565b6101008181525050816001600160a01b03166371ca337d6040518163ffffffff1660e01b815260040160206040518083038186803b1580156200030c57600080fd5b505afa15801562000321573d6000803e3d6000fd5b505050506040513d601f19601f8201168201806040525081019062000347919062000414565b610120525062000455945050505050565b6001600160a01b03163b151590565b6001600160a01b03811681146200037d57600080fd5b50565b60008060008060008060c087890312156200039a57600080fd5b8651620003a78162000367565b6020880151909650620003ba8162000367565b6040880151909550620003cd8162000367565b6060880151909450620003e08162000367565b6080880151909350620003f38162000367565b60a0880151909250620004068162000367565b809150509295509295509295565b6000602082840312156200042757600080fd5b5051919050565b6000602082840312156200044157600080fd5b81516200044e8162000367565b9392505050565b60805160a05160c05160e0516101005161012051615dee6200054d6000396000818161101101528181611779015281816128040152818161418b015261481e015260008181610cf401528181613cb3015281816142640152614b3a01526000818161276c015281816140e301526149060152600081816114210152612c51015260008181610c4d015281816114dc01528181611595015281816119360152818161240001528181613da9015281816141be0152614aa8015260008181610a8901528181610fb501528181611b1001528181611ef201528181612b6e0152818161306f015281816132e801526147a90152615dee6000f3fe608060405234801561001057600080fd5b50600436106102b45760003560e01c8063067e6bb1146102b95780630fa78bf41461030357806316934fc4146103185780631d5270d31461038857806328c8c55f1461039b5780632c686ca0146103ae5780632cd62915146103c15780632de94807146103d857806332719e06146104505780633a46b1a814610477578063402121af1461048a578063434457481461049d57806344e97423146104b0578063483046bb146104b95780634a11fae3146104cc5780634ec0a9fe146104df57806356f958ee146104f2578063570ea46114610505578063587cde1e1461051857806358ccdf38146105385780635961d5e91461054b5780635aa6e6751461055e5780635f2d5030146105715780636d08f5b0146105845780636d9b9a34146105975780636da91d8b146105aa5780636fcfff45146105bd5780637368dba2146105e557806375e0ae5a146105ee578063793c1365146106015780637d0379f01461060a5780638129fc1c1461061d57806381b0a0ce1461062557806383ddba8f1461063857806386d18a251461064b5780638b7adc091461065e5780638e46ecb6146106715780638e539e8c146106845780639ab24eb014610697578063a0d6ff9a146106aa578063a7bb8ba8146106bd578063ad30e4cd146106c6578063af5f24ad146106ce578063b1958150146106e1578063b626ca3e146106f4578063be2f335114610707578063d38bfff41461071a578063d3e25ef31461072d578063d3ecb6cd14610740578063dfefadff14610753578063e009245a14610766578063e3ae4d0a146107ac578063eaa86492146107bf578063ef47bf40146107d2578063f07f91c5146107e5578063f1127ed8146107f8578063f1f6c31514610835578063f6e0faeb14610856578063f848beff14610882578063ffd2f98414610895575b600080fd5b6102ec6102c73660046152f9565b603a6020526000908152604090205460ff81169061010090046001600160a01b031682565b6040516102fa92919061532c565b60405180910390f35b610316610311366004615366565b61089d565b005b61035e6103263660046152f9565b6001600160a01b031660009081526039602052604090206002810154600182015491546001600160601b039182169392821692911690565b604080516001600160601b03948516815292841660208401529216918101919091526060016102fa565b610316610396366004615366565b6108ab565b6103166103a93660046153b6565b610982565b6103166103bc3660046152f9565b610abf565b6103ca60345481565b6040519081526020016102fa565b6104266103e63660046152f9565b6001600160a01b03908116600090815260396020526040902080546001820154600290920154600160601b91829004841694928290048416939190041690565b604080516001600160a01b03948516815292841660208401529216918101919091526060016102fa565b60335461046a90600160a01b90046001600160601b031681565b6040516102fa91906153eb565b61046a6104853660046153ff565b610bdb565b6103166104983660046152f9565b610c06565b6103166104ab3660046152f9565b610e30565b6103ca60365481565b6103166104c736600461542b565b610f27565b6103ca6104da3660046152f9565b610fe9565b6103166104ed3660046152f9565b61103c565b6103166105003660046152f9565b611207565b6103166105133660046152f9565b61135a565b61052b6105263660046152f9565b6116bb565b6040516102fa9190615446565b6103166105463660046153b6565b6116d9565b61031661055936600461545a565b6118bc565b60335461052b906001600160a01b031681565b61031661057f3660046154b4565b611b49565b61031661059236600461542b565b611d8d565b6103166105a53660046153b6565b611e12565b61046a6105b83660046154fb565b611f22565b6105d06105cb3660046152f9565b612091565b60405163ffffffff90911681526020016102fa565b6103ca60385481565b61046a6105fc3660046152f9565b6120b3565b6103ca60375481565b61031661061836600461552d565b612236565b6103166122c1565b610316610633366004615549565b612386565b610316610646366004615640565b61258e565b6103166106593660046152f9565b61259a565b61046a61066c366004615366565b612691565b61031661067f3660046152f9565b612711565b61046a6106923660046156a9565b6128fe565b61046a6106a53660046152f9565b61290b565b6103166106b83660046152f9565b61299c565b6103ca603d5481565b603b546103ca565b6103166106dc3660046152f9565b612ba7565b6103166106ef3660046156a9565b612d44565b610316610702366004615366565b612da3565b6103166107153660046156a9565b612ef1565b6103166107283660046152f9565b613096565b61031661073b36600461542b565b6130c9565b61031661074e3660046153b6565b613130565b61052b6107613660046156a9565b613321565b61046a610774366004615366565b6001600160a01b039182166000908152603960209081526040808320939094168252600390920190915220546001600160601b031690565b6103166107ba3660046152f9565b61334b565b60355461046a906001600160601b031681565b6103166107e03660046152f9565b6134af565b6103166107f33660046156c2565b6135f8565b61080b61080636600461570f565b613605565b60408051825163ffffffff1681526020928301516001600160601b031692810192909252016102fa565b6108486108433660046156a9565b6136b1565b6040516102fa929190615746565b6103ca6108643660046152f9565b6001600160a01b031660009081526039602052604090206005015490565b6103166108903660046154b4565b6136ec565b603c546103ca565b6108a782826139dd565b5050565b6033546001600160a01b031633146108de5760405162461bcd60e51b81526004016108d590615768565b60405180910390fd5b6001600160a01b0382166000908152603a602052604090206001815460ff16600381111561090e5761090e615316565b1461092b5760405162461bcd60e51b81526004016108d59061579e565b80546001600160a01b038084166101008102610100600160a81b0319909316929092178355604051908516907f5a38ebc6ef9570e77e12b2162c48413d53357005add9be886ab130a58d44feb890600090a3505050565b6001600160a01b03828116600090815260396020526040902054600160601b9004166109c05760405162461bcd60e51b81526004016108d5906157d3565b6000816001600160601b0316116109e95760405162461bcd60e51b81526004016108d5906157fe565b6001600160a01b038216600090815260396020526040812060028101805491928492610a1f9084906001600160601b031661584a565b92506101000a8154816001600160601b0302191690836001600160601b03160217905550826001600160a01b0316600080516020615d5983398151915283604051610a6a91906153eb565b60405180910390a2610a7c8383613af8565b610aba6001600160a01b037f00000000000000000000000000000000000000000000000000000000000000001633306001600160601b038616613b04565b505050565b6001600160a01b038082166000908152603a60205260409020548291610100909104163314610b305760405162461bcd60e51b815260206004820152601e60248201527f43616c6c6572206973206e6f74207468652070616e696320627574746f6e000060448201526064016108d5565b6001600160a01b0382166000908152603a602052604090206001815460ff166003811115610b6057610b60615316565b14610ba75760405162461bcd60e51b815260206004820152601760248201527621b0b713ba103830bab9b29030b8383634b1b0ba34b7b760491b60448201526064016108d5565b805460ff1916600290811782556040516001600160a01b03851690600080516020615cd983398151915290600090a3505050565b6001600160a01b0382166000908152600260205260408120610bfd9083613b10565b90505b92915050565b6001600160a01b038116600090815260396020526040902060018101546001600160601b0316610c485760405162461bcd60e51b81526004016108d590615875565b6000807f00000000000000000000000000000000000000000000000000000000000000006001600160a01b031663fab46d66856040518263ffffffff1660e01b8152600401610c979190615446565b60606040518083038186803b158015610caf57600080fd5b505afa158015610cc3573d6000803e3d6000fd5b505050506040513d601f19601f82011682018060405250810190610ce7919061589f565b92505091506000610d18837f0000000000000000000000000000000000000000000000000000000000000000613c0a565b5060018501549091506001600160601b03908116908216811180610d3b57508215155b610d575760405162461bcd60e51b81526004016108d5906158cd565b6001850180546001600160601b0319166001600160601b0384811691909117909155603554603654610d8f9288928a92911690613c5c565b506001850154600090610dab906001600160601b0316846158fe565b905060011515876001600160a01b0316600080516020615cf983398151915283604051610dd891906153eb565b60405180910390a38315610df9576001860180546001600160601b03191690555b6001860154610e1c908890610e17906001600160601b0316856158fe565b613e25565b610e27878783613e31565b50505050505050565b6033546001600160a01b03163314610e5a5760405162461bcd60e51b81526004016108d590615768565b6001600160a01b0381166000908152603a602052604090206001815460ff166003811115610e8a57610e8a615316565b1480610eab57506002815460ff166003811115610ea957610ea9615316565b145b610ef35760405162461bcd60e51b815260206004820152601960248201527821b0b713ba103234b9b0b136329030b8383634b1b0ba34b7b760391b60448201526064016108d5565b805460ff1916600390811782555b6040516001600160a01b03841690600080516020615cd983398151915290600090a35050565b6000816001600160601b031611610f505760405162461bcd60e51b81526004016108d5906157fe565b806001600160601b031660376000828254610f6b9190615926565b90915550506040517f9de5348508c6ad1f6ff7fcfb84e126bb094784e85bf83f7e3801bc44f9c6dc9790610fa09083906153eb565b60405180910390a1610fe66001600160a01b037f00000000000000000000000000000000000000000000000000000000000000001633306001600160601b038516613b04565b50565b6001600160a01b038116600090815260396020526040812054611035906001600160601b03167f0000000000000000000000000000000000000000000000000000000000000000614090565b5092915050565b6001600160a01b038082166000908152603960205260409020548291600160601b90910416158015906110a157506001600160a01b0381163314806110a157506001600160a01b03818116600090815260396020526040902054600160601b90041633145b6110bd5760405162461bcd60e51b81526004016108d59061593e565b6001600160a01b038216600090815260396020526040902060018101546001600160601b0316806111255760405162461bcd60e51b81526020600482015260126024820152714e6f7468696e6720746f20756e7374616b6560701b60448201526064016108d5565b611130846001611f22565b6001600160601b0316156111845760405162461bcd60e51b815260206004820152601b60248201527a12d9595c081cdd185ad9481cdd1a5b1b08185d5d1a1bdc9a5e9959602a1b60448201526064016108d5565b426201518083600501546111989190615926565b11156111b65760405162461bcd60e51b81526004016108d59061596d565b836001600160a01b0316600080516020615d39833981519152826040516111dd91906153eb565b60405180910390a26001820180546001600160601b03191690556112018482613e25565b50505050565b6001600160a01b038082166000908152603960205260409020548291600160601b909104161580159061126c57506001600160a01b03811633148061126c57506001600160a01b03818116600090815260396020526040902054600160601b90041633145b6112885760405162461bcd60e51b81526004016108d59061593e565b6001600160a01b038083166000908152603960205260408120805490926112b791600160601b900416856140de565b82549091506001600160601b03908116908216116112e75760405162461bcd60e51b81526004016108d5906157d3565b81546000906112ff906001600160601b0316836158fe565b9050846001600160a01b0316600080516020615d598339815191528260405161132891906153eb565b60405180910390a282546001600160601b0319166001600160601b0383161783556113538582613af8565b5050505050565b6001600160a01b0381166113805760405162461bcd60e51b81526004016108d5906157fe565b6001600160a01b03808216600090815260396020526040902080549091600160601b90910416156113c35760405162461bcd60e51b81526004016108d5906159a4565b60006113ce836141b9565b90506001600160601b0381166113f65760405162461bcd60e51b81526004016108d5906159d8565b6001820180546001600160601b0319166001600160601b03831617905560405162f9934b60e11b81527f00000000000000000000000000000000000000000000000000000000000000006001600160a01b0316906301f326969061145e908690600401615446565b60206040518083038186803b15801561147657600080fd5b505afa15801561148a573d6000803e3d6000fd5b505050506040513d601f19601f820116820180604052508101906114ae9190615a01565b82546001600160601b0316600160601b6001600160a01b039283160217835560405163fb1677b160e01b81527f00000000000000000000000000000000000000000000000000000000000000009091169063fb1677b190611513908690600401615446565b60206040518083038186803b15801561152b57600080fd5b505afa15801561153f573d6000803e3d6000fd5b505050506040513d601f19601f820116820180604052508101906115639190615a01565b6002830180546001600160601b0316600160601b6001600160a01b039384160217905560405163ba7bffd360e01b81527f00000000000000000000000000000000000000000000000000000000000000009091169063ba7bffd3906115cc908690600401615446565b60206040518083038186803b1580156115e457600080fd5b505afa1580156115f8573d6000803e3d6000fd5b505050506040513d601f19601f8201168201806040525081019061161c9190615a01565b6001830180546001600160a01b0392909216600160601b026001600160601b039092169190911790554260058301556116558382613af8565b81546001600160a01b0380851691600160601b9004166001808501546002860154604051600080516020615d79833981519152926116ae926001600160a01b03600160601b928390048116939290910416908890615a1e565b60405180910390a4505050565b6001600160a01b039081166000908152600160205260409020541690565b6001600160a01b038083166000908152603960205260409020548391600160601b909104161580159061173e57506001600160a01b03811633148061173e57506001600160a01b03818116600090815260396020526040902054600160601b90041633145b61175a5760405162461bcd60e51b81526004016108d59061593e565b6001600160a01b03831660009081526039602052604081209061179d847f0000000000000000000000000000000000000000000000000000000000000000614090565b91506117ab905081856158fe565b93506000846001600160601b03161180156117ed575081546001600160601b03166117d7866000611f22565b6117e1908661584a565b6001600160601b031611155b6118095760405162461bcd60e51b81526004016108d590615a4a565b4262015180836005015461181d9190615926565b111561183b5760405162461bcd60e51b81526004016108d59061596d565b8154849083906000906118589084906001600160601b03166158fe565b92506101000a8154816001600160601b0302191690836001600160601b031602179055506118868585613e25565b846001600160a01b0316600080516020615d39833981519152856040516118ad91906153eb565b60405180910390a25050505050565b6001600160a01b038416158015906118dc57506001600160a01b03831615155b80156118f057506001600160a01b03821615155b61190c5760405162461bcd60e51b81526004016108d5906157fe565b6001600160a01b038085166000908152603960205260408082209051637d5a36b360e11b815290927f0000000000000000000000000000000000000000000000000000000000000000169063fab46d669061196b908990600401615446565b60606040518083038186803b15801561198357600080fd5b505afa158015611997573d6000803e3d6000fd5b505050506040513d601f19601f820116820180604052508101906119bb919061589f565b50915050801580156119dc57508154600160601b90046001600160a01b0316155b6119f85760405162461bcd60e51b81526004016108d5906159a4565b6000836001600160601b0316118015611a2757506033546001600160601b03600160a01b909104811690841610155b611a715760405162461bcd60e51b815260206004820152601b60248201527a416d6f756e74206973206c657373207468616e206d696e696d756d60281b60448201526064016108d5565b8154600160601b3381026001600160601b039283161784556001840180546001600160a01b03898116840291851691909117909155918516918616026001600160601b031916176002830155426005830155611acd8684613af8565b6001600160a01b038616336002600080516020615d79833981519152888888604051611afb93929190615a1e565b60405180910390a4611b416001600160a01b037f00000000000000000000000000000000000000000000000000000000000000001633306001600160601b038716613b04565b505050505050565b6001600160a01b038084166000908152603960205260409020600201548491600160601b909104163314611b8f5760405162461bcd60e51b81526004016108d590615a77565b6001600160a01b0383166000908152603a602052604090206001815460ff166003811115611bbf57611bbf615316565b14611bdc5760405162461bcd60e51b81526004016108d59061579e565b6000836001600160601b031611611c055760405162461bcd60e51b81526004016108d5906157fe565b6001600160a01b0380861660009081526039602090815260408083209388168352600390930190522080546001600160601b0380861691161015611c875760405162461bcd60e51b8152602060048201526019602482015278105b5bdd5b9d08195e18d959591cc8185d5d1a1bdc9a5e9959603a1b60448201526064016108d5565b80546001600160601b03808616600160601b02600160601b600160c01b0319831681178455600092611cbf92889281169116176158fe565b82546040519192506001600160a01b0380891692908a16917f132e76775c4e3b4b2c36fe4acc18d539b6c34b984ac6ba494a5996c48d8a017491611d0e916001600160601b0316908690615a9f565b60405180910390a381546040516306a7f7a960e41b81526001600160a01b03881691636a7f7a9091611d52918b916001600160601b03909116908690600401615ab9565b600060405180830381600087803b158015611d6c57600080fd5b505af1158015611d80573d6000803e3d6000fd5b5050505050505050505050565b6033546001600160a01b03163314611db75760405162461bcd60e51b81526004016108d590615768565b603380546001600160a01b0316600160a01b6001600160601b038416021790556040517f91d1e8918c0ec490b6eccd803db78273458f0a7d4b3915e062f1402e9521f51890611e079083906153eb565b60405180910390a150565b6033546001600160a01b03163314611e3c5760405162461bcd60e51b81526004016108d590615768565b603754816001600160601b03161115611e8b5760405162461bcd60e51b81526020600482015260116024820152704e6f7420656e6f75676820746f6b656e7360781b60448201526064016108d5565b806001600160601b031660376000828254611ea69190615ae3565b90915550506040517f7083cb4f4c81bb6d7425a5bde6b6969cd8c446730ed572607ef79246bc44ee4290611edd9084908490615746565b60405180910390a16108a76001600160a01b037f000000000000000000000000000000000000000000000000000000000000000016836001600160601b038416614291565b6001600160a01b038216600090815260396020526040812081805b6004830154811015611fb4576000836004018281548110611f6057611f60615afa565b60009182526020808320909101546001600160a01b031680835260038701909152604090912054909150611f9e9084906001600160601b031661429c565b9250508080611fac90615b10565b915050611f3d565b5080611fc557600092505050610c00565b6002846002811115611fd957611fd9615316565b14612004576002820154611ff79082906001600160601b03166142b3565b6120019082615ae3565b90505b600084600281111561201857612018615316565b146120405781546120339082906001600160601b03166142b3565b61203d9082615ae3565b90505b600184600281111561205457612054615316565b1461207f5760018201546120729082906001600160601b03166142b3565b61207c9082615ae3565b90505b612088816142c2565b95945050505050565b6001600160a01b038116600090815260026020526040812054610c009061432e565b336000908152603a602052604081206001815460ff1660038111156120da576120da615316565b146120f75760405162461bcd60e51b81526004016108d59061579e565b6001600160a01b0383166000908152603960209081526040808320338452600381019092529091208054600160601b90046001600160601b031661217b5760405162461bcd60e51b815260206004820152601b60248201527a4e6f206465617574686f72697a696e6720696e2070726f6365737360281b60448201526064016108d5565b80546001600160601b0380821691600160601b90041682600061219e83856158fe565b82546101009290920a6001600160601b038181021990931691831602179091558354600160601b600160c01b0319811685556040513393506001600160a01b038a1692600080516020615d19833981519152926122019287929190911690615a9f565b60405180910390a381546001600160601b031661222357612223836001614393565b50546001600160601b0316949350505050565b6033546001600160a01b031633146122605760405162461bcd60e51b81526004016108d590615768565b603580546001600160601b0319166001600160601b038416908117909155603682905560408051918252602082018390527f3f84f36f8e044bbbc00d303ae27c8871614781ac684742a3d8db7eb2eb98785f91015b60405180910390a15050565b600054610100900460ff166122dc5760005460ff16156122e4565b6122e461451a565b6123475760405162461bcd60e51b815260206004820152602e60248201527f496e697469616c697a61626c653a20636f6e747261637420697320616c72656160448201526d191e481a5b9a5d1a585b1a5e995960921b60648201526084016108d5565b600054610100900460ff16158015612369576000805461ffff19166101011790555b6123723361452b565b8015610fe6576000805461ff001916905550565b6001600160a01b038316158015906123a657506001600160a01b03821615155b80156123ba57506001600160a01b03811615155b6123d65760405162461bcd60e51b81526004016108d5906157fe565b6001600160a01b038084166000908152603960205260408082209051637d5a36b360e11b815290927f0000000000000000000000000000000000000000000000000000000000000000169063fab46d6690612435908890600401615446565b60606040518083038186803b15801561244d57600080fd5b505afa158015612461573d6000803e3d6000fd5b505050506040513d601f19601f82011682018060405250810190612485919061589f565b50915050801580156124a657508154600160601b90046001600160a01b0316155b6124c25760405162461bcd60e51b81526004016108d5906159a4565b60006124ce33876140de565b90506000816001600160601b0316116124f95760405162461bcd60e51b81526004016108d5906159d8565b600160601b3381026001600160601b038084169190911785556002850180546001600160a01b0388811685029184169190911790915560018601805491891690930291161790554260058401556125508682613af8565b6001600160a01b038616336000600080516020615d7983398151915288888660405161257e93929190615a1e565b60405180910390a4505050505050565b6112018484848461457e565b6001600160a01b038116600090815260396020526040812090805b600483015481101561263e5760008360040182815481106125d8576125d8615afa565b60009182526020808320909101546001600160a01b0316808352600387019091526040909120549091506001600160601b031680156126295761261c868383611b49565b612626818561584a565b93505b5050808061263690615b10565b9150506125b5565b506000816001600160601b031611610aba5760405162461bcd60e51b8152602060048201526016602482015275139bdd1a1a5b99c81dd85cc8185d5d1a1bdc9a5e995960521b60448201526064016108d5565b6001600160a01b03821660009081526039602052604081208054600182015460028301546001600160601b03928316926126ce928116911661584a565b6126d8919061584a565b6001600160a01b0384166000908152600383016020526040902054909250612709906001600160601b0316836158fe565b949350505050565b6001600160a01b038116600090815260396020526040902080546001600160601b03166127505760405162461bcd60e51b81526004016108d590615875565b8054604051630bc5b6f360e11b81526000916001600160a01b037f000000000000000000000000000000000000000000000000000000000000000081169263178b6de6926127aa92600160601b9091041690600401615446565b60206040518083038186803b1580156127c257600080fd5b505afa1580156127d6573d6000803e3d6000fd5b505050506040513d601f19601f820116820180604052508101906127fa9190615b2b565b90506000612828827f0000000000000000000000000000000000000000000000000000000000000000613c0a565b5083549091506001600160601b03908116908216811161285a5760405162461bcd60e51b81526004016108d5906158cd565b83546001600160601b0319166001600160601b0383811691909117855560355460365461288a92879216906147d0565b5083546000906128a3906001600160601b0316846158fe565b905060011515866001600160a01b0316600080516020615cf9833981519152836040516128d091906153eb565b60405180910390a36128e3868683613e31565b8454611b41908790610e17906001600160601b0316856158fe565b6000610c00600383613b10565b6001600160a01b0381166000908152600260205260408120548015612992576001600160a01b038316600090815260026020526040902061298d90612951600184615ae3565b8154811061296157612961615afa565b90600052602060002090600291828204019190066010029054906101000a90046001600160801b031690565b612995565b60005b9392505050565b6001600160a01b038082166000908152603960205260409020548291600160601b9091041615801590612a0157506001600160a01b038116331480612a0157506001600160a01b03818116600090815260396020526040902054600160601b90041633145b612a1d5760405162461bcd60e51b81526004016108d59061593e565b6001600160a01b0382166000908152603960205260409020600481015415612a805760405162461bcd60e51b815260206004820152601660248201527514dd185ad9481cdd1a5b1b08185d5d1a1bdc9a5e995960521b60448201526064016108d5565b42620151808260050154612a949190615926565b1115612ab25760405162461bcd60e51b81526004016108d59061596d565b8054600182015460028301546000926001600160601b0390811692612adb92908216911661584a565b612ae5919061584a565b9050836001600160a01b0316600080516020615d3983398151915282604051612b0e91906153eb565b60405180910390a26002820180546001600160601b031980821690925560018401805483169055835490911683556001600160601b0316612b4f8583613e25565b6001600160601b03811615611353578254611353906001600160a01b037f0000000000000000000000000000000000000000000000000000000000000000811691600160601b9004166001600160601b038416614291565b6001600160a01b038082166000908152603960205260409020548291600160601b9091041615801590612c0c57506001600160a01b038116331480612c0c57506001600160a01b03818116600090815260396020526040902054600160601b90041633145b612c285760405162461bcd60e51b81526004016108d59061593e565b6001600160a01b03808316600090815260396020526040808220905162f9934b60e11b815290927f000000000000000000000000000000000000000000000000000000000000000016906301f3269690612c86908790600401615446565b60206040518083038186803b158015612c9e57600080fd5b505afa158015612cb2573d6000803e3d6000fd5b505050506040513d601f19601f82011682018060405250810190612cd69190615a01565b82546040519192506001600160a01b0380841692600160601b909204811691908716907fda8908ea0ecabda6b6dec96ed40b9c47ffbf9be10f30912965c984face902e1490600090a481546001600160a01b03909116600160601b026001600160601b039091161790555050565b6033546001600160a01b03163314612d6e5760405162461bcd60e51b81526004016108d590615768565b60348190556040518181527ff82f602e8097a5c312216f60ca94cd1ff03aac29893f9adef7ed7e6ae33c76e290602001611e07565b60036001600160a01b0382166000908152603a602052604090205460ff166003811115612dd257612dd2615316565b14612e1d5760405162461bcd60e51b815260206004820152601b60248201527a105c1c1b1a58d85d1a5bdb881a5cc81b9bdd08191a5cd8589b1959602a1b60448201526064016108d5565b6001600160a01b038083166000908152603960209081526040808320938516835260038401909152902080546001600160601b031680612e9f5760405162461bcd60e51b815260206004820152601d60248201527f4170706c69636174696f6e206973206e6f7420617574686f72697a656400000060448201526064016108d5565b81546001600160c01b03191682556040516001600160a01b038086169190871690600080516020615d1983398151915290612ede908590600090615a9f565b60405180910390a3611353836001614393565b603c54603d54108015612f045750600081115b612f455760405162461bcd60e51b81526020600482015260126024820152714e6f7468696e6720746f2070726f6365737360701b60448201526064016108d5565b600081603d54612f559190615926565b9050612f6681603c805490506142b3565b9050603d5481612f769190615ae3565b603d549092506000905b82811015612fd2576000603c8281548110612f9d57612f9d615afa565b906000526020600020019050612fb28161496e565b612fbc908461584a565b9250508080612fca90615b10565b915050612f80565b603d8190556000612fed6001600160601b0384166005614c9c565b9050612ff8816142c2565b61300290846158fe565b6001600160601b03166037600082825461301c9190615926565b9091555050604080518681526020810183905233917f8efe68d059265c97157a10a6aadc9afe80dfa0e96fc959c4de863300e244e156910160405180910390a28015611353576113536001600160a01b037f0000000000000000000000000000000000000000000000000000000000000000163383614291565b6033546001600160a01b031633146130c05760405162461bcd60e51b81526004016108d590615768565b610fe68161452b565b6033546001600160a01b031633146130f35760405162461bcd60e51b81526004016108d590615768565b6001600160601b0381166038556040517fd579c7b509b9a61b7408309a980bcfcbbf0f336f1b2bb0a760d71f72f0cf313290611e079083906153eb565b6001600160a01b038083166000908152603960205260409020548391600160601b909104161580159061319557506001600160a01b03811633148061319557506001600160a01b03818116600090815260396020526040902054600160601b90041633145b6131b15760405162461bcd60e51b81526004016108d59061593e565b6001600160a01b03831660009081526039602052604090206001600160601b0383161580159061320d57506002808201546001600160601b0316906131f7908690611f22565b613201908561584a565b6001600160601b031611155b6132295760405162461bcd60e51b81526004016108d590615a4a565b4262015180826005015461323d9190615926565b111561325b5760405162461bcd60e51b81526004016108d59061596d565b60028101805484919060009061327b9084906001600160601b03166158fe565b92506101000a8154816001600160601b0302191690836001600160601b031602179055506132a98484613e25565b836001600160a01b0316600080516020615d39833981519152846040516132d091906153eb565b60405180910390a28054611201906001600160a01b037f0000000000000000000000000000000000000000000000000000000000000000811691600160601b9004166001600160601b038616614291565b603b818154811061333157600080fd5b6000918252602090912001546001600160a01b0316905081565b6033546001600160a01b031633146133755760405162461bcd60e51b81526004016108d590615768565b6001600160a01b03811661339b5760405162461bcd60e51b81526004016108d5906157fe565b6001600160a01b0381166000908152603a6020526040812090815460ff1660038111156133ca576133ca615316565b14806133eb57506002815460ff1660038111156133e9576133e9615316565b145b6134335760405162461bcd60e51b815260206004820152601960248201527821b0b713ba1030b8383937bb329030b8383634b1b0ba34b7b760391b60448201526064016108d5565b6000815460ff16600381111561344b5761344b615316565b141561349d57603b80546001810182556000919091527fbbe3212124853f8b0084a66a2d057c2966e251e132af3691db153ab65f0d1a4d0180546001600160a01b0319166001600160a01b0384161790555b805460ff191660019081178255610f01565b6001600160a01b038082166000908152603960205260409020548291600160601b909104161580159061351457506001600160a01b03811633148061351457506001600160a01b03818116600090815260396020526040902054600160601b90041633145b6135305760405162461bcd60e51b81526004016108d59061593e565b6001600160a01b038216600090815260396020526040812090613552846141b9565b60018301549091506001600160601b03908116908216116135855760405162461bcd60e51b81526004016108d5906157d3565b60018201546000906135a0906001600160601b0316836158fe565b9050846001600160a01b0316600080516020615d59833981519152826040516135c991906153eb565b60405180910390a26001830180546001600160601b0319166001600160601b0384161790556113538582613af8565b6108a7826000808461457e565b60408051808201909152600080825260208201526001600160a01b0383166000908152600260205260408120805482916136869163ffffffff871690811061364f5761364f615afa565b90600052602060002090600291828204019190066010029054906101000a90046001600160801b031663ffffffff606082901c1691565b6040805180820190915263ffffffff90921682526001600160601b0316602082015295945050505050565b603c81815481106136c157600080fd5b6000918252602090912001546001600160a01b0381169150600160a01b90046001600160601b031682565b6001600160a01b038084166000908152603960205260409020600201548491600160601b9091041633146137325760405162461bcd60e51b81526004016108d590615a77565b6001600160a01b0383166000908152603a602052604090206001815460ff16600381111561376257613762615316565b1461377f5760405162461bcd60e51b81526004016108d59061579e565b6001600160a01b038086166000908152603960209081526040808320938816835260038401909152902080546001600160601b0316806138425760345415806137cd57506034546004840154105b6138115760405162461bcd60e51b8152602060048201526015602482015274546f6f206d616e79206170706c69636174696f6e7360581b60448201526064016108d5565b600483018054600181018255600091825260209091200180546001600160a01b0319166001600160a01b0389161790555b600061384e8989612691565b9050866001600160601b0316816001600160601b031610156138b25760405162461bcd60e51b815260206004820152601d60248201527f4e6f7420656e6f756768207374616b6520746f20617574686f72697a6500000060448201526064016108d5565b8254879084906000906138cf9084906001600160601b031661584a565b92506101000a8154816001600160601b0302191690836001600160601b03160217905550876001600160a01b0316896001600160a01b03167f87f9f9f59204f53d57a89a817c6083a17979cd0531791c91e18551a56e3cfdd7848660000160009054906101000a90046001600160601b031660405161394f929190615a9f565b60405180910390a3825460405163c9bacaad60e01b81526001600160a01b038a169163c9bacaad91613991918d9187916001600160601b031690600401615ab9565b600060405180830381600087803b1580156139ab57600080fd5b505af11580156139bf573d6000803e3d6000fd5b50505050505050505050505050565b6001600160a01b03163b151590565b6001600160a01b03808316600090815260396020526040902080549091600160601b909104163314613a475760405162461bcd60e51b815260206004820152601360248201527221b0b63632b91034b9903737ba1037bbb732b960691b60448201526064016108d5565b8054600182015460028301546000926001600160601b0390811692613a7092908216911661584a565b613a7a919061584a565b90506000613a87856116bb565b6001600160a01b0386811660008181526001602052604080822080546001600160a01b0319168a8616908117909155905194955093928516927f3134e8a2e6d97e929a7e54011ea5485d7d196dd5f0ba4d4ef95803e8e3fc257f9190a46113538185846001600160601b0316614cb4565b6108a782826001614dbe565b61120184848484614e98565b6000438210613b5c5760405162461bcd60e51b8152602060048201526018602482015277109b1bd8dac81b9bdd081e595d0819195d195c9b5a5b995960421b60448201526064016108d5565b825460005b81811015613be5576000613b758284614f03565b90506000613bb8878381548110613b8e57613b8e615afa565b6000918252602090912060028204015463ffffffff60019092166010026101000a900460601c1690565b9050858163ffffffff161115613bd057819350613bde565b613bdb826001615926565b92505b5050613b61565b8115613bff57613bfa85612951600185615ae3565b612088565b506000949350505050565b600080613c1e66038d7ea4c6800085615b5a565b90506000613c2c8286615ae3565b9050613c5266038d7ea4c68000613c438684615b6e565b613c4d9190615b8d565b6142c2565b9250509250929050565b60018401546000906001600160601b0316613c78575081612709565b60018501546000906001600160601b0390811690851611613c9a575082613caa565b5060018501546001600160601b03165b600080613cd7837f0000000000000000000000000000000000000000000000000000000000000000614090565b915091508160001415613cef57859350505050612709565b613cf981846158fe565b6001890180549194508491600090613d1b9084906001600160601b03166158fe565b92506101000a8154816001600160601b0302191690836001600160601b031602179055508286613d4b91906158fe565b60408051600180825281830190925291975060009190602080830190803683370190505090508781600081518110613d8557613d85615afa565b6001600160a01b039283166020918202929092010152604051629055e960e41b81527f0000000000000000000000000000000000000000000000000000000000000000909116906309055e9090613de69086908a9033908790600401615ba1565b600060405180830381600087803b158015613e0057600080fd5b505af1158015613e14573d6000803e3d6000fd5b50989b9a5050505050505050505050565b6108a782826000614dbe565b6001820154825460028401546000926001600160601b0390811692613e5a92908216911661584a565b613e64919061584a565b90506000805b600485015481101561407f576000856004018281548110613e8d57613e8d615afa565b60009182526020808320909101546001600160a01b03168083526003890190915260409091208054919250906001600160601b0390811690613ed690613c4d9083908a166142b3565b82548390600090613ef19084906001600160601b03166158fe565b82546101009290920a6001600160601b038181021990931691831602179091558354888216911611159050613f3a5781546001600160601b0319166001600160601b0387161782555b815460405163052a151d60e21b81526001916001600160a01b038616916314a85474916203d09091613f7c918f9188916001600160601b031690600401615ab9565b600060405180830381600088803b158015613f9657600080fd5b5087f193505050508015613fa8575060015b613fb0575060005b82546001600160601b03808216600160601b909204161115613ff1578254600160601b6001600160601b03821602600160601b600160c01b03199091161783555b8254604051821515916001600160a01b0380881692908e16917f0f0171fffaa54732b1f79a3164b315658061a1a51bf8c1010fbed908a8e333f9916140439188916001600160601b0390911690615a9f565b60405180910390a482546001600160601b0316614068578561406481615b10565b9650505b50505050808061407790615b10565b915050613e6a565b508015611353576113538482614393565b6000806140a9613c4d846001600160601b038716615b5a565b905060006140b782866158fe565b6001600160601b03169050836140d466038d7ea4c6800083615b6e565b613c529190615b8d565b6000807f00000000000000000000000000000000000000000000000000000000000000006001600160a01b0316633223ff4b85856040518363ffffffff1660e01b815260040161412f929190615c0b565b602060405180830381600087803b15801561414957600080fd5b505af115801561415d573d6000803e3d6000fd5b505050506040513d601f19601f820116820180604052508101906141819190615b2b565b905060006141af827f0000000000000000000000000000000000000000000000000000000000000000613c0a565b5095945050505050565b6000807f00000000000000000000000000000000000000000000000000000000000000006001600160a01b031663afff33ef84306040518363ffffffff1660e01b815260040161420a929190615c0b565b60206040518083038186803b15801561422257600080fd5b505afa158015614236573d6000803e3d6000fd5b505050506040513d601f19601f8201168201806040525081019061425a9190615b2b565b90506000614288827f0000000000000000000000000000000000000000000000000000000000000000613c0a565b50949350505050565b610aba838383614f1e565b6000818310156142ac5781610bfd565b5090919050565b60008183106142ac5781610bfd565b60006001600160601b0382111561432a5760405162461bcd60e51b815260206004820152602660248201527f53616665436173743a2076616c756520646f65736e27742066697420696e203960448201526536206269747360d01b60648201526084016108d5565b5090565b600063ffffffff82111561432a5760405162461bcd60e51b815260206004820152602660248201527f53616665436173743a2076616c756520646f65736e27742066697420696e203360448201526532206269747360d01b60648201526084016108d5565b6004820154818114156143ae57610aba6004840160006152a6565b600080806143bc8585615ae3565b90505b80821080156143cd57508483105b156144c75760008660040183815481106143e9576143e9615afa565b60009182526020808320909101546001600160a01b031680835260038a019091526040909120549091506001600160601b03166144b3576004870160016144308688615ae3565b61443a9190615ae3565b8154811061444a5761444a615afa565b6000918252602090912001546004880180546001600160a01b03909216918590811061447857614478615afa565b600091825260209091200180546001600160a01b0319166001600160a01b0392909216919091179055836144ab81615b10565b9450506144c1565b826144bd81615b10565b9350505b506143bf565b8091505b83821015611b4157856004018054806144e6576144e6615c25565b600082815260209020810160001990810180546001600160a01b03191690550190558161451281615b10565b9250506144cb565b6000614525306139ce565b15905090565b603380546001600160a01b038381166001600160a01b03198316179092556040519116907f5f56bee8cffbe9a78652a74a60705edede02af10b0bbb888ca44b79a0d42ce80906122b59083908590615c0b565b6000846001600160601b0316118015614598575060008151115b6145b45760405162461bcd60e51b81526004016108d5906157fe565b336000908152603a602052604090206001815460ff1660038111156145db576145db615316565b146145f85760405162461bcd60e51b81526004016108d59061579e565b603c5460005b83518110156146f157600084828151811061461b5761461b615afa565b6020908102919091018101516001600160a01b038116600090815260398352604080822033835260030190935291822054909250614666906001600160601b03908116908b166142b3565b9050806146745750506146df565b603c6040518060400160405280846001600160a01b03168152602001614699846142c2565b6001600160601b039081169091528254600181018455600093845260209384902083519490930151909116600160a01b026001600160a01b039093169290921791015550505b806146e981615b10565b9150506145fe565b506001600160a01b03841615611b4157600061472b8660385484603c8054905061471b9190615ae3565b6147259190615b6e565b90614c9c565b9050614739816037546142b3565b9050846001600160a01b03167f104879b09c38b3b66d79ce8f4cbdcfbe117b79797db65a37ef151d22b5e314718260405161477691815260200190565b60405180910390a28015610e275780603760008282546147969190615ae3565b90915550610e2790506001600160a01b037f0000000000000000000000000000000000000000000000000000000000000000168683614291565b82546000906001600160601b03166147e9575081612995565b83546000906001600160601b0390811690851611614808575082614815565b5083546001600160601b03165b600080614842837f0000000000000000000000000000000000000000000000000000000000000000614090565b91509150816000141561485a57859350505050612995565b61486481846158fe565b8754909350839088906000906148849084906001600160601b03166158fe565b92506101000a8154816001600160601b0302191690836001600160601b0316021790555082866148b491906158fe565b955060006148c786614725856005614c9c565b8854604051632673086360e21b81526001600160a01b03600160601b9092048216600482015260248101869052336044820152606481018390529192507f000000000000000000000000000000000000000000000000000000000000000016906399cc218c90608401600060405180830381600087803b15801561494a57600080fd5b505af115801561495e573d6000803e3d6000fd5b50989a9950505050505050505050565b80546001600160a01b0381166000908152603960205260408120805460018201546002830154939492936001600160601b03600160a01b90940484169386938116926149be92908216911661584a565b6149c8919061584a565b60028401549091506001600160601b031615614a625760028301546001600160601b03908116908316116149fe57819350614a0f565b60028301546001600160601b031693505b600283018054859190600090614a2f9084906001600160601b03166158fe565b92506101000a8154816001600160601b0302191690836001600160601b031602179055508382614a5f91906158fe565b91505b6000826001600160601b0316118015614a87575060018301546001600160601b031615155b15614b9d578454604051637d5a36b360e11b81526000916001600160a01b037f000000000000000000000000000000000000000000000000000000000000000081169263fab46d6692614ade921690600401615446565b60606040518083038186803b158015614af657600080fd5b505afa158015614b0a573d6000803e3d6000fd5b505050506040513d601f19601f82011682018060405250810190614b2e919061589f565b505090506000614b5e827f0000000000000000000000000000000000000000000000000000000000000000613c0a565b506001860180546001600160601b0319166001600160601b0383161790558754909150614b989086906001600160a01b0316866064613c5c565b935050505b6000826001600160601b0316118015614bbf575082546001600160601b031615155b15614bd357614bd0838360646147d0565b91505b8454600090614bf3908490600160a01b90046001600160601b03166158fe565b86546040519192506000916001600160a01b0390911690600080516020615cf983398151915290614c259085906153eb565b60405180910390a38554614c43906001600160a01b03168583613e31565b8354600185015460028601546000926001600160601b0390811692614c6c92908216911661584a565b614c76919061584a565b8754909150614c92906001600160a01b0316610e1783866158fe565b5050505050919050565b60006064614caa8385615b6e565b610bfd9190615b8d565b816001600160a01b0316836001600160a01b031614158015614cd65750600081115b15610aba576001600160a01b03831615614d52576001600160a01b03831660009081526002602052604081208190614d1190614f4e85614f5a565b91509150846001600160a01b0316600080516020615d998339815191528383604051614d47929190918252602082015260400190565b60405180910390a250505b6001600160a01b03821615610aba576001600160a01b03821660009081526002602052604081208190614d88906150b685614f5a565b91509150836001600160a01b0316600080516020615d9983398151915283836040516118ad929190918252602082015260400190565b6001600160601b038216614dd157505050565b614df6600382614de357614f4e614de7565b6150b65b846001600160601b0316614f5a565b50506000614e03846116bb565b90506001600160a01b03811615611201576001600160a01b03811660009081526002602052604081208190614e529085614e3f57614f4e614e43565b6150b65b876001600160601b0316614f5a565b91509150826001600160a01b0316600080516020615d998339815191528383604051614e88929190918252602082015260400190565b60405180910390a2505050505050565b6040516001600160a01b03808516602483015283166044820152606481018290526112019085906323b872dd60e01b906084015b60408051601f198184030181529190526020810180516001600160e01b03166001600160e01b0319909316929092179091526150c2565b6000614f126002848418615b8d565b610bfd90848416615926565b6040516001600160a01b038316602482015260448101829052610aba90849063a9059cbb60e01b90606401614ecc565b6000610bfd8284615ae3565b825460009081908015614f7b57614f7686612951600184615ae3565b614f7e565b60005b6001600160601b03169250614f9783858763ffffffff16565b91508015615057576000614fc087614fb0600185615ae3565b81548110613b8e57613b8e615afa565b9050438163ffffffff16141561505557614ff981614fdd856142c2565b6001600160601b031660609190911b63ffffffff60601b161790565b87615005600185615ae3565b8154811061501557615015615afa565b90600052602060002090600291828204019190066010026101000a8154816001600160801b0302191690836001600160801b0316021790555050506150ae565b505b8561506d6150644361432e565b614fdd856142c2565b81546001818101845560009384526020909320600282040180546001600160801b03938416601093909516929092026101000a938402929093021916179055505b935093915050565b6000610bfd8284615926565b6000615117826040518060400160405280602081526020017f5361666545524332303a206c6f772d6c6576656c2063616c6c206661696c6564815250856001600160a01b03166151949092919063ffffffff16565b805190915015610aba57808060200190518101906151359190615c3b565b610aba5760405162461bcd60e51b815260206004820152602a60248201527f5361666545524332303a204552433230206f7065726174696f6e20646964206e6044820152691bdd081cdd58d8d9595960b21b60648201526084016108d5565b60606127098484600085856151a8856139ce565b6151f45760405162461bcd60e51b815260206004820152601d60248201527f416464726573733a2063616c6c20746f206e6f6e2d636f6e747261637400000060448201526064016108d5565b600080866001600160a01b031685876040516152109190615c89565b60006040518083038185875af1925050503d806000811461524d576040519150601f19603f3d011682016040523d82523d6000602084013e615252565b606091505b509150915061526282828661526d565b979650505050505050565b6060831561527c575081612995565b82511561528c5782518084602001fd5b8160405162461bcd60e51b81526004016108d59190615ca5565b5080546000825590600052602060002090810190610fe691905b8082111561432a57600081556001016152c0565b6001600160a01b0381168114610fe657600080fd5b80356152f4816152d4565b919050565b60006020828403121561530b57600080fd5b8135612995816152d4565b634e487b7160e01b600052602160045260246000fd5b604081016004841061534e57634e487b7160e01b600052602160045260246000fd5b9281526001600160a01b039190911660209091015290565b6000806040838503121561537957600080fd5b8235615384816152d4565b91506020830135615394816152d4565b809150509250929050565b80356001600160601b03811681146152f457600080fd5b600080604083850312156153c957600080fd5b82356153d4816152d4565b91506153e26020840161539f565b90509250929050565b6001600160601b0391909116815260200190565b6000806040838503121561541257600080fd5b823561541d816152d4565b946020939093013593505050565b60006020828403121561543d57600080fd5b610bfd8261539f565b6001600160a01b0391909116815260200190565b6000806000806080858703121561547057600080fd5b843561547b816152d4565b9350602085013561548b816152d4565b9250604085013561549b816152d4565b91506154a96060860161539f565b905092959194509250565b6000806000606084860312156154c957600080fd5b83356154d4816152d4565b925060208401356154e4816152d4565b91506154f26040850161539f565b90509250925092565b6000806040838503121561550e57600080fd5b8235615519816152d4565b915060208301356003811061539457600080fd5b6000806040838503121561554057600080fd5b61541d8361539f565b60008060006060848603121561555e57600080fd5b8335615569816152d4565b92506020840135615579816152d4565b91506040840135615589816152d4565b809150509250925092565b634e487b7160e01b600052604160045260246000fd5b600082601f8301126155bb57600080fd5b813560206001600160401b03808311156155d7576155d7615594565b8260051b604051601f19603f830116810181811084821117156155fc576155fc615594565b60405293845285810183019383810192508785111561561a57600080fd5b83870191505b8482101561526257615631826152e9565b83529183019190830190615620565b6000806000806080858703121561565657600080fd5b61565f8561539f565b9350602085013592506040850135615676816152d4565b915060608501356001600160401b0381111561569157600080fd5b61569d878288016155aa565b91505092959194509250565b6000602082840312156156bb57600080fd5b5035919050565b600080604083850312156156d557600080fd5b6156de8361539f565b915060208301356001600160401b038111156156f957600080fd5b615705858286016155aa565b9150509250929050565b6000806040838503121561572257600080fd5b823561572d816152d4565b9150602083013563ffffffff8116811461539457600080fd5b6001600160a01b039290921682526001600160601b0316602082015260400190565b6020808252601c908201527b43616c6c6572206973206e6f742074686520676f7665726e616e636560201b604082015260600190565b6020808252601b908201527a105c1c1b1a58d85d1a5bdb881a5cc81b9bdd08185c1c1c9bdd9959602a1b604082015260600190565b60208082526011908201527004e6f7468696e6720746f20746f702d757607c1b604082015260600190565b6020808252601c908201527b14185c985b595d195c9cc81b5d5cdd081899481cdc1958da599a595960221b604082015260600190565b634e487b7160e01b600052601160045260246000fd5b60006001600160601b0382811684821680830382111561586c5761586c615834565b01949350505050565b60208082526010908201526f09cdee8d0d2dcce40e8de40e6d8c2e6d60831b604082015260600190565b6000806000606084860312156158b457600080fd5b8351925060208401519150604084015190509250925092565b6020808252601790820152765468657265206973206e6f2064697363726570616e637960481b604082015260600190565b60006001600160601b038381169083168181101561591e5761591e615834565b039392505050565b6000821982111561593957615939615834565b500190565b6020808252601590820152742737ba1037bbb732b91037b910383937bb34b232b960591b604082015260600190565b6020808252601e908201527f43616e277420756e7374616b65206561726c696572207468616e203234680000604082015260600190565b6020808252601a908201527950726f766964657220697320616c726561647920696e2075736560301b604082015260600190565b6020808252600f908201526e4e6f7468696e6720746f2073796e6360881b604082015260600190565b600060208284031215615a1357600080fd5b8151612995816152d4565b6001600160a01b0393841681529190921660208201526001600160601b03909116604082015260600190565b602080825260139082015272546f6f206d75636820746f20756e7374616b6560681b604082015260600190565b6020808252600e908201526d2737ba1030baba3437b934bd32b960911b604082015260600190565b6001600160601b0392831681529116602082015260400190565b6001600160a01b039390931683526001600160601b03918216602084015216604082015260600190565b600082821015615af557615af5615834565b500390565b634e487b7160e01b600052603260045260246000fd5b6000600019821415615b2457615b24615834565b5060010190565b600060208284031215615b3d57600080fd5b5051919050565b634e487b7160e01b600052601260045260246000fd5b600082615b6957615b69615b44565b500690565b6000816000190483118215151615615b8857615b88615834565b500290565b600082615b9c57615b9c615b44565b500490565b84815260208082018590526001600160a01b038481166040840152608060608401819052845190840181905260009285810192909160a0860190855b81811015615bfb578551841683529484019491840191600101615bdd565b50909a9950505050505050505050565b6001600160a01b0392831681529116602082015260400190565b634e487b7160e01b600052603160045260246000fd5b600060208284031215615c4d57600080fd5b8151801515811461299557600080fd5b60005b83811015615c78578181015183820152602001615c60565b838111156112015750506000910152565b60008251615c9b818460208701615c5d565b9190910192915050565b6020815260008251806020840152615cc4816040850160208701615c5d565b601f01601f1916919091016040019291505056fe96a3c8e9780312d2e82e746b65a21aaca458dd91c375fea6066416ef241e87cbfab4356687062505cc650292203fc214dc8cb4b8bd603e53699e3297186e8dd6dfabb38007f28b342b8f536c8c832f746c2a53627133be65453ac0b98968f40e1221739f34decc066e1d68b15c5fc76b65e7ebe2f08c9f38b3ea3092f9912353b8f8e488e98410126386f575c0e233d2effb198a4e68af68ab1de9c2e542ae82e5beba097f34db5d25b3e8383f0c9ba0b9fe180a3a8d2e761c11207221386dfddec2bacdd2f05b59de34da9b523dff8be42e5e38e818c82fdb0bae774387a724a26469706673582212207e76dbb7d922962b557e8603e237a7a6a3378143612fc8f20fd48440497014ab64736f6c63430008090033",
  "devdoc": {
    "details": "TokenStaking is upgradeable, using OpenZeppelin's Upgradeability      framework. As such, it is required to satisfy OZ's guidelines, like      restrictions on constructors, immutable variables, base contracts and      libraries. See https://docs.openzeppelin.com/upgrades-plugins/1.x/writing-upgradeable",
    "kind": "dev",
    "methods": {
      "constructor": {
        "custom:oz-upgrades-unsafe-allow": "constructor",
        "params": {
          "_keepStake": "Address of Keep contract with grant owners",
          "_keepStakingContract": "Address of Keep staking contract",
          "_keepVendingMachine": "Address of Keep vending machine",
          "_nucypherStakingContract": "Address of NuCypher staking contract",
          "_nucypherVendingMachine": "Address of NuCypher vending machine",
          "_token": "Address of T token contract"
        }
      },
      "getMinStaked(address,uint8)": {
        "details": "For example, suppose the given staking provider has 10 T, 20 T worth      of KEEP, and 30 T worth of NU all staked, and the maximum      application authorization is 40 T, then `getMinStaked` for      that staking provider returns:          * 0 T if KEEP stake type specified i.e.            min = 40 T max - (10 T + 30 T worth of NU) = 0 T          * 10 T if NU stake type specified i.e.            min = 40 T max - (10 T + 20 T worth of KEEP) = 10 T          * 0 T if T stake type specified i.e.            min = 40 T max - (20 T worth of KEEP + 30 T worth of NU) < 0 T      In other words, the minimum stake amount for the specified      stake type is the minimum amount of stake of the given type      needed to satisfy the maximum application authorization given      the staked amounts of the other stake types for that staking      provider."
      },
      "getPastTotalSupply(uint256)": {
        "details": "`blockNumber` must have been already mined",
        "params": {
          "blockNumber": "The block number to get the total supply at"
        }
      },
      "getPastVotes(address,uint256)": {
        "details": "Block number must be a finalized block or else this function will      revert to prevent misinformation.",
        "params": {
          "account": "The address of the account to check",
          "blockNumber": "The block number to get the vote balance at"
        },
        "returns": {
          "_0": "The number of votes the account had as of the given block"
        }
      },
      "getStartStakingTimestamp(address)": {
        "details": "This value is set at most once."
      },
      "getVotes(address)": {
        "params": {
          "account": "The address to get votes balance"
        },
        "returns": {
          "_0": "The number of current votes for `account`"
        }
      },
      "increaseAuthorization(address,address,uint96)": {
        "details": "Calls `authorizationIncreased` callback on the given application to      notify the application about authorization change.      See `IApplication`."
      },
      "notifyNuStakeDiscrepancy(address)": {
        "details": "Real discrepancy between T and Nu is impossible.         This method is a safeguard in case of bugs in NuCypher staking         contract"
      },
      "refreshKeepStakeOwner(address)": {
        "details": "The staking provider in T staking contract is the legacy KEEP      staking contract operator."
      },
      "requestAuthorizationDecrease(address)": {
        "details": "Calls `authorizationDecreaseRequested` callback      for each authorized application. See `IApplication`."
      },
      "requestAuthorizationDecrease(address,address,uint96)": {
        "details": "Calls `authorizationDecreaseRequested` callback on the given      application. See `IApplication`."
      },
      "rolesOf(address)": {
        "returns": {
          "authorizer": "Authorizer address.",
          "beneficiary": "Beneficiary address.",
          "owner": "Stake owner address."
        }
      },
      "seize(uint96,uint256,address,address[])": {
        "details": "This method doesn't emit events for staking providers that are         added to the queue. If necessary  events can be added to the         application level."
      },
      "setMinimumStakeAmount(uint96)": {
        "details": "Staking providers are not required to maintain a minimum T stake      all the time. 24 hours after the delegation, T stake can be reduced      below the minimum stake. The minimum stake in the staking contract      is just to protect against griefing stake operation. Please note      that each application may have its own minimum authorization though      and the authorization can not be higher than the stake."
      },
      "slash(uint96,address[])": {
        "details": "This method doesn't emit events for providers that are added to         the queue. If necessary  events can be added to the application         level."
      },
      "stake(address,address,address,uint96)": {
        "details": "The owner of the delegation needs to have the amount approved to      transfer to the staking contract."
      },
      "stakeKeep(address)": {
        "details": "The staking provider in T staking contract is the legacy KEEP      staking contract operator."
      },
      "stakes(address)": {
        "details": "All values are in T denomination"
      },
      "topUp(address,uint96)": {
        "details": "The sender of this transaction needs to have the amount approved to      transfer to the staking contract."
      },
      "unstakeKeep(address)": {
        "details": "This function (or `unstakeAll`) must be called before         `undelegate`/`undelegateAt` in Keep staking contract. Otherwise         provider can be slashed by `notifyKeepStakeDiscrepancy` method."
      },
      "unstakeNu(address,uint96)": {
        "details": "This function (or `unstakeAll`) must be called before `withdraw`         in NuCypher staking contract. Otherwise NU tokens can't be         unlocked.",
        "params": {
          "amount": "Amount of NU to unstake in T denomination",
          "stakingProvider": "Staking provider address"
        }
      }
    },
    "stateVariables": {
      "keepRatio": {
        "custom:oz-upgrades-unsafe-allow": "state-variable-immutable"
      },
      "keepStake": {
        "custom:oz-upgrades-unsafe-allow": "state-variable-immutable"
      },
      "keepStakingContract": {
        "custom:oz-upgrades-unsafe-allow": "state-variable-immutable"
      },
      "nucypherRatio": {
        "custom:oz-upgrades-unsafe-allow": "state-variable-immutable"
      },
      "nucypherStakingContract": {
        "custom:oz-upgrades-unsafe-allow": "state-variable-immutable"
      },
      "token": {
        "custom:oz-upgrades-unsafe-allow": "state-variable-immutable"
      }
    },
    "version": 1
  },
  "userdoc": {
    "events": {
      "DelegateChanged(address,address,address)": {
        "notice": "Emitted when an account changes their delegate."
      },
      "DelegateVotesChanged(address,uint256,uint256)": {
        "notice": "Emitted when a balance or delegate change results in changes         to an account's voting power."
      }
    },
    "kind": "user",
    "methods": {
      "approveApplication(address)": {
        "notice": "Allows the Governance to approve the particular application         before individual stake authorizers are able to authorize it."
      },
      "approveAuthorizationDecrease(address)": {
        "notice": "Called by the application at its discretion to approve the         previously requested authorization decrease request. Can only be         called by the application that was previously requested to         decrease the authorization for that staking provider.         Returns resulting authorized amount for the application."
      },
      "authorizedStake(address,address)": {
        "notice": "Returns the authorized stake amount of the staking provider for         the application."
      },
      "delegateVoting(address,address)": {
        "notice": "Delegate voting power from the stake associated to the         `stakingProvider` to a `delegatee` address. Caller must be the         owner of this stake."
      },
      "delegates(address)": {
        "notice": "Get the address `account` is currently delegating to."
      },
      "disableApplication(address)": {
        "notice": "Disables the given application. The disabled application can't         slash stakers. Also stakers can't increase authorization to that         application but can decrease without waiting by calling         `forceDecreaseAuthorization` at any moment. Can be called only         by the governance. The disabled application can't be approved         again. Should be used only in case of an emergency."
      },
      "forceDecreaseAuthorization(address,address)": {
        "notice": "Decreases the authorization for the given `stakingProvider` on         the given disabled `application`, for all authorized amount.         Can be called by anyone."
      },
      "getApplicationsLength()": {
        "notice": "Returns length of application array"
      },
      "getAvailableToAuthorize(address,address)": {
        "notice": "Returns available amount to authorize for the specified         application."
      },
      "getMinStaked(address,uint8)": {
        "notice": "Returns minimum possible stake for T, KEEP or NU in T denomination"
      },
      "getPastTotalSupply(uint256)": {
        "notice": "Retrieve the `totalSupply` at the end of `blockNumber`.         Note, this value is the sum of all balances, but it is NOT the         sum of all the delegated votes!"
      },
      "getPastVotes(address,uint256)": {
        "notice": "Determine the prior number of votes for an account as of         a block number."
      },
      "getSlashingQueueLength()": {
        "notice": "Returns length of slashing queue"
      },
      "getStartStakingTimestamp(address)": {
        "notice": "Returns start staking timestamp."
      },
      "getVotes(address)": {
        "notice": "Gets the current votes balance for `account`."
      },
      "increaseAuthorization(address,address,uint96)": {
        "notice": "Increases the authorization of the given staking provider for         the given application by the given amount. Can only be called by         the given staking providers authorizer."
      },
      "notifyKeepStakeDiscrepancy(address)": {
        "notice": "Notifies about the discrepancy between legacy KEEP active stake         and the amount cached in T staking contract. Slashes the staking         provider in case the amount cached is higher than the actual         active stake amount in KEEP staking contract. Needs to update         authorizations of all affected applications and execute an         involuntary authorization decrease on all affected applications.         Can be called by anyone, notifier receives a reward."
      },
      "notifyNuStakeDiscrepancy(address)": {
        "notice": "Notifies about the discrepancy between legacy NU active stake         and the amount cached in T staking contract. Slashes the         staking provider in case the amount cached is higher than the         actual active stake amount in NU staking contract. Needs to         update authorizations of all affected applications and execute an         involuntary authorization decrease on all affected applications.         Can be called by anyone, notifier receives a reward."
      },
      "numCheckpoints(address)": {
        "notice": "Get number of checkpoints for `account`."
      },
      "pauseApplication(address)": {
        "notice": "Pauses the given applications eligibility to slash stakes.         Besides that stakers can't change authorization to the application.         Can be called only by the Panic Button of the particular         application. The paused application can not slash stakes until         it is approved again by the Governance using `approveApplication`         function. Should be used only in case of an emergency."
      },
      "processSlashing(uint256)": {
        "notice": "Takes the given number of queued slashing operations and         processes them. Receives 5% of the slashed amount.         Executes `involuntaryAuthorizationDecrease` function on each         affected application."
      },
      "pushNotificationReward(uint96)": {
        "notice": "Transfer some amount of T tokens as reward for notifications         of misbehaviour"
      },
      "refreshKeepStakeOwner(address)": {
        "notice": "Refresh Keep stake owner. Can be called only by the old owner         or their staking provider."
      },
      "requestAuthorizationDecrease(address)": {
        "notice": "Requests decrease of all authorizations for the given staking         provider on all applications by all authorized amount.         It may not change the authorized amount immediatelly. When         it happens depends on the application. Can only be called by the         given staking providers authorizer. Overwrites pending         authorization decrease for the given staking provider and         application."
      },
      "requestAuthorizationDecrease(address,address,uint96)": {
        "notice": "Requests decrease of the authorization for the given staking         provider on the given application by the provided amount.         It may not change the authorized amount immediatelly. When         it happens depends on the application. Can only be called by the         given staking providers authorizer. Overwrites pending         authorization decrease for the given staking provider and         application if the application agrees for that. If the         application does not agree for overwriting, the function         reverts."
      },
      "rolesOf(address)": {
        "notice": "Gets the stake owner, the beneficiary and the authorizer         for the specified staking provider address."
      },
      "seize(uint96,uint256,address,address[])": {
        "notice": "Adds staking providers to the slashing queue along with the         amount. The notifier will receive reward per each provider from         notifiers treasury. Can only be called by application         authorized for all staking providers in the array."
      },
      "setAuthorizationCeiling(uint256)": {
        "notice": "Sets the maximum number of applications one staking provider can         have authorized. Used to protect against DoSing slashing queue.         Can only be called by the Governance."
      },
      "setMinimumStakeAmount(uint96)": {
        "notice": "Allows the Governance to set the minimum required stake amount.         This amount is required to protect against griefing the staking         contract and individual applications are allowed to require         higher minimum stakes if necessary."
      },
      "setNotificationReward(uint96)": {
        "notice": "Sets reward in T tokens for notification of misbehaviour         of one staking provider. Can only be called by the governance."
      },
      "setPanicButton(address,address)": {
        "notice": "Sets the Panic Button role for the given application to the         provided address. Can only be called by the Governance. If the         Panic Button for the given application should be disabled, the         role address should be set to 0x0 address."
      },
      "setStakeDiscrepancyPenalty(uint96,uint256)": {
        "notice": "Sets the penalty amount for stake discrepancy and reward         multiplier for reporting it. The penalty is seized from the         delegated stake, and 5% of the penalty, scaled by the         multiplier, is given to the notifier. The rest of the tokens are         burned. Can only be called by the Governance. See `seize` function."
      },
      "slash(uint96,address[])": {
        "notice": "Adds staking providers to the slashing queue along with the         amount that should be slashed from each one of them. Can only be         called by application authorized for all staking providers in         the array."
      },
      "stake(address,address,address,uint96)": {
        "notice": "Creates a delegation with `msg.sender` owner with the given         staking provider, beneficiary, and authorizer. Transfers the         given amount of T to the staking contract."
      },
      "stakeKeep(address)": {
        "notice": "Copies delegation from the legacy KEEP staking contract to T         staking contract. No tokens are transferred. Caches the active         stake amount from KEEP staking contract. Can be called by         anyone."
      },
      "stakeNu(address,address,address)": {
        "notice": "Copies delegation from the legacy NU staking contract to T         staking contract, additionally appointing beneficiary and         authorizer roles. Caches the amount staked in NU staking         contract. Can be called only by the original delegation owner."
      },
      "stakedNu(address)": {
        "notice": "Returns staked amount of NU for the specified staking provider."
      },
      "stakes(address)": {
        "notice": "Returns staked amount of T, Keep and Nu for the specified         staking provider."
      },
      "topUp(address,uint96)": {
        "notice": "Increases the amount of the stake for the given staking provider."
      },
      "topUpKeep(address)": {
        "notice": "Propagates information about stake top-up from the legacy KEEP         staking contract to T staking contract. Can be called only by         the owner or the staking provider."
      },
      "topUpNu(address)": {
        "notice": "Propagates information about stake top-up from the legacy NU         staking contract to T staking contract. Can be called only by         the owner or the staking provider."
      },
      "transferGovernance(address)": {
        "notice": "Transfers ownership of the contract to `newGuvnor`."
      },
      "unstakeAll(address)": {
        "notice": "Sets cached legacy stake amount to 0, sets the liquid T stake         amount to 0 and withdraws all liquid T from the stake to the         owner. Reverts if there is at least one non-zero authorization.         Can be called only by the delegation owner or the staking         provider. Can only be called when 24h passed since the stake         has been delegated."
      },
      "unstakeKeep(address)": {
        "notice": "Sets the legacy KEEP staking contract active stake amount cached         in T staking contract to 0. Reverts if the amount of liquid T         staked in T staking contract is lower than the highest         application authorization. This function allows to unstake from         KEEP staking contract and still being able to operate in T         network and earning rewards based on the liquid T staked. Can be         called only by the delegation owner or the staking provider.         Can only be called when 24h passed since the stake has been         delegated."
      },
      "unstakeNu(address,uint96)": {
        "notice": "Reduces cached legacy NU stake amount by the provided amount.         Reverts if there is at least one authorization higher than the         sum of remaining legacy NU stake and liquid T stake for that         staking provider or if the untaked amount is higher than the         cached legacy stake amount. If succeeded, the legacy NU stake         can be partially or fully undelegated on the legacy staking         contract. This function allows to unstake from NU staking         contract and still being able to operate in T network and         earning rewards based on the liquid T staked. Can be called only         by the delegation owner or the staking provider. Can only be         called when 24h passed since the stake has been delegated."
      },
      "unstakeT(address,uint96)": {
        "notice": "Reduces the liquid T stake amount by the provided amount and         withdraws T to the owner. Reverts if there is at least one         authorization higher than the sum of the legacy stake and         remaining liquid T stake or if the unstake amount is higher than         the liquid T stake amount. Can be called only by the owner or         the staking provider. Can only be called when 24h passed since         the stake has been delegated."
      },
      "withdrawNotificationReward(address,uint96)": {
        "notice": "Withdraw some amount of T tokens from notifiers treasury.         Can only be called by the governance."
      }
    },
    "notice": "TokenStaking is the main staking contract of the Threshold Network.         Apart from the basic usage of enabling T stakes, it also acts as a         sort of \"meta-staking\" contract, accepting existing legacy NU/KEEP         stakes. Additionally, it serves as application manager for the apps         that run on the Threshold Network. Note that legacy NU/KEEP staking         contracts see TokenStaking as an application (e.g., slashing is         requested by TokenStaking and performed by the legacy contracts).",
    "version": 1
  },
  "storageLayout": {
    "storage": [
      {
        "astId": 6,
        "contract": "contracts/staking/TokenStaking.sol:TokenStaking",
        "label": "_initialized",
        "offset": 0,
        "slot": "0",
        "type": "t_bool"
      },
      {
        "astId": 9,
        "contract": "contracts/staking/TokenStaking.sol:TokenStaking",
        "label": "_initializing",
        "offset": 1,
        "slot": "0",
        "type": "t_bool"
      },
      {
        "astId": 10141,
        "contract": "contracts/staking/TokenStaking.sol:TokenStaking",
        "label": "_delegates",
        "offset": 0,
        "slot": "1",
        "type": "t_mapping(t_address,t_address)"
      },
      {
        "astId": 10146,
        "contract": "contracts/staking/TokenStaking.sol:TokenStaking",
        "label": "_checkpoints",
        "offset": 0,
        "slot": "2",
        "type": "t_mapping(t_address,t_array(t_uint128)dyn_storage)"
      },
      {
        "astId": 10149,
        "contract": "contracts/staking/TokenStaking.sol:TokenStaking",
        "label": "_totalSupplyCheckpoints",
        "offset": 0,
        "slot": "3",
        "type": "t_array(t_uint128)dyn_storage"
      },
      {
        "astId": 10153,
        "contract": "contracts/staking/TokenStaking.sol:TokenStaking",
        "label": "__gap",
        "offset": 0,
        "slot": "4",
        "type": "t_array(t_uint256)47_storage"
      },
      {
        "astId": 12878,
        "contract": "contracts/staking/TokenStaking.sol:TokenStaking",
        "label": "governance",
        "offset": 0,
        "slot": "51",
        "type": "t_address"
      },
      {
        "astId": 12880,
        "contract": "contracts/staking/TokenStaking.sol:TokenStaking",
        "label": "minTStakeAmount",
        "offset": 20,
        "slot": "51",
        "type": "t_uint96"
      },
      {
        "astId": 12882,
        "contract": "contracts/staking/TokenStaking.sol:TokenStaking",
        "label": "authorizationCeiling",
        "offset": 0,
        "slot": "52",
        "type": "t_uint256"
      },
      {
        "astId": 12884,
        "contract": "contracts/staking/TokenStaking.sol:TokenStaking",
        "label": "stakeDiscrepancyPenalty",
        "offset": 0,
        "slot": "53",
        "type": "t_uint96"
      },
      {
        "astId": 12886,
        "contract": "contracts/staking/TokenStaking.sol:TokenStaking",
        "label": "stakeDiscrepancyRewardMultiplier",
        "offset": 0,
        "slot": "54",
        "type": "t_uint256"
      },
      {
        "astId": 12888,
        "contract": "contracts/staking/TokenStaking.sol:TokenStaking",
        "label": "notifiersTreasury",
        "offset": 0,
        "slot": "55",
        "type": "t_uint256"
      },
      {
        "astId": 12890,
        "contract": "contracts/staking/TokenStaking.sol:TokenStaking",
        "label": "notificationReward",
        "offset": 0,
        "slot": "56",
        "type": "t_uint256"
      },
      {
        "astId": 12895,
        "contract": "contracts/staking/TokenStaking.sol:TokenStaking",
        "label": "stakingProviders",
        "offset": 0,
        "slot": "57",
        "type": "t_mapping(t_address,t_struct(StakingProviderInfo)12821_storage)"
      },
      {
        "astId": 12900,
        "contract": "contracts/staking/TokenStaking.sol:TokenStaking",
        "label": "applicationInfo",
        "offset": 0,
        "slot": "58",
        "type": "t_mapping(t_address,t_struct(ApplicationInfo)12832_storage)"
      },
      {
        "astId": 12903,
        "contract": "contracts/staking/TokenStaking.sol:TokenStaking",
        "label": "applications",
        "offset": 0,
        "slot": "59",
        "type": "t_array(t_address)dyn_storage"
      },
      {
        "astId": 12907,
        "contract": "contracts/staking/TokenStaking.sol:TokenStaking",
        "label": "slashingQueue",
        "offset": 0,
        "slot": "60",
        "type": "t_array(t_struct(SlashingEvent)12837_storage)dyn_storage"
      },
      {
        "astId": 12909,
        "contract": "contracts/staking/TokenStaking.sol:TokenStaking",
        "label": "slashingQueueIndex",
        "offset": 0,
        "slot": "61",
        "type": "t_uint256"
      }
    ],
    "types": {
      "t_address": {
        "encoding": "inplace",
        "label": "address",
        "numberOfBytes": "20"
      },
      "t_address_payable": {
        "encoding": "inplace",
        "label": "address payable",
        "numberOfBytes": "20"
      },
      "t_array(t_address)dyn_storage": {
        "base": "t_address",
        "encoding": "dynamic_array",
        "label": "address[]",
        "numberOfBytes": "32"
      },
      "t_array(t_struct(SlashingEvent)12837_storage)dyn_storage": {
        "base": "t_struct(SlashingEvent)12837_storage",
        "encoding": "dynamic_array",
        "label": "struct TokenStaking.SlashingEvent[]",
        "numberOfBytes": "32"
      },
      "t_array(t_uint128)dyn_storage": {
        "base": "t_uint128",
        "encoding": "dynamic_array",
        "label": "uint128[]",
        "numberOfBytes": "32"
      },
      "t_array(t_uint256)47_storage": {
        "base": "t_uint256",
        "encoding": "inplace",
        "label": "uint256[47]",
        "numberOfBytes": "1504"
      },
      "t_bool": {
        "encoding": "inplace",
        "label": "bool",
        "numberOfBytes": "1"
      },
      "t_enum(ApplicationStatus)12798": {
        "encoding": "inplace",
        "label": "enum TokenStaking.ApplicationStatus",
        "numberOfBytes": "1"
      },
      "t_mapping(t_address,t_address)": {
        "encoding": "mapping",
        "key": "t_address",
        "label": "mapping(address => address)",
        "numberOfBytes": "32",
        "value": "t_address"
      },
      "t_mapping(t_address,t_array(t_uint128)dyn_storage)": {
        "encoding": "mapping",
        "key": "t_address",
        "label": "mapping(address => uint128[])",
        "numberOfBytes": "32",
        "value": "t_array(t_uint128)dyn_storage"
      },
      "t_mapping(t_address,t_struct(AppAuthorization)12826_storage)": {
        "encoding": "mapping",
        "key": "t_address",
        "label": "mapping(address => struct TokenStaking.AppAuthorization)",
        "numberOfBytes": "32",
        "value": "t_struct(AppAuthorization)12826_storage"
      },
      "t_mapping(t_address,t_struct(ApplicationInfo)12832_storage)": {
        "encoding": "mapping",
        "key": "t_address",
        "label": "mapping(address => struct TokenStaking.ApplicationInfo)",
        "numberOfBytes": "32",
        "value": "t_struct(ApplicationInfo)12832_storage"
      },
      "t_mapping(t_address,t_struct(StakingProviderInfo)12821_storage)": {
        "encoding": "mapping",
        "key": "t_address",
        "label": "mapping(address => struct TokenStaking.StakingProviderInfo)",
        "numberOfBytes": "32",
        "value": "t_struct(StakingProviderInfo)12821_storage"
      },
      "t_struct(AppAuthorization)12826_storage": {
        "encoding": "inplace",
        "label": "struct TokenStaking.AppAuthorization",
        "members": [
          {
            "astId": 12823,
            "contract": "contracts/staking/TokenStaking.sol:TokenStaking",
            "label": "authorized",
            "offset": 0,
            "slot": "0",
            "type": "t_uint96"
          },
          {
            "astId": 12825,
            "contract": "contracts/staking/TokenStaking.sol:TokenStaking",
            "label": "deauthorizing",
            "offset": 12,
            "slot": "0",
            "type": "t_uint96"
          }
        ],
        "numberOfBytes": "32"
      },
      "t_struct(ApplicationInfo)12832_storage": {
        "encoding": "inplace",
        "label": "struct TokenStaking.ApplicationInfo",
        "members": [
          {
            "astId": 12829,
            "contract": "contracts/staking/TokenStaking.sol:TokenStaking",
            "label": "status",
            "offset": 0,
            "slot": "0",
            "type": "t_enum(ApplicationStatus)12798"
          },
          {
            "astId": 12831,
            "contract": "contracts/staking/TokenStaking.sol:TokenStaking",
            "label": "panicButton",
            "offset": 1,
            "slot": "0",
            "type": "t_address"
          }
        ],
        "numberOfBytes": "32"
      },
      "t_struct(SlashingEvent)12837_storage": {
        "encoding": "inplace",
        "label": "struct TokenStaking.SlashingEvent",
        "members": [
          {
            "astId": 12834,
            "contract": "contracts/staking/TokenStaking.sol:TokenStaking",
            "label": "stakingProvider",
            "offset": 0,
            "slot": "0",
            "type": "t_address"
          },
          {
            "astId": 12836,
            "contract": "contracts/staking/TokenStaking.sol:TokenStaking",
            "label": "amount",
            "offset": 20,
            "slot": "0",
            "type": "t_uint96"
          }
        ],
        "numberOfBytes": "32"
      },
      "t_struct(StakingProviderInfo)12821_storage": {
        "encoding": "inplace",
        "label": "struct TokenStaking.StakingProviderInfo",
        "members": [
          {
            "astId": 12800,
            "contract": "contracts/staking/TokenStaking.sol:TokenStaking",
            "label": "nuInTStake",
            "offset": 0,
            "slot": "0",
            "type": "t_uint96"
          },
          {
            "astId": 12802,
            "contract": "contracts/staking/TokenStaking.sol:TokenStaking",
            "label": "owner",
            "offset": 12,
            "slot": "0",
            "type": "t_address"
          },
          {
            "astId": 12804,
            "contract": "contracts/staking/TokenStaking.sol:TokenStaking",
            "label": "keepInTStake",
            "offset": 0,
            "slot": "1",
            "type": "t_uint96"
          },
          {
            "astId": 12806,
            "contract": "contracts/staking/TokenStaking.sol:TokenStaking",
            "label": "beneficiary",
            "offset": 12,
            "slot": "1",
            "type": "t_address_payable"
          },
          {
            "astId": 12808,
            "contract": "contracts/staking/TokenStaking.sol:TokenStaking",
            "label": "tStake",
            "offset": 0,
            "slot": "2",
            "type": "t_uint96"
          },
          {
            "astId": 12810,
            "contract": "contracts/staking/TokenStaking.sol:TokenStaking",
            "label": "authorizer",
            "offset": 12,
            "slot": "2",
            "type": "t_address"
          },
          {
            "astId": 12815,
            "contract": "contracts/staking/TokenStaking.sol:TokenStaking",
            "label": "authorizations",
            "offset": 0,
            "slot": "3",
            "type": "t_mapping(t_address,t_struct(AppAuthorization)12826_storage)"
          },
          {
            "astId": 12818,
            "contract": "contracts/staking/TokenStaking.sol:TokenStaking",
            "label": "authorizedApplications",
            "offset": 0,
            "slot": "4",
            "type": "t_array(t_address)dyn_storage"
          },
          {
            "astId": 12820,
            "contract": "contracts/staking/TokenStaking.sol:TokenStaking",
            "label": "startStakingTimestamp",
            "offset": 0,
            "slot": "5",
            "type": "t_uint256"
          }
        ],
        "numberOfBytes": "192"
      },
      "t_uint128": {
        "encoding": "inplace",
        "label": "uint128",
        "numberOfBytes": "16"
      },
      "t_uint256": {
        "encoding": "inplace",
        "label": "uint256",
        "numberOfBytes": "32"
      },
      "t_uint96": {
        "encoding": "inplace",
        "label": "uint96",
        "numberOfBytes": "12"
      }
    }
  }
}