{
  "address": "0x51964fe6a6f2CA1b1D3d9211aa1a421F1E705504",
  "abi": [
    {
      "inputs": [
        {
          "internalType": "contract IERC20",
          "name": "_tbtcV1",
          "type": "address"
        },
        {
          "internalType": "contract TBTC",
          "name": "_tbtcV2",
          "type": "address"
        },
        {
          "internalType": "uint256",
          "name": "_unmintFee",
          "type": "uint256"
        }
      ],
      "stateMutability": "nonpayable",
      "type": "constructor"
    },
    {
      "anonymous": false,
      "inputs": [
        {
          "indexed": true,
          "internalType": "address",
          "name": "recipient",
          "type": "address"
        },
        {
          "indexed": false,
          "internalType": "uint256",
          "name": "amount",
          "type": "uint256"
        }
      ],
      "name": "Minted",
      "type": "event"
    },
    {
      "anonymous": false,
      "inputs": [
        {
          "indexed": true,
          "internalType": "address",
          "name": "previousOwner",
          "type": "address"
        },
        {
          "indexed": true,
          "internalType": "address",
          "name": "newOwner",
          "type": "address"
        }
      ],
      "name": "OwnershipTransferred",
      "type": "event"
    },
    {
      "anonymous": false,
      "inputs": [
        {
          "indexed": false,
          "internalType": "uint256",
          "name": "newUnmintFee",
          "type": "uint256"
        },
        {
          "indexed": false,
          "internalType": "uint256",
          "name": "timestamp",
          "type": "uint256"
        }
      ],
      "name": "UnmintFeeUpdateInitiated",
      "type": "event"
    },
    {
      "anonymous": false,
      "inputs": [
        {
          "indexed": false,
          "internalType": "uint256",
          "name": "newUnmintFee",
          "type": "uint256"
        }
      ],
      "name": "UnmintFeeUpdated",
      "type": "event"
    },
    {
      "anonymous": false,
      "inputs": [
        {
          "indexed": true,
          "internalType": "address",
          "name": "recipient",
          "type": "address"
        },
        {
          "indexed": false,
          "internalType": "uint256",
          "name": "amount",
          "type": "uint256"
        },
        {
          "indexed": false,
          "internalType": "uint256",
          "name": "fee",
          "type": "uint256"
        }
      ],
      "name": "Unminted",
      "type": "event"
    },
    {
      "anonymous": false,
      "inputs": [
        {
          "indexed": false,
          "internalType": "address",
          "name": "newVendingMachine",
          "type": "address"
        },
        {
          "indexed": false,
          "internalType": "uint256",
          "name": "timestamp",
          "type": "uint256"
        }
      ],
      "name": "VendingMachineUpgradeInitiated",
      "type": "event"
    },
    {
      "anonymous": false,
      "inputs": [
        {
          "indexed": false,
          "internalType": "address",
          "name": "newVendingMachine",
          "type": "address"
        }
      ],
      "name": "VendingMachineUpgraded",
      "type": "event"
    },
    {
      "inputs": [],
      "name": "FLOATING_POINT_DIVISOR",
      "outputs": [
        {
          "internalType": "uint256",
          "name": "",
          "type": "uint256"
        }
      ],
      "stateMutability": "view",
      "type": "function"
    },
    {
      "inputs": [],
      "name": "GOVERNANCE_DELAY",
      "outputs": [
        {
          "internalType": "uint256",
          "name": "",
          "type": "uint256"
        }
      ],
      "stateMutability": "view",
      "type": "function"
    },
    {
      "inputs": [],
      "name": "finalizeUnmintFeeUpdate",
      "outputs": [],
      "stateMutability": "nonpayable",
      "type": "function"
    },
    {
      "inputs": [],
      "name": "finalizeVendingMachineUpgrade",
      "outputs": [],
      "stateMutability": "nonpayable",
      "type": "function"
    },
    {
      "inputs": [],
      "name": "getRemainingUnmintFeeUpdateTime",
      "outputs": [
        {
          "internalType": "uint256",
          "name": "",
          "type": "uint256"
        }
      ],
      "stateMutability": "view",
      "type": "function"
    },
    {
      "inputs": [],
      "name": "getRemainingVendingMachineUpgradeTime",
      "outputs": [
        {
          "internalType": "uint256",
          "name": "",
          "type": "uint256"
        }
      ],
      "stateMutability": "view",
      "type": "function"
    },
    {
      "inputs": [
        {
          "internalType": "uint256",
          "name": "_newUnmintFee",
          "type": "uint256"
        }
      ],
      "name": "initiateUnmintFeeUpdate",
      "outputs": [],
      "stateMutability": "nonpayable",
      "type": "function"
    },
    {
      "inputs": [
        {
          "internalType": "address",
          "name": "_newVendingMachine",
          "type": "address"
        }
      ],
      "name": "initiateVendingMachineUpgrade",
      "outputs": [],
      "stateMutability": "nonpayable",
      "type": "function"
    },
    {
      "inputs": [
        {
          "internalType": "uint256",
          "name": "amount",
          "type": "uint256"
        }
      ],
      "name": "mint",
      "outputs": [],
      "stateMutability": "nonpayable",
      "type": "function"
    },
    {
      "inputs": [],
      "name": "newUnmintFee",
      "outputs": [
        {
          "internalType": "uint256",
          "name": "",
          "type": "uint256"
        }
      ],
      "stateMutability": "view",
      "type": "function"
    },
    {
      "inputs": [],
      "name": "newVendingMachine",
      "outputs": [
        {
          "internalType": "address",
          "name": "",
          "type": "address"
        }
      ],
      "stateMutability": "view",
      "type": "function"
    },
    {
      "inputs": [],
      "name": "owner",
      "outputs": [
        {
          "internalType": "address",
          "name": "",
          "type": "address"
        }
      ],
      "stateMutability": "view",
      "type": "function"
    },
    {
      "inputs": [
        {
          "internalType": "address",
          "name": "from",
          "type": "address"
        },
        {
          "internalType": "uint256",
          "name": "amount",
          "type": "uint256"
        },
        {
          "internalType": "address",
          "name": "token",
          "type": "address"
        },
        {
          "internalType": "bytes",
          "name": "",
          "type": "bytes"
        }
      ],
      "name": "receiveApproval",
      "outputs": [],
      "stateMutability": "nonpayable",
      "type": "function"
    },
    {
      "inputs": [],
      "name": "renounceOwnership",
      "outputs": [],
      "stateMutability": "nonpayable",
      "type": "function"
    },
    {
      "inputs": [],
      "name": "tbtcV1",
      "outputs": [
        {
          "internalType": "contract IERC20",
          "name": "",
          "type": "address"
        }
      ],
      "stateMutability": "view",
      "type": "function"
    },
    {
      "inputs": [],
      "name": "tbtcV2",
      "outputs": [
        {
          "internalType": "contract TBTC",
          "name": "",
          "type": "address"
        }
      ],
      "stateMutability": "view",
      "type": "function"
    },
    {
      "inputs": [
        {
          "internalType": "address",
          "name": "newOwner",
          "type": "address"
        }
      ],
      "name": "transferOwnership",
      "outputs": [],
      "stateMutability": "nonpayable",
      "type": "function"
    },
    {
      "inputs": [
        {
          "internalType": "address",
          "name": "newInitiator",
          "type": "address"
        }
      ],
      "name": "transferUnmintFeeUpdateInitiatorRole",
      "outputs": [],
      "stateMutability": "nonpayable",
      "type": "function"
    },
    {
      "inputs": [
        {
          "internalType": "address",
          "name": "newInitiator",
          "type": "address"
        }
      ],
      "name": "transferVendingMachineUpgradeInitiatorRole",
      "outputs": [],
      "stateMutability": "nonpayable",
      "type": "function"
    },
    {
      "inputs": [
        {
          "internalType": "uint256",
          "name": "amount",
          "type": "uint256"
        }
      ],
      "name": "unmint",
      "outputs": [],
      "stateMutability": "nonpayable",
      "type": "function"
    },
    {
      "inputs": [],
      "name": "unmintFee",
      "outputs": [
        {
          "internalType": "uint256",
          "name": "",
          "type": "uint256"
        }
      ],
      "stateMutability": "view",
      "type": "function"
    },
    {
      "inputs": [
        {
          "internalType": "uint256",
          "name": "amount",
          "type": "uint256"
        }
      ],
      "name": "unmintFeeFor",
      "outputs": [
        {
          "internalType": "uint256",
          "name": "",
          "type": "uint256"
        }
      ],
      "stateMutability": "view",
      "type": "function"
    },
    {
      "inputs": [],
      "name": "unmintFeeUpdateInitiatedTimestamp",
      "outputs": [
        {
          "internalType": "uint256",
          "name": "",
          "type": "uint256"
        }
      ],
      "stateMutability": "view",
      "type": "function"
    },
    {
      "inputs": [],
      "name": "unmintFeeUpdateInitiator",
      "outputs": [
        {
          "internalType": "address",
          "name": "",
          "type": "address"
        }
      ],
      "stateMutability": "view",
      "type": "function"
    },
    {
      "inputs": [],
      "name": "vendingMachineUpgradeInitiatedTimestamp",
      "outputs": [
        {
          "internalType": "uint256",
          "name": "",
          "type": "uint256"
        }
      ],
      "stateMutability": "view",
      "type": "function"
    },
    {
      "inputs": [],
      "name": "vendingMachineUpgradeInitiator",
      "outputs": [
        {
          "internalType": "address",
          "name": "",
          "type": "address"
        }
      ],
      "stateMutability": "view",
      "type": "function"
    },
    {
      "inputs": [
        {
          "internalType": "address",
          "name": "recipient",
          "type": "address"
        },
        {
          "internalType": "uint256",
          "name": "amount",
          "type": "uint256"
        }
      ],
      "name": "withdrawFees",
      "outputs": [],
      "stateMutability": "nonpayable",
      "type": "function"
    }
  ],
  "transactionHash": "0x40c3d7ab2a90b1f8851cd6cc1f2f798dc36186d7f309daec7f4b8716ac9dcb2a",
  "args": [
    "0x48cE9bEc99C7cc9F26D60F1B3A0dB1d7bA3b0101",
    "0xFA094845D577DEBfAc4AFB432179B2e3f3D84634",
    0
  ],
  "numDeployments": 1,
  "solcInputHash": "1b13bc3b52c878c040492dac63e1533e",
  "bytecode": "0x60c06040523480156200001157600080fd5b50604051620019cb380380620019cb8339810160408190526200003491620000e6565b6200003f336200007d565b6001600160a01b03928316608052911660a05260015560048054336001600160a01b031991821681179092556007805490911690911790556200012e565b600080546001600160a01b038381166001600160a01b0319831681178455604051919092169283917f8be0079c531659141344cd1fd0a4f28419497f9722a3daafe3b4186f6b6457e09190a35050565b6001600160a01b0381168114620000e357600080fd5b50565b600080600060608486031215620000fc57600080fd5b83516200010981620000cd565b60208501519093506200011c81620000cd565b80925050604084015190509250925092565b60805160a051611823620001a8600039600081816102dc015281816107a001528181610893015281816108f001528181610b7201528181610ca701526112d601526000818161024101528181610961015281816109f601528181610a8001528181610d2d01528181610da4015261126f01526118236000f3fe608060405234801561001057600080fd5b50600436106101b95760003560e01c80638da5cb5b116100f9578063b766bd8a11610097578063ea1a4e6811610071578063ea1a4e681461035a578063f257a1a01461036d578063f2fde38b14610380578063fe7294a81461039357600080fd5b8063b766bd8a14610337578063bb81268c1461034a578063c2b4aa751461035257600080fd5b8063a0712d68116100d3578063a0712d68146102fe578063ad3b1b4714610311578063b0b5489514610324578063b29b95ce1461032e57600080fd5b80638da5cb5b146102b35780638f4ffcb1146102c457806395de5a41146102d757600080fd5b80632d42067d116101665780635bf32f52116101405780635bf32f52146102725780636386d0b11461028557806364e779b114610298578063715018a6146102ab57600080fd5b80632d42067d146102295780633678252f1461023c57806351b83ebc1461026357600080fd5b80630c505b7a116101975780630c505b7a1461020d57806320ad25dc14610216578063240b57e81461022057600080fd5b806305e448fc146101be5780630bb037df146101da5780630c05ab39146101e2575b600080fd5b6101c760065481565b6040519081526020015b60405180910390f35b6101c76103a6565b6007546101f5906001600160a01b031681565b6040516001600160a01b0390911681526020016101d1565b6101c760015481565b61021e6103bc565b005b6101c760025481565b61021e6102373660046115d1565b610479565b6101f57f000000000000000000000000000000000000000000000000000000000000000081565b6101c7670de0b6b3a764000081565b61021e6102803660046115ec565b61055c565b61021e6102933660046115d1565b6105f9565b61021e6102a63660046115ec565b610738565b61021e61098e565b6000546001600160a01b03166101f5565b61021e6102d2366004611605565b6109f4565b6101f57f000000000000000000000000000000000000000000000000000000000000000081565b61021e61030c3660046115ec565b610afe565b61021e61031f3660046116a0565b610b0b565b6101c762093a8081565b6101c760035481565b6101c76103453660046115ec565b610b99565b61021e610bc2565b6101c7610de3565b6004546101f5906001600160a01b031681565b61021e61037b3660046115d1565b610df4565b61021e61038e3660046115d1565b610ed7565b6005546101f5906001600160a01b031681565b60006103b760065462093a80610f9f565b905090565b6000546001600160a01b0316331461041b5760405162461bcd60e51b815260206004820181905260248201527f4f776e61626c653a2063616c6c6572206973206e6f7420746865206f776e657260448201526064015b60405180910390fd5b60035461042b8162093a80611021565b7f3fd2a429fdc4324c186eb6c71dc1bf3accae43e10f21367f6d143635dd5ed33c60025460405161045e91815260200190565b60405180910390a15060028054600155600090819055600355565b6004546001600160a01b03163381146104d45760405162461bcd60e51b815260206004820152601860248201527f43616c6c6572206973206e6f7420617574686f72697a656400000000000000006044820152606401610412565b6001600160a01b0382166105395760405162461bcd60e51b815260206004820152602660248201527f4e657720696e69746961746f72206d757374206e6f74206265207a65726f206160448201526564647265737360d01b6064820152608401610412565b50600480546001600160a01b0319166001600160a01b0392909216919091179055565b6004546001600160a01b03163381146105b75760405162461bcd60e51b815260206004820152601860248201527f43616c6c6572206973206e6f7420617574686f72697a656400000000000000006044820152606401610412565b604080518381524260208201527f0ddb39c814329b5da82b52fcacf65e4db6a1f64a0db4755282bee877cb97991a910160405180910390a15060025542600355565b6007546001600160a01b03163381146106545760405162461bcd60e51b815260206004820152601860248201527f43616c6c6572206973206e6f7420617574686f72697a656400000000000000006044820152606401610412565b6001600160a01b0382166106d05760405162461bcd60e51b815260206004820152602960248201527f4e65772056656e64696e674d616368696e652063616e6e6f74206265207a657260448201527f6f206164647265737300000000000000000000000000000000000000000000006064820152608401610412565b604080516001600160a01b03841681524260208201527f424e3c8894757dd6fd019d0d8065b19c7e49af137aeb89a275ed3d2435025a96910160405180910390a150600580546001600160a01b0319166001600160a01b039290921691909117905542600655565b600061074382610b99565b604080518481526020810183905291925033917fe8a2f49c528033a686bb566d35ac82ca6fd93449bdd9f5d5b36c2f1aa68214b3910160405180910390a261078b81836116e0565b6040516370a0823160e01b81523360048201527f00000000000000000000000000000000000000000000000000000000000000006001600160a01b0316906370a0823190602401602060405180830381865afa1580156107ef573d6000803e3d6000fd5b505050506040513d601f19601f8201168201806040525081019061081391906116f3565b10156108865760405162461bcd60e51b8152602060048201526024808201527f416d6f756e74202b20666565206578636565647320544254432076322062616c60448201527f616e6365000000000000000000000000000000000000000000000000000000006064820152608401610412565b6108bb6001600160a01b037f0000000000000000000000000000000000000000000000000000000000000000163330846110ca565b6040517f79cc6790000000000000000000000000000000000000000000000000000000008152336004820152602481018390527f00000000000000000000000000000000000000000000000000000000000000006001600160a01b0316906379cc679090604401600060405180830381600087803b15801561093c57600080fd5b505af1158015610950573d6000803e3d6000fd5b5061098a9250506001600160a01b037f00000000000000000000000000000000000000000000000000000000000000001690503384611181565b5050565b6000546001600160a01b031633146109e85760405162461bcd60e51b815260206004820181905260248201527f4f776e61626c653a2063616c6c6572206973206e6f7420746865206f776e65726044820152606401610412565b6109f260006111cf565b565b7f00000000000000000000000000000000000000000000000000000000000000006001600160a01b0316836001600160a01b031614610a755760405162461bcd60e51b815260206004820152601460248201527f546f6b656e206973206e6f7420544254432076310000000000000000000000006044820152606401610412565b336001600160a01b037f00000000000000000000000000000000000000000000000000000000000000001614610aed5760405162461bcd60e51b815260206004820152601b60248201527f4f6e6c7920544254432076312063616c6c657220616c6c6f77656400000000006044820152606401610412565b610af7858561121f565b5050505050565b610b08338261121f565b50565b6000546001600160a01b03163314610b655760405162461bcd60e51b815260206004820181905260248201527f4f776e61626c653a2063616c6c6572206973206e6f7420746865206f776e65726044820152606401610412565b61098a6001600160a01b037f0000000000000000000000000000000000000000000000000000000000000000168383611181565b6000670de0b6b3a764000060015483610bb2919061170c565b610bbc9190611723565b92915050565b6000546001600160a01b03163314610c1c5760405162461bcd60e51b815260206004820181905260248201527f4f776e61626c653a2063616c6c6572206973206e6f7420746865206f776e65726044820152606401610412565b600654610c2c8162093a80611021565b6005546040516001600160a01b0390911681527f99610bc40a14194a7a819ffeded94200b49e68ba00bc3a3ab89625c0972217ff9060200160405180910390a16005546040517ff2fde38b0000000000000000000000000000000000000000000000000000000081526001600160a01b0391821660048201527f00000000000000000000000000000000000000000000000000000000000000009091169063f2fde38b90602401600060405180830381600087803b158015610ced57600080fd5b505af1158015610d01573d6000803e3d6000fd5b50506005546040516370a0823160e01b8152306004820152610dcb93506001600160a01b0391821692507f0000000000000000000000000000000000000000000000000000000000000000909116906370a0823190602401602060405180830381865afa158015610d76573d6000803e3d6000fd5b505050506040513d601f19601f82011682018060405250810190610d9a91906116f3565b6001600160a01b037f0000000000000000000000000000000000000000000000000000000000000000169190611181565b50600580546001600160a01b03191690556000600655565b60006103b760035462093a80610f9f565b6007546001600160a01b0316338114610e4f5760405162461bcd60e51b815260206004820152601860248201527f43616c6c6572206973206e6f7420617574686f72697a656400000000000000006044820152606401610412565b6001600160a01b038216610eb45760405162461bcd60e51b815260206004820152602660248201527f4e657720696e69746961746f72206d757374206e6f74206265207a65726f206160448201526564647265737360d01b6064820152608401610412565b50600780546001600160a01b0319166001600160a01b0392909216919091179055565b6000546001600160a01b03163314610f315760405162461bcd60e51b815260206004820181905260248201527f4f776e61626c653a2063616c6c6572206973206e6f7420746865206f776e65726044820152606401610412565b6001600160a01b038116610f965760405162461bcd60e51b815260206004820152602660248201527f4f776e61626c653a206e6577206f776e657220697320746865207a65726f206160448201526564647265737360d01b6064820152608401610412565b610b08816111cf565b6000808311610ff05760405162461bcd60e51b815260206004820152601460248201527f4368616e6765206e6f7420696e697469617465640000000000000000000000006044820152606401610412565b6000610ffc8442611745565b905082811061100f576000915050610bbc565b6110198184611745565b949350505050565b600082116110715760405162461bcd60e51b815260206004820152601460248201527f4368616e6765206e6f7420696e697469617465640000000000000000000000006044820152606401610412565b8061107c8342611745565b101561098a5760405162461bcd60e51b815260206004820181905260248201527f476f7665726e616e63652064656c617920686173206e6f7420656c61707365646044820152606401610412565b6040516001600160a01b038085166024830152831660448201526064810182905261117b9085907f23b872dd00000000000000000000000000000000000000000000000000000000906084015b60408051601f198184030181529190526020810180517bffffffffffffffffffffffffffffffffffffffffffffffffffffffff167fffffffff0000000000000000000000000000000000000000000000000000000090931692909217909152611336565b50505050565b6040516001600160a01b0383166024820152604481018290526111ca9084907fa9059cbb0000000000000000000000000000000000000000000000000000000090606401611117565b505050565b600080546001600160a01b038381166001600160a01b0319831681178455604051919092169283917f8be0079c531659141344cd1fd0a4f28419497f9722a3daafe3b4186f6b6457e09190a35050565b816001600160a01b03167f30385c845b448a36257a6a1716e6ad2e1bc2cbe333cde1e69fe849ad6511adfe8260405161125a91815260200190565b60405180910390a26112976001600160a01b037f0000000000000000000000000000000000000000000000000000000000000000168330846110ca565b6040517f40c10f190000000000000000000000000000000000000000000000000000000081526001600160a01b038381166004830152602482018390527f000000000000000000000000000000000000000000000000000000000000000016906340c10f1990604401600060405180830381600087803b15801561131a57600080fd5b505af115801561132e573d6000803e3d6000fd5b505050505050565b600061138b826040518060400160405280602081526020017f5361666545524332303a206c6f772d6c6576656c2063616c6c206661696c6564815250856001600160a01b031661141b9092919063ffffffff16565b8051909150156111ca57808060200190518101906113a99190611758565b6111ca5760405162461bcd60e51b815260206004820152602a60248201527f5361666545524332303a204552433230206f7065726174696f6e20646964206e60448201527f6f742073756363656564000000000000000000000000000000000000000000006064820152608401610412565b606061142a8484600085611434565b90505b9392505050565b6060824710156114ac5760405162461bcd60e51b815260206004820152602660248201527f416464726573733a20696e73756666696369656e742062616c616e636520666f60448201527f722063616c6c00000000000000000000000000000000000000000000000000006064820152608401610412565b6001600160a01b0385163b6115035760405162461bcd60e51b815260206004820152601d60248201527f416464726573733a2063616c6c20746f206e6f6e2d636f6e74726163740000006044820152606401610412565b600080866001600160a01b0316858760405161151f919061179e565b60006040518083038185875af1925050503d806000811461155c576040519150601f19603f3d011682016040523d82523d6000602084013e611561565b606091505b509150915061157182828661157c565b979650505050505050565b6060831561158b57508161142d565b82511561159b5782518084602001fd5b8160405162461bcd60e51b815260040161041291906117ba565b80356001600160a01b03811681146115cc57600080fd5b919050565b6000602082840312156115e357600080fd5b61142d826115b5565b6000602082840312156115fe57600080fd5b5035919050565b60008060008060006080868803121561161d57600080fd5b611626866115b5565b94506020860135935061163b604087016115b5565b9250606086013567ffffffffffffffff8082111561165857600080fd5b818801915088601f83011261166c57600080fd5b81358181111561167b57600080fd5b89602082850101111561168d57600080fd5b9699959850939650602001949392505050565b600080604083850312156116b357600080fd5b6116bc836115b5565b946020939093013593505050565b634e487b7160e01b600052601160045260246000fd5b80820180821115610bbc57610bbc6116ca565b60006020828403121561170557600080fd5b5051919050565b8082028115828204841417610bbc57610bbc6116ca565b60008261174057634e487b7160e01b600052601260045260246000fd5b500490565b81810381811115610bbc57610bbc6116ca565b60006020828403121561176a57600080fd5b8151801515811461142d57600080fd5b60005b8381101561179557818101518382015260200161177d565b50506000910152565b600082516117b081846020870161177a565b9190910192915050565b60208152600082518060208401526117d981604085016020870161177a565b601f01601f1916919091016040019291505056fea26469706673582212208b49f084486b9b0f0ab30b3a59b4bd6122fa8ed8cc20abd0ae929a8890d74e7664736f6c63430008110033",
  "devdoc": {
    "kind": "dev",
    "methods": {
      "initiateUnmintFeeUpdate(uint256)": {
        "params": {
          "_newUnmintFee": "The new unmint fee"
        }
      },
      "initiateVendingMachineUpgrade(address)": {
        "params": {
          "_newVendingMachine": "The new vending machine address"
        }
      },
      "mint(uint256)": {
        "params": {
          "amount": "The amount of TBTC v2 to mint from TBTC v1"
        }
      },
      "owner()": {
        "details": "Returns the address of the current owner."
      },
      "receiveApproval(address,uint256,address,bytes)": {
        "details": "This function is a shortcut for approve + mint. Only TBTC v1      caller is allowed and only TBTC v1 is allowed as a token to      transfer.",
        "params": {
          "amount": "The amount of TBTC v2 to mint from TBTC v1",
          "from": "TBTC v1 token holder minting TBTC v2 tokens",
          "token": "TBTC v1 token address"
        }
      },
      "renounceOwnership()": {
        "details": "Leaves the contract without owner. It will not be possible to call `onlyOwner` functions anymore. Can only be called by the current owner. NOTE: Renouncing ownership will leave the contract without an owner, thereby removing any functionality that is only available to the owner."
      },
      "transferOwnership(address)": {
        "details": "Transfers ownership of the contract to a new account (`newOwner`). Can only be called by the current owner."
      },
      "transferUnmintFeeUpdateInitiatorRole(address)": {
        "params": {
          "newInitiator": "The new unmint fee update initiator"
        }
      },
      "transferVendingMachineUpgradeInitiatorRole(address)": {
        "params": {
          "newInitiator": "The new vending machine upgrade initiator"
        }
      },
      "unmint(uint256)": {
        "params": {
          "amount": "The amount of TBTC v2 to unmint to TBTC v1"
        }
      },
      "withdrawFees(address,uint256)": {
        "params": {
          "amount": "The amount of fees in TBTC v2 to withdraw",
          "recipient": "The address receiving the fees"
        }
      }
    },
    "title": "TBTC v2 Vending Machine",
    "version": 1
  },
  "userdoc": {
    "kind": "user",
    "methods": {
      "FLOATING_POINT_DIVISOR()": {
        "notice": "Divisor for precision purposes. Used to represent fractions         in parameter values."
      },
      "GOVERNANCE_DELAY()": {
        "notice": "The time delay that needs to pass between initializing and         finalizing update of any governable parameter in this contract."
      },
      "finalizeUnmintFeeUpdate()": {
        "notice": "Allows the contract owner to finalize unmint fee update process.         The update process needs to be first initiated with a call to         `initiateUnmintFeeUpdate` and the `GOVERNANCE_DELAY` needs to         pass."
      },
      "finalizeVendingMachineUpgrade()": {
        "notice": "Allows the contract owner to finalize vending machine upgrade         process. The upgrade process needs to be first initiated with a         call to `initiateVendingMachineUpgrade` and the `GOVERNANCE_DELAY`         needs to pass. Once the upgrade is finalized, the new vending         machine will become an owner of TBTC v2 token and all TBTC v1         held by this contract will be transferred to the new vending         machine."
      },
      "getRemainingUnmintFeeUpdateTime()": {
        "notice": "Get the remaining time that needs to pass until unmint fee         update can be finalized by the Governance. If the update has         not been initiated, the function reverts."
      },
      "getRemainingVendingMachineUpgradeTime()": {
        "notice": "Get the remaining time that needs to pass until vending machine         upgrade can be finalized by the Governance. If the upgrade has         not been initiated, the function reverts."
      },
      "initiateUnmintFeeUpdate(uint256)": {
        "notice": "Initiates unmint fee update process. The update process needs to         be finalized with a call to `finalizeUnmintFeeUpdate` function         after the `GOVERNANCE_DELAY` passes. Only unmint fee update         initiator role can initiate the update."
      },
      "initiateVendingMachineUpgrade(address)": {
        "notice": "Initiates vending machine upgrade process. The upgrade process          needs to be finalized with a call to         `finalizeVendingMachineUpgrade` function after the         `GOVERNANCE_DELAY` passes. Only vending machine upgrade         initiator role can initiate the upgrade."
      },
      "mint(uint256)": {
        "notice": "Mints TBTC v2 to the caller from TBTC v1 with 1:1 ratio.         The caller needs to have at least `amount` of TBTC v1 balance         approved for transfer to the `VendingMachine` before calling         this function."
      },
      "newVendingMachine()": {
        "notice": "The address of a new vending machine. Set only when the upgrade         process is pending. Once the upgrade gets finalized, the new         vending machine will become an owner of TBTC v2 token."
      },
      "receiveApproval(address,uint256,address,bytes)": {
        "notice": "Mints TBTC v2 to `from` address from TBTC v1 with 1:1 ratio.         `from` address needs to have at least `amount` of TBTC v1         balance approved for transfer to the `VendingMachine` before         calling this function."
      },
      "transferUnmintFeeUpdateInitiatorRole(address)": {
        "notice": "Transfers unmint fee update initiator role to another address.         Can be called only by the current unmint fee update initiator."
      },
      "transferVendingMachineUpgradeInitiatorRole(address)": {
        "notice": "Transfers vending machine upgrade initiator role to another         address. Can be called only by the current vending machine         upgrade initiator."
      },
      "unmint(uint256)": {
        "notice": "Unmints TBTC v2 from the caller into TBTC v1. Depending on         `unmintFee` value, may require paying an additional unmint fee         in TBTC v2 in addition to the amount being unminted. To see         what is the value of the fee, please call `unmintFeeFor(amount)`         function. The caller needs to have at least         `amount + unmintFeeFor(amount)` of TBTC v2 balance approved for         transfer to the `VendingMachine` before calling this function."
      },
      "unmintFee()": {
        "notice": "The fee for unminting TBTC v2 back into TBTC v1 represented as         1e18 precision fraction. The fee is proportional to the amount         being unminted and added on the top of the amount being unminted.         To calculate the fee value, the amount being unminted needs         to be multiplied by `unmintFee` and divided by 1e18.         For example, `unmintFee` set to 1000000000000000         means that 0.001 of the amount being unminted needs to be paid         to the `VendingMachine` as an unminting fee on the top of the         amount being unminted."
      },
      "unmintFeeFor(uint256)": {
        "notice": "Calculates the fee that needs to be paid to the `VendingMachine`         to unmint the given amount of TBTC v2 back into TBTC v1."
      },
      "withdrawFees(address,uint256)": {
        "notice": "Allows the Governance to withdraw unmint fees accumulated by         `VendingMachine`."
      }
    },
    "notice": "The Vending Machine is the owner of TBTC v2 token and can mint         TBTC v2 tokens in 1:1 ratio from TBTC v1 tokens with TBTC v1         deposited in the contract as collateral. TBTC v2 can be         unminted back to TBTC v1 with or without a fee - fee parameter is         controlled by the Governance. This implementation acts as a bridge         between TBTC v1 and TBTC v2 token, allowing to mint TBTC v2 before         the system is ready and fully operational without sacrificing any         security guarantees and decentralization of the project.         Vending Machine can be upgraded in a two-step, governance-controlled         process. The new version of the Vending Machine will receive the         ownership of TBTC v2 token and entire TBTC v1 balance stored as         collateral. It is expected that this process will be executed before         the v2 system launch. There is an optional unmint fee with a value         that can be updated in a two-step, governance-controlled process.         All governable parameters are controlled by two roles: update         initiator and finalizer. There is a separate initiator role for         unmint fee update and vending machine upgrade. The initiator         proposes the change by initiating the update and the finalizer         (contract owner) may approve it by finalizing the change after the         governance delay passes.",
    "version": 1
  },
  "storageLayout": {
    "storage": [
      {
        "astId": 13253,
        "contract": "contracts/bridge/VendingMachine.sol:VendingMachine",
        "label": "_owner",
        "offset": 0,
        "slot": "0",
        "type": "t_address"
      },
      {
        "astId": 28735,
        "contract": "contracts/bridge/VendingMachine.sol:VendingMachine",
        "label": "unmintFee",
        "offset": 0,
        "slot": "1",
        "type": "t_uint256"
      },
      {
        "astId": 28737,
        "contract": "contracts/bridge/VendingMachine.sol:VendingMachine",
        "label": "newUnmintFee",
        "offset": 0,
        "slot": "2",
        "type": "t_uint256"
      },
      {
        "astId": 28739,
        "contract": "contracts/bridge/VendingMachine.sol:VendingMachine",
        "label": "unmintFeeUpdateInitiatedTimestamp",
        "offset": 0,
        "slot": "3",
        "type": "t_uint256"
      },
      {
        "astId": 28741,
        "contract": "contracts/bridge/VendingMachine.sol:VendingMachine",
        "label": "unmintFeeUpdateInitiator",
        "offset": 0,
        "slot": "4",
        "type": "t_address"
      },
      {
        "astId": 28744,
        "contract": "contracts/bridge/VendingMachine.sol:VendingMachine",
        "label": "newVendingMachine",
        "offset": 0,
        "slot": "5",
        "type": "t_address"
      },
      {
        "astId": 28746,
        "contract": "contracts/bridge/VendingMachine.sol:VendingMachine",
        "label": "vendingMachineUpgradeInitiatedTimestamp",
        "offset": 0,
        "slot": "6",
        "type": "t_uint256"
      },
      {
        "astId": 28748,
        "contract": "contracts/bridge/VendingMachine.sol:VendingMachine",
        "label": "vendingMachineUpgradeInitiator",
        "offset": 0,
        "slot": "7",
        "type": "t_address"
      }
    ],
    "types": {
      "t_address": {
        "encoding": "inplace",
        "label": "address",
        "numberOfBytes": "20"
      },
      "t_uint256": {
        "encoding": "inplace",
        "label": "uint256",
        "numberOfBytes": "32"
      }
    }
  }
}