{
  "address": "0x5E185F6Ca2125C8C5fEF11CD2e5fCb3055CE82bd",
  "abi": [
    {
      "inputs": [
        {
          "internalType": "contract WalletRegistry",
          "name": "_walletRegistry",
          "type": "address"
        },
        {
          "internalType": "uint256",
          "name": "_governanceDelay",
          "type": "uint256"
        }
      ],
      "stateMutability": "nonpayable",
      "type": "constructor"
    },
    {
      "anonymous": false,
      "inputs": [
        {
          "indexed": false,
          "internalType": "uint64",
          "name": "authorizationDecreaseChangePeriod",
          "type": "uint64"
        },
        {
          "indexed": false,
          "internalType": "uint256",
          "name": "timestamp",
          "type": "uint256"
        }
      ],
      "name": "AuthorizationDecreaseChangePeriodUpdateStarted",
      "type": "event"
    },
    {
      "anonymous": false,
      "inputs": [
        {
          "indexed": false,
          "internalType": "uint64",
          "name": "authorizationDecreaseChangePeriod",
          "type": "uint64"
        }
      ],
      "name": "AuthorizationDecreaseChangePeriodUpdated",
      "type": "event"
    },
    {
      "anonymous": false,
      "inputs": [
        {
          "indexed": false,
          "internalType": "uint64",
          "name": "authorizationDecreaseDelay",
          "type": "uint64"
        },
        {
          "indexed": false,
          "internalType": "uint256",
          "name": "timestamp",
          "type": "uint256"
        }
      ],
      "name": "AuthorizationDecreaseDelayUpdateStarted",
      "type": "event"
    },
    {
      "anonymous": false,
      "inputs": [
        {
          "indexed": false,
          "internalType": "uint64",
          "name": "authorizationDecreaseDelay",
          "type": "uint64"
        }
      ],
      "name": "AuthorizationDecreaseDelayUpdated",
      "type": "event"
    },
    {
      "anonymous": false,
      "inputs": [
        {
          "indexed": false,
          "internalType": "uint256",
          "name": "dkgResultApprovalGasOffset",
          "type": "uint256"
        },
        {
          "indexed": false,
          "internalType": "uint256",
          "name": "timestamp",
          "type": "uint256"
        }
      ],
      "name": "DkgResultApprovalGasOffsetUpdateStarted",
      "type": "event"
    },
    {
      "anonymous": false,
      "inputs": [
        {
          "indexed": false,
          "internalType": "uint256",
          "name": "dkgResultApprovalGasOffset",
          "type": "uint256"
        }
      ],
      "name": "DkgResultApprovalGasOffsetUpdated",
      "type": "event"
    },
    {
      "anonymous": false,
      "inputs": [
        {
          "indexed": false,
          "internalType": "uint256",
          "name": "dkgResultChallengeExtraGas",
          "type": "uint256"
        },
        {
          "indexed": false,
          "internalType": "uint256",
          "name": "timestamp",
          "type": "uint256"
        }
      ],
      "name": "DkgResultChallengeExtraGasUpdateStarted",
      "type": "event"
    },
    {
      "anonymous": false,
      "inputs": [
        {
          "indexed": false,
          "internalType": "uint256",
          "name": "dkgResultChallengeExtraGas",
          "type": "uint256"
        }
      ],
      "name": "DkgResultChallengeExtraGasUpdated",
      "type": "event"
    },
    {
      "anonymous": false,
      "inputs": [
        {
          "indexed": false,
          "internalType": "uint256",
          "name": "dkgResultChallengePeriodLength",
          "type": "uint256"
        },
        {
          "indexed": false,
          "internalType": "uint256",
          "name": "timestamp",
          "type": "uint256"
        }
      ],
      "name": "DkgResultChallengePeriodLengthUpdateStarted",
      "type": "event"
    },
    {
      "anonymous": false,
      "inputs": [
        {
          "indexed": false,
          "internalType": "uint256",
          "name": "dkgResultChallengePeriodLength",
          "type": "uint256"
        }
      ],
      "name": "DkgResultChallengePeriodLengthUpdated",
      "type": "event"
    },
    {
      "anonymous": false,
      "inputs": [
        {
          "indexed": false,
          "internalType": "uint256",
          "name": "dkgResultSubmissionGas",
          "type": "uint256"
        },
        {
          "indexed": false,
          "internalType": "uint256",
          "name": "timestamp",
          "type": "uint256"
        }
      ],
      "name": "DkgResultSubmissionGasUpdateStarted",
      "type": "event"
    },
    {
      "anonymous": false,
      "inputs": [
        {
          "indexed": false,
          "internalType": "uint256",
          "name": "dkgResultSubmissionGas",
          "type": "uint256"
        }
      ],
      "name": "DkgResultSubmissionGasUpdated",
      "type": "event"
    },
    {
      "anonymous": false,
      "inputs": [
        {
          "indexed": false,
          "internalType": "uint256",
          "name": "dkgResultSubmissionTimeout",
          "type": "uint256"
        },
        {
          "indexed": false,
          "internalType": "uint256",
          "name": "timestamp",
          "type": "uint256"
        }
      ],
      "name": "DkgResultSubmissionTimeoutUpdateStarted",
      "type": "event"
    },
    {
      "anonymous": false,
      "inputs": [
        {
          "indexed": false,
          "internalType": "uint256",
          "name": "dkgResultSubmissionTimeout",
          "type": "uint256"
        }
      ],
      "name": "DkgResultSubmissionTimeoutUpdated",
      "type": "event"
    },
    {
      "anonymous": false,
      "inputs": [
        {
          "indexed": false,
          "internalType": "uint256",
          "name": "dkgSeedTimeout",
          "type": "uint256"
        },
        {
          "indexed": false,
          "internalType": "uint256",
          "name": "timestamp",
          "type": "uint256"
        }
      ],
      "name": "DkgSeedTimeoutUpdateStarted",
      "type": "event"
    },
    {
      "anonymous": false,
      "inputs": [
        {
          "indexed": false,
          "internalType": "uint256",
          "name": "dkgSeedTimeout",
          "type": "uint256"
        }
      ],
      "name": "DkgSeedTimeoutUpdated",
      "type": "event"
    },
    {
      "anonymous": false,
      "inputs": [
        {
          "indexed": false,
          "internalType": "uint256",
          "name": "submitterPrecedencePeriodLength",
          "type": "uint256"
        },
        {
          "indexed": false,
          "internalType": "uint256",
          "name": "timestamp",
          "type": "uint256"
        }
      ],
      "name": "DkgSubmitterPrecedencePeriodLengthUpdateStarted",
      "type": "event"
    },
    {
      "anonymous": false,
      "inputs": [
        {
          "indexed": false,
          "internalType": "uint256",
          "name": "submitterPrecedencePeriodLength",
          "type": "uint256"
        }
      ],
      "name": "DkgSubmitterPrecedencePeriodLengthUpdated",
      "type": "event"
    },
    {
      "anonymous": false,
      "inputs": [
        {
          "indexed": false,
          "internalType": "uint256",
          "name": "governanceDelay",
          "type": "uint256"
        },
        {
          "indexed": false,
          "internalType": "uint256",
          "name": "timestamp",
          "type": "uint256"
        }
      ],
      "name": "GovernanceDelayUpdateStarted",
      "type": "event"
    },
    {
      "anonymous": false,
      "inputs": [
        {
          "indexed": false,
          "internalType": "uint256",
          "name": "governanceDelay",
          "type": "uint256"
        }
      ],
      "name": "GovernanceDelayUpdated",
      "type": "event"
    },
    {
      "anonymous": false,
      "inputs": [
        {
          "indexed": false,
          "internalType": "uint256",
          "name": "maliciousDkgResultNotificationRewardMultiplier",
          "type": "uint256"
        },
        {
          "indexed": false,
          "internalType": "uint256",
          "name": "timestamp",
          "type": "uint256"
        }
      ],
      "name": "MaliciousDkgResultNotificationRewardMultiplierUpdateStarted",
      "type": "event"
    },
    {
      "anonymous": false,
      "inputs": [
        {
          "indexed": false,
          "internalType": "uint256",
          "name": "maliciousDkgResultNotificationRewardMultiplier",
          "type": "uint256"
        }
      ],
      "name": "MaliciousDkgResultNotificationRewardMultiplierUpdated",
      "type": "event"
    },
    {
      "anonymous": false,
      "inputs": [
        {
          "indexed": false,
          "internalType": "uint256",
          "name": "maliciousDkgResultSlashingAmount",
          "type": "uint256"
        },
        {
          "indexed": false,
          "internalType": "uint256",
          "name": "timestamp",
          "type": "uint256"
        }
      ],
      "name": "MaliciousDkgResultSlashingAmountUpdateStarted",
      "type": "event"
    },
    {
      "anonymous": false,
      "inputs": [
        {
          "indexed": false,
          "internalType": "uint256",
          "name": "maliciousDkgResultSlashingAmount",
          "type": "uint256"
        }
      ],
      "name": "MaliciousDkgResultSlashingAmountUpdated",
      "type": "event"
    },
    {
      "anonymous": false,
      "inputs": [
        {
          "indexed": false,
          "internalType": "uint96",
          "name": "minimumAuthorization",
          "type": "uint96"
        },
        {
          "indexed": false,
          "internalType": "uint256",
          "name": "timestamp",
          "type": "uint256"
        }
      ],
      "name": "MinimumAuthorizationUpdateStarted",
      "type": "event"
    },
    {
      "anonymous": false,
      "inputs": [
        {
          "indexed": false,
          "internalType": "uint96",
          "name": "minimumAuthorization",
          "type": "uint96"
        }
      ],
      "name": "MinimumAuthorizationUpdated",
      "type": "event"
    },
    {
      "anonymous": false,
      "inputs": [
        {
          "indexed": false,
          "internalType": "uint256",
          "name": "notifyDkgTimeoutNegativeGasOffset",
          "type": "uint256"
        },
        {
          "indexed": false,
          "internalType": "uint256",
          "name": "timestamp",
          "type": "uint256"
        }
      ],
      "name": "NotifyDkgTimeoutNegativeGasOffsetUpdateStarted",
      "type": "event"
    },
    {
      "anonymous": false,
      "inputs": [
        {
          "indexed": false,
          "internalType": "uint256",
          "name": "notifyDkgTimeoutNegativeGasOffset",
          "type": "uint256"
        }
      ],
      "name": "NotifyDkgTimeoutNegativeGasOffsetUpdated",
      "type": "event"
    },
    {
      "anonymous": false,
      "inputs": [
        {
          "indexed": false,
          "internalType": "uint256",
          "name": "notifyOperatorInactivityGasOffset",
          "type": "uint256"
        },
        {
          "indexed": false,
          "internalType": "uint256",
          "name": "timestamp",
          "type": "uint256"
        }
      ],
      "name": "NotifyOperatorInactivityGasOffsetUpdateStarted",
      "type": "event"
    },
    {
      "anonymous": false,
      "inputs": [
        {
          "indexed": false,
          "internalType": "uint256",
          "name": "notifyOperatorInactivityGasOffset",
          "type": "uint256"
        }
      ],
      "name": "NotifyOperatorInactivityGasOffsetUpdated",
      "type": "event"
    },
    {
      "anonymous": false,
      "inputs": [
        {
          "indexed": false,
          "internalType": "uint256",
          "name": "notifySeedTimeoutGasOffset",
          "type": "uint256"
        },
        {
          "indexed": false,
          "internalType": "uint256",
          "name": "timestamp",
          "type": "uint256"
        }
      ],
      "name": "NotifySeedTimeoutGasOffsetUpdateStarted",
      "type": "event"
    },
    {
      "anonymous": false,
      "inputs": [
        {
          "indexed": false,
          "internalType": "uint256",
          "name": "notifySeedTimeoutGasOffset",
          "type": "uint256"
        }
      ],
      "name": "NotifySeedTimeoutGasOffsetUpdated",
      "type": "event"
    },
    {
      "anonymous": false,
      "inputs": [
        {
          "indexed": true,
          "internalType": "address",
          "name": "previousOwner",
          "type": "address"
        },
        {
          "indexed": true,
          "internalType": "address",
          "name": "newOwner",
          "type": "address"
        }
      ],
      "name": "OwnershipTransferred",
      "type": "event"
    },
    {
      "anonymous": false,
      "inputs": [
        {
          "indexed": false,
          "internalType": "address",
          "name": "reimbursementPool",
          "type": "address"
        },
        {
          "indexed": false,
          "internalType": "uint256",
          "name": "timestamp",
          "type": "uint256"
        }
      ],
      "name": "ReimbursementPoolUpdateStarted",
      "type": "event"
    },
    {
      "anonymous": false,
      "inputs": [
        {
          "indexed": false,
          "internalType": "address",
          "name": "reimbursementPool",
          "type": "address"
        }
      ],
      "name": "ReimbursementPoolUpdated",
      "type": "event"
    },
    {
      "anonymous": false,
      "inputs": [
        {
          "indexed": false,
          "internalType": "uint256",
          "name": "sortitionPoolRewardsBanDuration",
          "type": "uint256"
        },
        {
          "indexed": false,
          "internalType": "uint256",
          "name": "timestamp",
          "type": "uint256"
        }
      ],
      "name": "SortitionPoolRewardsBanDurationUpdateStarted",
      "type": "event"
    },
    {
      "anonymous": false,
      "inputs": [
        {
          "indexed": false,
          "internalType": "uint256",
          "name": "sortitionPoolRewardsBanDuration",
          "type": "uint256"
        }
      ],
      "name": "SortitionPoolRewardsBanDurationUpdated",
      "type": "event"
    },
    {
      "anonymous": false,
      "inputs": [
        {
          "indexed": false,
          "internalType": "address",
          "name": "walletOwner",
          "type": "address"
        },
        {
          "indexed": false,
          "internalType": "uint256",
          "name": "timestamp",
          "type": "uint256"
        }
      ],
      "name": "WalletOwnerUpdateStarted",
      "type": "event"
    },
    {
      "anonymous": false,
      "inputs": [
        {
          "indexed": false,
          "internalType": "address",
          "name": "walletOwner",
          "type": "address"
        }
      ],
      "name": "WalletOwnerUpdated",
      "type": "event"
    },
    {
      "anonymous": false,
      "inputs": [
        {
          "indexed": false,
          "internalType": "address",
          "name": "newWalletRegistryGovernance",
          "type": "address"
        },
        {
          "indexed": false,
          "internalType": "uint256",
          "name": "timestamp",
          "type": "uint256"
        }
      ],
      "name": "WalletRegistryGovernanceTransferStarted",
      "type": "event"
    },
    {
      "anonymous": false,
      "inputs": [
        {
          "indexed": false,
          "internalType": "address",
          "name": "newWalletRegistryGovernance",
          "type": "address"
        }
      ],
      "name": "WalletRegistryGovernanceTransferred",
      "type": "event"
    },
    {
      "inputs": [],
      "name": "authorizationDecreaseChangePeriodChangeInitiated",
      "outputs": [
        {
          "internalType": "uint256",
          "name": "",
          "type": "uint256"
        }
      ],
      "stateMutability": "view",
      "type": "function"
    },
    {
      "inputs": [],
      "name": "authorizationDecreaseDelayChangeInitiated",
      "outputs": [
        {
          "internalType": "uint256",
          "name": "",
          "type": "uint256"
        }
      ],
      "stateMutability": "view",
      "type": "function"
    },
    {
      "inputs": [
        {
          "internalType": "uint64",
          "name": "_newAuthorizationDecreaseChangePeriod",
          "type": "uint64"
        }
      ],
      "name": "beginAuthorizationDecreaseChangePeriodUpdate",
      "outputs": [],
      "stateMutability": "nonpayable",
      "type": "function"
    },
    {
      "inputs": [
        {
          "internalType": "uint64",
          "name": "_newAuthorizationDecreaseDelay",
          "type": "uint64"
        }
      ],
      "name": "beginAuthorizationDecreaseDelayUpdate",
      "outputs": [],
      "stateMutability": "nonpayable",
      "type": "function"
    },
    {
      "inputs": [
        {
          "internalType": "uint256",
          "name": "_newDkgResultApprovalGasOffset",
          "type": "uint256"
        }
      ],
      "name": "beginDkgResultApprovalGasOffsetUpdate",
      "outputs": [],
      "stateMutability": "nonpayable",
      "type": "function"
    },
    {
      "inputs": [
        {
          "internalType": "uint256",
          "name": "_newDkgResultChallengeExtraGas",
          "type": "uint256"
        }
      ],
      "name": "beginDkgResultChallengeExtraGasUpdate",
      "outputs": [],
      "stateMutability": "nonpayable",
      "type": "function"
    },
    {
      "inputs": [
        {
          "internalType": "uint256",
          "name": "_newDkgResultChallengePeriodLength",
          "type": "uint256"
        }
      ],
      "name": "beginDkgResultChallengePeriodLengthUpdate",
      "outputs": [],
      "stateMutability": "nonpayable",
      "type": "function"
    },
    {
      "inputs": [
        {
          "internalType": "uint256",
          "name": "_newDkgResultSubmissionGas",
          "type": "uint256"
        }
      ],
      "name": "beginDkgResultSubmissionGasUpdate",
      "outputs": [],
      "stateMutability": "nonpayable",
      "type": "function"
    },
    {
      "inputs": [
        {
          "internalType": "uint256",
          "name": "_newDkgResultSubmissionTimeout",
          "type": "uint256"
        }
      ],
      "name": "beginDkgResultSubmissionTimeoutUpdate",
      "outputs": [],
      "stateMutability": "nonpayable",
      "type": "function"
    },
    {
      "inputs": [
        {
          "internalType": "uint256",
          "name": "_newDkgSeedTimeout",
          "type": "uint256"
        }
      ],
      "name": "beginDkgSeedTimeoutUpdate",
      "outputs": [],
      "stateMutability": "nonpayable",
      "type": "function"
    },
    {
      "inputs": [
        {
          "internalType": "uint256",
          "name": "_newSubmitterPrecedencePeriodLength",
          "type": "uint256"
        }
      ],
      "name": "beginDkgSubmitterPrecedencePeriodLengthUpdate",
      "outputs": [],
      "stateMutability": "nonpayable",
      "type": "function"
    },
    {
      "inputs": [
        {
          "internalType": "uint256",
          "name": "_newGovernanceDelay",
          "type": "uint256"
        }
      ],
      "name": "beginGovernanceDelayUpdate",
      "outputs": [],
      "stateMutability": "nonpayable",
      "type": "function"
    },
    {
      "inputs": [
        {
          "internalType": "uint256",
          "name": "_newMaliciousDkgResultNotificationRewardMultiplier",
          "type": "uint256"
        }
      ],
      "name": "beginMaliciousDkgResultNotificationRewardMultiplierUpdate",
      "outputs": [],
      "stateMutability": "nonpayable",
      "type": "function"
    },
    {
      "inputs": [
        {
          "internalType": "uint96",
          "name": "_newMaliciousDkgResultSlashingAmount",
          "type": "uint96"
        }
      ],
      "name": "beginMaliciousDkgResultSlashingAmountUpdate",
      "outputs": [],
      "stateMutability": "nonpayable",
      "type": "function"
    },
    {
      "inputs": [
        {
          "internalType": "uint96",
          "name": "_newMinimumAuthorization",
          "type": "uint96"
        }
      ],
      "name": "beginMinimumAuthorizationUpdate",
      "outputs": [],
      "stateMutability": "nonpayable",
      "type": "function"
    },
    {
      "inputs": [
        {
          "internalType": "uint256",
          "name": "_newNotifyDkgTimeoutNegativeGasOffset",
          "type": "uint256"
        }
      ],
      "name": "beginNotifyDkgTimeoutNegativeGasOffsetUpdate",
      "outputs": [],
      "stateMutability": "nonpayable",
      "type": "function"
    },
    {
      "inputs": [
        {
          "internalType": "uint256",
          "name": "_newNotifyOperatorInactivityGasOffset",
          "type": "uint256"
        }
      ],
      "name": "beginNotifyOperatorInactivityGasOffsetUpdate",
      "outputs": [],
      "stateMutability": "nonpayable",
      "type": "function"
    },
    {
      "inputs": [
        {
          "internalType": "uint256",
          "name": "_newNotifySeedTimeoutGasOffset",
          "type": "uint256"
        }
      ],
      "name": "beginNotifySeedTimeoutGasOffsetUpdate",
      "outputs": [],
      "stateMutability": "nonpayable",
      "type": "function"
    },
    {
      "inputs": [
        {
          "internalType": "address payable",
          "name": "_newReimbursementPool",
          "type": "address"
        }
      ],
      "name": "beginReimbursementPoolUpdate",
      "outputs": [],
      "stateMutability": "nonpayable",
      "type": "function"
    },
    {
      "inputs": [
        {
          "internalType": "uint256",
          "name": "_newSortitionPoolRewardsBanDuration",
          "type": "uint256"
        }
      ],
      "name": "beginSortitionPoolRewardsBanDurationUpdate",
      "outputs": [],
      "stateMutability": "nonpayable",
      "type": "function"
    },
    {
      "inputs": [
        {
          "internalType": "address",
          "name": "_newWalletOwner",
          "type": "address"
        }
      ],
      "name": "beginWalletOwnerUpdate",
      "outputs": [],
      "stateMutability": "nonpayable",
      "type": "function"
    },
    {
      "inputs": [
        {
          "internalType": "address",
          "name": "_newWalletRegistryGovernance",
          "type": "address"
        }
      ],
      "name": "beginWalletRegistryGovernanceTransfer",
      "outputs": [],
      "stateMutability": "nonpayable",
      "type": "function"
    },
    {
      "inputs": [],
      "name": "dkgResultApprovalGasOffsetChangeInitiated",
      "outputs": [
        {
          "internalType": "uint256",
          "name": "",
          "type": "uint256"
        }
      ],
      "stateMutability": "view",
      "type": "function"
    },
    {
      "inputs": [],
      "name": "dkgResultChallengeExtraGasChangeInitiated",
      "outputs": [
        {
          "internalType": "uint256",
          "name": "",
          "type": "uint256"
        }
      ],
      "stateMutability": "view",
      "type": "function"
    },
    {
      "inputs": [],
      "name": "dkgResultChallengePeriodLengthChangeInitiated",
      "outputs": [
        {
          "internalType": "uint256",
          "name": "",
          "type": "uint256"
        }
      ],
      "stateMutability": "view",
      "type": "function"
    },
    {
      "inputs": [],
      "name": "dkgResultSubmissionGasChangeInitiated",
      "outputs": [
        {
          "internalType": "uint256",
          "name": "",
          "type": "uint256"
        }
      ],
      "stateMutability": "view",
      "type": "function"
    },
    {
      "inputs": [],
      "name": "dkgResultSubmissionTimeoutChangeInitiated",
      "outputs": [
        {
          "internalType": "uint256",
          "name": "",
          "type": "uint256"
        }
      ],
      "stateMutability": "view",
      "type": "function"
    },
    {
      "inputs": [],
      "name": "dkgSeedTimeoutChangeInitiated",
      "outputs": [
        {
          "internalType": "uint256",
          "name": "",
          "type": "uint256"
        }
      ],
      "stateMutability": "view",
      "type": "function"
    },
    {
      "inputs": [],
      "name": "dkgSubmitterPrecedencePeriodLengthChangeInitiated",
      "outputs": [
        {
          "internalType": "uint256",
          "name": "",
          "type": "uint256"
        }
      ],
      "stateMutability": "view",
      "type": "function"
    },
    {
      "inputs": [],
      "name": "finalizeAuthorizationDecreaseChangePeriodUpdate",
      "outputs": [],
      "stateMutability": "nonpayable",
      "type": "function"
    },
    {
      "inputs": [],
      "name": "finalizeAuthorizationDecreaseDelayUpdate",
      "outputs": [],
      "stateMutability": "nonpayable",
      "type": "function"
    },
    {
      "inputs": [],
      "name": "finalizeDkgResultApprovalGasOffsetUpdate",
      "outputs": [],
      "stateMutability": "nonpayable",
      "type": "function"
    },
    {
      "inputs": [],
      "name": "finalizeDkgResultChallengeExtraGasUpdate",
      "outputs": [],
      "stateMutability": "nonpayable",
      "type": "function"
    },
    {
      "inputs": [],
      "name": "finalizeDkgResultChallengePeriodLengthUpdate",
      "outputs": [],
      "stateMutability": "nonpayable",
      "type": "function"
    },
    {
      "inputs": [],
      "name": "finalizeDkgResultSubmissionGasUpdate",
      "outputs": [],
      "stateMutability": "nonpayable",
      "type": "function"
    },
    {
      "inputs": [],
      "name": "finalizeDkgResultSubmissionTimeoutUpdate",
      "outputs": [],
      "stateMutability": "nonpayable",
      "type": "function"
    },
    {
      "inputs": [],
      "name": "finalizeDkgSeedTimeoutUpdate",
      "outputs": [],
      "stateMutability": "nonpayable",
      "type": "function"
    },
    {
      "inputs": [],
      "name": "finalizeDkgSubmitterPrecedencePeriodLengthUpdate",
      "outputs": [],
      "stateMutability": "nonpayable",
      "type": "function"
    },
    {
      "inputs": [],
      "name": "finalizeGovernanceDelayUpdate",
      "outputs": [],
      "stateMutability": "nonpayable",
      "type": "function"
    },
    {
      "inputs": [],
      "name": "finalizeMaliciousDkgResultNotificationRewardMultiplierUpdate",
      "outputs": [],
      "stateMutability": "nonpayable",
      "type": "function"
    },
    {
      "inputs": [],
      "name": "finalizeMaliciousDkgResultSlashingAmountUpdate",
      "outputs": [],
      "stateMutability": "nonpayable",
      "type": "function"
    },
    {
      "inputs": [],
      "name": "finalizeMinimumAuthorizationUpdate",
      "outputs": [],
      "stateMutability": "nonpayable",
      "type": "function"
    },
    {
      "inputs": [],
      "name": "finalizeNotifyDkgTimeoutNegativeGasOffsetUpdate",
      "outputs": [],
      "stateMutability": "nonpayable",
      "type": "function"
    },
    {
      "inputs": [],
      "name": "finalizeNotifyOperatorInactivityGasOffsetUpdate",
      "outputs": [],
      "stateMutability": "nonpayable",
      "type": "function"
    },
    {
      "inputs": [],
      "name": "finalizeNotifySeedTimeoutGasOffsetUpdate",
      "outputs": [],
      "stateMutability": "nonpayable",
      "type": "function"
    },
    {
      "inputs": [],
      "name": "finalizeReimbursementPoolUpdate",
      "outputs": [],
      "stateMutability": "nonpayable",
      "type": "function"
    },
    {
      "inputs": [],
      "name": "finalizeSortitionPoolRewardsBanDurationUpdate",
      "outputs": [],
      "stateMutability": "nonpayable",
      "type": "function"
    },
    {
      "inputs": [],
      "name": "finalizeWalletOwnerUpdate",
      "outputs": [],
      "stateMutability": "nonpayable",
      "type": "function"
    },
    {
      "inputs": [],
      "name": "finalizeWalletRegistryGovernanceTransfer",
      "outputs": [],
      "stateMutability": "nonpayable",
      "type": "function"
    },
    {
      "inputs": [],
      "name": "getRemainingAuthorizationDecreaseChangePeriodUpdateTime",
      "outputs": [
        {
          "internalType": "uint256",
          "name": "",
          "type": "uint256"
        }
      ],
      "stateMutability": "view",
      "type": "function"
    },
    {
      "inputs": [],
      "name": "getRemainingAuthorizationDecreaseDelayUpdateTime",
      "outputs": [
        {
          "internalType": "uint256",
          "name": "",
          "type": "uint256"
        }
      ],
      "stateMutability": "view",
      "type": "function"
    },
    {
      "inputs": [],
      "name": "getRemainingDkgResultApprovalGasOffsetUpdateTime",
      "outputs": [
        {
          "internalType": "uint256",
          "name": "",
          "type": "uint256"
        }
      ],
      "stateMutability": "view",
      "type": "function"
    },
    {
      "inputs": [],
      "name": "getRemainingDkgResultChallengeExtraGasUpdateTime",
      "outputs": [
        {
          "internalType": "uint256",
          "name": "",
          "type": "uint256"
        }
      ],
      "stateMutability": "view",
      "type": "function"
    },
    {
      "inputs": [],
      "name": "getRemainingDkgResultChallengePeriodLengthUpdateTime",
      "outputs": [
        {
          "internalType": "uint256",
          "name": "",
          "type": "uint256"
        }
      ],
      "stateMutability": "view",
      "type": "function"
    },
    {
      "inputs": [],
      "name": "getRemainingDkgResultSubmissionGasUpdateTime",
      "outputs": [
        {
          "internalType": "uint256",
          "name": "",
          "type": "uint256"
        }
      ],
      "stateMutability": "view",
      "type": "function"
    },
    {
      "inputs": [],
      "name": "getRemainingDkgResultSubmissionTimeoutUpdateTime",
      "outputs": [
        {
          "internalType": "uint256",
          "name": "",
          "type": "uint256"
        }
      ],
      "stateMutability": "view",
      "type": "function"
    },
    {
      "inputs": [],
      "name": "getRemainingDkgSeedTimeoutUpdateTime",
      "outputs": [
        {
          "internalType": "uint256",
          "name": "",
          "type": "uint256"
        }
      ],
      "stateMutability": "view",
      "type": "function"
    },
    {
      "inputs": [],
      "name": "getRemainingDkgSubmitterPrecedencePeriodLengthUpdateTime",
      "outputs": [
        {
          "internalType": "uint256",
          "name": "",
          "type": "uint256"
        }
      ],
      "stateMutability": "view",
      "type": "function"
    },
    {
      "inputs": [],
      "name": "getRemainingGovernanceDelayUpdateTime",
      "outputs": [
        {
          "internalType": "uint256",
          "name": "",
          "type": "uint256"
        }
      ],
      "stateMutability": "view",
      "type": "function"
    },
    {
      "inputs": [],
      "name": "getRemainingMaliciousDkgResultNotificationRewardMultiplierUpdateTime",
      "outputs": [
        {
          "internalType": "uint256",
          "name": "",
          "type": "uint256"
        }
      ],
      "stateMutability": "view",
      "type": "function"
    },
    {
      "inputs": [],
      "name": "getRemainingMaliciousDkgResultSlashingAmountUpdateTime",
      "outputs": [
        {
          "internalType": "uint256",
          "name": "",
          "type": "uint256"
        }
      ],
      "stateMutability": "view",
      "type": "function"
    },
    {
      "inputs": [],
      "name": "getRemainingMimimumAuthorizationUpdateTime",
      "outputs": [
        {
          "internalType": "uint256",
          "name": "",
          "type": "uint256"
        }
      ],
      "stateMutability": "view",
      "type": "function"
    },
    {
      "inputs": [],
      "name": "getRemainingNotifyDkgTimeoutNegativeGasOffsetUpdateTime",
      "outputs": [
        {
          "internalType": "uint256",
          "name": "",
          "type": "uint256"
        }
      ],
      "stateMutability": "view",
      "type": "function"
    },
    {
      "inputs": [],
      "name": "getRemainingNotifyOperatorInactivityGasOffsetUpdateTime",
      "outputs": [
        {
          "internalType": "uint256",
          "name": "",
          "type": "uint256"
        }
      ],
      "stateMutability": "view",
      "type": "function"
    },
    {
      "inputs": [],
      "name": "getRemainingNotifySeedTimeoutGasOffsetUpdateTime",
      "outputs": [
        {
          "internalType": "uint256",
          "name": "",
          "type": "uint256"
        }
      ],
      "stateMutability": "view",
      "type": "function"
    },
    {
      "inputs": [],
      "name": "getRemainingReimbursementPoolUpdateTime",
      "outputs": [
        {
          "internalType": "uint256",
          "name": "",
          "type": "uint256"
        }
      ],
      "stateMutability": "view",
      "type": "function"
    },
    {
      "inputs": [],
      "name": "getRemainingSortitionPoolRewardsBanDurationUpdateTime",
      "outputs": [
        {
          "internalType": "uint256",
          "name": "",
          "type": "uint256"
        }
      ],
      "stateMutability": "view",
      "type": "function"
    },
    {
      "inputs": [],
      "name": "getRemainingWalletOwnerUpdateTime",
      "outputs": [
        {
          "internalType": "uint256",
          "name": "",
          "type": "uint256"
        }
      ],
      "stateMutability": "view",
      "type": "function"
    },
    {
      "inputs": [],
      "name": "getRemainingWalletRegistryGovernanceTransferDelayTime",
      "outputs": [
        {
          "internalType": "uint256",
          "name": "",
          "type": "uint256"
        }
      ],
      "stateMutability": "view",
      "type": "function"
    },
    {
      "inputs": [],
      "name": "governanceDelay",
      "outputs": [
        {
          "internalType": "uint256",
          "name": "",
          "type": "uint256"
        }
      ],
      "stateMutability": "view",
      "type": "function"
    },
    {
      "inputs": [],
      "name": "governanceDelayChangeInitiated",
      "outputs": [
        {
          "internalType": "uint256",
          "name": "",
          "type": "uint256"
        }
      ],
      "stateMutability": "view",
      "type": "function"
    },
    {
      "inputs": [
        {
          "internalType": "address",
          "name": "_walletOwner",
          "type": "address"
        }
      ],
      "name": "initializeWalletOwner",
      "outputs": [],
      "stateMutability": "nonpayable",
      "type": "function"
    },
    {
      "inputs": [],
      "name": "maliciousDkgResultNotificationRewardMultiplierChangeInitiated",
      "outputs": [
        {
          "internalType": "uint256",
          "name": "",
          "type": "uint256"
        }
      ],
      "stateMutability": "view",
      "type": "function"
    },
    {
      "inputs": [],
      "name": "maliciousDkgResultSlashingAmountChangeInitiated",
      "outputs": [
        {
          "internalType": "uint256",
          "name": "",
          "type": "uint256"
        }
      ],
      "stateMutability": "view",
      "type": "function"
    },
    {
      "inputs": [],
      "name": "minimumAuthorizationChangeInitiated",
      "outputs": [
        {
          "internalType": "uint256",
          "name": "",
          "type": "uint256"
        }
      ],
      "stateMutability": "view",
      "type": "function"
    },
    {
      "inputs": [],
      "name": "newAuthorizationDecreaseChangePeriod",
      "outputs": [
        {
          "internalType": "uint64",
          "name": "",
          "type": "uint64"
        }
      ],
      "stateMutability": "view",
      "type": "function"
    },
    {
      "inputs": [],
      "name": "newAuthorizationDecreaseDelay",
      "outputs": [
        {
          "internalType": "uint64",
          "name": "",
          "type": "uint64"
        }
      ],
      "stateMutability": "view",
      "type": "function"
    },
    {
      "inputs": [],
      "name": "newDkgResultApprovalGasOffset",
      "outputs": [
        {
          "internalType": "uint256",
          "name": "",
          "type": "uint256"
        }
      ],
      "stateMutability": "view",
      "type": "function"
    },
    {
      "inputs": [],
      "name": "newDkgResultChallengeExtraGas",
      "outputs": [
        {
          "internalType": "uint256",
          "name": "",
          "type": "uint256"
        }
      ],
      "stateMutability": "view",
      "type": "function"
    },
    {
      "inputs": [],
      "name": "newDkgResultChallengePeriodLength",
      "outputs": [
        {
          "internalType": "uint256",
          "name": "",
          "type": "uint256"
        }
      ],
      "stateMutability": "view",
      "type": "function"
    },
    {
      "inputs": [],
      "name": "newDkgResultSubmissionGas",
      "outputs": [
        {
          "internalType": "uint256",
          "name": "",
          "type": "uint256"
        }
      ],
      "stateMutability": "view",
      "type": "function"
    },
    {
      "inputs": [],
      "name": "newDkgResultSubmissionTimeout",
      "outputs": [
        {
          "internalType": "uint256",
          "name": "",
          "type": "uint256"
        }
      ],
      "stateMutability": "view",
      "type": "function"
    },
    {
      "inputs": [],
      "name": "newDkgSeedTimeout",
      "outputs": [
        {
          "internalType": "uint256",
          "name": "",
          "type": "uint256"
        }
      ],
      "stateMutability": "view",
      "type": "function"
    },
    {
      "inputs": [],
      "name": "newGovernanceDelay",
      "outputs": [
        {
          "internalType": "uint256",
          "name": "",
          "type": "uint256"
        }
      ],
      "stateMutability": "view",
      "type": "function"
    },
    {
      "inputs": [],
      "name": "newMaliciousDkgResultNotificationRewardMultiplier",
      "outputs": [
        {
          "internalType": "uint256",
          "name": "",
          "type": "uint256"
        }
      ],
      "stateMutability": "view",
      "type": "function"
    },
    {
      "inputs": [],
      "name": "newMaliciousDkgResultSlashingAmount",
      "outputs": [
        {
          "internalType": "uint96",
          "name": "",
          "type": "uint96"
        }
      ],
      "stateMutability": "view",
      "type": "function"
    },
    {
      "inputs": [],
      "name": "newMinimumAuthorization",
      "outputs": [
        {
          "internalType": "uint96",
          "name": "",
          "type": "uint96"
        }
      ],
      "stateMutability": "view",
      "type": "function"
    },
    {
      "inputs": [],
      "name": "newNotifyDkgTimeoutNegativeGasOffset",
      "outputs": [
        {
          "internalType": "uint256",
          "name": "",
          "type": "uint256"
        }
      ],
      "stateMutability": "view",
      "type": "function"
    },
    {
      "inputs": [],
      "name": "newNotifyOperatorInactivityGasOffset",
      "outputs": [
        {
          "internalType": "uint256",
          "name": "",
          "type": "uint256"
        }
      ],
      "stateMutability": "view",
      "type": "function"
    },
    {
      "inputs": [],
      "name": "newNotifySeedTimeoutGasOffset",
      "outputs": [
        {
          "internalType": "uint256",
          "name": "",
          "type": "uint256"
        }
      ],
      "stateMutability": "view",
      "type": "function"
    },
    {
      "inputs": [],
      "name": "newReimbursementPool",
      "outputs": [
        {
          "internalType": "address payable",
          "name": "",
          "type": "address"
        }
      ],
      "stateMutability": "view",
      "type": "function"
    },
    {
      "inputs": [],
      "name": "newSortitionPoolRewardsBanDuration",
      "outputs": [
        {
          "internalType": "uint256",
          "name": "",
          "type": "uint256"
        }
      ],
      "stateMutability": "view",
      "type": "function"
    },
    {
      "inputs": [],
      "name": "newSubmitterPrecedencePeriodLength",
      "outputs": [
        {
          "internalType": "uint256",
          "name": "",
          "type": "uint256"
        }
      ],
      "stateMutability": "view",
      "type": "function"
    },
    {
      "inputs": [],
      "name": "newWalletOwner",
      "outputs": [
        {
          "internalType": "address",
          "name": "",
          "type": "address"
        }
      ],
      "stateMutability": "view",
      "type": "function"
    },
    {
      "inputs": [],
      "name": "newWalletRegistryGovernance",
      "outputs": [
        {
          "internalType": "address",
          "name": "",
          "type": "address"
        }
      ],
      "stateMutability": "view",
      "type": "function"
    },
    {
      "inputs": [],
      "name": "notifyDkgTimeoutNegativeGasOffsetChangeInitiated",
      "outputs": [
        {
          "internalType": "uint256",
          "name": "",
          "type": "uint256"
        }
      ],
      "stateMutability": "view",
      "type": "function"
    },
    {
      "inputs": [],
      "name": "notifyOperatorInactivityGasOffsetChangeInitiated",
      "outputs": [
        {
          "internalType": "uint256",
          "name": "",
          "type": "uint256"
        }
      ],
      "stateMutability": "view",
      "type": "function"
    },
    {
      "inputs": [],
      "name": "notifySeedTimeoutGasOffsetChangeInitiated",
      "outputs": [
        {
          "internalType": "uint256",
          "name": "",
          "type": "uint256"
        }
      ],
      "stateMutability": "view",
      "type": "function"
    },
    {
      "inputs": [],
      "name": "owner",
      "outputs": [
        {
          "internalType": "address",
          "name": "",
          "type": "address"
        }
      ],
      "stateMutability": "view",
      "type": "function"
    },
    {
      "inputs": [],
      "name": "reimbursementPoolChangeInitiated",
      "outputs": [
        {
          "internalType": "uint256",
          "name": "",
          "type": "uint256"
        }
      ],
      "stateMutability": "view",
      "type": "function"
    },
    {
      "inputs": [],
      "name": "renounceOwnership",
      "outputs": [],
      "stateMutability": "nonpayable",
      "type": "function"
    },
    {
      "inputs": [],
      "name": "sortitionPoolRewardsBanDurationChangeInitiated",
      "outputs": [
        {
          "internalType": "uint256",
          "name": "",
          "type": "uint256"
        }
      ],
      "stateMutability": "view",
      "type": "function"
    },
    {
      "inputs": [
        {
          "internalType": "address",
          "name": "newOwner",
          "type": "address"
        }
      ],
      "name": "transferOwnership",
      "outputs": [],
      "stateMutability": "nonpayable",
      "type": "function"
    },
    {
      "inputs": [
        {
          "internalType": "address",
          "name": "_newRandomBeacon",
          "type": "address"
        }
      ],
      "name": "upgradeRandomBeacon",
      "outputs": [],
      "stateMutability": "nonpayable",
      "type": "function"
    },
    {
      "inputs": [],
      "name": "walletOwnerChangeInitiated",
      "outputs": [
        {
          "internalType": "uint256",
          "name": "",
          "type": "uint256"
        }
      ],
      "stateMutability": "view",
      "type": "function"
    },
    {
      "inputs": [],
      "name": "walletRegistry",
      "outputs": [
        {
          "internalType": "contract WalletRegistry",
          "name": "",
          "type": "address"
        }
      ],
      "stateMutability": "view",
      "type": "function"
    },
    {
      "inputs": [],
      "name": "walletRegistryGovernanceTransferInitiated",
      "outputs": [
        {
          "internalType": "uint256",
          "name": "",
          "type": "uint256"
        }
      ],
      "stateMutability": "view",
      "type": "function"
    },
    {
      "inputs": [
        {
          "internalType": "address",
          "name": "recipient",
          "type": "address"
        }
      ],
      "name": "withdrawIneligibleRewards",
      "outputs": [],
      "stateMutability": "nonpayable",
      "type": "function"
    }
  ],
  "transactionHash": "0x9de4990ae57fbf58bd410477b13e25ccaf499533d05d0d2e1e3192c29eda7643",
  "args": [
    "0x5018FB7F23E3b0ac8bb15143f55850D12B209916",
    60
  ],
  "numDeployments": 1,
  "solcInputHash": "521abe9320c4f026dbb10c2d5c485116",
  "bytecode": "0x60a06040523480156200001157600080fd5b506040516200480d3803806200480d8339810160408190526200003491620000a6565b6200003f3362000056565b6001600160a01b03909116608052602955620000e2565b600080546001600160a01b038381166001600160a01b0319831681178455604051919092169283917f8be0079c531659141344cd1fd0a4f28419497f9722a3daafe3b4186f6b6457e09190a35050565b60008060408385031215620000ba57600080fd5b82516001600160a01b0381168114620000d257600080fd5b6020939093015192949293505050565b60805161459c6200027160003960008181610a7e01528181610c7d01528181610d3d01528181611012015281816110d101528181611252015281816114f101528181611520015281816115a90152818161162f015281816116b50152818161193501528181611a6d01528181611c2301528181611e1701528181611e4601528181611ecc01528181611f5501528181611fdb015281816121970152818161226101528181612386015281816125470152818161260f015281816127c60152818161286a0152818161296f015281816129a101528181612a2701528181612aad01528181612b3301528181612ce501528181612da501528181612ed301528181612f76015281816130c5015281816130f40152818161317a0152818161320001528181613286015281816134b00152818161357b015281816136a00152818161381f015281816138e801528181613a4d01528181613ba401528181613c6c01528181613d3501528181613e4201528181613e7101528181613ef701528181613f7d0152614006015261459c6000f3fe608060405234801561001057600080fd5b50600436106106745760003560e01c80637b81ef5211610351578063b1fae48b116101c3578063d4c44bf51161010f578063e93d9662116100ad578063f293fca811610087578063f293fca814610ba0578063f2fde38b14610ba9578063fddfe99c14610bbc578063fe3bb37014610bc557600080fd5b8063e93d966214610b88578063ec9d1d9614610b90578063f0bb6ce814610b9857600080fd5b8063de0ce4c9116100e9578063de0ce4c914610b5c578063df5ee8f614610b64578063e166e76714610b6d578063e1a7bf7714610b7557600080fd5b8063d4c44bf514610b37578063d5d1a9f514610b40578063dbc439c714610b5357600080fd5b8063c4eb46471161017c578063cd38c13711610156578063cd38c13714610b00578063cdfaeb9814610b13578063ce123d2814610b1c578063d24521aa14610b2f57600080fd5b8063c4eb464714610ae6578063c599447914610aef578063c97e8feb14610af857600080fd5b8063b1fae48b14610aa8578063b4f574bc14610ab1578063b766530814610ac4578063bba3293914610acc578063bf72174914610ad5578063c1b2ba9714610add57600080fd5b806392e473851161029d5780639f5e05661161023b578063a5b9ab4d11610215578063a5b9ab4d14610a5d578063a6d025f114610a66578063ab7aa6ad14610a79578063ae1a332514610aa057600080fd5b80639f5e056614610a45578063a01bc82814610a4d578063a37b138c14610a5557600080fd5b80639949d70e116102775780639949d70e14610a195780639cde7da914610a215780639de6bc9d14610a295780639ec67b3114610a3157600080fd5b806392e47385146109f557806395ba105d146109fd57806396fd955e14610a0657600080fd5b80638a4f77ef1161030a5780638da5cb5b116102e45780638da5cb5b146109c05780638df79fe0146109d15780638e0442f8146109da578063914adf8f146109ed57600080fd5b80638a4f77ef1461099d5780638b63cc22146109a55780638bc32f33146109b857600080fd5b80637b81ef521461096b5780637ef797641461097357806382e70cb81461097c578063883703771461098457806388a6f17e1461098d578063894ee9681461099557600080fd5b806348f60f21116104ea578063660f90311161043657806370a67534116103d457806375767edb116103ae57806375767edb14610926578063785180e71461092f578063798f02231461095a5780637ab18adf1461096257600080fd5b806370a6753414610902578063715018a61461090b57806374f0f1841461091357600080fd5b8063692be74511610410578063692be745146108cb5780636b5f2bff146108d45780636bc88be4146108e75780636d5a9972146108fa57600080fd5b8063660f903114610892578063663032cd146108a55780636795afe6146108b857600080fd5b8063542ced77116104a357806361038b911161047d57806361038b91146108655780636103b2d51461086e57806361d4b5ef14610877578063648392ac1461087f57600080fd5b8063542ced77146108415780635b6bd017146108545780635f735a101461085c57600080fd5b806348f60f21146107ef578063495cb121146108025780634ca107cc146108155780634cbcc7711461081e5780634cf11abc146108265780635203f3861461082e57600080fd5b80632f505f1f116105c45780633bf8a53811610562578063412bd7b41161053c578063412bd7b4146107cd57806341e6f6c2146107d5578063429cdaa8146107dd578063488a4b26146107e657600080fd5b80633bf8a538146107845780633edf74e7146107b15780633f04e1eb146107c457600080fd5b8063363388331161059e578063363388331461075857806337fa5d51146107615780633864d0b7146107745780633aa8582a1461077c57600080fd5b80632f505f1f1461073e578063345cdef5146107465780633611f0021461074f57600080fd5b80631ff566c711610631578063291a0afd1161060b578063291a0afd146106ef5780632b7021501461071a5780632c6ed2f9146107225780632f006f4e1461073557600080fd5b80631ff566c7146106cb578063209e80ea146106d457806326825a9d146106e757600080fd5b806306201e1c146106795780630825682014610683578063086a73191461069f57806309272b89146106a7578063152ba58f146106ba57806319f1103f146106c2575b600080fd5b610681610bd8565b005b61068c60065481565b6040519081526020015b60405180910390f35b61068c610dbc565b6106816106b53660046142e0565b610dce565b61068c610e6f565b61068c60125481565b61068c60025481565b6106816106e23660046142e0565b610e7c565b610681610ec6565b600554610702906001600160a01b031681565b6040516001600160a01b039091168152602001610696565b61068c610f6a565b602754610702906001600160a01b031681565b61068c60165481565b610681610f77565b61068c60215481565b61068c60195481565b61068c601c5481565b61068161076f3660046142e0565b611150565b61068161119a565b61068c6112c8565b6009546107989067ffffffffffffffff1681565b60405167ffffffffffffffff9091168152602001610696565b6106816107bf3660046142e0565b6112d5565b61068c600f5481565b61068c61138a565b61068c611397565b61068c60155481565b61068c600c5481565b6106816107fd3660046142e0565b6113a4565b61068161081036600461430e565b6113ee565b61068c600a5481565b61068c611451565b61068161145e565b61068161083c3660046142e0565b6117b1565b61068161084f3660046142e0565b6117fb565b61068c611845565b61068c601f5481565b61068c60225481565b61068c60105481565b61068c611852565b61068161088d3660046142e0565b61185f565b6106816108a0366004614341565b6118a9565b6106816108b3366004614373565b61190e565b6106816108c63660046142e0565b611995565b61068c60115481565b6106816108e2366004614373565b6119df565b6106816108f5366004614373565b611a9c565b610681611b6b565b61068c60285481565b610681611c99565b610681610921366004614373565b611cad565b61068c60245481565b600d54610942906001600160601b031681565b6040516001600160601b039091168152602001610696565b610681611d84565b61068c600e5481565b61068c6120d7565b61068c60235481565b61068c6120e4565b61068c60085481565b61068c6120f1565b6106816120fe565b6106816122ce565b6106816109b33660046142e0565b612402565b6106816124ae565b6000546001600160a01b0316610702565b61068c60135481565b6106816109e83660046142e0565b61267d565b610681612731565b6106816128dc565b61068c60015481565b600754610942906001600160601b031681565b61068c612c2f565b61068c612c3c565b610681612c49565b600b546107989067ffffffffffffffff1681565b61068c612e24565b61068c612e31565b610681612e3e565b61068c601a5481565b610681610a743660046142e0565b612fe9565b6107027f000000000000000000000000000000000000000000000000000000000000000081565b610681613032565b61068c601e5481565b610681610abf3660046142e0565b613385565b610681613417565b61068c60295481565b6106816135e8565b61068c60205481565b61068c60255481565b61068c60145481565b61068c613716565b600354610702906001600160a01b031681565b61068c601d5481565b610681610b2a36600461430e565b613723565b610681613786565b61068c601b5481565b610681610b4e366004614373565b613955565b61068c60175481565b61068c613a1e565b61068c60185481565b61068c613a2b565b610681610b83366004614373565b613a38565b610681613bd3565b61068c613da2565b610681613daf565b61068c60265481565b610681610bb7366004614373565b614102565b61068c60045481565b610681610bd3366004614341565b61417b565b610be06141e0565b600c5460008111610c0c5760405162461bcd60e51b8152600401610c0390614390565b60405180910390fd5b602954610c1982426143be565b1015610c375760405162461bcd60e51b8152600401610c03906143e5565b600b5460405167ffffffffffffffff90911681527f6a7551372930a2bc4aec844a266609ca90cf9b805f875e92680e901b43d5273f9060200160405180910390a16000807f00000000000000000000000000000000000000000000000000000000000000006001600160a01b0316637b14729e6040518163ffffffff1660e01b8152600401606060405180830381865afa158015610cd9573d6000803e3d6000fd5b505050506040513d601f19601f82011682018060405250810190610cfd919061441a565b50600b546040516301409c5360e71b81526001600160601b038416600482015267ffffffffffffffff8084166024830152909116604482015291935091507f00000000000000000000000000000000000000000000000000000000000000006001600160a01b03169063a04e298090606401600060405180830381600087803b158015610d8957600080fd5b505af1158015610d9d573d6000803e3d6000fd5b50506000600c555050600b805467ffffffffffffffff19169055505050565b6000610dc960145461423a565b905090565b610dd66141e0565b60008111610e265760405162461bcd60e51b815260206004820152601c60248201527f444b4720736565642074696d656f7574206d757374206265203e2030000000006044820152606401610c03565b60138190554260148190556040805183815260208101929092527fbc7737817ddb27c31c172ff62448cc628417bd3f09268a2c51f57f44187e3bd891015b60405180910390a150565b6000610dc9601a5461423a565b610e846141e0565b60118190554260128190556040805183815260208101929092527f523803e7f157ab532da5ae1e1d19b71f16b18376cf65a301ef8e3f07076d6bfd9101610e64565b610ece6141e0565b60025460008111610ef15760405162461bcd60e51b8152600401610c0390614390565b602954610efe82426143be565b1015610f1c5760405162461bcd60e51b8152600401610c03906143e5565b7f657e578b1ed229f1e01ab5ce4700399f19ddd24b09b071ab9e72122f18aa7297600154604051610f4f91815260200190565b60405180910390a15060018054602955600060028190559055565b6000610dc960165461423a565b610f7f6141e0565b60085460008111610fa25760405162461bcd60e51b8152600401610c0390614390565b602954610faf82426143be565b1015610fcd5760405162461bcd60e51b8152600401610c03906143e5565b6007546040516001600160601b0390911681527fca5de5c00e5da52e22f64b23ecfa308e487441bcbd0f4b84657799102e3ee3719060200160405180910390a16000807f00000000000000000000000000000000000000000000000000000000000000006001600160a01b0316637b14729e6040518163ffffffff1660e01b8152600401606060405180830381865afa15801561106e573d6000803e3d6000fd5b505050506040513d601f19601f82011682018060405250810190611092919061441a565b6007546040516301409c5360e71b81526001600160601b03909116600482015267ffffffffffffffff80841660248301528216604482015291945092507f00000000000000000000000000000000000000000000000000000000000000006001600160a01b0316915063a04e298090606401600060405180830381600087803b15801561111e57600080fd5b505af1158015611132573d6000803e3d6000fd5b505060006008555050600780546001600160601b0319169055505050565b6111586141e0565b60018190554260028190556040805183815260208101929092527f1ed485551399b30c188ed4d426c6c62d7b703b9fec6b486c70a3fe616c2707c89101610e64565b6111a26141e0565b600454600081116111c55760405162461bcd60e51b8152600401610c0390614390565b6029546111d282426143be565b10156111f05760405162461bcd60e51b8152600401610c03906143e5565b6003546040516001600160a01b0390911681527f7ce7971982677220afc24841083a42b116461c6c98a6521a9b868289e1666d129060200160405180910390a16003546040516334e2fffd60e21b81526001600160a01b0391821660048201527f00000000000000000000000000000000000000000000000000000000000000009091169063d38bfff490602401600060405180830381600087803b15801561129857600080fd5b505af11580156112ac573d6000803e3d6000fd5b505060006004555050600380546001600160a01b031916905550565b6000610dc960245461423a565b6112dd6141e0565b600081116113485760405162461bcd60e51b815260206004820152603260248201527f444b47207375626d697474657220707265636564656e636520706572696f642060448201527106c656e677468206d757374206265203e20360741b6064820152608401610c03565b601b81905542601c8190556040805183815260208101929092527f69f992e32ba993676818a20dfe808b5d41e0db4bdd3a52917701443500a423ca9101610e64565b6000610dc9601e5461423a565b6000610dc960285461423a565b6113ac6141e0565b60258190554260268190556040805183815260208101929092527fd26d5cc88a80cc6d3228aa110a2cb1e12b4a013ea21da94387b5d61915d7f7ae9101610e64565b6113f66141e0565b600d80546001600160601b0319166001600160601b03831690811790915542600e8190556040805192835260208301919091527f979a8e091ff7fa7b1f1c4f4e47e25837fd8aca91b084443ae6dc2e9f4feb17569101610e64565b6000610dc960065461423a565b6114666141e0565b601654600081116114895760405162461bcd60e51b8152600401610c0390614390565b60295461149682426143be565b10156114b45760405162461bcd60e51b8152600401610c03906143e5565b7f54eb240e49fe7d2dc26863f9a2682d5834812e39417dbac77797c3b01b97395c6015546040516114e791815260200190565b60405180910390a17f00000000000000000000000000000000000000000000000000000000000000006001600160a01b0316638dcbdf4a7f00000000000000000000000000000000000000000000000000000000000000006001600160a01b03166308aa090b6040518163ffffffff1660e01b815260040160a060405180830381865afa15801561157c573d6000803e3d6000fd5b505050506040513d601f19601f820116820180604052508101906115a09190614467565b600001516015547f00000000000000000000000000000000000000000000000000000000000000006001600160a01b03166308aa090b6040518163ffffffff1660e01b815260040160a060405180830381865afa158015611605573d6000803e3d6000fd5b505050506040513d601f19601f820116820180604052508101906116299190614467565b604001517f00000000000000000000000000000000000000000000000000000000000000006001600160a01b03166308aa090b6040518163ffffffff1660e01b815260040160a060405180830381865afa15801561168b573d6000803e3d6000fd5b505050506040513d601f19601f820116820180604052508101906116af9190614467565b606001517f00000000000000000000000000000000000000000000000000000000000000006001600160a01b03166308aa090b6040518163ffffffff1660e01b815260040160a060405180830381865afa158015611711573d6000803e3d6000fd5b505050506040513d601f19601f820116820180604052508101906117359190614467565b608001516040516001600160e01b031960e088901b1681526004810195909552602485019390935260448401919091526064830152608482015260a401600060405180830381600087803b15801561178c57600080fd5b505af11580156117a0573d6000803e3d6000fd5b505060006016819055601555505050565b6117b96141e0565b60238190554260248190556040805183815260208101929092527f0d91b5f502e394889eb37e206aa19aaee391191261f63b3c60588cf2338536eb9101610e64565b6118036141e0565b601d81905542601e8190556040805183815260208101929092527fe7f67ed355ceb941da1b6600c508f5493967c944c9fee75936aaa986b9e0344c9101610e64565b6000610dc960125461423a565b6000610dc9600c5461423a565b6118676141e0565b60218190554260228190556040805183815260208101929092527f6ff3903999be3f8c1262f638998917b6d6c6f8097cb7cb9e60edaa1a5f2a66719101610e64565b6118b16141e0565b600b805467ffffffffffffffff191667ffffffffffffffff831690811790915542600c8190556040805192835260208301919091527f979c18cc9822195c2af34f89e0713a14edbd9713b32932c60471951cc1fa02db9101610e64565b6119166141e0565b60405163663032cd60e01b81526001600160a01b0382811660048301527f0000000000000000000000000000000000000000000000000000000000000000169063663032cd906024015b600060405180830381600087803b15801561197a57600080fd5b505af115801561198e573d6000803e3d6000fd5b5050505050565b61199d6141e0565b60178190554260188190556040805183815260208101929092527fff34014c09b30234094b14f309369c4b204ab5f24daa98f6922ac40a04768bf09101610e64565b6119e76141e0565b6001600160a01b038116611a4e5760405162461bcd60e51b815260206004820152602860248201527f4e65772072616e646f6d20626561636f6e20616464726573732063616e6e6f74604482015267206265207a65726f60c01b6064820152608401610c03565b604051636b5f2bff60e01b81526001600160a01b0382811660048301527f00000000000000000000000000000000000000000000000000000000000000001690636b5f2bff90602401611960565b611aa46141e0565b6001600160a01b038116611b105760405162461bcd60e51b815260206004820152602d60248201527f4e6577207265696d62757273656d656e7420706f6f6c2061646472657373206360448201526c616e6e6f74206265207a65726f60981b6064820152608401610c03565b602780546001600160a01b0319166001600160a01b0383169081179091554260288190556040805192835260208301919091527fb0265ce862ecc921385ce2f0f4c7980f8d3ae43d5a9038377962102d5c089b679101610e64565b611b736141e0565b60285460008111611b965760405162461bcd60e51b8152600401610c0390614390565b602954611ba382426143be565b1015611bc15760405162461bcd60e51b8152600401610c03906143e5565b6027546040516001600160a01b0390911681527f0e2d2343d31b085b7c4e56d1c8a6ec79f7ab07460386f1c9a1756239fe2533ac9060200160405180910390a1602754604051633d9ada7360e11b81526001600160a01b0391821660048201527f000000000000000000000000000000000000000000000000000000000000000090911690637b35b4e690602401600060405180830381600087803b158015611c6957600080fd5b505af1158015611c7d573d6000803e3d6000fd5b505060006028555050602780546001600160a01b031916905550565b611ca16141e0565b611cab6000614290565b565b611cb56141e0565b6001600160a01b038116611d295760405162461bcd60e51b815260206004820152603560248201527f4e65772077616c6c657420726567697374727920676f7665726e616e636520616044820152746464726573732063616e6e6f74206265207a65726f60581b6064820152608401610c03565b600380546001600160a01b0319166001600160a01b0383169081179091554260048190556040805192835260208301919091527f26e6ebbf5d35c12daf1a9570237759f5e8a16f2c2957dd17a6db89a08177276d9101610e64565b611d8c6141e0565b60185460008111611daf5760405162461bcd60e51b8152600401610c0390614390565b602954611dbc82426143be565b1015611dda5760405162461bcd60e51b8152600401610c03906143e5565b7ffc489bb20492c4590e5a1edb8e096301dd7e9c24843a5af9221ddafff010f0f0601754604051611e0d91815260200190565b60405180910390a17f00000000000000000000000000000000000000000000000000000000000000006001600160a01b0316638dcbdf4a7f00000000000000000000000000000000000000000000000000000000000000006001600160a01b03166308aa090b6040518163ffffffff1660e01b815260040160a060405180830381865afa158015611ea2573d6000803e3d6000fd5b505050506040513d601f19601f82011682018060405250810190611ec69190614467565b600001517f00000000000000000000000000000000000000000000000000000000000000006001600160a01b03166308aa090b6040518163ffffffff1660e01b815260040160a060405180830381865afa158015611f28573d6000803e3d6000fd5b505050506040513d601f19601f82011682018060405250810190611f4c9190614467565b602001516017547f00000000000000000000000000000000000000000000000000000000000000006001600160a01b03166308aa090b6040518163ffffffff1660e01b815260040160a060405180830381865afa158015611fb1573d6000803e3d6000fd5b505050506040513d601f19601f82011682018060405250810190611fd59190614467565b606001517f00000000000000000000000000000000000000000000000000000000000000006001600160a01b03166308aa090b6040518163ffffffff1660e01b815260040160a060405180830381865afa158015612037573d6000803e3d6000fd5b505050506040513d601f19601f8201168201806040525081019061205b9190614467565b608001516040516001600160e01b031960e088901b1681526004810195909552602485019390935260448401919091526064830152608482015260a401600060405180830381600087803b1580156120b257600080fd5b505af11580156120c6573d6000803e3d6000fd5b505060006018819055601755505050565b6000610dc960085461423a565b6000610dc9600a5461423a565b6000610dc960265461423a565b6121066141e0565b602254600081116121295760405162461bcd60e51b8152600401610c0390614390565b60295461213682426143be565b10156121545760405162461bcd60e51b8152600401610c03906143e5565b7fc02f8fddd9d337adf38d4f97d3ab8c91b69075b48db9bc25c461b0d02c3d409260215460405161218791815260200190565b60405180910390a16000806000807f00000000000000000000000000000000000000000000000000000000000000006001600160a01b03166388a595906040518163ffffffff1660e01b815260040160a060405180830381865afa1580156121f3573d6000803e3d6000fd5b505050506040513d601f19601f8201168201806040525081019061221791906144e5565b6021546040516332239c3d60e21b81526004810187905260248101869052604481019190915260648101839052608481018290529498509296509450909250506001600160a01b037f0000000000000000000000000000000000000000000000000000000000000000169063c88e70f49060a401600060405180830381600087803b1580156122a557600080fd5b505af11580156122b9573d6000803e3d6000fd5b50506000602281905560215550505050505050565b6122d66141e0565b600e54600081116122f95760405162461bcd60e51b8152600401610c0390614390565b60295461230682426143be565b10156123245760405162461bcd60e51b8152600401610c03906143e5565b600d546040516001600160601b0390911681527f729911080850beaa017f6f4aee63ab5ac1f41bc268fe06b9cfc0160a2c532ccd9060200160405180910390a1600d5460405163227fd44f60e01b81526001600160601b0390911660048201527f00000000000000000000000000000000000000000000000000000000000000006001600160a01b03169063227fd44f90602401600060405180830381600087803b1580156123d257600080fd5b505af11580156123e6573d6000803e3d6000fd5b50506000600e555050600d80546001600160601b031916905550565b61240a6141e0565b6000811161246c5760405162461bcd60e51b815260206004820152602960248201527f444b4720726573756c74207375626d697373696f6e2074696d656f7574206d7560448201526807374206265203e20360bc1b6064820152608401610c03565b601981905542601a8190556040805183815260208101929092527f77bd6dceb389516c704e337d2e53bab8397e3fd1de7e3b852090742804ba13b49101610e64565b6124b66141e0565b601e54600081116124d95760405162461bcd60e51b8152600401610c0390614390565b6029546124e682426143be565b10156125045760405162461bcd60e51b8152600401610c03906143e5565b7ff71bf0b76dcaef665875c3a1d4959efda6ea75c7171f5fae1bd305f7c8509283601d5460405161253791815260200190565b60405180910390a16000806000807f00000000000000000000000000000000000000000000000000000000000000006001600160a01b03166388a595906040518163ffffffff1660e01b815260040160a060405180830381865afa1580156125a3573d6000803e3d6000fd5b505050506040513d601f19601f820116820180604052508101906125c791906144e5565b601d546040516332239c3d60e21b8152600481019190915260248101859052604481018490526064810183905260848101829052939850919650945092506001600160a01b037f000000000000000000000000000000000000000000000000000000000000000016915063c88e70f49060a401600060405180830381600087803b15801561265457600080fd5b505af1158015612668573d6000803e3d6000fd5b50506000601e819055601d5550505050505050565b6126856141e0565b600a8110156126ef5760405162461bcd60e51b815260206004820152603060248201527f444b4720726573756c74206368616c6c656e676520706572696f64206c656e6760448201526f07468206d757374206265203e3d2031360841b6064820152608401610c03565b60158190554260168190556040805183815260208101929092527f4bc54f06db7242d34e1d1cdd7b4b33807a8210c54fc440ba45e6e5ffa04e083d9101610e64565b6127396141e0565b6012546000811161275c5760405162461bcd60e51b8152600401610c0390614390565b60295461276982426143be565b10156127875760405162461bcd60e51b8152600401610c03906143e5565b7f0945b46b311d9dd20cdadf139b3449fe2e50026e619f33cabedbd7461c4290766011546040516127ba91815260200190565b60405180910390a160007f00000000000000000000000000000000000000000000000000000000000000006001600160a01b031663529023016040518163ffffffff1660e01b81526004016040805180830381865afa158015612821573d6000803e3d6000fd5b505050506040513d601f19601f820116820180604052508101906128459190614525565b50601154604051631b27b35960e21b81526004810183905260248101919091529091507f00000000000000000000000000000000000000000000000000000000000000006001600160a01b031690636c9ecd6490604401600060405180830381600087803b1580156128b657600080fd5b505af11580156128ca573d6000803e3d6000fd5b50506000601281905560115550505050565b6128e46141e0565b601454600081116129075760405162461bcd60e51b8152600401610c0390614390565b60295461291482426143be565b10156129325760405162461bcd60e51b8152600401610c03906143e5565b7f699d711e0fcec79bdd53b4d7dd22601054a0ab464fdd5c013acef3f60aa76df160135460405161296591815260200190565b60405180910390a17f00000000000000000000000000000000000000000000000000000000000000006001600160a01b0316638dcbdf4a6013547f00000000000000000000000000000000000000000000000000000000000000006001600160a01b03166308aa090b6040518163ffffffff1660e01b815260040160a060405180830381865afa1580156129fd573d6000803e3d6000fd5b505050506040513d601f19601f82011682018060405250810190612a219190614467565b602001517f00000000000000000000000000000000000000000000000000000000000000006001600160a01b03166308aa090b6040518163ffffffff1660e01b815260040160a060405180830381865afa158015612a83573d6000803e3d6000fd5b505050506040513d601f19601f82011682018060405250810190612aa79190614467565b604001517f00000000000000000000000000000000000000000000000000000000000000006001600160a01b03166308aa090b6040518163ffffffff1660e01b815260040160a060405180830381865afa158015612b09573d6000803e3d6000fd5b505050506040513d601f19601f82011682018060405250810190612b2d9190614467565b606001517f00000000000000000000000000000000000000000000000000000000000000006001600160a01b03166308aa090b6040518163ffffffff1660e01b815260040160a060405180830381865afa158015612b8f573d6000803e3d6000fd5b505050506040513d601f19601f82011682018060405250810190612bb39190614467565b608001516040516001600160e01b031960e088901b1681526004810195909552602485019390935260448401919091526064830152608482015260a401600060405180830381600087803b158015612c0a57600080fd5b505af1158015612c1e573d6000803e3d6000fd5b505060006014819055601355505050565b6000610dc9600e5461423a565b6000610dc960185461423a565b612c516141e0565b600a5460008111612c745760405162461bcd60e51b8152600401610c0390614390565b602954612c8182426143be565b1015612c9f5760405162461bcd60e51b8152600401610c03906143e5565b60095460405167ffffffffffffffff90911681527fcc354ece588e8fa730a65a72ebb90039caf81a2a9efedf80e8124566d42a75e89060200160405180910390a16000807f00000000000000000000000000000000000000000000000000000000000000006001600160a01b0316637b14729e6040518163ffffffff1660e01b8152600401606060405180830381865afa158015612d41573d6000803e3d6000fd5b505050506040513d601f19601f82011682018060405250810190612d65919061441a565b506009546040516301409c5360e71b81526001600160601b038416600482015267ffffffffffffffff9182166024820152908216604482015291935091507f00000000000000000000000000000000000000000000000000000000000000006001600160a01b03169063a04e298090606401600060405180830381600087803b158015612df157600080fd5b505af1158015612e05573d6000803e3d6000fd5b50506000600a5550506009805467ffffffffffffffff19169055505050565b6000610dc960045461423a565b6000610dc960025461423a565b612e466141e0565b60105460008111612e695760405162461bcd60e51b8152600401610c0390614390565b602954612e7682426143be565b1015612e945760405162461bcd60e51b8152600401610c03906143e5565b7ff972545d914a516609b7f99dd91f81c8490dd818618b8662d7211bb403b40ac5600f54604051612ec791815260200190565b60405180910390a160007f00000000000000000000000000000000000000000000000000000000000000006001600160a01b031663529023016040518163ffffffff1660e01b81526004016040805180830381865afa158015612f2e573d6000803e3d6000fd5b505050506040513d601f19601f82011682018060405250810190612f529190614525565b600f54604051631b27b35960e21b81526004810191909152602481018290529092507f00000000000000000000000000000000000000000000000000000000000000006001600160a01b03169150636c9ecd6490604401600060405180830381600087803b158015612fc357600080fd5b505af1158015612fd7573d6000803e3d6000fd5b505060006010819055600f5550505050565b612ff16141e0565b601f81905542602081815560408051848152918201929092527f8ff92b4fa51728d3b3bebd82f5bcfa8904b0278abbce025a1e33aaf9719fdb0d9101610e64565b61303a6141e0565b601c546000811161305d5760405162461bcd60e51b8152600401610c0390614390565b60295461306a82426143be565b10156130885760405162461bcd60e51b8152600401610c03906143e5565b7ffc88a5167b8569e72b62f4b76b3caae7699e46c7f6f16a8d011b135ac613acc4601b546040516130bb91815260200190565b60405180910390a17f00000000000000000000000000000000000000000000000000000000000000006001600160a01b0316638dcbdf4a7f00000000000000000000000000000000000000000000000000000000000000006001600160a01b03166308aa090b6040518163ffffffff1660e01b815260040160a060405180830381865afa158015613150573d6000803e3d6000fd5b505050506040513d601f19601f820116820180604052508101906131749190614467565b600001517f00000000000000000000000000000000000000000000000000000000000000006001600160a01b03166308aa090b6040518163ffffffff1660e01b815260040160a060405180830381865afa1580156131d6573d6000803e3d6000fd5b505050506040513d601f19601f820116820180604052508101906131fa9190614467565b602001517f00000000000000000000000000000000000000000000000000000000000000006001600160a01b03166308aa090b6040518163ffffffff1660e01b815260040160a060405180830381865afa15801561325c573d6000803e3d6000fd5b505050506040513d601f19601f820116820180604052508101906132809190614467565b604001517f00000000000000000000000000000000000000000000000000000000000000006001600160a01b03166308aa090b6040518163ffffffff1660e01b815260040160a060405180830381865afa1580156132e2573d6000803e3d6000fd5b505050506040513d601f19601f820116820180604052508101906133069190614467565b60600151601b546040516001600160e01b031960e088901b1681526004810195909552602485019390935260448401919091526064830152608482015260a401600060405180830381600087803b15801561336057600080fd5b505af1158015613374573d6000803e3d6000fd5b50506000601c819055601b55505050565b61338d6141e0565b60648111156133d55760405162461bcd60e51b815260206004820152601460248201527304d6178696d756d2076616c7565206973203130360641b6044820152606401610c03565b600f8190554260108190556040805183815260208101929092527f2083937d69f065ceb929d6773c5d9fb29a9b1b523d38988f0649d016fef90ca19101610e64565b61341f6141e0565b602454600081116134425760405162461bcd60e51b8152600401610c0390614390565b60295461344f82426143be565b101561346d5760405162461bcd60e51b8152600401610c03906143e5565b7f41a5ecec84878dee7030f74af5f0b3debf08544fce106ab7ae670617dce7c11d6023546040516134a091815260200190565b60405180910390a16000806000807f00000000000000000000000000000000000000000000000000000000000000006001600160a01b03166388a595906040518163ffffffff1660e01b815260040160a060405180830381865afa15801561350c573d6000803e3d6000fd5b505050506040513d601f19601f8201168201806040525081019061353091906144e5565b6023546040516332239c3d60e21b8152600481018790526024810186905260448101859052606481019190915260848101829052949850929650909450909250506001600160a01b037f0000000000000000000000000000000000000000000000000000000000000000169063c88e70f49060a401600060405180830381600087803b1580156135bf57600080fd5b505af11580156135d3573d6000803e3d6000fd5b50506000602481905560235550505050505050565b6135f06141e0565b600654600081116136135760405162461bcd60e51b8152600401610c0390614390565b60295461362082426143be565b101561363e5760405162461bcd60e51b8152600401610c03906143e5565b6005546040516001600160a01b0390911681527fa1993af5a189ba5ad4155263c920cfee33ce0593a8eb231a13bb3ce6f39459e39060200160405180910390a160055460405163d0bcc0e360e01b81526001600160a01b0391821660048201527f00000000000000000000000000000000000000000000000000000000000000009091169063d0bcc0e390602401600060405180830381600087803b1580156136e657600080fd5b505af11580156136fa573d6000803e3d6000fd5b505060006006555050600580546001600160a01b031916905550565b6000610dc960225461423a565b61372b6141e0565b600780546001600160601b0319166001600160601b0383169081179091554260088190556040805192835260208301919091527f456911403e756f0141f9a154095c7495b7002db4f6b26a7ff03c4f09335abc4b9101610e64565b61378e6141e0565b602054600081116137b15760405162461bcd60e51b8152600401610c0390614390565b6029546137be82426143be565b10156137dc5760405162461bcd60e51b8152600401610c03906143e5565b7f9eb4413d73f3cae81d9e8ab119d94a8d2cd6b2564117c30f2112b972dcf84f96601f5460405161380f91815260200190565b60405180910390a16000806000807f00000000000000000000000000000000000000000000000000000000000000006001600160a01b03166388a595906040518163ffffffff1660e01b815260040160a060405180830381865afa15801561387b573d6000803e3d6000fd5b505050506040513d601f19601f8201168201806040525081019061389f91906144e5565b601f546040516332239c3d60e21b815260048101879052602481019190915260448101849052606481018390526084810182905294985091965094509250506001600160a01b037f0000000000000000000000000000000000000000000000000000000000000000169063c88e70f49060a401600060405180830381600087803b15801561392c57600080fd5b505af1158015613940573d6000803e3d6000fd5b505060006020819055601f5550505050505050565b61395d6141e0565b6001600160a01b0381166139c35760405162461bcd60e51b815260206004820152602760248201527f4e65772077616c6c6574206f776e657220616464726573732063616e6e6f74206044820152666265207a65726f60c81b6064820152608401610c03565b600580546001600160a01b0319166001600160a01b0383169081179091554260068190556040805192835260208301919091527f5846df828808530e936deade5e664982029ee91c99d68236a8668e6b131d3fd89101610e64565b6000610dc9601c5461423a565b6000610dc960105461423a565b613a406141e0565b60006001600160a01b03167f00000000000000000000000000000000000000000000000000000000000000006001600160a01b0316631ae879e86040518163ffffffff1660e01b8152600401602060405180830381865afa158015613aa9573d6000803e3d6000fd5b505050506040513d601f19601f82011682018060405250810190613acd9190614549565b6001600160a01b031614613b235760405162461bcd60e51b815260206004820181905260248201527f57616c6c6574204f776e657220616c726561647920696e697469616c697a65646044820152606401610c03565b6001600160a01b038116613b855760405162461bcd60e51b815260206004820152602360248201527f57616c6c6574204f776e657220616464726573732063616e6e6f74206265207a60448201526265726f60e81b6064820152608401610c03565b60405163d0bcc0e360e01b81526001600160a01b0382811660048301527f0000000000000000000000000000000000000000000000000000000000000000169063d0bcc0e390602401611960565b613bdb6141e0565b60265460008111613bfe5760405162461bcd60e51b8152600401610c0390614390565b602954613c0b82426143be565b1015613c295760405162461bcd60e51b8152600401610c03906143e5565b7ff726b0e44d3e6afe8ee19a31e1cd23b021e741b0ac8eb91cdc912b6eb5555152602554604051613c5c91815260200190565b60405180910390a16000806000807f00000000000000000000000000000000000000000000000000000000000000006001600160a01b03166388a595906040518163ffffffff1660e01b815260040160a060405180830381865afa158015613cc8573d6000803e3d6000fd5b505050506040513d601f19601f82011682018060405250810190613cec91906144e5565b506025546040516332239c3d60e21b8152600481018690526024810185905260448101849052606481018390526084810191909152939750919550935091506001600160a01b037f0000000000000000000000000000000000000000000000000000000000000000169063c88e70f49060a401600060405180830381600087803b158015613d7957600080fd5b505af1158015613d8d573d6000803e3d6000fd5b50506000602681905560255550505050505050565b6000610dc960205461423a565b613db76141e0565b601a5460008111613dda5760405162461bcd60e51b8152600401610c0390614390565b602954613de782426143be565b1015613e055760405162461bcd60e51b8152600401610c03906143e5565b7ff0db347eb933ec2636808975682b1fd63249be20775411ced58d2fd61e0fe742601954604051613e3891815260200190565b60405180910390a17f00000000000000000000000000000000000000000000000000000000000000006001600160a01b0316638dcbdf4a7f00000000000000000000000000000000000000000000000000000000000000006001600160a01b03166308aa090b6040518163ffffffff1660e01b815260040160a060405180830381865afa158015613ecd573d6000803e3d6000fd5b505050506040513d601f19601f82011682018060405250810190613ef19190614467565b600001517f00000000000000000000000000000000000000000000000000000000000000006001600160a01b03166308aa090b6040518163ffffffff1660e01b815260040160a060405180830381865afa158015613f53573d6000803e3d6000fd5b505050506040513d601f19601f82011682018060405250810190613f779190614467565b602001517f00000000000000000000000000000000000000000000000000000000000000006001600160a01b03166308aa090b6040518163ffffffff1660e01b815260040160a060405180830381865afa158015613fd9573d6000803e3d6000fd5b505050506040513d601f19601f82011682018060405250810190613ffd9190614467565b604001516019547f00000000000000000000000000000000000000000000000000000000000000006001600160a01b03166308aa090b6040518163ffffffff1660e01b815260040160a060405180830381865afa158015614062573d6000803e3d6000fd5b505050506040513d601f19601f820116820180604052508101906140869190614467565b608001516040516001600160e01b031960e088901b1681526004810195909552602485019390935260448401919091526064830152608482015260a401600060405180830381600087803b1580156140dd57600080fd5b505af11580156140f1573d6000803e3d6000fd5b50506000601a819055601955505050565b61410a6141e0565b6001600160a01b03811661416f5760405162461bcd60e51b815260206004820152602660248201527f4f776e61626c653a206e6577206f776e657220697320746865207a65726f206160448201526564647265737360d01b6064820152608401610c03565b61417881614290565b50565b6141836141e0565b6009805467ffffffffffffffff191667ffffffffffffffff831690811790915542600a8190556040805192835260208301919091527f98f756aaf5ba8f60be58f0b035a3a5f54bdfbc5d1ada450c235b9e500625df389101610e64565b6000546001600160a01b03163314611cab5760405162461bcd60e51b815260206004820181905260248201527f4f776e61626c653a2063616c6c6572206973206e6f7420746865206f776e65726044820152606401610c03565b600080821161425b5760405162461bcd60e51b8152600401610c0390614390565b600061426783426143be565b9050602954811061427b5750600092915050565b8060295461428991906143be565b9392505050565b600080546001600160a01b038381166001600160a01b0319831681178455604051919092169283917f8be0079c531659141344cd1fd0a4f28419497f9722a3daafe3b4186f6b6457e09190a35050565b6000602082840312156142f257600080fd5b5035919050565b6001600160601b038116811461417857600080fd5b60006020828403121561432057600080fd5b8135614289816142f9565b67ffffffffffffffff8116811461417857600080fd5b60006020828403121561435357600080fd5b81356142898161432b565b6001600160a01b038116811461417857600080fd5b60006020828403121561438557600080fd5b81356142898161435e565b60208082526014908201527310da185b99d9481b9bdd081a5b9a5d1a585d195960621b604082015260600190565b818103818111156143df57634e487b7160e01b600052601160045260246000fd5b92915050565b6020808252818101527f476f7665726e616e63652064656c617920686173206e6f7420656c6170736564604082015260600190565b60008060006060848603121561442f57600080fd5b835161443a816142f9565b602085015190935061444b8161432b565b604085015190925061445c8161432b565b809150509250925092565b600060a0828403121561447957600080fd5b60405160a0810181811067ffffffffffffffff821117156144aa57634e487b7160e01b600052604160045260246000fd5b806040525082518152602083015160208201526040830151604082015260608301516060820152608083015160808201528091505092915050565b600080600080600060a086880312156144fd57600080fd5b5050835160208501516040860151606087015160809097015192989197509594509092509050565b6000806040838503121561453857600080fd5b505080516020909101519092909150565b60006020828403121561455b57600080fd5b81516142898161435e56fea264697066735822122059deb8d487951ebd0df29da7caa6efdcf85cc22845c712813909799d3cc334f064736f6c63430008110033",
  "devdoc": {
    "kind": "dev",
    "methods": {
      "beginAuthorizationDecreaseChangePeriodUpdate(uint64)": {
        "details": "Can be called only by the contract owner.",
        "params": {
          "_newAuthorizationDecreaseChangePeriod": "New authorization decrease change period"
        }
      },
      "beginAuthorizationDecreaseDelayUpdate(uint64)": {
        "details": "Can be called only by the contract owner.",
        "params": {
          "_newAuthorizationDecreaseDelay": "New authorization decrease delay"
        }
      },
      "beginDkgResultApprovalGasOffsetUpdate(uint256)": {
        "details": "Can be called only by the contract owner.",
        "params": {
          "_newDkgResultApprovalGasOffset": "New DKG result approval gas."
        }
      },
      "beginDkgResultChallengeExtraGasUpdate(uint256)": {
        "details": "Can be called only by the contract owner.",
        "params": {
          "_newDkgResultChallengeExtraGas": "New DKG result challenge extra gas"
        }
      },
      "beginDkgResultChallengePeriodLengthUpdate(uint256)": {
        "details": "Can be called only by the contract owner.",
        "params": {
          "_newDkgResultChallengePeriodLength": "New DKG result challenge        period length in blocks"
        }
      },
      "beginDkgResultSubmissionGasUpdate(uint256)": {
        "details": "Can be called only by the contract owner.",
        "params": {
          "_newDkgResultSubmissionGas": "New DKG result submission gas."
        }
      },
      "beginDkgResultSubmissionTimeoutUpdate(uint256)": {
        "details": "Can be called only by the contract owner.",
        "params": {
          "_newDkgResultSubmissionTimeout": "New DKG result submission timeout        in blocks"
        }
      },
      "beginDkgSeedTimeoutUpdate(uint256)": {
        "details": "Can be called only by the contract owner.",
        "params": {
          "_newDkgSeedTimeout": "New DKG seed timeout in blocks"
        }
      },
      "beginDkgSubmitterPrecedencePeriodLengthUpdate(uint256)": {
        "details": "Can be called only by the contract owner.",
        "params": {
          "_newSubmitterPrecedencePeriodLength": "New DKG submitter precedence        period length in blocks"
        }
      },
      "beginGovernanceDelayUpdate(uint256)": {
        "details": "Can be called only by the contract owner.",
        "params": {
          "_newGovernanceDelay": "New governance delay"
        }
      },
      "beginMaliciousDkgResultNotificationRewardMultiplierUpdate(uint256)": {
        "details": "Can be called only by the contract owner.",
        "params": {
          "_newMaliciousDkgResultNotificationRewardMultiplier": "New DKG        malicious result notification reward multiplier."
        }
      },
      "beginMaliciousDkgResultSlashingAmountUpdate(uint96)": {
        "details": "Can be called only by the contract owner.",
        "params": {
          "_newMaliciousDkgResultSlashingAmount": "New malicious DKG result        slashing amount"
        }
      },
      "beginMinimumAuthorizationUpdate(uint96)": {
        "details": "Can be called only by the contract owner.",
        "params": {
          "_newMinimumAuthorization": "New minimum authorization amount."
        }
      },
      "beginNotifyDkgTimeoutNegativeGasOffsetUpdate(uint256)": {
        "details": "Can be called only by the contract owner.",
        "params": {
          "_newNotifyDkgTimeoutNegativeGasOffset": "New DKG timeout negative gas        notification gas offset"
        }
      },
      "beginNotifyOperatorInactivityGasOffsetUpdate(uint256)": {
        "details": "Can be called only by the contract owner.",
        "params": {
          "_newNotifyOperatorInactivityGasOffset": "New operator inactivity        notification gas offset"
        }
      },
      "beginNotifySeedTimeoutGasOffsetUpdate(uint256)": {
        "details": "Can be called only by the contract owner.",
        "params": {
          "_newNotifySeedTimeoutGasOffset": "New seed for DKG delivery timeout        notification gas offset"
        }
      },
      "beginReimbursementPoolUpdate(address)": {
        "details": "Can be called only by the contract owner.",
        "params": {
          "_newReimbursementPool": "New reimbursement pool."
        }
      },
      "beginSortitionPoolRewardsBanDurationUpdate(uint256)": {
        "details": "Can be called only by the contract owner.",
        "params": {
          "_newSortitionPoolRewardsBanDuration": "New sortition pool rewards        ban duration."
        }
      },
      "beginWalletOwnerUpdate(address)": {
        "details": "Can be called only by the contract owner.",
        "params": {
          "_newWalletOwner": "New wallet owner address"
        }
      },
      "beginWalletRegistryGovernanceTransfer(address)": {
        "details": "Can be called only by the contract owner."
      },
      "finalizeAuthorizationDecreaseChangePeriodUpdate()": {
        "details": "Can be called only by the contract owner, after the governance      delay elapses."
      },
      "finalizeAuthorizationDecreaseDelayUpdate()": {
        "details": "Can be called only by the contract owner, after the governance      delay elapses."
      },
      "finalizeDkgResultApprovalGasOffsetUpdate()": {
        "details": "Can be called only by the contract owner, after the governance      delay elapses."
      },
      "finalizeDkgResultChallengeExtraGasUpdate()": {
        "details": "Can be called only by the contract owner, after the governance      delay elapses."
      },
      "finalizeDkgResultChallengePeriodLengthUpdate()": {
        "details": "Can be called only by the contract owner, after the governance      delay elapses."
      },
      "finalizeDkgResultSubmissionGasUpdate()": {
        "details": "Can be called only by the contract owner, after the governance      delay elapses."
      },
      "finalizeDkgResultSubmissionTimeoutUpdate()": {
        "details": "Can be called only by the contract owner, after the governance      delay elapses."
      },
      "finalizeDkgSeedTimeoutUpdate()": {
        "details": "Can be called only by the contract owner, after the governance      delay elapses."
      },
      "finalizeDkgSubmitterPrecedencePeriodLengthUpdate()": {
        "details": "Can be called only by the contract owner, after the governance      delay elapses."
      },
      "finalizeGovernanceDelayUpdate()": {
        "details": "Can be called only by the contract owner, after the governance      delay elapses."
      },
      "finalizeMaliciousDkgResultNotificationRewardMultiplierUpdate()": {
        "details": "Can be called only by the contract owner, after the governance      delay elapses."
      },
      "finalizeMaliciousDkgResultSlashingAmountUpdate()": {
        "details": "Can be called only by the contract owner, after the governance      delay elapses."
      },
      "finalizeMinimumAuthorizationUpdate()": {
        "details": "Can be called only by the contract owner, after the governance      delay elapses."
      },
      "finalizeNotifyDkgTimeoutNegativeGasOffsetUpdate()": {
        "details": "Can be called only by the contract owner, after the governance      delay elapses."
      },
      "finalizeNotifyOperatorInactivityGasOffsetUpdate()": {
        "details": "Can be called only by the contract owner, after the governance      delay elapses."
      },
      "finalizeNotifySeedTimeoutGasOffsetUpdate()": {
        "details": "Can be called only by the contract owner, after the governance      delay elapses."
      },
      "finalizeReimbursementPoolUpdate()": {
        "details": "Can be called only by the contract owner, after the governance      delay elapses."
      },
      "finalizeSortitionPoolRewardsBanDurationUpdate()": {
        "details": "Can be called only by the contract owner, after the governance      delay elapses."
      },
      "finalizeWalletOwnerUpdate()": {
        "details": "Can be called only by the contract owner, after the governance      delay elapses."
      },
      "finalizeWalletRegistryGovernanceTransfer()": {
        "details": "Can be called only by the contract owner, after the governance      delay elapses."
      },
      "getRemainingAuthorizationDecreaseChangePeriodUpdateTime()": {
        "returns": {
          "_0": "Remaining time in seconds."
        }
      },
      "getRemainingAuthorizationDecreaseDelayUpdateTime()": {
        "returns": {
          "_0": "Remaining time in seconds."
        }
      },
      "getRemainingDkgResultApprovalGasOffsetUpdateTime()": {
        "returns": {
          "_0": "Remaining time in seconds."
        }
      },
      "getRemainingDkgResultChallengePeriodLengthUpdateTime()": {
        "returns": {
          "_0": "Remaining time in seconds."
        }
      },
      "getRemainingDkgResultSubmissionGasUpdateTime()": {
        "returns": {
          "_0": "Remaining time in seconds."
        }
      },
      "getRemainingDkgResultSubmissionTimeoutUpdateTime()": {
        "returns": {
          "_0": "Remaining time in seconds."
        }
      },
      "getRemainingDkgSeedTimeoutUpdateTime()": {
        "returns": {
          "_0": "Remaining time in seconds."
        }
      },
      "getRemainingDkgSubmitterPrecedencePeriodLengthUpdateTime()": {
        "returns": {
          "_0": "Remaining time in seconds."
        }
      },
      "getRemainingGovernanceDelayUpdateTime()": {
        "returns": {
          "_0": "Remaining time in seconds."
        }
      },
      "getRemainingMaliciousDkgResultNotificationRewardMultiplierUpdateTime()": {
        "returns": {
          "_0": "Remaining time in seconds."
        }
      },
      "getRemainingMaliciousDkgResultSlashingAmountUpdateTime()": {
        "returns": {
          "_0": "Remaining time in seconds."
        }
      },
      "getRemainingMimimumAuthorizationUpdateTime()": {
        "returns": {
          "_0": "Remaining time in seconds."
        }
      },
      "getRemainingNotifyDkgTimeoutNegativeGasOffsetUpdateTime()": {
        "returns": {
          "_0": "Remaining time in seconds."
        }
      },
      "getRemainingNotifyOperatorInactivityGasOffsetUpdateTime()": {
        "returns": {
          "_0": "Remaining time in seconds."
        }
      },
      "getRemainingNotifySeedTimeoutGasOffsetUpdateTime()": {
        "returns": {
          "_0": "Remaining time in seconds."
        }
      },
      "getRemainingReimbursementPoolUpdateTime()": {
        "returns": {
          "_0": "Remaining time in seconds."
        }
      },
      "getRemainingSortitionPoolRewardsBanDurationUpdateTime()": {
        "returns": {
          "_0": "Remaining time in seconds."
        }
      },
      "getRemainingWalletOwnerUpdateTime()": {
        "returns": {
          "_0": "Remaining time in seconds."
        }
      },
      "getRemainingWalletRegistryGovernanceTransferDelayTime()": {
        "returns": {
          "_0": "Remaining time in seconds."
        }
      },
      "initializeWalletOwner(address)": {
        "details": "Can be called only by the contract owner. It can be called only if      walletOwner has not been set before. It doesn't enforce a governance      delay for the initial update. Any subsequent updates should be performed      with beginWalletOwnerUpdate/finalizeWalletOwnerUpdate with respect      of a governance delay.",
        "params": {
          "_walletOwner": "The Wallet Owner's address"
        }
      },
      "owner()": {
        "details": "Returns the address of the current owner."
      },
      "renounceOwnership()": {
        "details": "Leaves the contract without owner. It will not be possible to call `onlyOwner` functions anymore. Can only be called by the current owner. NOTE: Renouncing ownership will leave the contract without an owner, thereby removing any functionality that is only available to the owner."
      },
      "transferOwnership(address)": {
        "details": "Transfers ownership of the contract to a new account (`newOwner`). Can only be called by the current owner."
      },
      "upgradeRandomBeacon(address)": {
        "details": "Can be called only by the contract owner.",
        "params": {
          "_newRandomBeacon": "New random beacon address"
        }
      },
      "withdrawIneligibleRewards(address)": {
        "details": "Can be called only by the contract owner.",
        "params": {
          "recipient": "Recipient of withdrawn rewards."
        }
      }
    },
    "title": "Wallet Registry Governance",
    "version": 1
  },
  "userdoc": {
    "kind": "user",
    "methods": {
      "beginAuthorizationDecreaseChangePeriodUpdate(uint64)": {
        "notice": "Begins the authorization decrease change period update process."
      },
      "beginAuthorizationDecreaseDelayUpdate(uint64)": {
        "notice": "Begins the authorization decrease delay update process."
      },
      "beginDkgResultApprovalGasOffsetUpdate(uint256)": {
        "notice": "Begins the dkg approval gas offset update process."
      },
      "beginDkgResultChallengeExtraGasUpdate(uint256)": {
        "notice": "Begins the DKG result challenge extra gas update process."
      },
      "beginDkgResultChallengePeriodLengthUpdate(uint256)": {
        "notice": "Begins the DKG result challenge period length update process."
      },
      "beginDkgResultSubmissionGasUpdate(uint256)": {
        "notice": "Begins the dkg result submission gas update process."
      },
      "beginDkgResultSubmissionTimeoutUpdate(uint256)": {
        "notice": "Begins the DKG result submission timeout update         process."
      },
      "beginDkgSeedTimeoutUpdate(uint256)": {
        "notice": "Begins the DKG seed timeout update process."
      },
      "beginDkgSubmitterPrecedencePeriodLengthUpdate(uint256)": {
        "notice": "Begins the DKG submitter precedence period length update         process."
      },
      "beginGovernanceDelayUpdate(uint256)": {
        "notice": "Begins the governance delay update process."
      },
      "beginMaliciousDkgResultNotificationRewardMultiplierUpdate(uint256)": {
        "notice": "Begins the DKG malicious result notification reward multiplier         update process."
      },
      "beginMaliciousDkgResultSlashingAmountUpdate(uint96)": {
        "notice": "Begins the malicious DKG result slashing amount update process."
      },
      "beginMinimumAuthorizationUpdate(uint96)": {
        "notice": "Begins the minimum authorization amount update process."
      },
      "beginNotifyDkgTimeoutNegativeGasOffsetUpdate(uint256)": {
        "notice": "Begins the notify DKG timeout negative gas offset update process."
      },
      "beginNotifyOperatorInactivityGasOffsetUpdate(uint256)": {
        "notice": "Begins the notify operator inactivity gas offset update process."
      },
      "beginNotifySeedTimeoutGasOffsetUpdate(uint256)": {
        "notice": "Begins the notify seed for DKG delivery timeout gas offset update         process."
      },
      "beginReimbursementPoolUpdate(address)": {
        "notice": "Begins the reimbursement pool update process."
      },
      "beginSortitionPoolRewardsBanDurationUpdate(uint256)": {
        "notice": "Begins the sortition pool rewards ban duration update process."
      },
      "beginWalletOwnerUpdate(address)": {
        "notice": "Begins the wallet owner update process."
      },
      "beginWalletRegistryGovernanceTransfer(address)": {
        "notice": "Begins the wallet registry governance transfer process."
      },
      "finalizeAuthorizationDecreaseChangePeriodUpdate()": {
        "notice": "Finalizes the authorization decrease change period update process."
      },
      "finalizeAuthorizationDecreaseDelayUpdate()": {
        "notice": "Finalizes the authorization decrease delay update process."
      },
      "finalizeDkgResultApprovalGasOffsetUpdate()": {
        "notice": "Finalizes the dkg result approval gas offset update process."
      },
      "finalizeDkgResultChallengeExtraGasUpdate()": {
        "notice": "Finalizes the DKG result challenge extra gas update process."
      },
      "finalizeDkgResultChallengePeriodLengthUpdate()": {
        "notice": "Finalizes the DKG result challenge period length update process."
      },
      "finalizeDkgResultSubmissionGasUpdate()": {
        "notice": "Finalizes the dkg result submission gas update process."
      },
      "finalizeDkgResultSubmissionTimeoutUpdate()": {
        "notice": "Finalizes the DKG result submission timeout update         process."
      },
      "finalizeDkgSeedTimeoutUpdate()": {
        "notice": "Finalizes the DKG seed timeout update process."
      },
      "finalizeDkgSubmitterPrecedencePeriodLengthUpdate()": {
        "notice": "Finalizes the DKG submitter precedence period length update         process."
      },
      "finalizeGovernanceDelayUpdate()": {
        "notice": "Finalizes the governance delay update process."
      },
      "finalizeMaliciousDkgResultNotificationRewardMultiplierUpdate()": {
        "notice": "Finalizes the DKG malicious result notification reward         multiplier update process."
      },
      "finalizeMaliciousDkgResultSlashingAmountUpdate()": {
        "notice": "Finalizes the malicious DKG result slashing amount update         process."
      },
      "finalizeMinimumAuthorizationUpdate()": {
        "notice": "Finalizes the minimum authorization amount update process."
      },
      "finalizeNotifyDkgTimeoutNegativeGasOffsetUpdate()": {
        "notice": "Finalizes the notify DKG timeout negative gas offset update process."
      },
      "finalizeNotifyOperatorInactivityGasOffsetUpdate()": {
        "notice": "Finalizes the notify operator inactivity gas offset update process."
      },
      "finalizeNotifySeedTimeoutGasOffsetUpdate()": {
        "notice": "Finalizes the notify seed for DKG delivery timeout gas offset         update process."
      },
      "finalizeReimbursementPoolUpdate()": {
        "notice": "Finalizes the reimbursement pool update process."
      },
      "finalizeSortitionPoolRewardsBanDurationUpdate()": {
        "notice": "Finalizes the sortition pool rewards ban duration update process."
      },
      "finalizeWalletOwnerUpdate()": {
        "notice": "Finalizes the wallet owner update process."
      },
      "finalizeWalletRegistryGovernanceTransfer()": {
        "notice": "Finalizes the wallet registry governance transfer process."
      },
      "getRemainingAuthorizationDecreaseChangePeriodUpdateTime()": {
        "notice": "Get the time remaining until the authorization decrease change         period can be updated."
      },
      "getRemainingAuthorizationDecreaseDelayUpdateTime()": {
        "notice": "Get the time remaining until the authorization decrease delay         can be updated."
      },
      "getRemainingDkgResultApprovalGasOffsetUpdateTime()": {
        "notice": "Get the time remaining until the dkg result approval gas offset         can be updated."
      },
      "getRemainingDkgResultChallengePeriodLengthUpdateTime()": {
        "notice": "Get the time remaining until the DKG result challenge period         length can be updated."
      },
      "getRemainingDkgResultSubmissionGasUpdateTime()": {
        "notice": "Get the time remaining until the dkg result submission gas can         be updated."
      },
      "getRemainingDkgResultSubmissionTimeoutUpdateTime()": {
        "notice": "Get the time remaining until the DKG result submission timeout         can be updated."
      },
      "getRemainingDkgSeedTimeoutUpdateTime()": {
        "notice": "Get the time remaining until the DKG seed timeout can be updated."
      },
      "getRemainingDkgSubmitterPrecedencePeriodLengthUpdateTime()": {
        "notice": "Get the time remaining until the wallet owner can be updated."
      },
      "getRemainingGovernanceDelayUpdateTime()": {
        "notice": "Get the time remaining until the governance delay can be updated."
      },
      "getRemainingMaliciousDkgResultNotificationRewardMultiplierUpdateTime()": {
        "notice": "Get the time remaining until the DKG malicious result         notification reward multiplier duration can be updated."
      },
      "getRemainingMaliciousDkgResultSlashingAmountUpdateTime()": {
        "notice": "Get the time remaining until the malicious DKG result         slashing amount can be updated."
      },
      "getRemainingMimimumAuthorizationUpdateTime()": {
        "notice": "Get the time remaining until the minimum authorization amount         can be updated."
      },
      "getRemainingNotifyDkgTimeoutNegativeGasOffsetUpdateTime()": {
        "notice": "Get the time remaining until the DKG timeout negative gas offset         can be updated."
      },
      "getRemainingNotifyOperatorInactivityGasOffsetUpdateTime()": {
        "notice": "Get the time remaining until the operator inactivity gas offset         can be updated."
      },
      "getRemainingNotifySeedTimeoutGasOffsetUpdateTime()": {
        "notice": "Get the time remaining until the seed for DKG delivery timeout gas offset can be updated."
      },
      "getRemainingReimbursementPoolUpdateTime()": {
        "notice": "Get the time remaining until reimbursement pool can be updated."
      },
      "getRemainingSortitionPoolRewardsBanDurationUpdateTime()": {
        "notice": "Get the time remaining until the sortition pool rewards ban         duration can be updated."
      },
      "getRemainingWalletOwnerUpdateTime()": {
        "notice": "Get the time remaining until the wallet owner can be updated."
      },
      "getRemainingWalletRegistryGovernanceTransferDelayTime()": {
        "notice": "Get the time remaining until the wallet registry governance can         be transferred."
      },
      "initializeWalletOwner(address)": {
        "notice": "Initializes the Wallet Owner's address."
      },
      "upgradeRandomBeacon(address)": {
        "notice": "Upgrades the random beacon."
      },
      "withdrawIneligibleRewards(address)": {
        "notice": "Withdraws rewards belonging to operators marked as ineligible         for sortition pool rewards."
      }
    },
    "notice": "Owns the `WalletRegistry` contract and is responsible for updating         its governable parameters in respect to the governance delay.",
    "version": 1
  },
  "storageLayout": {
    "storage": [
      {
        "astId": 7288,
        "contract": "contracts/WalletRegistryGovernance.sol:WalletRegistryGovernance",
        "label": "_owner",
        "offset": 0,
        "slot": "0",
        "type": "t_address"
      },
      {
        "astId": 15039,
        "contract": "contracts/WalletRegistryGovernance.sol:WalletRegistryGovernance",
        "label": "newGovernanceDelay",
        "offset": 0,
        "slot": "1",
        "type": "t_uint256"
      },
      {
        "astId": 15041,
        "contract": "contracts/WalletRegistryGovernance.sol:WalletRegistryGovernance",
        "label": "governanceDelayChangeInitiated",
        "offset": 0,
        "slot": "2",
        "type": "t_uint256"
      },
      {
        "astId": 15043,
        "contract": "contracts/WalletRegistryGovernance.sol:WalletRegistryGovernance",
        "label": "newWalletRegistryGovernance",
        "offset": 0,
        "slot": "3",
        "type": "t_address"
      },
      {
        "astId": 15045,
        "contract": "contracts/WalletRegistryGovernance.sol:WalletRegistryGovernance",
        "label": "walletRegistryGovernanceTransferInitiated",
        "offset": 0,
        "slot": "4",
        "type": "t_uint256"
      },
      {
        "astId": 15047,
        "contract": "contracts/WalletRegistryGovernance.sol:WalletRegistryGovernance",
        "label": "newWalletOwner",
        "offset": 0,
        "slot": "5",
        "type": "t_address"
      },
      {
        "astId": 15049,
        "contract": "contracts/WalletRegistryGovernance.sol:WalletRegistryGovernance",
        "label": "walletOwnerChangeInitiated",
        "offset": 0,
        "slot": "6",
        "type": "t_uint256"
      },
      {
        "astId": 15051,
        "contract": "contracts/WalletRegistryGovernance.sol:WalletRegistryGovernance",
        "label": "newMinimumAuthorization",
        "offset": 0,
        "slot": "7",
        "type": "t_uint96"
      },
      {
        "astId": 15053,
        "contract": "contracts/WalletRegistryGovernance.sol:WalletRegistryGovernance",
        "label": "minimumAuthorizationChangeInitiated",
        "offset": 0,
        "slot": "8",
        "type": "t_uint256"
      },
      {
        "astId": 15055,
        "contract": "contracts/WalletRegistryGovernance.sol:WalletRegistryGovernance",
        "label": "newAuthorizationDecreaseDelay",
        "offset": 0,
        "slot": "9",
        "type": "t_uint64"
      },
      {
        "astId": 15057,
        "contract": "contracts/WalletRegistryGovernance.sol:WalletRegistryGovernance",
        "label": "authorizationDecreaseDelayChangeInitiated",
        "offset": 0,
        "slot": "10",
        "type": "t_uint256"
      },
      {
        "astId": 15059,
        "contract": "contracts/WalletRegistryGovernance.sol:WalletRegistryGovernance",
        "label": "newAuthorizationDecreaseChangePeriod",
        "offset": 0,
        "slot": "11",
        "type": "t_uint64"
      },
      {
        "astId": 15061,
        "contract": "contracts/WalletRegistryGovernance.sol:WalletRegistryGovernance",
        "label": "authorizationDecreaseChangePeriodChangeInitiated",
        "offset": 0,
        "slot": "12",
        "type": "t_uint256"
      },
      {
        "astId": 15063,
        "contract": "contracts/WalletRegistryGovernance.sol:WalletRegistryGovernance",
        "label": "newMaliciousDkgResultSlashingAmount",
        "offset": 0,
        "slot": "13",
        "type": "t_uint96"
      },
      {
        "astId": 15065,
        "contract": "contracts/WalletRegistryGovernance.sol:WalletRegistryGovernance",
        "label": "maliciousDkgResultSlashingAmountChangeInitiated",
        "offset": 0,
        "slot": "14",
        "type": "t_uint256"
      },
      {
        "astId": 15067,
        "contract": "contracts/WalletRegistryGovernance.sol:WalletRegistryGovernance",
        "label": "newMaliciousDkgResultNotificationRewardMultiplier",
        "offset": 0,
        "slot": "15",
        "type": "t_uint256"
      },
      {
        "astId": 15069,
        "contract": "contracts/WalletRegistryGovernance.sol:WalletRegistryGovernance",
        "label": "maliciousDkgResultNotificationRewardMultiplierChangeInitiated",
        "offset": 0,
        "slot": "16",
        "type": "t_uint256"
      },
      {
        "astId": 15071,
        "contract": "contracts/WalletRegistryGovernance.sol:WalletRegistryGovernance",
        "label": "newSortitionPoolRewardsBanDuration",
        "offset": 0,
        "slot": "17",
        "type": "t_uint256"
      },
      {
        "astId": 15073,
        "contract": "contracts/WalletRegistryGovernance.sol:WalletRegistryGovernance",
        "label": "sortitionPoolRewardsBanDurationChangeInitiated",
        "offset": 0,
        "slot": "18",
        "type": "t_uint256"
      },
      {
        "astId": 15075,
        "contract": "contracts/WalletRegistryGovernance.sol:WalletRegistryGovernance",
        "label": "newDkgSeedTimeout",
        "offset": 0,
        "slot": "19",
        "type": "t_uint256"
      },
      {
        "astId": 15077,
        "contract": "contracts/WalletRegistryGovernance.sol:WalletRegistryGovernance",
        "label": "dkgSeedTimeoutChangeInitiated",
        "offset": 0,
        "slot": "20",
        "type": "t_uint256"
      },
      {
        "astId": 15079,
        "contract": "contracts/WalletRegistryGovernance.sol:WalletRegistryGovernance",
        "label": "newDkgResultChallengePeriodLength",
        "offset": 0,
        "slot": "21",
        "type": "t_uint256"
      },
      {
        "astId": 15081,
        "contract": "contracts/WalletRegistryGovernance.sol:WalletRegistryGovernance",
        "label": "dkgResultChallengePeriodLengthChangeInitiated",
        "offset": 0,
        "slot": "22",
        "type": "t_uint256"
      },
      {
        "astId": 15083,
        "contract": "contracts/WalletRegistryGovernance.sol:WalletRegistryGovernance",
        "label": "newDkgResultChallengeExtraGas",
        "offset": 0,
        "slot": "23",
        "type": "t_uint256"
      },
      {
        "astId": 15085,
        "contract": "contracts/WalletRegistryGovernance.sol:WalletRegistryGovernance",
        "label": "dkgResultChallengeExtraGasChangeInitiated",
        "offset": 0,
        "slot": "24",
        "type": "t_uint256"
      },
      {
        "astId": 15087,
        "contract": "contracts/WalletRegistryGovernance.sol:WalletRegistryGovernance",
        "label": "newDkgResultSubmissionTimeout",
        "offset": 0,
        "slot": "25",
        "type": "t_uint256"
      },
      {
        "astId": 15089,
        "contract": "contracts/WalletRegistryGovernance.sol:WalletRegistryGovernance",
        "label": "dkgResultSubmissionTimeoutChangeInitiated",
        "offset": 0,
        "slot": "26",
        "type": "t_uint256"
      },
      {
        "astId": 15091,
        "contract": "contracts/WalletRegistryGovernance.sol:WalletRegistryGovernance",
        "label": "newSubmitterPrecedencePeriodLength",
        "offset": 0,
        "slot": "27",
        "type": "t_uint256"
      },
      {
        "astId": 15093,
        "contract": "contracts/WalletRegistryGovernance.sol:WalletRegistryGovernance",
        "label": "dkgSubmitterPrecedencePeriodLengthChangeInitiated",
        "offset": 0,
        "slot": "28",
        "type": "t_uint256"
      },
      {
        "astId": 15095,
        "contract": "contracts/WalletRegistryGovernance.sol:WalletRegistryGovernance",
        "label": "newDkgResultSubmissionGas",
        "offset": 0,
        "slot": "29",
        "type": "t_uint256"
      },
      {
        "astId": 15097,
        "contract": "contracts/WalletRegistryGovernance.sol:WalletRegistryGovernance",
        "label": "dkgResultSubmissionGasChangeInitiated",
        "offset": 0,
        "slot": "30",
        "type": "t_uint256"
      },
      {
        "astId": 15099,
        "contract": "contracts/WalletRegistryGovernance.sol:WalletRegistryGovernance",
        "label": "newDkgResultApprovalGasOffset",
        "offset": 0,
        "slot": "31",
        "type": "t_uint256"
      },
      {
        "astId": 15101,
        "contract": "contracts/WalletRegistryGovernance.sol:WalletRegistryGovernance",
        "label": "dkgResultApprovalGasOffsetChangeInitiated",
        "offset": 0,
        "slot": "32",
        "type": "t_uint256"
      },
      {
        "astId": 15103,
        "contract": "contracts/WalletRegistryGovernance.sol:WalletRegistryGovernance",
        "label": "newNotifyOperatorInactivityGasOffset",
        "offset": 0,
        "slot": "33",
        "type": "t_uint256"
      },
      {
        "astId": 15105,
        "contract": "contracts/WalletRegistryGovernance.sol:WalletRegistryGovernance",
        "label": "notifyOperatorInactivityGasOffsetChangeInitiated",
        "offset": 0,
        "slot": "34",
        "type": "t_uint256"
      },
      {
        "astId": 15107,
        "contract": "contracts/WalletRegistryGovernance.sol:WalletRegistryGovernance",
        "label": "newNotifySeedTimeoutGasOffset",
        "offset": 0,
        "slot": "35",
        "type": "t_uint256"
      },
      {
        "astId": 15109,
        "contract": "contracts/WalletRegistryGovernance.sol:WalletRegistryGovernance",
        "label": "notifySeedTimeoutGasOffsetChangeInitiated",
        "offset": 0,
        "slot": "36",
        "type": "t_uint256"
      },
      {
        "astId": 15111,
        "contract": "contracts/WalletRegistryGovernance.sol:WalletRegistryGovernance",
        "label": "newNotifyDkgTimeoutNegativeGasOffset",
        "offset": 0,
        "slot": "37",
        "type": "t_uint256"
      },
      {
        "astId": 15113,
        "contract": "contracts/WalletRegistryGovernance.sol:WalletRegistryGovernance",
        "label": "notifyDkgTimeoutNegativeGasOffsetChangeInitiated",
        "offset": 0,
        "slot": "38",
        "type": "t_uint256"
      },
      {
        "astId": 15115,
        "contract": "contracts/WalletRegistryGovernance.sol:WalletRegistryGovernance",
        "label": "newReimbursementPool",
        "offset": 0,
        "slot": "39",
        "type": "t_address_payable"
      },
      {
        "astId": 15117,
        "contract": "contracts/WalletRegistryGovernance.sol:WalletRegistryGovernance",
        "label": "reimbursementPoolChangeInitiated",
        "offset": 0,
        "slot": "40",
        "type": "t_uint256"
      },
      {
        "astId": 15122,
        "contract": "contracts/WalletRegistryGovernance.sol:WalletRegistryGovernance",
        "label": "governanceDelay",
        "offset": 0,
        "slot": "41",
        "type": "t_uint256"
      }
    ],
    "types": {
      "t_address": {
        "encoding": "inplace",
        "label": "address",
        "numberOfBytes": "20"
      },
      "t_address_payable": {
        "encoding": "inplace",
        "label": "address payable",
        "numberOfBytes": "20"
      },
      "t_uint256": {
        "encoding": "inplace",
        "label": "uint256",
        "numberOfBytes": "32"
      },
      "t_uint64": {
        "encoding": "inplace",
        "label": "uint64",
        "numberOfBytes": "8"
      },
      "t_uint96": {
        "encoding": "inplace",
        "label": "uint96",
        "numberOfBytes": "12"
      }
    }
  }
}